:10000000008000104D410000F5400000E56A01004D
:10001000FD4000000141000005410000D6CFFCEF8B
:100020000000000000000000000000000941000086
:100030000D4100000000000011410000996F010017
:100040001941000019410000194100001941000048
:100050001941000019410000494F0100594F0100AA
:10006000796C01001941000019410000194100009C
:100070001941000019410000194100001941000018
:100080001941000019410000194100001941000008
:1000900019410000194100001941000019410000F8
:1000A00019410000194100001941000019410000E8
:1000B000EDB5000019410000194100001941000090
:1000C00019410000194100001941000070F90100B8
:1000D000000000102C03000070F9010000C0072090
:1000E00000000000300300102029000000C007209D
:1000F0005C710000FEE700BFFEE700BFFEE700BF47
:10010000FEE700BFFEE700BFFEE700BFFEE700BF5F
:10011000FEE700BFFEE700BFFEE700BF10B400230C
:1001200004E004680C600433043004319342F8D3D3
:100130005DF8044B704700BF00231A4602E00260DE
:10014000043304308B42FAD3704700BF38B54FF008
:1001500080531C4AAD20DE2106E013F0010F01D0D0
:10016000196000E0186001339342F6D9164B174A24
:10017000AB20BE2106E013F0010F01D0196000E0B2
:10018000186001339342F6D9114B124C07E003F18A
:100190000C05186859689A68FFF7C0FF2B46A34200
:1001A000F5D307E01C4654F8080B5968FFF7C4FF65
:1001B000234600E0084DAB42F4D312F0EDFF13F0FC
:1001C0006BF8FEE7FE7D001000C00720FE3D082012
:1001D000CC400000E4400000F4400000FFFFFFFFBF
:1001E000FFFFFFFFFFFFFFFFFFFFFFFFFFFFFFFF1F
:1001F000FFFFFFFFFFFFFFFFFFFFFFFFFFFFFFFF0F
:10020000FFFFFFFFFFFFFFFFFFFFFFFFFFFFFFFFFE
:10021000FFFFFFFFFFFFFFFFFFFFFFFFFFFFFFFFEE
:10022000FFFFFFFFFFFFFFFFFFFFFFFFFFFFFFFFDE
:10023000FFFFFFFFFFFFFFFFFFFFFFFFFFFFFFFFCE
:10024000FFFFFFFFFFFFFFFFFFFFFFFFFFFFFFFFBE
:10025000FFFFFFFFFFFFFFFFFFFFFFFFFFFFFFFFAE
:10026000FFFFFFFFFFFFFFFFFFFFFFFFFFFFFFFF9E
:10027000FFFFFFFFFFFFFFFFFFFFFFFFFFFFFFFF8E
:10028000FFFFFFFFFFFFFFFFFFFFFFFFFFFFFFFF7E
:10029000FFFFFFFFFFFFFFFFFFFFFFFFFFFFFFFF6E
:1002A000FFFFFFFFFFFFFFFFFFFFFFFFFFFFFFFF5E
:1002B000FFFFFFFFFFFFFFFFFFFFFFFFFFFFFFFF4E
:1002C000FFFFFFFFFFFFFFFFFFFFFFFFFFFFFFFF3E
:1002D000FFFFFFFFFFFFFFFFFFFFFFFFFFFFFFFF2E
:1002E000FFFFFFFFFFFFFFFFFFFFFFFFFFFFFFFF1E
:1002F000FFFFFFFFFFFFFFFFFFFFFFFFFFFFFFFF0E
:1003000010B584B0204B18680390002002F0A0F8CC
:100310001E4C20460621052204F09AFF20460021AB
:10032000432204F095FF204605F05AF8184B1B882D
:100330005BB9184B1878184B197801F067F9024629
:100340000398164904F0AEFF13E0124B1878124BD5
:10035000197801F05BF902460D4BB3F90030632BBD
:1003600001DC0F4900E00F49009103980E4904F0A9
:1003700099FF064C20460621012204F069FF204621
:1003800005F02EF804B010BD4CA70100A810001015
:100390007C1000109A100010890000105CA701006A
:1003A00058A7010098D601006CA701002DE9F04183
:1003B00084B0704B586803900024ADF808401422B4
:1003C000ADF80A209868019004F028FD6A4D28468F
:1003D0002146432204F03CFF284605F001F8674B14
:1003E0001A68121B18BF0122654B1A70634D654FC6
:1003F000654E286801F01EFD286000284DD0037965
:10040000022B02D0062B22D042E090F814803878DC
:10041000317801F021FA034603985C49424604F022
:1004200041FF0298019904F055FDBDF80E301433D8
:10043000ADF80E30BDF80A301433ADF80A30BDF80F
:1004400006301433ADF806300134E4B220E090F801
:1004500014803878317801F01BFA034603984B4931
:10046000424604F01FFF0298019904F033FDBDF8E5
:100470000E301433ADF80E30BDF80A301433ADF839
:100480000A30BDF806301433ADF806300134E4B25A
:10049000022CAED901223A4B1A706CB9394B18783C
:1004A000394B197801F0C0F80146039804F0FAFEC0
:1004B0000298019904F00EFD4B23ADF80A306E232B
:1004C000ADF806300298019904F0E4FC2A4C20466D
:1004D0000621052204F0BCFE204604F081FF5023D3
:1004E000ADF80E30274F284E3878317801F01AF9E0
:1004F0000146039804F0D6FEFFF702FF20460621CE
:10050000012204F0A5FE204600214C2204F0A0FEAA
:10051000204604F065FF7123ADF80E300025ADF8DC
:100520000C500120317801F019F90246039818495E
:1005300004F0B8FE20462946522204F089FE2046E7
:1005400004F04EFFF023ADF80C303878317801F02C
:10055000F7F8024603980F4904F0A4FE2046294606
:10056000432204F075FE204604F03AFF04B0BDE8D3
:10057000F08100BF4CA70100A81000103403001048
:10058000300300109A100010890000107CA70100B1
:1005900084A701008CA70100F8B504460D46164655
:1005A000564810F08DF818B15448642110F078F8CE
:1005B00023884C2B69D05D2B00F09480002B40F0F9
:1005C00095804E48642110F06BF800224C4B1A8045
:1005D000FFF7ECFE012004F0BFFF4A4840F2DC5177
:1005E00010F05EF848484FF42F7110F083F87BE06C
:1005F00002F0A8F9454B1B789D4206D1FFF7D6FEC5
:1006000041484FF42F7110F075F8882D16D13D48F0
:1006100010F056F838B13E4B1B7823B100223C4B0A
:100620001A70FFF7C3FE384810F072F830B1FFF7C8
:10063000BDFE35484FF42F7110F05CF8354B1B7838
:100640009D424BD12846314604F0EEFF074658281C
:1006500008D100252A4B1D802F4801F0EDFC258094
:100660000220F8BD562820D1254B187801F0ACFBAC
:1006700030B12A4801F0E0FC002323800220F8BDBD
:100680000022274B1A804C232380214B1878254BBE
:10069000197800F0ADFF01F021FF01282AD90022CE
:1006A000174B1A80FFF782FE16E0092814D8154868
:1006B00040F2DC510FF0F4FF114AB2F9003003EBC5
:1006C00083035B003B449BB213801BB2B3F57A7F7C
:1006D00002DB00220A4B1A80FFF712FE5D23238003
:1006E000002300E001233BB1832D81D1002323802F
:1006F0000320F8BD0020F8BD0120F8BD380300102C
:100700007C10001048030010580300107E100010E9
:100710009A10001091110010140000102800001011
:10072000C01000108900001070B584B06E4B53F8F3
:10073000040B0025ADF80850ADF80A501868019078
:1007400004F06CFB0298019904F0A4FB674C20466E
:100750000621032204F07CFD204604F041FE7823AC
:10076000ADF80C300523ADF80E30614E614B1878B2
:10077000317801F001F80146039804F093FD20461A
:100780000621012204F064FD204604F029FE3078A1
:10079000294602F045F800B30A23ADF80C301E23B9
:1007A000ADF80E3003985449012204F07BFD782304
:1007B000ADF80C302846317800F0ECFF0146039884
:1007C00004F070FD3223ADF80A30ADF8063002981F
:1007D000019904F07FFB022400E00124444B1878C7
:1007E000012102F01DF830B30A23ADF80C30BDF83A
:1007F0000E501935ADB2ADF80E50661CF6B2039826
:100800003D49224604F04EFD7823ADF80C3001201E
:10081000374B197800F0CCFF0146039804F042FDF5
:100820001435ADB2ADF80A50ADF8065002980199F2
:1008300004F050FB34462E4B1878022101F0F0FFF3
:1008400030B30A23ADF80C30BDF80E501935ADB2F7
:10085000ADF80E50661CF6B203982749224604F004
:1008600021FD7823ADF80C300220214B197800F0DF
:10087000ADFF0146039804F015FD1435ADB2ADF897
:100880000A50ADF806500298019904F023FB344653
:10089000174B1878032101F0C3FF18B30A23ADF8F2
:1008A0000C30BDF80E501935ADB2ADF80E500398AE
:1008B0001149224604F0F6FC7823ADF80C300320F1
:1008C0000B4B197800F090FF0146039804F0EAFC06
:1008D0001435ADB2ADF80A50ADF806500298019942
:1008E00004F0F8FA04B070BDA0A70100A810001031
:1008F000890000109A100010A8A701002DE9F0410E
:1009000004460D461646038813B1562B64D067E0A3
:10091000FFF70AFF012004F01FFE0020012103F071
:1009200029FD334840F2DC510FF0BAFE56E0314B5E
:100930001B789D4243D196F800802F4B18780021F8
:1009400001F06EFF50B1B8F1010F09D100222B4B1D
:100950001A702B4801F070FB022702E0012700E02B
:100960000227254B1878012101F05AFF48B147456D
:1009700005D10122214B1A70214801F05DFB01379E
:10098000FFB21D4B1878022101F04AFF48B14745DC
:1009900005D10122194B1A70194801F04DFB01379E
:1009A000FFB2154B1878032101F03AFF38B14745E3
:1009B00005D10322114B1A70114801F03DFB882D1F
:1009C00006D10B480FF07CFE10B10D4801F034FB4E
:1009D00056232380002300E0012333B1832DA6D1C9
:1009E000002323800320BDE8F0810120BDE8F081D1
:1009F000E822001091110010890000109A100010D8
:100A0000000000102DE9F04F85B002460E46824BE3
:100A100053F8040B03900021ADF808101121ADF834
:100A20000A10186801900AB104F0F8F97B4C2046CE
:100A30000021432204F00CFC20460621042204F08D
:100A400007FC204604F0CCFC3378062B3FD8DFE8C7
:100A500003F00404131E291E3400714B1878714BE7
:100A6000197800F0D3FD024603986F496F4BB3F934
:100A7000003004F017FC2AE0694B1878694B1978AC
:100A800000F0CEFE0146039804F00CFC1FE0644B1E
:100A90001878644B197800F0B5FE0146039804F00D
:100AA00001FC14E05E4B18785E4B197800F0C6FE2E
:100AB0000146039804F0F6FB09E0594B1878594BAE
:100AC000197800F0E5FE0146039804F0EBFB02986C
:100AD000019904F0FFF9514C204600214C2204F00A
:100AE000B7FB204604F07CFC1423ADF80C30132334
:100AF000ADF80E303378062B3AD8DFE803F0041F48
:100B0000040404390400464D464C2878217800F04E
:100B100099FD02460398464904F0C4FB8C23ADF8C6
:100B20000C302878217800F09BFD0246039841495B
:100B300004F0B8FB1423ADF80C3019E0384D394CF3
:100B40002878217800F07EFD02460398384904F0A9
:100B5000A9FB8C23ADF80C302878217800F08EFDAD
:100B600002460398334904F09DFB1423ADF80C3082
:100B70007388ABB12223ADF80E30294B1878294B7E
:100B8000197800F089FD02460398294904F08AFB90
:100B90008C23ADF80C3003982749728804F082FB4F
:100BA0001423ADF80C30BDF80E700F37BFB2ADF89E
:100BB0000E70B088B0F57A7F44D2DFF86490DFF829
:100BC000648099F8000098F8001000F073FD024668
:100BD000174D0398294604F065FB8C24ADF80C40B2
:100BE0000398164904F05EFB1423ADF80C300F3760
:100BF000ADF80E7099F8000098F8001000F068FD4C
:100C000002460398294604F04DFBADF80C400398CA
:100C10000B4904F047FB50E0BCA70100A8100010EE
:100C20009A10001089000010C4A701007C10001069
:100C3000CCA7010074A70100D4A70100DCA7010024
:100C4000E8A7010015F018FC00225F4B15F01EF913
:100C500004460D46DFF87CB1DFF87CA19BF800006C
:100C60009AF8001000F026FD0246DFF87091039814
:100C7000494604F017FB4FF08C08ADF80C80039840
:100C8000524922462B4604F00DFB1423ADF80C30DC
:100C90000F37ADF80E709BF800009AF8001000F0C6
:100CA00017FD02460398494604F0FCFAADF80C80A3
:100CB00003984749F28804F0F5FAB368F3B11423B6
:100CC000ADF80C30BDF80E300F33ADF80E30414B9F
:100CD0001878414B197800F0E9FD024603983F4926
:100CE00004F0E0FA8C23ADF80C30B3683C4AA2FB68
:100CF000031203983B49920904F0D4FA1423ADF887
:100D00000C30BDF80E300F33ADF80E30F06815F032
:100D1000B3FB00222C4B15F0B9F804460D46DFF862
:100D2000B4802D4F98F80000397800F0CDFD0246D0
:100D300003982A4904F0B6FA8C23ADF80C300398D6
:100D4000294922462B4604F0ADFA6E23ADF80A304D
:100D5000ADF806300298019904F0BCF87123ADF8A3
:100D60000E300023ADF80C3098F80000397800F010
:100D7000BDFC024603981D4904F094FA3378012B18
:100D800015D0F023ADF80C30194C2046002152222A
:100D900004F05EFA204604F023FB98F8000039784E
:100DA00000F0B2FC02460398124904F07BFA104CA2
:100DB00020460021432204F04BFA204604F010FBA9
:100DC00005B0BDE8F08F00BF00408F40F4A70100E0
:100DD00000A801009A10001089000010CCA70100A3
:100DE000D34D621008A8010014A8010084A70100D7
:100DF000A81000108CA701002DE9F043DBB00446D9
:100E00000D461646B4480FF05BFC18B1B248642199
:100E10000FF046FC2388492B00F07E810ED8302B42
:100E200000F0928003D8DBB1282B47D092E3382B17
:100E300000F0D080402B00F013818BE3802B00F07A
:100E4000378306D8522B00F0AD817A2B00F01A833D
:100E500080E3892B00F05283922B00F0768379E3B4
:100E60009D4864210FF01CFC012001F0F1FADFF82D
:100E7000908206A8994998F8002009F09BF801464D
:100E80000CAF384609F0BCFA954BD3F8009098F8AF
:100E9000000000F0ABFFCDF80C9001230493059007
:100EA0000FAB93E807008DE8070097E80E000BA84A
:100EB00007F0B6FC40B1282323808025894B1B789E
:100EC0009D4240F04B830B960B9BB3F91030B3F56A
:100ED000617F2FD1DFF8288298F8000000F098FF9A
:100EE0000746814B18600B9809F078FA387006A80D
:100EF0007E4998F8002009F05DF8014612AF3846A7
:100F000009F07EFA764BD3F8009098F8000000F0D4
:100F10006DFFCDF80C9001230493059015AB93E879
:100F200007008DE8070097E80E000BA807F078FC93
:100F300038B90FE06E4801F07FF8002323800220CB
:100F40001FE3302323808025664B1B789D4240F0B1
:100F500007830B960B9BB3F91030B3F5617F2FD14C
:100F6000DFF89C8198F8000000F052FF07465E4BC6
:100F700018600B9809F032FA788006A85D4998F855
:100F8000002009F017F8014618AF384609F038FA82
:100F9000534BD3F8009098F8000000F027FFCDF8ED
:100FA0000C900123049305901BAB93E807008DE898
:100FB000070097E80E000BA807F032FC38B90FE0E5
:100FC0004B4801F039F8002323800220D9E238236E
:100FD00023808025434B1B789D4240F0C3820B96B3
:100FE0000B9BB3F91030B3F5617F2FD1DFF810817F
:100FF00098F8000000F00CFF07463B4B18600B9878
:1010000009F0ECF9B88006A83B4998F8002008F0F0
:10101000D1FF01461EAF384609F0F2F9304BD3F844
:10102000009098F8000000F0E1FECDF80C9001234C
:101030000493059021AB93E807008DE8070097E83B
:101040000E000BA807F0ECFB38B90FE0284800F0C1
:10105000F3FF00232380022093E240232380802596
:10106000204B1B789D4240F07F820B960B9BB3F97F
:101070001030B3F5617F45D1DFF8848098F8000027
:1010800000F0C6FE0746184B18600B9809F0A6F949
:10109000F88006A8194998F8002008F08BFF01464F
:1010A00024AF384609F0ACF90D4BD3F8009098F80E
:1010B000000000F09BFECDF80C90012304930590F6
:1010C00027AB93E807008DE8070097E80E000BA810
:1010D00007F0A6FBE8B925E07403001024A801007E
:1010E000B00D001002190010600300102CA80100C0
:1010F0000000001038A8010040A8010048A8010025
:101100007C100010B84800F097FF002323800220D5
:1011100037E2492323808025B44B1B789D4240F061
:1011200025820B960B9BB3F91030B3F5617F2FD15D
:10113000DFF8C88298F8000000F06AFE0746AC4B62
:1011400018600B9809F04AF9B86006A8A94998F800
:10115000002008F02FFF01462AAF384609F050F969
:10116000A54BD3F8009098F8000000F03FFECDF8B2
:101170000C900123049305902DAB93E807008DE8B4
:10118000070097E80E000BA807F04AFB38B90FE0FC
:10119000954800F051FF002323800220F1E1522303
:1011A00023808025914B1B789D4240F0E1810B9676
:1011B0000B9BB3F91030B3F5617F1DD18F4B1878BD
:1011C00000F026FE80468A4F38600B9809F006F939
:1011D000C8F80C00002001F03BF901203968FFF746
:1011E00011FC874840F6B8310FF05AFA85484FF4A1
:1011F000FA710FF055FAAAE17B4800F01DFF0023B9
:1012000023800220BDE17F480FF05AFA002800F049
:10121000C0807C484FF4FA710FF042FADFF8DC81AD
:1012200006A8794998F8002008F0C4FE01460DF19F
:10123000C009484609F0E4F898F8000000F0D6FD2F
:10124000002703970497059033AB93E807008DE8D8
:10125000070099E80E00384607F0E2FA06A86B4945
:1012600098F8002008F0A6FE01460DF1D80948467E
:1012700009F0C6F898F8000000F0B8FD039704974D
:10128000059039AB93E807008DE8070099E80E0058
:10129000384607F0C5FA06A85D4998F8002008F01E
:1012A00089FE01460DF1F009484609F0A9F898F8C1
:1012B000000000F09BFD0397049705903FAB93E877
:1012C00007008DE8070099E80E00384607F0A8FAF5
:1012D00006A8504998F8002008F06CFE01460DF56C
:1012E0008479484609F08CF898F8000000F07EFDFB
:1012F00003970497059045AB93E807008DE8070036
:1013000099E80E00384607F08BFA06A8424998F88B
:10131000002008F04FFE01460DF59079484609F08F
:101320006FF898F8000000F061FD039704970590AE
:101330004BAB93E807008DE8070099E80E003846AC
:1013400007F06EFA06A82B4998F8002008F032FE44
:1013500001460DF59C79484609F052F898F80000CE
:1013600000F044FD03970497059051AB93E8070004
:101370008DE8070099E80E00384607F051FA98F812
:10138000000000F045FD0146194B18603846FFF794
:1013900039FB224B1B789D4240F0CA8028463146DB
:1013A00004F042F9582806D10F4800F045FE00230A
:1013B00023800220E5E0562840F0BA800C4B1B68E1
:1013C0001B780BB1022B6CD1154B009315481649B5
:1013D0000022164B10F0E4FE60B3154800F02CFE1E
:1013E000002323800220CCE000000010021900102E
:1013F0006003001054A80100B00D00107C10001014
:10140000E82200106403001024A801002CA80100A9
:1014100038A8010040A8010048A80100911100105F
:101420007CEB010064A801006CA8010078A8010011
:101430003C000010DFF8788106A8534998F8002096
:1014400008F0B8FD014654AF3846012208F0A0FF6D
:101450004E4BD3F8009098F8000000F0C7FCCDF890
:101460000C900123049305905AAB13E907008DE813
:10147000070097E80E000BA807F0D2F938B17A23DD
:1014800023808025424B1B789D4273D10B960B9B8A
:10149000B3F91030632B46D13E4B1B6801221A7002
:1014A00041E0062B1AD100223B4B1A808023238077
:1014B000DFF80081394F98F80000397800F0DAF948
:1014C000814698F80000397800F0E2F90246344885
:1014D000494601F003F8012825D84DE0032B06D139
:1014E000304800F0A9FD00232380022049E0042BAE
:1014F00019D10022284B1A8089232380DFF8B48079
:10150000264F98F80000397800F0B4F9814698F831
:101510000000397800F092F902462148494600F06F
:10152000DDFF01282AD901201A4B1968FFF76AFA52
:10153000882D06D11C480FF0C3F810B11B4800F0ED
:101540007BFD92232380002300E00123C3B1832D80
:101550007FF459AE00232380032012E0002010E026
:1015600000200EE000200CE000200AE0002008E04F
:10157000002006E0002004E0002002E0002000E05F
:1015800001205BB0BDE8F08324A80100B00D00107D
:101590000219001060030010C01000108900001034
:1015A00098A801003C000010E82200100000001084
:1015B0007C1000109A1000100EB400B501460448CB
:1015C0009DF8042010F01EFE5DF804EB03B0704798
:1015D000B0A801000EB400B5014604489DF80420EF
:1015E00010F010FE5DF804EB03B070471CA9010079
:1015F0000EB400B5014604489DF8042010F002FE28
:101600005DF804EB03B07047D8A901000EB400B533
:10161000014604489DF8042010F0F4FD5DF804EB49
:1016200003B07047F8A901000EB400B501460448A4
:101630009DF8042010F0E6FD5DF804EB03B0704760
:1016400008AA01000EB400B5014604489DF8042024
:1016500010F0D8FD5DF804EB03B070471CAA010040
:101660000EB400B5014604489DF8042010F0CAFDF0
:101670005DF804EB03B0704724AA01000EB400B576
:10168000014604489DF8042010F0BCFD5DF804EB11
:1016900003B0704730AA01000EB400B501460448FB
:1016A0009DF8042010F0AEFD5DF804EB03B0704728
:1016B0003CAA01000EB400B5014604489DF8042080
:1016C00010F0A0FD5DF804EB03B070474CAA0100D8
:1016D0000EB400B5014604489DF8042010F092FDB8
:1016E0005DF804EB03B0704758AA01000EB400B5D2
:1016F000014604489DF8042010F084FD5DF804EBD9
:1017000003B0704760AA01000EB400B5014604485A
:101710009DF8042010F076FD5DF804EB03B07047EF
:1017200068AA01000EB400B5014604489DF80420E3
:1017300010F068FD5DF804EB03B0704774AA010077
:101740000EB400B5014604489DF8042010F05AFD7F
:101750005DF804EB03B0704790AA01000EB400B529
:10176000014604489DF8042010F04CFD5DF804EBA0
:1017700003B070479CAA01000EB400B501460448AE
:101780009DF8042010F03EFD5DF804EB03B07047B7
:10179000A8AA01000EB400B5014604489DF8042033
:1017A00010F030FD5DF804EB03B07047BCAA0100F7
:1017B0000EB400B5014604489DF8042010F022FD47
:1017C0005DF804EB03B07047C4AA01000EB400B585
:1017D000014604489DF8042010F014FD5DF804EB68
:1017E00003B07047D0AA01000EB400B5014604480A
:1017F0009DF8042010F006FD5DF804EB03B070477F
:10180000DCAA01000EB400B5014604489DF804208E
:1018100010F0F8FC5DF804EB03B07047E8AA010093
:101820000EB400B5014604489DF8042010F0EAFC0F
:101830005DF804EB03B07047FCAA01000EB400B5DC
:10184000014604489DF8042010F0DCFC5DF804EB30
:1018500003B0704708AB01000EB400B50146044860
:101860009DF8042010F0CEFC5DF804EB03B0704747
:1018700024AB01000EB400B5014604489DF80420D5
:1018800010F0C0FC5DF804EB03B0704750AB0100F2
:101890000EB400B5014604489DF8042010F0B2FCD7
:1018A0005DF804EB03B0704768AB01000EB400B5FF
:1018B000014604489DF8042010F0A4FC5DF804EBF8
:1018C00003B0704778AB01000EB400B50146044880
:1018D0009DF8042010F096FC5DF804EB03B070470F
:1018E00084AB01000EB400B5014604489DF8042005
:1018F00010F088FC5DF804EB03B0704794AB010076
:101900000EB400B5014604489DF8042010F07AFC9E
:101910005DF804EB03B07047A8AB010000B585B0DB
:10192000154B1868039068462021072211F0C2FC6D
:1019300068465F21114B1A7811F0BCFC3723ADF8D3
:101940000E3000230E492A2008E00A78934203D281
:1019500004AA1A4402F8100C0133DBB2062BF4D9A6
:1019600000238DF80730039806496A4603F09AFC75
:1019700005B05DF804FB00BFB8AB01009003001098
:10198000880300109CA8010000B583B07823ADF84F
:1019900004300023ADF8063003F040FA0A4803F0A3
:1019A0001FFD0A4B18780A4B1978FFF7A9FF02466A
:1019B0000198084903F076FC074803F011FDFFF792
:1019C000ADFF03B05DF804FBB01000109A100010DA
:1019D00089000010BCAB0100A81000102DE9F041F7
:1019E0009EB004460D4616460388512B00F02B810D
:1019F00009D8432B00F0A7804C2B00F0E780002B88
:101A000040F09D8109E05B2B00F05081662B00F0D7
:101A10009181592B40F0938138E10022AF4B1A702D
:101A2000AF480C21072211F045FCAE4B0093AE48A5
:101A3000AE490522AE4B10F083FBAE4B1870FFF79A
:101A4000A3FFAD4840F6B8310EF02AFE74E1882DB0
:101A500006D1A9480EF034FE10B1A84800F0ECFA07
:101A6000A74B1B789D4240F03581A34840F6B83122
:101A70000EF016FE2846314603F0D6FD58280DD14B
:101A800097480C21072211F015FC0025934B1D707F
:101A90009C4800F0D1FA258002205FE1562800F032
:101AA0001981FF2800F016818C4B1F78062F00F259
:101AB0001181DFF86C82022388F800302846314615
:101AC00003F0B2FD47447870844F3B7801333B709C
:101AD000FFF75AFF3B78874A11788B4240F0F88035
:101AE00008F1010010F07CFC002848D008F101004A
:101AF0000C21072211F0DEFB00223A70824F07A86A
:101B000082493A7808F056FA01460CAD284601227F
:101B100008F03EFC7E4BD3F80080387800F066F980
:101B2000CDF80C800123049305900FAB93E80700D8
:101B30008DE8070095E80E00764806F071FE48B182
:101B4000432323808025744B1B789D4240F0FB800B
:101B5000704B1E606F4B1B68B3F91030632B07D1BD
:101B6000694B187800F054F96C4B1860012303702E
:101B7000644800F061FA002323800220EEE0012097
:101B800000F066FC12AF664B664A11885E4A128806
:101B90000A4492B20092384619685A68012308F044
:101BA00079FA5B4B1B68039301230493002305938D
:101BB00015AB93E807008DE8070097E80E0055483D
:101BC00006F02EFE48B14C2323808025524B1B7813
:101BD0009D4240F0BA804F4B1E6000223F4B1A706E
:101BE0004C4B1B681B8A1AB22A2A47D13C480C214D
:101BF000072211F05FFB0022384B1A70424F07A8F2
:101C000042493A7808F0D6F9014618AD2846012233
:101C100008F0BEFB3E4BD3F80080387800F0E6F8C1
:101C2000CDF80C800123049305901EAB13E9070047
:101C30008DE8070095E80E00364806F0F1FD40B14A
:101C4000512323808025344B1B789D427FD1314B1B
:101C50001E60304B1B68B3F91030632B07D12A4B41
:101C6000187800F0D5F82D4B186001230370254833
:101C700000F0E2F90023238002206FE01BB22E2B3C
:101C80000FD10022284B1A8059232380274B187824
:101C9000274B1978FFF726FE00F020FC01280FD80B
:101CA00057E00022204B1A805B2323801F4B1878BB
:101CB0001F4B1978FFF78EFC00F010FC01284AD961
:101CC00007480C21072211F0F5FAFFF75DFE01E04D
:101CD000FFF724FE6623238000232CE088030010F6
:101CE000E51000107CEB0100C4AB0100CCAB01009F
:101CF000D8AB010090030010E82200100000001093
:101D000091110010280000107C10001024A8010080
:101D1000B00D001084030010021900108C03001095
:101D2000E410001098030010C01000109A1000106A
:101D300089000010012383B1832D7FF488AE002336
:101D4000238003200AE0002008E0002006E00020B5
:101D500004E0002002E0002000E001201EB0BDE809
:101D6000F08100BF84B010B502AC84E80F001548C4
:101D70000FF058FA0AE0027D9DF81C309A4203D118
:101D8000BDF81E30C38218E00FF086FA0028F2D1A9
:101D900018200FF073F904460021182211F08AFA76
:101DA000204602A9182211F083FA0023236003239E
:101DB0002371044821460FF055FABDE8104004B0E5
:101DC000704700BF9403001010B5044606480FF09A
:101DD00029FA04E0037DA34204D00FF05DFA002845
:101DE000F8D110BD012010BD9403001010B50446B9
:101DF00006480FF017FA06E0037DA34201D1C08A1E
:101E000010BD0FF049FA0028F6D110BD9403001060
:101E100010B5044606480FF005FA06E0037DA3421C
:101E200001D1043010BD0FF037FA0028F6D110BDF3
:101E30009403001008B518B903480FF0F3F908BD72
:101E40000FF02AFA08BD00BF94030010F0B589B066
:101E500004460D46C86C08F0BFFA0646484913F020
:101E60001FFBA0B9EB89ADF81E30E86C08F0B6FA9C
:101E70008DF81C0008AB13E903008DE8030002ABEA
:101E80000FCBFFF76FFF204608F046FA75E03046AB
:101E900008F09CF800286DDBC7B23846FFF794FFC6
:101EA000002867D03846FFF7B3FF0746304635496C
:101EB000052213F05CFBB8B93E78E86C08F08EFAA6
:101EC00086420DD0E86C08F089FAC1B239702E480C
:101ED00012F0A8F900202D4B197802460EF046FCAE
:101EE000204608F019FA48E0304629490A2213F042
:101EF0003EFB38B9E86C08F071FA7880204608F0AB
:101F00000BFA3AE030462349042213F030FB38B98B
:101F1000E86C08F063FAF880204608F0FDF92CE040
:101F200030461D490B2213F022FB38B9E86C08F04B
:101F300055FAB860204608F0EFF91EE03046174920
:101F40000E2213F014FB38B9E86C08F047FAF86079
:101F5000204608F0E1F910E030461149072213F05D
:101F600006FB38B9E86C08F039FAB880204608F06A
:101F7000D3F902E0204608F071F8204609B0F0BD20
:101F8000FCAB010024A801000CAC01007E10001085
:101F90002CA8010040A8010048A8010054A8010095
:101FA00038A8010008B54FF46170024907F01CF928
:101FB00008BD00BF4D5E0000704700BF00B583B094
:101FC00011F0B4F800F0A8F80EF016FF08F046FA89
:101FD00004F0E8FF002003F06BFC6A20002106F00B
:101FE00029FE0E4B00930E480E4900220E4B10F0B6
:101FF000A7F80E4B18800E4800F01EF84FF4A3709F
:10200000002110F03DFCC020002110F039FC0948EF
:1020100012F008F90EF0F0FCFCE700BF7CEB0100C9
:1020200064A8010024AC010038AC01009803001042
:102030007400001054AC010010B504460B4B186836
:10204000A04212D038B10EF011FD084B1B680848B1
:10205000596812F0E7F80748616812F0E3F8034B9B
:102060001C60204600210EF0E7FC10BD9C03001010
:1020700080AC010094AC0100014B1870704700BFA8
:10208000A003001010B51C4C204603F0D3F82046E6
:102090000121062203F0DCF820460021432203F050
:1020A000D7F8164C204603F0C5F82046012105223A
:1020B00003F0CEF820460021432203F0C9F8104C6B
:1020C000204603F0B7F820460121022203F0C0F8B1
:1020D00020460021432203F0BBF80A4C204603F0BF
:1020E000A9F8204601210A4603F0B2F82046002153
:1020F000432203F0ADF810BDB0100010A81000107E
:10210000A0100010B810001008B50120014902F01D
:102110004DFC08BD9CB0010010B584B0374B009356
:10212000374838490122384B10F03AF8003018BFD0
:102130000120364B187300285ED0354B1B78013BCD
:10214000032B59D8DFE803F002284E287823ADF896
:102150000C303223ADF80E302E4800210EF06CFC0E
:10216000FFF790FF02F05AFE2B4803F039F903986D
:102170002A492B4A03F096F84123ADF80E30294B3B
:102180001B680093284B1B68019303982749012281
:10219000002303F087F82FE00024ADF80C40ADF8E1
:1021A0000E40234B187802F02BFEFFF7ADFF02F034
:1021B000D3FA039819491A4A02F010FC012021466B
:1021C000224602F05DFA0122ADF80E20154B1B6885
:1021D0000093154B1B68019303981449234602F0A2
:1021E000FDFB09E00F4B1B680F4A12680092114873
:1021F0000121002212F016F804B010BD90EB01008E
:1022000064A80100A4AC0100B8AC01009411001056
:1022100089000010B8000010A81000109CA8010050
:10222000CCAC01005000001058000010E0DE0100AE
:102230005C000010DCAC0100124A13780133DBB201
:102240001370013B0C2B19D8DFE803F01A070E10AE
:102250001214161412100E0709000B4870470022C2
:10226000084B1A7009487047094870470948704779
:10227000094870470948704709487047094870473E
:1022800002487047B403001004AD0100FCAC01002B
:102290000CAD010014AD01001CAD010024AD010026
:1022A0002CAD010098D6010000B583B01E4B1B7801
:1022B000012B0ED17823ADF804303C23ADF8063065
:1022C0001A4803F08DF8FFF7B7FF0146019802F0B6
:1022D000E9FF154B1B78022B0BD10423ADF804301A
:1022E0000123ADF80630FFF7A7FF0146019802F081
:1022F00075FB0D4B1B78042B0BD10223ADF804307A
:102300000123ADF80630FFF797FF0146019802F070
:1023100065FB074B1A7801321A70064819210EF036
:10232000BFF903B05DF804FB89000010B010001085
:10233000B5030010B803001030B583B02F4B1B78E5
:10234000012B14D17823ADF804301E23ADF80630EC
:1023500002F064FD2A4803F043F82A4B1878274B13
:102360001978FFF729F90146019802F09BFF234BEA
:102370001B78022B19D10023ADF8063002F0ECF9DE
:10238000204D1E4C28782178FFF716F913F0CAF873
:10239000C0F110004308ADF8043028782178FFF729
:1023A0000BF90146019802F019FB144B1B78042B22
:1023B00019D10023ADF8063002F0CEF9114D0F4CC3
:1023C00028782178FFF7F8F813F0ACF8C0F10C008A
:1023D0004308ADF8043028782178FFF7EDF801467E
:1023E000019802F0FBFA054B1B78032B02D106483B
:1023F00011F018FFFFF758FF03B030BD890000103F
:10240000B01000109A10001034AD010038B5044629
:102410000D46038813B1B02B07D010E0FFF78CFFF7
:102420000BE0B0232380002300E001235BB10748C9
:102430000EF046F908B1FFF737FF832DF1D10023E5
:102440002380032038BD012038BD00BFB803001031
:1024500008B520B1044800210EF0EEFA08BD02488C
:102460000EF004FB08BD00BF6000001010B582B084
:102470000446174B1B78013B032B26D8DFE803F0FB
:10248000021521157823ADF804301423ADF8063079
:102490000020FFF7DDFF02F0C1FC0E4802F0A0FFB4
:1024A0000198214602F0FEFE0FE00023ADF8043053
:1024B000ADF8063002F050F90198214602F08EFA8C
:1024C00003E00548214611F0ADFE02B010BD00BF8B
:1024D00089000010A810001050AD01000FB400B525
:1024E000A9B01C4B1B8813B1242B23D029E0012059
:1024F000FFF7C2FD0020FFF7ABFF174811F092FE77
:102500002BAB019302A896212A9A11F05DFE134B82
:10251000A3FB00231B09042B38BF042310486421AC
:1025200001FB03F10EF0BCF802A8FFF79FFF242285
:10253000084B1A800A480EF0C3F830B10020FFF7AC
:102540009BFD0022034B1A80032029B05DF804EBA9
:1025500004B07047C010001064AD0100CDCCCCCCED
:10256000A403001010B582B010F064F984B224B94D
:1025700010F00AF810F05EF984B2154B1B78013B9D
:10258000032B22D8DFE803F002111D117823ADF8E8
:1025900004306423ADF806300E4802F021FF0198A4
:1025A0000D49224602F07EFE0FE00023ADF8043014
:1025B0000123ADF8063001980849224602F00EFAD0
:1025C00003E00748214611F02DFE02B010BD00BF08
:1025D00089000010A810001084AD010098AD010022
:1025E000ACAD010010B586B004460023ADF816303E
:1025F000ADF81430424B1B78002B3ED0414B1B787A
:10260000042B37D8DFE803F036032733270078237D
:10261000ADF810301E23ADF8123002F0FFFB3A483F
:1026200002F0DEFE0498394902F03CFE384802F020
:10263000D7FE02A806F0ACFA0023ADF812309DF8E0
:1026400008209DF80930BDF80A100091049831491E
:1026500002F028FE0EE00023ADF81030ADF8123085
:1026600002F07AF80498294902F0B8F902E02A4801
:1026700011F0D8FD0022224B1A700DF1160005A9A9
:1026800005F0E0F9002831D1BDF81430642202FBD6
:1026900003F2BDF8163092FBF3F41A4B1B78013BA2
:1026A000032B2BD8DFE803F002111D117823ADF8BE
:1026B00010306423ADF81230184802F091FE0498EF
:1026C0001749A2B202F0EEFD18E00023ADF8103079
:1026D0000123ADF8123004981149A2B202F07EF93C
:1026E0000CE01048A1B211F09DFD07E00CB9FFF716
:1026F00039FF0D484FF4FA710DF0D2FF06B010BD4E
:102700008800001089000010B0100010C0AD01005A
:10271000A0100010C8AD0100E0AD0100A81000102D
:10272000F8AD01000CAE0100D410001030B583B03C
:1027300004460D4603884D2B40D0552B54D0002B1A
:1027400056D12F484FF4FA710DF0AAFF2D4844F2EC
:1027500050610DF0A5FF49E0882D0CD128480DF0FF
:10276000AFFF10B10020FFF73DFF274B1B78012B77
:1027700001D1FFF799FD254B1B789D4202D1012025
:10278000FFF730FF882D05D11E480DF099FF08B1E5
:1027900000F0B8F810F05CF8F0B1684606F0F8F90F
:1027A0009DF8003013B19DF8013063B99DF80530F4
:1027B0004BB10022164B1A804D2323801548FFF79A
:1027C0008DFE012806D91448FFF736FC002323802C
:1027D000022012E0002010E0104B18680EF04EF9B5
:1027E00055232380002300E001232BB1832DB3D197
:1027F00000232380032000E0012003B030BD00BF90
:10280000D4100010C410001089000010A81100108E
:10281000C010001030AE010000000010B00D00101C
:10282000F0B5ADF5177D06460F46304D8FAB95E8F8
:10283000070003C323F8022B120C1A7000238DF833
:1028400047328DF848328DF849328DF84A328DF88A
:102850004B328DF84C328DF84D328DF84E328DF86A
:102860004F328DF850328DF851328DF852328DF84A
:1028700053328DF854328BAC1C3595E80F0084E848
:102880000F00032E0ED0042E02D0022E0FD104E032
:102890008FA8174912F0EAFD0DE08FA8154912F034
:1028A000E5FD08E08FA8144912F0E0FD03E08FA8D1
:1028B000124912F0DBFD96AB03EB87078FA857F8A0
:1028C0002C1C12F0D3FD8FA80D4912F0CFFD01A8EA
:1028D0008FA900220CF0C8F920B901A80CF0DEFC89
:1028E000012000E000200DF5177DF0BD60AE010075
:1028F0008CAE010094AE01009CAE0100A0AE0100C0
:10290000A8AE010008B5054811F08CFC002001219B
:1029100001F0FAFB0A2001F025FCFEE7C0AE010041
:1029200008B5034811F07EFC0122024B1A7008BD65
:10293000DCAE0100C8030010014B1878704700BFDF
:10294000C803001008B5034B1B780BB1FFF7DAFF83
:1029500008BD00BFC803001010B41F2802D9A0F1A1
:10296000200200E002461F2810D8124BD3F8A841DD
:102970000320904024EA0000C3F8A801D3F8A8017E
:1029800001FA02F20243C3F8A8210FE0094BD3F881
:10299000AC410320904024EA0000C3F8AC01D3F816
:1029A000AC0101FA02F20243C3F8AC215DF8044B1A
:1029B000704700BF00C00F401F2803D8064BD3F854
:1029C000A83103E02038044BD3F8AC3123FA00F0EF
:1029D00000F00300704700BF00C00F4010B5084B67
:1029E0001C68FFF7E9FF032806D8DFE800F00405BC
:1029F0000502082000E00420B4FBF0F010BD00BF89
:102A000044020010012908D1094AD2F8C410094B28
:102A100003400B43C2F8C430704741B9044AD2F8AE
:102A2000C43023EA0000034B0340C2F8C4307047AF
:102A300000C00F40DEF7EFEFF0B40023124F134C4D
:102A4000134E144819460DE003EB430252023A4478
:102A500044F83320DA00A5186E6040F833100244C1
:102A600051600133032BEFD94FF0A043074AC3F85D
:102A70000821084AC3F80C210322C3F810210022C0
:102A8000C3F81821F0BC704700C00720D80300101D
:102A9000FF050080F803001030B40023114D1248E8
:102AA0001946124C0BE003EB430252022A4440F851
:102AB000332000EBC302516044F823100133022B92
:102AC000F1D94FF0A043084AC3F81C21074AC3F8C4
:102AD00020210222C3F824210022C3F8282130BC7F
:102AE000704700BF00D8072018040010CC03001066
:102AF00040F480704FF0A0439862D96200230849E7
:102B00004FF0A04004E0426B12F0010F05D00133FA
:102B10008B42F8D94FF0FF3070470020704700BF5C
:102B2000FFFF040040F480704FF0A0439862012240
:102B30005A62002309494FF0A0400AE0426B12F0AC
:102B4000010F05D14FF0A04300225A62186B704765
:102B500001338B42F2D94FF0FF307047FFFF040082
:102B60004279037943EA02224FF0A0431A64C17804
:102B7000827842EA01225A644178027842EA0122CC
:102B80009A64704738B54FF48034012507E0284631
:102B9000FFF7C8FF10F0040F03D13CB3013C002C39
:102BA000F5D110F4A04F0ED04FF0A0435A6842F078
:102BB00001025A60D3F8002142F48062C3F8002178
:102BC00015229A6003E012224FF0A0439A6010F49D
:102BD000C04004D100224FF0A0439A6138BD4FF4A9
:102BE00080724FF0A0439A61002038BD4FF0FF3053
:102BF00038BD00BF38B504460220FFF793FF0546F5
:102C00000320FFF78FFF40EA0540234B984237D15E
:102C1000042C38D8DFE804F003171D222800002018
:102C20004FF44051FFF764FF4FF48034012507E073
:102C30002846FFF777FF10F0200F1AD134B3013C7C
:102C4000002CF5D115E000204FF48071FFF750FF04
:102C50000FE000200146FFF74BFF0AE000204FF491
:102C60000451FFF745FF04E000204FF40051FFF747
:102C70003FFFFFF787FF00280BDA4FF0FF3038BD2A
:102C80004FF0FF3038BD4FF0FF3038BD4FF0FF3010
:102C900038BD002038BD00BF1916220070B50646A9
:102CA0004FF080400121FFF7ADFE4FF0A0434FF4FD
:102CB0004F421A607822C3F80021642300E0013BF0
:102CC000002BFCD14FF0A042022111603021516055
:102CD0004FF4C0615161354A1068354AA2FB0010BB
:102CE000000D344903E0CA5C824202DA0133062B4C
:102CF000F9D9013303F00F02920042F400424FF081
:102D0000A0431A621A6A22F400421A6243F20F7256
:102D10001A611222DA604FF41072C3F800214FF4E6
:102D200000629A61642300E0013B002BFCD100208B
:102D30004FF0A04398614FF40041FFF7D9FE4FF4E4
:102D40008034002507E02846FFF7ECFE10F4084F1A
:102D500003D034B3013C002CF5D13068FFF74AFFB3
:102D6000002820DB7068FFF7FBFEFFF765FEFFF72A
:102D700093FE4FF0A0432622C3F800228822C3F816
:102D8000E42F4FF6FF72C3F8E82FD3F8002142F08A
:102D90000302C3F800211A6842F001021A60012000
:102DA00070BD002070BD002070BD00BF4402001047
:102DB0006BCA5F6BF0AE010030B44FF0A043D3F8A4
:102DC000285141680B4B53F83520036803339B08A7
:102DD00004E00C681460013B04320431002BF8D18C
:102DE0000368013B43F04043024A02EBC5056B60B8
:102DF00030BC7047180400104FF0A043D3F81811EE
:102E00004368084A52F8311053B1026803329208FD
:102E100004E008681860013A04310433002AF8D14C
:102E2000704700BFD8030010012907D14FF0A0431D
:102E3000D3F8E42F1043C3F8E40F70474FF0A043DA
:102E4000D3F8E42F22EA0000C3F8E40F704700BF74
:102E50004FF0A043D3F8E03F034205D04FF0A0432A
:102E6000C3F8E80F01207047002070474FF0A043DF
:102E7000D3F81821D3F814319A4201D001207047B9
:102E8000002070474FF0A043D3F82C21013AD3F82B
:102E90002831934201D1002070470120704700BFC4
:102EA0004FF0A043D3F81821024B53F83200C0F37F
:102EB0000A007047F80300104FF0A043D3F8183110
:102EC0000133042B00D100234FF0A042C2F8183187
:102ED000704700BF4FF0A043D3F828310133032BD4
:102EE00000D100234FF0A042C2F82831704700BF44
:102EF000042804D8DFE800F00D0507090B000020C6
:102F000070470548704705487047054870470548B1
:102F100070470548704700BF20C0092040C0092005
:102F200060C0092080C0092000C0092038B50C46C7
:102F30001546FFF7DDFF40B11DB102681443046080
:102F400038BD026822EA0404046038BD10B50C469E
:102F5000FFF7CEFF00B1846110BD00BF10B50C4675
:102F6000FFF7C6FF00B1C46110BD00BF08B5FFF791
:102F7000BFFF08B1406908BD002008BD094B984259
:102F800009D003F58023984207D003F5882398429F
:102F900005D10220704700207047012070474FF094
:102FA000FF30704700C00140202303600823836185
:102FB000012302E001339BB21BB1026812F0080F3B
:102FC000F8D020238361406800F0F800704700BF0C
:102FD000036813F0200F01D02023836110230360C6
:102FE00008238361704700BF036813F0200F01D0EE
:102FF00020238361816008238361036813F0080F35
:10300000FBD0406800F0F800704700BF012A02D1F1
:103010000423036001E004238361082383610368C0
:1030200013F0080FFBD083680B70406800F0F800C5
:10303000704700BF38B504460D46184B98420BD078
:1030400003F58023984207D003F58823984203D0E4
:103050001348E82100F0B4F9104B9C4205D10E2032
:10306000FFF7BCFCB0FBF5F012E00E4B9C4205D123
:103070002620FFF7B3FCB0FBF5F009E00A4B9C42B9
:1030800005D13420FFF7AAFCB0FBF5F000E00020EA
:10309000430823612369C01A606138BD00C0014044
:1030A000F8AE010000C0054000000A4038B50446F3
:1030B0000D461E4B98420CD003F58023984208D051
:1030C00003F58823984204D019484FF4887100F022
:1030D00077F9164B9C4208D180200121FFF792FC22
:1030E0000E200221FFF738FC18E0124B9C4209D158
:1030F0004FF400200121FFF785FC26200221FFF775
:103100002BFC0BE00C4B9C420ED14FF08060012158
:10311000FFF778FC34200221FFF71EFC20462946E9
:10312000FFF788FF6423A36138BD00BF00C00140E2
:10313000F8AE010000C0054000000A4038B5044662
:103140000D46012904D90E4840F2611100F038F90A
:103150000C4B9C420CD003F580239C4208D003F515
:1031600088239C4204D006484FF4B17100F028F93E
:10317000012D02D14023236038BD4023A36138BD17
:10318000F8AE010000C00140B9B1194B984204D11A
:103190004FF48062174B1A607047174B984204D166
:1031A0004FF40062134B1A607047144B98421ED1C3
:1031B0004FF480520F4B1A6070470D4B984205D167
:1031C0004FF480620B4BC3F8802070470A4B984243
:1031D00005D14FF40062074BC3F880207047074BBE
:1031E000984204D14FF48052024BC3F880207047BC
:1031F00000C0014000E100E000C0054000000A40BE
:103200002DE9F04182B006460C460023CB608B616D
:103210004B62002A40F0B68000230B621F46D4F8B0
:1032200004802569E760A7613046FFF7BDFE0828E6
:1032300009D0102807D0236A01332362E269934240
:10324000EDD9606299E0A36873B3636863B32368E0
:103250005900304601F0FE01FFF7C6FE18281FD0C6
:10326000236A01332362E2699342D8D940F40070A3
:10327000606282E0304698F80010FFF7B5FE28281B
:1032800009D0236A01332362E2699342C7D940F42B
:103290000070606271E008F10108E3680133E360E7
:1032A000E268A3689A42E5D3A368A3B1636893B1C7
:1032B000636983B1236973B13046FFF775FE08284F
:1032C00009D0102807D0236A01332362E2699342B0
:1032D000A5D9606251E06369002B49D02369002BB6
:1032E00046D023685B0043F001013046C9B2FFF7C6
:1032F0007BFE402836D0236A01332362E269934281
:103300008DD940F40070606237E0013B994210D2E1
:1033100030460DF107014246FFF778FE502819D0DC
:10332000236A01332362E26993427FF678AF6062D9
:1033300023E030460DF107013A46FFF767FE5828B3
:1033400008D0236A01332362E26993427FF667AFB4
:10335000606212E09DF807302B70A3690133A3610E
:10336000013501E04FF00108A16963699942CCD3AE
:103370003046FFF72DFE01201DE03046FFF728FE06
:10338000002018E0012A15D1FFF7F8FDC0B28DF832
:1033900007000A4B43F8304003EBC00300225A6099
:1033A0000823B3612023336030460121FFF7ECFE90
:1033B000012000E0002002B0BDE8F08130040010E0
:1033C00008B503460A460248194610F02BFFFEE7EF
:1033D00020AF010010B40C4640000F2902D9A1F122
:1033E00010040130830003F1804303F530336100A2
:1033F00003248C40186820EA040002FA01F140EA34
:1034000001021A605DF8044B704700BF30B40C46EF
:1034100040000F2902D9A1F110040130074B6100CF
:1034200003258D4053F8204024EA050402FA01F1F7
:1034300044EA010243F8202030BC704740C00240FB
:10344000012A08D1094B02FA01F153F820200A435E
:1034500043F820207047054B012202FA01F153F88E
:10346000202022EA010243F82020704768C0024071
:1034700010B5044600786178A278FFF7ABFF20789A
:103480006178E278FFF7C2FF207861782279FFF750
:10349000D7FF10BD10B50446094B984203D0094828
:1034A0003E21FFF78DFF4FF400700121FFF7AAFACC
:1034B0000023237023722373FF222274236410BD20
:1034C0000040024050AF010038B504460D460C4B99
:1034D000984203D00B487221FFF772FF012D03D9E8
:1034E00008487321FFF76CFF012D04D1237A43F0C4
:1034F0000103237238BD237A03F01203237238BD0F
:103500000040024050AF010038B504460D46174B4D
:10351000984204D0164840F2B711FFF751FFEB680C
:1035200003F01F0384F82C302B6903F0070384F8A1
:1035300030306B69C3F30803A386AB6803F01F0345
:1035400084F828306B6803F03F0384F824302B683C
:1035500003F03F0384F82030AB6903F00F0384F8D5
:103560003830EB69C3F30B03A38738BD004002403A
:1035700050AF010038B504460D46174B984204D0B1
:10358000164840F2CD11FFF71BFF94F82C3003F0E2
:103590001F03EB6094F8303003F007032B61A38E18
:1035A000C3F308036B6194F8283003F01F03AB608A
:1035B00094F8243003F03F036B6094F8203003F05C
:1035C0003F032B6094F8383003F00F03AB61A38FF7
:1035D000C3F30B03EB6138BD0040024050AF010064
:1035E00038B504460D460D4B984204D00C4840F2C5
:1035F000AB21FFF7E5FE012D04D909484FF42B71EB
:10360000FFF7DEFE012D04D1237A03F003032372BA
:1036100038BD237A43F01003237238BD00400240C6
:1036200050AF010070B504460E461546114B984246
:1036300004D0114840F2C521FFF7C2FE012D04D984
:103640000D4840F2C621FFF7BBFEB6F5003F04D39C
:10365000094840F2C721FFF7B3FE013EC6F310064A
:10366000012D02D14FF4003300E000231E432664F5
:1036700070BD00BF0040024050AF0100F8B50446E5
:103680000D461C4B984207D0A3F5B023984203D0B7
:1036900019484321FFF794FE164B9C4203D12A2080
:1036A000FFF79CF905E0154B9C4221D11420FFF750
:1036B00095F94FF0FF330026022137460CE0721CCB
:1036C00001FB02F3B0FBF3F3AB4205D9FF2A02D9A9
:1036D00002313E4600E01646AB42F0D82368DBB22A
:1036E000236023683602B6B21E432660C9B2216148
:1036F000F8BD00BF0080084078AF01000000034023
:1037000038B504460D46174B984207D0A3F5B023B1
:10371000984203D014488121FFF752FE114B9C427E
:1037200005D14FF400100121FFF76CF907E00F4BB2
:103730009C4215D14FF480600121FFF763F96A685C
:10374000AB681A432B691A432B6813439BB223605F
:10375000EB6803F00F03636020466969FFF78EFF93
:1037600038BD00BF0080084078AF01000000034072
:1037700010B504460E4B984207D0A3F5B0239842EB
:1037800003D00C48A821FFF71BFE094B9C4205D132
:103790004FF400100021FFF735F910BD064B9C4295
:1037A00004D14FF480600021FFF72CF910BD00BF59
:1037B0000080084078AF0100000003400023436010
:1037C0008360034A426107220260C360036170475D
:1037D00040420F0038B504460D460E4B984207D0C4
:1037E000A3F5B023984203D00B48E521FFF7E8FD8D
:1037F000012D03D90848E621FFF7E2FD012D04D190
:10380000636843F00203636038BD636803F00D032F
:10381000636038BD0080084078AF010070B5054690
:103820000F4B1C680F4BA3FB0424A4094FF08070BE
:10383000B0FBF4F012F0F2FE0646284612F0EEFE5F
:10384000314612F0F3FE00B1FEE7074B1A6842F072
:1038500004021A6005FB04F2013A5A6070BD00BF11
:1038600044020010D34D621010E000E010B5044691
:10387000012803D908488021FFF7A2FD012C05D1BA
:10388000064B1A6842F001021A6010BD034B1A6819
:1038900022F001021A6010BDA0AF010010E000E0AC
:1038A00010B50446012803D908489321FFF788FD85
:1038B000012C05D1064B1A6842F002021A6010BDB5
:1038C000034B1A6822F002021A6010BDA0AF01007B
:1038D00010E000E0024B1A6822F480321A60704750
:1038E00010E000E02DE9F04F89B007908946684B61
:1038F000984204D10620FFF771F880461CE0654B22
:103900000798984204D10820FFF768F8804613E032
:10391000614B0799994204D13020FFF75FF8804648
:103920000AE05E4B079A9A4204D13220FFF756F81C
:10393000804601E04FF000084FF0FF330193002074
:103940000021CDE90201002105910691012732E015
:10395000002545EA18154FEA0874A4FB070107FB88
:103960000511BA1909FB02F2002312F033F90246DD
:103970000B46B0F1004F01D942424B1C591EB1F524
:10398000803F0BD20198824208D218460021CDE92F
:10399000020152B10192049905910696013601E0A7
:1039A00000260497BE42D3D302E001920597069603
:1039B000019A12B101370F2FF2D9DDE9020101435B
:1039C00061D04FEA1810059C04FB00F02146069CCC
:1039D0002144029CA1FB0423039C01FB043300212E
:1039E00012F0F8F8814502D9C0EB090001E0C9EBFB
:1039F0000000642303FB00F3B3FBF9F9B9F1020FF4
:103A00003FD8244B079C9C421CD1237B43F080036E
:103A100023730298020A039942EA0162D2B2227128
:103A20009DF808302370237B03F07F032373059CEC
:103A30002201D2B2069C04F00F031343079CA36239
:103A4000012021E0079C237B43F08003237302982D
:103A5000020A039942EA0162D2B222719DF808304B
:103A60002370237B03F07F032373069C04F00F0372
:103A7000059C43EA0413DBB2079C84F8283001203C
:103A800002E0002000E0002009B0BDE8F08F00BF98
:103A900000C00040000001400080094000C0094013
:103AA00038B504460D46634B98420FD003F580436A
:103AB00098420BD003F50823984207D003F58043C2
:103AC000984203D05C48C921FFF77AFC6B79032B3D
:103AD00003D95948CA21FFF773FCAB79012B03D9ED
:103AE0005548CB21FFF76CFC2B79042B03D95248A6
:103AF000CC21FFF765FC4F4B9C4203D108200121EC
:103B0000FEF780FF4D4B9C4203D110200121FEF7B0
:103B100079FF4B4B9C4204D14FF080700121FEF79E
:103B200071FF484B9C4204D14FF000700121FEF719
:103B300069FF424B9C4220D107232372002323724A
:103B400000E02378237D13F0010FFAD1802384F85D
:103B50003030237D13F0200FFBD0002384F8303069
:103B6000636023732362237484F84C3084F85430E8
:103B700084F85030237E237D17E00723237200232F
:103B8000237200E02378237D13F0010FFAD1802304
:103B900084F83030237D13F0200FFBD0002384F80D
:103BA0003030636023732362237D264B9C4202D115
:103BB000002384F8243020462968FFF793FE1F4B2A
:103BC0009C4203D1237B03F0C00302E0237B03F07C
:103BD000C0036A79012A03D052B1022A03D005E05A
:103BE00043F0010304E043F0020301E043F0030368
:103BF0002A798AB143F00801032A06D0042A07D0A3
:103C0000022A08D143F0180306E043F0280303E03A
:103C100043F0380300E00B46AA79012A01D143F0B2
:103C20000403064A944202D1DBB2237338BDDBB2EF
:103C3000237338BD00C00040CCAF0100000001403C
:103C40000080094000C009404FF41653036003236D
:103C50004371002303718371704700BF38B5044678
:103C60000D460D4B984210D003F5804398420CD07E
:103C700003F50823984208D003F58043984204D006
:103C8000064840F2D911FFF79BFB054B9C4201D13E
:103C9000257038BD257038BD00C00040CCAF010094
:103CA0000000014010B504460E4B984210D003F5B9
:103CB000804398420CD003F50823984208D003F5BE
:103CC0008043984204D008484FF4F971FFF778FB1D
:103CD000064B9C4202D12078C0B210BD2078C0B201
:103CE00010BD00BF00C00040CCAF0100000001408B
:103CF0002DE9F04707461446012B1CD000264FF053
:103D0000100933E033B1013B00E04B463A7D12F03D
:103D1000200FF7D063B3454609E001F1010A3846A8
:103D20000978FFF79BFF013D013C013651463DB14B
:103D3000002CF2D104E000264FF480394FF0100837
:103D4000002CE2D114E03B7D13F0200F10D04D4643
:103D500009E001F1010838460978FFF77FFF013CCF
:103D6000013D013641460DB1002CF2D1002CEAD1C3
:103D70003046BDE8F08700BFF8B504460D4616464C
:103D8000394B984210D003F5804398420CD003F58C
:103D90000823984208D003F58043984204D0334862
:103DA00040F2AB21FFF70CFB012E04D92F484FF452
:103DB0002B71FFF705FB062D05D8DFE805F014068B
:103DC000080A0C0E110000270EE002270CE0042761
:103DD0000AE0082708E0802706E04FF4807703E038
:103DE0004FF4007700E00127214B9C420FD1022DB8
:103DF00018D9052D16D0062D14D0033DEDB2012D96
:103E000010D91A484FF43271FFF7DAFA0AE0022D9E
:103E100008D9052D06D0062D04D014484FF433716F
:103E2000FFF7CEFA012E0AD1114B9C4203D16368F1
:103E30001F436760F8BD63681F436760F8BD0C4BA4
:103E40009C4208D1636823EA070727F07007BF0583
:103E5000BF0D6760F8BD636823EA070727F0F8071E
:103E6000BF05BF0D6760F8BD00C00040CCAF0100CA
:103E70000000014010B504460E4B984210D003F5E7
:103E8000804398420CD003F50823984208D003F5EC
:103E90008043984204D0084840F2FA21FFF790FA94
:103EA000064B9C4202D1187DC0B210BD207DC0B22D
:103EB00010BD00BF00C00040CCAF010000000140B9
:103EC00010B504460C4B984210D003F5804398423D
:103ED0000CD003F50823984208D003F5804398429C
:103EE00004D0064840F21131FFF76AFAA06820F0CA
:103EF00030008005800D10BD00C00040CCAF010037
:103F000038B505460C462E4B984210D003F5804339
:103F100098420CD003F50823984208D003F580435B
:103F2000984204D0274840F23731FFF749FAE37846
:103F3000032B04D923484FF44E71FFF741FAA378BD
:103F4000012B04D91F4840F23931FFF739FA2378A1
:103F5000012B04D91B4840F23A31FFF731FA63785C
:103F6000012B04D9174840F23B31FFF729FAE378D7
:103F7000012B09D013B1022B02D003E0012304E08E
:103F8000812302E0C12300E041236278012A01D1AC
:103F900043F004032278012A01D143F00203A278FE
:103FA000012A01D143F00803074A954203D103F0E7
:103FB000CF032B7238BD03F0CF032B7238BD00BF87
:103FC00000C00040CCAF010000000140002383701E
:103FD000C370012303704370704700BF38B50446B7
:103FE0000D461E4B984210D003F5804398420CD0EA
:103FF00003F50823984208D003F58043984204D083
:10400000174840F2EA31FFF7DBF9012D04D91448D3
:1040100040F2EB31FFF7D4F9012D10D1114B9C4246
:1040200006D194F8303043F0800384F8303038BD46
:1040300094F8303043F0800384F8303038BD094BB9
:104040009C4205D194F83030002384F8303038BDDC
:1040500094F83030002384F8303038BD00C0004080
:10406000CCAF01000000014010B510B1012809D00B
:1040700040E021F00301FE293ED94FF08043596012
:10408000012010BD1E4B1B689C081E4AA2FB0404A5
:10409000A40C890801FB04F4FE2C08D90020014679
:1040A000FEF75AFC4FF080435C60012010BD5C08B5
:1040B000144AA2FB0404A40C04FB01F4FE2C08D94E
:1040C00000200221FEF748FC4FF080435C60012095
:1040D00010BD0C4CA4FB0324A40C04FB01F4FE2C27
:1040E0000CD900200121FEF737FC4FF080435C60C3
:1040F000012010BD002010BD002010BD002010BD0B
:104100004402001083DE1B4338B50C46054618B147
:104110000E48A621FFF754F9012C03D90B48A7211B
:10412000FFF74EF900200146FEF716FC4FF08043E2
:104130001A6922F003021A611A6915431D61012CE4
:1041400003D11A7842F002021A7038BDF4AF0100B0
:1041500072B64FF08043AA221A7255221A7262B6C2
:10416000704700BF10B501464FF08044206900F051
:104170000300FFF779FF237843F001032370FFF773
:10418000E7FF10BD08B501204FF400010246FEF71D
:10419000CDFE01204FF480010246FEF7C7FE08BDA8
:1041A00008B528B101204FF40001FEF7CFFE08BD8D
:1041B00001204FF40001FEF7D1FE08BD08B528B17B
:1041C00001204FF48001FEF7C1FE08BD01204FF42D
:1041D0008001FEF7C3FE08BD2DE9F0419AB0074605
:1041E0008846038813B1412B7DD081E002204FF433
:1041F00000510122FEF79AFE02204FF40051FEF713
:10420000A5FE00F091F800286FD03D4810F00AF8A4
:104210000CF0F2FD06F022F906AE3046002107F060
:10422000A5F86C460AAD0FCD0FC495E8030084E8ED
:10423000030096E80F0006F037F9324C0CF0DCFB77
:10424000236801332360FFF783FF2068C0F3004039
:1042500000F07AF8F2E700F067F800B32A480CF0B3
:1042600057FAA8B110AE3046002107F07FF86C462F
:1042700014AD0FCD0FC495E8030084E8030096E861
:104280000F0006F011F92048C8210CF033FA06E0BF
:10429000012000F059F81C4864210CF02BFA194A4F
:1042A00013680133136042F21072934203D8174827
:1042B0000CF02EFA78B1FFF74BFF154B187880F011
:1042C00001001870FFF76CFF00220E4B1A600F48B8
:1042D00064210CF00FFA0F4B18680CF0CFFB412350
:1042E0003B80002300E0012333B1B8F1830FB2D14A
:1042F00000233B80032000E001201AB0BDE8F081DC
:104300001CB001004C0400105804001050040010B0
:1043100048040010B00D001008B5024800210CF050
:104320008BFB08BD8C00001008B502204FF4005133
:104330000022FEF7FBFD0220FEF718FE10F4005FDE
:1043400014BF0020012008BD10B5044602204FF420
:1043500000510122FEF7EAFD2CB102204FF400517A
:10436000FEF7F4FD10BD02204FF40051FEF7F6FDFC
:1043700010BD00BF38B504460D4649B10C4B03EBE8
:104380008003DA78987801219140FEF7DFFD08E09C
:10439000074B03EB8003DA78987801219140FEF710
:1043A000DDFD04EB4404034B1C44A57038BD00BF85
:1043B00054B0010060040010F8B500240B4D2646EF
:1043C00010E004EB44039B00EB5C4BB167003A192F
:1043D00092002A4490680FF01DF93B199B00EE549F
:1043E0000134E4B2032CECD9F8BD00BF2411001055
:1043F0008C2303FB00F0002306E000BF00BF00BFDA
:1044000000BF00BF00BF01338342F6D3704700BF37
:1044100008B512B1FEF79AFD08BDFEF79FFD08BD75
:1044200010B582B002AB03E9030002204FF48051C3
:104430009DF80020FFF7ECFF02204FF400619DF88B
:104440000120FFF7E5FF02204FF400710122FFF782
:10445000DFFF0520FFF7CCFF9DF8024002204FF45C
:10446000807104F00102FFF7D3FF02208021C4F322
:104470004002FFF7CDFF02204021C4F38002FFF786
:10448000C7FF02202021C4F3C002FFF7C1FF0220B2
:104490001021C4F30012FFF7BBFF02200821C4F370
:1044A0004012FFF7B5FF02200421C4F38012FFF78A
:1044B000AFFF02200146E209FFF7AAFF0520FFF740
:1044C00097FF02204FF400710022FFF7A1FFBDF813
:1044D0000400FFF78DFF012002B010BD39B10123A8
:1044E00003FA00F0064B1A78104318707047012346
:1044F00003FA00F0024B1A7822EA000018707047A5
:10450000F810001070B582B002AB03E9030005207B
:104510009DF80010FFF7E2FF04209DF80110FFF75F
:10452000DDFF06200121FFF7D9FF2F4E2F4D3078F8
:104530002946002201F0EAF99DF802400020C4F368
:104540000011FFF7CBFF0120C4F34011FFF7C6FFB6
:104550000220C4F38011FFF7C1FF0320E109FFF738
:10456000BDFF30782946002201F0D0F90620002155
:10457000FFF7B4FF30782946002201F0C7F9062082
:104580000121FFF7ABFF30782946002201F0BEF988
:10459000002004F00101FFF7A1FF0120C4F3400156
:1045A000FFF79CFF0220C4F38001FFF797FF032071
:1045B000C4F3C001FFF792FF30782946002201F0D2
:1045C000A5F906200021FFF789FF3078294600224F
:1045D00001F09CF96420FFF70BFFBDF80400FFF722
:1045E00007FF012002B070BD54110010F810001038
:1045F00000B583B002AB03E90300094BB3F9003007
:10460000FE2B05D102AB13E90300FFF709FF04E01D
:1046100002AB13E90300FFF775FF03B05DF804FB7D
:104620005411001000B583B000238DF800308DF8D0
:10463000013002238DF802304FF4CD63ADF8043021
:1046400002AB13E90300FFF7D3FF03B05DF804FBEF
:1046500000B583B000238DF800308DF8013040EABA
:10466000410141F004018DF802102823ADF8043017
:1046700002AB13E90300FFF7BBFF03B05DF804FBD7
:1046800000B583B000238DF800308DF80130800034
:1046900040F0080040EA41010A438DF80220282337
:1046A000ADF8043002AB13E90300FFF7A1FF03B03C
:1046B0005DF804FB00B583B000238DF800308DF861
:1046C0000130C00040F0100040EA81018DF8021076
:1046D0002823ADF8043002AB13E90300FFF788FF8D
:1046E00003B05DF804FB00BF00B585B00190C0B217
:1046F000A0F10A03DBB2012B01D9012803D1012368
:104700008DF8043002E000238DF8043000238DF88A
:1047100008308DF809309DF80530082B01D1302381
:1047200000E020239DF80620022A01D1082100E0A4
:1047300000219DF804200B4343EA82038DF80A30E0
:104740002823ADF80C3004AB13E90300FFF750FF4A
:1047500005B05DF804FB00BF00B583B0FFF762FF52
:1047600000200121FFF774FF104B1868FFF7BCFF12
:10477000012000210A46FFF783FFFFF71DFE0C4AC8
:104780000023138053808DF800308DF80130012311
:104790008DF802304FF4CD63ADF8043002AB13E96D
:1047A0000300FFF725FF03B05DF804FB581100106C
:1047B000F410001008B502204FF480710122FEF7BA
:1047C000B5FB022080210122FEF7B0FB0220402130
:1047D0000122FEF7ABFB022020210122FEF7A6FBFF
:1047E000022010210122FEF7A1FB02200821012254
:1047F000FEF79CFB022004210122FEF797FB02201A
:1048000001460122FEF792FB02204FF48051012263
:10481000FEF78CFB02204FF400610122FEF786FBBD
:1048200002204FF400710122FEF780FBFE22094BAB
:104830001A80094B08225A7002229A700B221A70B1
:10484000064800210CF0F8F80A20FFF7D1FDFFF729
:1048500083FF08BD5411001058110010A000001073
:1048600000B583B000238DF800308DF8013000F0E2
:104870000700C30043F0400301F007010B438DF82C
:1048800002302823ADF8043002AB13E90300FFF730
:10489000AFFE03B05DF804FB00B585B001900023C6
:1048A0008DF808308DF8093083B2020C03EB8213C7
:1048B00063F07F038DF80A302823ADF80C30054BE8
:1048C000186004AB13E90300FFF792FE05B05DF832
:1048D00004FB00BFFC10001000B583B001238DF86D
:1048E000003000238DF801308DF802002823ADF848
:1048F000043002AB13E90300FFF77AFE03B05DF862
:1049000004FB00BF2DE9F04383B00023ADF8043071
:10491000ADF80630214B1B881BB9204B5B88002B60
:1049200038D01F4B1A7882F001021A701D4E1B4FAF
:104930009846DFF8749029E00198FFF7ADFF002357
:10494000ADF804301AE037F81530234113F0010FA9
:104950000DD098F8003033B104EB051319F80300BB
:10496000FFF7BAFF07E02020FFF7B6FF03E00020C3
:104970000121FFF79FFE0134ADF80440BDF804406B
:1049800033789C42DFD30135ADF80650BDF80650B0
:10499000002DD1D003B0BDE8F08300BFF4100010AB
:1049A00000110010B40000100411001070B505468D
:1049B0000E4600240CE028462146FFF751FF03462F
:1049C00048B1305DFFF788FF034620B10134E4B2FF
:1049D000072CF0D90123184670BD00BF0EB42DE995
:1049E000F0439CB00190FFF757FF0346002877D0B3
:1049F00024AB029303A86421239A0FF0E5FBC5B210
:104A000000243A4EDFF8EC80012763E020461CAB1F
:104A1000234413F8643C232B2BD004D80A2B09D051
:104A20000D2B10D032E07E2B23D0802B2AD03C2BB4
:104A30002CD10FE0BDF806300133ADF806300198F7
:104A4000FFF72AFF44E00023ADF804300198FFF798
:104A500023FF3DE003AB184401A900F005F98146AE
:104A60000444E4B20198FFF717FFB9F1000F0DD02D
:104A70002EE01CAB184410F8633C3E2B06D10134E9
:104A8000E4B225E01CAB184400F8647CA1461CABE2
:104A9000234413F8640CFFF71FFFBDF8042033789C
:104AA0009A420CD2BDF806107078814207D21CA839
:104AB000814419F8640C02EB011108F8010001327D
:104AC00092B2ADF80420591E8A4201DDADF80410FF
:104AD0000134E4B2AC4299D3019B054A136001232F
:104AE00018461CB0BDE8F04303B07047B400001096
:104AF000FC100010041100102DE9F04FBBB08146EE
:104B0000404B1B68399300243F4EDFF8088173E067
:104B1000254604EB44039B00F35C002B6ED063003E
:104B200023449B0033449F7998F800205B88D11A76
:104B30008F4200DDCFB20137FFB26B002B449B00E8
:104B400006EB030ADAF8080010F0ECFC9AF80630DD
:104B500098421AD8B9F1000F4CD04FEA450A0AEB37
:104B6000050B4FEA8B0BB34402A83946274ADBF802
:104B700008300FF0F5FADBF80200244902AAFFF72B
:104B80002DFF00238BF8073034E04FEA450AAA4492
:104B90004FEA8A0AB244DAF80830009307A8C8211D
:104BA0001B4A0FF0DDFA9AF80730DFF860B002A870
:104BB00039465A4607AF3B440FF0D2FADAF8020002
:104BC000594602AAFFF70AFF3998FFF765FE9AF8DF
:104BD00007700137FFB28AF80770DAF8080010F0A2
:104BE000A1FC0430874205D905EB4505AD003544ED
:104BF0000023EB710134E4B2032C89D93BB0BDE84A
:104C0000F08F00BFFC100010241100109CA80100C0
:104C100074B00100B400001038B504460D461148C8
:104C20000BF04EFD18B10F4832210BF039FD2388EF
:104C30007BB1B32B04D00EE0B3232380002300E02C
:104C4000012363B1882D04D10020FFF755FFFFF742
:104C500059FE832DF0D100232380032038BD01208D
:104C600038BD00BF780400102DE9F84F0D46471CF1
:104C70003C464A49227802F18003CB5C03F02003D2
:104C800003F0FF060BB10134F4E7232A02D07E2A99
:104C900065D07FE000234249984603EB430292002F
:104CA0008A5CEAB103EB430292000A4450882A88E6
:104CB000904210D103EB430292000A4490886A8824
:104CC000904208D103EB43039B00354A1344986894
:104CD0000EF0A0FC04E00133DBB2042BDCD159E080
:104CE00008EB48084FEA8808DFF8B4B008EB0B0976
:104CF0004FF0000A84F800A0384610F04FFB89F806
:104D00000600012308F80B3089F807A0A04618F820
:104D1000013F002B3ED0232BF9D198F801303E2BD8
:104D2000F5D12B68C9F80230002388F8003001342F
:104D3000204610F0F7FB0EF00BFCC9F808002146E6
:104D400010F0D0FB99F806202B8813442B8001200B
:104D5000FFF7D2FEC7EB08060236F6B21AE00022D1
:104D60000127104914F8013F8BB17E2B02D16378E3
:104D70003E2B0ED06B882888104407FA00F031F8DB
:104D80001360304321F813000132D2B2EAE7012662
:104D900000E001263046BDE8F88F00BF09F70100AA
:104DA00024110010F410001010B504460F480BF049
:104DB0006FFE0F4B1C800F4900220A70204600F046
:104DC000A5FD88B10C4B04225A7002229A700B2266
:104DD0001A700A4800210BF02FFE0A20FFF708FB8B
:104DE000FFF7BAFC012010BD002010BD801A06009C
:104DF00054110010F810001058110010A0000010FD
:104E000008B5054B1880FE2803D1FFF7D3FC01201D
:104E100008BDFFF7C9FF08BD5411001000B583B0ED
:104E20001B238DF8003044238DF801304C238DF87E
:104E3000023000F08BFB68460321002200F016F9D7
:104E400003B05DF804FB00BF00B583B01B238DF8F1
:104E5000003044238DF8013045238DF80230684638
:104E60000321002200F002F903B05DF804FB00BF4B
:104E700000B583B044238DF8003040238DF8013015
:104E80008DF8020068460321012200F0EFF803B01C
:104E90005DF804FB00B587B0019000911B238DF8ED
:104EA0000C3052238DF80D3053238DF80E308DF8D1
:104EB0000F00000C8DF810008DF81110090C8DF802
:104EC000121003A80721002200F0D0F807B05DF807
:104ED00004FB00BF00B587B0019000911B238DF843
:104EE0000C3047238DF80D3044238DF80E308DF8AB
:104EF0000F00000C8DF810008DF81110090C8DF8C2
:104F0000121003A80721002200F0B0F807B05DF8E6
:104F100004FB00BF704700BF114B1B886BB1114AE7
:104F20001268114909880B449A4202D300220D4BA2
:104F30001A600C4B1A6801321A600C4B1B886BB15B
:104F40000B4A12680B4909880B449A4202D300228B
:104F5000074B1A60064B1A6801321A60704700BF8F
:104F60006611001060110010701100106411001023
:104F70006C11001068110010092801D840F0B00031
:104F8000024B18700122024B1A707047A0040010E7
:104F90007C11001010B50A480BF07AFD0124094B72
:104FA0001C700020FFF7E8FF00F08CFA064B1C7025
:104FB0001420FFF75DFFFFF747FFFFF7ABFF10BDC2
:104FC000A08601007C1100107211001070B504461B
:104FD0000D461B480BF074FB18B1194814210BF057
:104FE0005FFB23881D2B0DD0202B18D0EBB900269A
:104FF000144B1E701448C8210BF07CFB1D2323802A
:10500000334600E00123A3B10F480BF081FB90B1C0
:10501000FFF7C0FF07E020232380002300E00123E7
:105020005BB1FFF779FF832DF5D1002323800320A7
:1050300070BD012070BD012070BD012070BD00BF9A
:1050400090040010721100108804001010B40023A6
:105050001A4604E0C45C2244D2B20133DBB28B4274
:10506000F8D310465DF8044B704700BF2DE9F04FB0
:10507000ADB0834603910192644C01E00BF0BCFC9F
:105080002378002BFAD0A5E06FF03C0A03990AFBC5
:10509000091A059AD20802920135EDB2042D00F2E8
:1050A00094804B46BAF13D0FB4BF54463D24E6B25E
:1050B000019919B911228DF81C2002E012228DF8F5
:1050C0001C208DF81D60C3EB031203EB8201E4B2D8
:1050D00007AF0DF11E00594422460EF0E9F804F125
:1050E0000208B11C3846C9B2FFF7B0FF2CAA9044A1
:1050F00008F8940C464E30464CF25031FDF79AFFBA
:10510000444B1B785B082193229703342394052397
:105110002893002225922692304621A9FEF770F8A6
:10512000064668B93C480FF07DF83C48C8210BF0B2
:10513000E1FA3A4C20460BF0EBFA0028FAD0ABE744
:105140003648029B591C0BF0D5FA344C20460BF024
:10515000DFFA0028FAD02F4B1B785B08219300223E
:10516000229223920523289320AB25930123269393
:10517000274821A9FEF744F8064680B928480FF0D1
:1051800051F825480FF04EF82448C8210BF0B2FA28
:10519000224C20460BF0BCFA0028FAD07CE79DF8A0
:1051A0008030062B11D0152B09D01C48C8210BF0DC
:1051B000A1FA1A4C20460BF0ABFA0028FAD0194895
:1051C0009DF880100FF02EF866E709F101095FFAEB
:1051D00089F90EE04FF000094D464E46124B0399F7
:1051E000A3FB01131B090493104B039AA3FB0212A8
:1051F0000592049A4A45BFF447AF05480C4B19681D
:10520000FDF718FF30462DB0BDE8F08F7211001089
:1052100000C00540A0040010BCB0010074110010D3
:10522000D4B00100E8B001003FC52543CDCCCCCCC3
:10523000440F00104C23037000234370012282703E
:10524000C27002220271437104228271C3717047DD
:10525000072923D8DFE801F0040D101316191C1FCD
:105260004C2A03D0432A01D0522A19D102700120BE
:105270007047427001207047827001207047C270F1
:105280000120704702710120704742710120704770
:10529000827101207047C271012070470020704761
:1052A000002070470EB4F0B59EB0019023AB53F8C8
:1052B000042B03930DF1150064210EF085FF0646C3
:1052C000C7B20DF115040D252046294610F0DBF874
:1052D000044638B110F026F902462046611C0DF054
:1052E000E7FFF1E70DF115030A247C251846214656
:1052F00010F0C9F8034608B10570F7E71B238DF8D5
:1053000010305A238DF811300E4B1B788DF8123067
:10531000BDF804308DF81330BDF806308DF8143028
:10532000F6B205361EAB1E44002206F8682CB91DE5
:1053300004A8C9B2FFF79AFE1EB0BDE8F04003B062
:10534000704700BF8811001000B583B01B238DF893
:1053500000305A238DF80130013806283CD8DFE8A8
:1053600000F0040C0C171F272F0046238DF8023085
:105370004B788DF80330042129E05A238DF8023050
:105380008B788DF80330CB788DF8043005211EE042
:1053900059238DF802300B798DF80330042116E083
:1053A00057238DF802304B798DF8033004210EE03D
:1053B00056238DF802308B798DF80330042106E0F6
:1053C00042238DF80230CB798DF8033004216846F2
:1053D0000022FFF74BFE00E0002003B05DF804FB65
:1053E00038B504460378344A1278934202D1334ADE
:1053F00012780AB1324A137062782F4B5B789A4266
:1054000002D12E4B1B782BB101202146FFF79CFFC8
:10541000054600E00125A278274B9B789A4207D1E8
:10542000E278254BDB789A4202D1244B1B782BB1D2
:1054300002202146FFF788FF2843C5B222791E4B80
:105440001B799A4202D11D4B1B782BB104202146B7
:10545000FFF77AFF2843C5B26279174B5B799A420E
:1054600002D1164B1B782BB105202146FFF76CFFAC
:105470002843C5B2A279104B9B799A4202D10F4BB7
:105480001B782BB106202146FFF75EFF2843C5B2EB
:10549000E279094BDB799A4202D1084B1B782BB198
:1054A00007202146FFF750FF2843C5B2024B206872
:1054B000616803C3284638BD801100107C110010BC
:1054C0008811001008B50BF031F9034B18700BF080
:1054D0002DF9024B187008BD901100108E110010AC
:1054E00000B583B01B238DF8003041238DF80130C7
:1054F00052238DF802308DF8030068460421002203
:10550000FFF7B4FD03B05DF804FB00BF08B5002051
:10551000FFF7E6FF08BD00BF10B582B00446FFF7F5
:10552000F5FF1B238DF8003041238DF801304C230B
:105530008DF802308DF8034000228DF80420684673
:105540000521FFF793FD02B010BD00BF08B5002094
:10555000FFF7E2FF08BD00BF08B5074B1B78FF2B24
:1055600008D020B1054800210BF066FA08BD0348B9
:105570000BF07CFA08BD00BFCC000010D00000107A
:1055800000B58DB0144B1B78FF2B22D0FE2B04D11D
:1055900002200146FDF7E2FC1BE000228DF803200B
:1055A00001930DF103030293012303930523089351
:1055B00005920692094801A9FDF722FE30B9084874
:1055C0000EF030FE0022074B1A7002E00122054B5C
:1055D0001A700DB05DF804FBCC00001000C005404F
:1055E000FCB00100A104001010B5044600F086F9DB
:1055F000092C03D83834094B1C7002E06408074BAF
:105600001C700020064940F202220CF093FF0BF0C0
:105610008DF8044B1870FFF7B3FF10BDCC000010DD
:10562000A104001091110010034B1B78984201D186
:1056300008787047FF20704791110010F8B50446B4
:1056400002200146FDF782FC02204021FDF77EFC8E
:1056500002208021FDF77AFC02204FF48071FDF7D3
:1056600075FC202C08D0402C0BD0102C0ED1022021
:105670004021FDF773FC09E002208021FDF76EFC5C
:1056800004E002204FF48071FDF768FC00242546F9
:105690000226012732E0032C2ED8DFE804F0020DA9
:1056A00018233046FDF762FC10F0040F24D007FAEF
:1056B00004F31D43EDB21FE03046FDF757FC10F038
:1056C000080F19D007FA04F31D43EDB214E0304679
:1056D000FDF74CFC10F0100F0ED007FA04F31D4339
:1056E000EDB209E03046FDF741FC10F0200F03D089
:1056F00007FA04F31D43EDB20134E4B2032CCAD916
:105700002846F8BD2DE9F0418CB010250024284E24
:10571000DFF8AC80274F44E03378FE2B05D12846D4
:10572000FFF78CFF8DF803001FE0EA438DF802209D
:1057300001930DF1020302930123039305220892C2
:105740000DF1030205920693404601A90022FDF7E0
:1057500057FD50B9174B1B7813B117480EF062FD77
:105760000022144B1A70FF201EE001233B7000231F
:1057700008E09DF80320D2431A4112F0010F03D133
:105780000133DBB2032BF4D9032B04D96D00EDB246
:105790000134E4B205E003EB43031C44074B185DFE
:1057A00002E0022CB8D9FF200CB0BDE8F08100BFA8
:1057B000CC000010A1040010FCB0010070B1010089
:1057C00000C0054070B504460D461D480AF078FF3C
:1057D00018B11B480A210AF063FF238813B1742B08
:1057E00022D027E016480A210AF05AFFFFF78AFF65
:1057F000144B18701AE0FFF785FF124B1B78984284
:105800000ED0104B1870FF280AD01E4600200E4BF9
:10581000197832460AF0AAFF0C4831780EF002FDE2
:1058200074232380002300E001233BB1832DE2D1C8
:10583000FFF7A6FE00232380032070BD012070BD6A
:10584000A4040010CD0000109111001018B1010047
:1058500008B5FE22154B1A70022004210022FDF724
:1058600065FB022008210022FDF760FB02201021C9
:105870000022FDF75BFB022020210022FDF756FBF2
:10588000022040210122FDF751FB0220802101224C
:10589000FDF74CFB02204FF480710122FDF746FB1F
:1058A000022001460122FDF741FB08BDCC0000109B
:1058B00010B582B004460C4B00930C480C490122F1
:1058C0000C4B0CF06DFC003018BF01200A4AD0725E
:1058D00038B1FE2C02D1FFF7BBFF02E02046FFF7F4
:1058E00083FE02B010BD00BF90EB010064A8010070
:1058F00038B101004CB101009411001008B5024804
:105900000BF0C6F808BD00BF801A060000B58DB0C8
:10591000092803D838300190002201E040080190A6
:105920000B781A430A70029101230393052308930D
:10593000002205920692034801A9FDF761FC0DB013
:105940005DF804FB00C005402DE9F00FD0B00F2337
:10595000EC460FE051F8042B4FEA322404F0FF2408
:105960004FEA326202F0FF122243CCF80020013BE2
:105970000CF1040C002BEDDA3F236D4602AC08A9B4
:105980000DAA0FE017680E687740266877402E68EA
:105990007E404FEAF6764CF8046B013B0435043444
:1059A00004310432002BEDDA8468C568026941696C
:1059B00082EA010A0AEA050A8AEA010A0AEBF46A9B
:1059C00083699A44009B9A44EC4B9A444FEAB50889
:1059D00082EA08072740574007EBFA670F44019E09
:1059E0003E44F7184FEAB40988EA090C0AEA0C0C9D
:1059F00088EA0C0C0CEBF76C9444029E664406EBB0
:105A0000030C4FEABA0A89EA0A063E4089EA06060A
:105A100006EBFC66B044039E464406EB03084FEADF
:105A2000B7078AEA07060CEA06068AEA060606EBC4
:105A3000F866B144049E4E4406EB03094FEABC0CE1
:105A400087EA0C0608EA06067E4006EBF966B244D1
:105A5000059E564406EB030A4FEAB8088CEA08068E
:105A600009EA06068CEA060606EBFA663744069E45
:105A70003E44F7184FEAB90988EA09060AEA060619
:105A800088EA060606EBF766B444079E664406EB12
:105A9000030C4FEABA0A89EA0A063E4089EA06067A
:105AA00006EBFC66B044089E464406EB03084FEA4A
:105AB000B7078AEA07060CEA06068AEA060606EB34
:105AC000F866B144099E4E4406EB03094FEABC0C4C
:105AD00087EA0C0608EA06067E4006EBF966B24441
