:10000000008000104D410000F5400000998501007E
:10001000FD400000014100000541000022B5FCEF59
:100020000000000000000000000000000941000086
:100030000D4100000000000011410000518B010043
:100040001941000019410000194100001941000048
:100050001941000019410000F1690100016A010025
:100060002D870100194100001941000019410000CD
:100070001941000019410000194100001941000018
:100080001941000019410000194100001941000008
:100090001941000019410000896D0000194100005C
:1000A00019410000194100001941000019410000E8
:1000B000E9CD00001941000019410000194100007C
:1000C000194100001941000019410000901B020075
:1000D00000000010A0030000901B020000C00720D9
:1000E00000000000A0030010BC2D000000C007208D
:1000F0005C760000FEE700BFFEE700BFFEE700BF42
:10010000FEE700BFFEE700BFFEE700BFFEE700BF5F
:10011000FEE700BFFEE700BFFEE700BF10B400230C
:1001200004E004680C600433043004319342F8D3D3
:100130005DF8044B704700BF00231A4602E00260DE
:10014000043304308B42FAD3704700BF38B54FF008
:1001500080531C4AAD20DE2106E013F0010F01D0D0
:10016000196000E0186001339342F6D9164B174A24
:10017000AB20BE2106E013F0010F01D0196000E0B2
:10018000186001339342F6D9114B124C07E003F18A
:100190000C05186859689A68FFF7C0FF2B46A34200
:1001A000F5D307E01C4654F8080B5968FFF7C4FF65
:1001B000234600E0084DAB42F4D314F0C9FD14F01F
:1001C00047FEFEE7FE7D001000C00720FE3D082030
:1001D000CC400000E4400000F4400000FFFFFFFFBF
:1001E000FFFFFFFFFFFFFFFFFFFFFFFFFFFFFFFF1F
:1001F000FFFFFFFFFFFFFFFFFFFFFFFFFFFFFFFF0F
:10020000FFFFFFFFFFFFFFFFFFFFFFFFFFFFFFFFFE
:10021000FFFFFFFFFFFFFFFFFFFFFFFFFFFFFFFFEE
:10022000FFFFFFFFFFFFFFFFFFFFFFFFFFFFFFFFDE
:10023000FFFFFFFFFFFFFFFFFFFFFFFFFFFFFFFFCE
:10024000FFFFFFFFFFFFFFFFFFFFFFFFFFFFFFFFBE
:10025000FFFFFFFFFFFFFFFFFFFFFFFFFFFFFFFFAE
:10026000FFFFFFFFFFFFFFFFFFFFFFFFFFFFFFFF9E
:10027000FFFFFFFFFFFFFFFFFFFFFFFFFFFFFFFF8E
:10028000FFFFFFFFFFFFFFFFFFFFFFFFFFFFFFFF7E
:10029000FFFFFFFFFFFFFFFFFFFFFFFFFFFFFFFF6E
:1002A000FFFFFFFFFFFFFFFFFFFFFFFFFFFFFFFF5E
:1002B000FFFFFFFFFFFFFFFFFFFFFFFFFFFFFFFF4E
:1002C000FFFFFFFFFFFFFFFFFFFFFFFFFFFFFFFF3E
:1002D000FFFFFFFFFFFFFFFFFFFFFFFFFFFFFFFF2E
:1002E000FFFFFFFFFFFFFFFFFFFFFFFFFFFFFFFF1E
:1002F000FFFFFFFFFFFFFFFFFFFFFFFFFFFFFFFF0E
:1003000010B584B0204B18680390002003F0D2FB96
:100310001E4C20460621052206F098FB20460021AF
:10032000432206F093FB204606F058FC184B1B882E
:100330005BB9184B1878184B197800F0E9FE0246A3
:100340000398164906F0ACFB13E0124B1878124BD9
:10035000197800F0DDFE02460D4BB3F90030632B37
:1003600001DC0F4900E00F49009103980E4906F0A7
:1003700097FB064C20460621012206F067FB20462B
:1003800006F02CFC04B010BD98C30100B415001099
:100390006C150010AA150010FC000010A8C3010085
:1003A000A4C30100A0CD0100B8C301002DE9F041B4
:1003B00084B0704B586803900024ADF808401422B4
:1003C000ADF80A209868019006F026F96A4D284693
:1003D0002146432206F03AFB284606F0FFFB674B16
:1003E0001A68121B18BF0122654B1A70634D654FC6
:1003F000654E286801F0B0FA286000284DD00379D6
:10040000022B02D0062B22D042E090F814803878DC
:10041000317800F0A3FF034603985C49424606F09A
:100420003FFB0298019906F053F9BDF80E301433E2
:10043000ADF80E30BDF80A301433ADF80A30BDF80F
:1004400006301433ADF806300134E4B220E090F801
:1004500014803878317800F09DFF034603984B49AB
:10046000424606F01DFB0298019906F031F9BDF8ED
:100470000E301433ADF80E30BDF80A301433ADF839
:100480000A30BDF806301433ADF806300134E4B25A
:10049000022CAED901223A4B1A706CB9394B18783C
:1004A000394B197800F042FE0146039806F0F8FA3D
:1004B0000298019906F00CF94B23ADF80A306E232F
:1004C000ADF806300298019906F0E2F82A4C204671
:1004D0000621052206F0BAFA204606F07FFB5023DB
:1004E000ADF80E30274F284E3878317800F09CFE5A
:1004F0000146039806F0D4FAFFF702FF20460621D2
:10050000012206F0A3FA204600214C2206F09EFAB2
:10051000204606F063FB7123ADF80E300025ADF8E0
:100520000C500120317800F09BFE024603981849D8
:1005300006F0B6FA20462946522206F087FA2046EF
:1005400006F04CFBF023ADF80C303878317800F031
:1005500079FE024603980F4906F0A2FA2046294682
:10056000432206F073FA204606F038FB04B0BDE8DB
:10057000F08100BF98C30100B4150010B40300104F
:10058000A0030010AA150010FC000010C8C3010051
:10059000D0C30100D8C30100F8B504460D46164685
:1005A000574811F0E3FD18B15548642111F0CEFD14
:1005B00023884D2B6BD05E2B00F09680002B40F0F3
:1005C00097804F48642111F0C1FD01F069F90022C4
:1005D0004C4B1A80FFF7EAFE012006F0BBFB4A48AD
:1005E00040F2DC5111F0B2FD48484FF42F7111F088
:1005F000D7FD7BE003F0D8FC454B1B789D4206D12C
:10060000FFF7D4FE41484FF42F7111F0C9FD882D3A
:1006100016D13D4811F0AAFD38B13E4B1B7823B1ED
:1006200000223C4B1A70FFF7C1FE384811F0C6FD9E
:1006300030B1FFF7BBFE35484FF42F7111F0B0FD1C
:10064000354B1B789D424BD12846314606F0EAFBDC
:100650000746582808D100252A4B1D802F4803F053
:100660001DF825800220F8BD562820D1254B18788A
:1006700001F03CF930B12A4803F010F80023238040
:100680000220F8BD0022274B1A804D232380214BE6
:100690001878254B197800F02DFD03F051FA012848
:1006A0002AD90022174B1A80FFF780FE16E009288E
:1006B00014D8154840F2DC5111F048FD114AB2F946
:1006C000003003EB83035B003B449BB213801BB2FF
:1006D000B3F57A7F02DB00220A4B1A80FFF710FE87
:1006E0005E232380002300E001233BB1832D81D1D1
:1006F000002323800320F8BD0020F8BD0120F8BDB1
:10070000A40300106C150010B8030010C8030010FB
:1007100078150010AA1500109D1600101400001086
:1007200028000010CC150010FC00001070B584B03B
:100730006E4B53F8040B0025ADF80850ADF80A5085
:100740001868019005F068FF0298019905F0A0FF74
:10075000674C20460621032206F078F9204606F071
:100760003DFA7823ADF80C300523ADF80E30614E1C
:10077000614B1878317800F081FD0146039806F04E
:100780008FF920460621012206F060F9204606F086
:1007900025FA3078294603F075FB00B30A23ADF83B
:1007A0000C301E23ADF80E3003985449012206F098
:1007B00077F97823ADF80C302846317800F06CFDDD
:1007C0000146039806F06CF93223ADF80A30ADF813
:1007D00006300298019905F07BFF022400E0012415
:1007E000444B1878012103F04DFB30B30A23ADF8D8
:1007F0000C30BDF80E501935ADB2ADF80E50661C78
:10080000F6B203983D49224606F04AF97823ADF83E
:100810000C300120374B197800F04CFD014603984D
:1008200006F03EF91435ADB2ADF80A50ADF80650F9
:100830000298019905F04CFF34462E4B187802219E
:1008400003F020FB30B30A23ADF80C30BDF80E5096
:100850001935ADB2ADF80E50661CF6B203982749B3
:10086000224606F01DF97823ADF80C300220214B0A
:10087000197800F02DFD0146039806F011F91435A2
:10088000ADB2ADF80A50ADF806500298019905F0E6
:100890001FFF3446174B1878032103F0F3FA18B3FF
:1008A0000A23ADF80C30BDF80E501935ADB2ADF8D5
:1008B0000E5003981149224606F0F2F87823ADF85D
:1008C0000C3003200B4B197800F010FD0146039803
:1008D00006F0E6F81435ADB2ADF80A50ADF80650A2
:1008E0000298019905F0F4FE04B070BDECC301005C
:1008F000B4150010FC000010AA150010F4C301008C
:100900002DE9F04104460D461646038813B1562BD7
:1009100064D067E0FFF70AFF012006F01BFA002011
:10092000012105F025F9334840F2DC5111F00EFCAD
:1009300056E0314B1B789D4243D196F800802F4BF7
:100940001878002103F09EFA50B1B8F1010F09D1D7
:1009500000222B4B1A702B4802F0A0FE022702E067
:10096000012700E00227254B1878012103F08AFABD
:1009700048B1474505D10122214B1A70214802F0A8
:100980008DFE0137FFB21D4B1878022103F07AFA71
:1009900048B1474505D10122194B1A70194802F098
:1009A0007DFE0137FFB2154B1878032103F06AFA78
:1009B00038B1474505D10322114B1A70114802F096
:1009C0006DFE882D06D10B4811F0D0FB10B10D48FB
:1009D00002F064FE56232380002300E0012333B19C
:1009E000832DA6D1002323800320BDE8F0810120C0
:1009F000BDE8F081F42700109D160010FC000010E7
:100A0000AA150010000000102DE9F04F85B0024635
:100A10000E46824B53F8040B03900021ADF80810EA
:100A20001121ADF80A10186801900AB105F0F4FD23
:100A30007B4C20460021432206F008F82046062180
:100A4000042206F003F8204606F0C8F83378062B97
:100A50003FD8DFE803F00404131E291E3400714B55
:100A60001878714B197800F053FB024603986F49D0
:100A70006F4BB3F9003006F013F82AE0694B187891
:100A8000694B197800F04EFC0146039806F008F80F
:100A90001FE0644B1878644B197800F035FC014670
:100AA000039805F0FDFF14E05E4B18785E4B197853
:100AB00000F046FC0146039805F0F2FF09E0594BAF
:100AC0001878594B197800F065FC0146039805F039
:100AD000E7FF0298019905F0FBFD514C20460021EB
:100AE0004C2205F0B3FF204606F078F81423ADF849
:100AF0000C301323ADF80E303378062B3AD8DFE8EC
:100B000003F0041F040404390400464D464C2878C1
:100B1000217800F019FB02460398464905F0C0FF12
:100B20008C23ADF80C302878217800F01BFB0246AE
:100B30000398414905F0B4FF1423ADF80C3019E0D7
:100B4000384D394C2878217800F0FEFA0246039897
:100B5000384905F0A5FF8C23ADF80C3028782178B2
:100B600000F00EFB02460398334905F099FF142369
:100B7000ADF80C307388ABB12223ADF80E30294BA1
:100B80001878294B197800F009FB02460398294987
:100B900005F086FF8C23ADF80C3003982749728846
:100BA00005F07EFF1423ADF80C30BDF80E700F3742
:100BB000BFB2ADF80E70B088B0F57A7F44D2DFF8DE
:100BC0006490DFF8648099F8000098F8001000F055
:100BD000F3FA0246174D0398294605F061FF8C246D
:100BE000ADF80C400398164905F05AFF1423ADF8F0
:100BF0000C300F37ADF80E7099F8000098F800101F
:100C000000F0E8FA02460398294605F049FFADF8DE
:100C10000C4003980B4905F043FF50E008C4010065
:100C2000B4150010AA150010FC00001010C401003B
:100C30006C15001018C40100C0C3010020C40100DD
:100C400028C4010034C4010017F006FA00225F4BEB
:100C500016F00CFF04460D46DFF87CB1DFF87CA1EE
:100C60009BF800009AF8001000F0A6FA0246DFF8A0
:100C700070910398494605F013FF4FF08C08ADF8CA
:100C80000C800398524922462B4605F009FF142395
:100C9000ADF80C300F37ADF80E709BF800009AF8E5
:100CA000001000F097FA02460398494605F0F8FE56
:100CB000ADF80C8003984749F28805F0F1FEB3685F
:100CC000F3B11423ADF80C30BDF80E300F33ADF88E
:100CD0000E30414B1878414B197800F069FB024601
:100CE00003983F4905F0DCFE8C23ADF80C30B36867
:100CF0003C4AA2FB031203983B49920905F0D0FE3F
:100D00001423ADF80C30BDF80E300F33ADF80E30B3
:100D1000F06817F0A1F900222C4B16F0A7FE04464C
:100D20000D46DFF8B4802D4F98F80000397800F0B8
:100D30004DFB024603982A4905F0B2FE8C23ADF81C
:100D40000C300398294922462B4605F0A9FE6E2354
:100D5000ADF80A30ADF806300298019905F0B8FCFC
:100D60007123ADF80E300023ADF80C3098F8000078
:100D7000397800F03DFA024603981D4905F090FECF
:100D80003378012B15D0F023ADF80C30194C2046E8
:100D90000021522205F05AFE204605F01FFF98F868
:100DA0000000397800F032FA02460398124905F043
:100DB00077FE104C20460021432205F047FE2046D6
:100DC00005F00CFF05B0BDE8F08F00BF00408F407C
:100DD00040C401004CC40100AA150010FC00001022
:100DE00018C40100D34D621054C4010060C4010056
:100DF000D0C30100B4150010D8C301002DE9F043A1
:100E000093B004460D461746994811F0AFF918B152
:100E10009748642111F09AF923886B2B00F0C88061
:100E200004D853B1652B00F0AD8013E1742B00F0B2
:100E3000E5807D2B00F009810CE18D48642111F0E3
:100E400085F9DFF87082B8F8000002F03FF9064635
:100E500098F8000000F06EFD0146864B1860B378EC
:100E60000370F3784380B3888380F388C380336949
:100E70008360B368C3600120FFF7C6FD7E4840F67B
:100E8000B83111F063F97D484FF4FA7111F05EF951
:100E9000DDE07A4811F06AF908B378484FF4FA7146
:100EA00011F054F9DFF80C82B8F8000002F00EF9E6
:100EB000064698F8000000F03DFD01466D4B1860B5
:100EC000B3780370F3784380B3888380F388C3805A
:100ED00033698360B368C3600020FFF795FD684BFA
:100EE0001B789D4240F0A4802846394605F09AFFC1
:100EF000582806D1634802F0D1FB0023238002204A
:100F0000B3E0562840F094805A4B1B681B780BB115
:100F1000022B46D15C4B00935C485D4900225D4B3F
:100F200012F0A2FE30B15C4802F0B8FB002323802F
:100F300002209AE0DFF87C8106A8584998F8002042
:100F40000AF078FC01460CAE304601220AF0A0FF00
:100F5000534BD3F8009098F8000000F0D9FCCDF87E
:100F60000C9001230493059012AB13E907008DE860
:100F7000070096E80E000BA809F050F838B1652379
:100F800023808025474B1B789D4267D10B970B9B95
:100F9000B3F91030632B46D1364B1B6801221A700F
:100FA00041E0062B1AD100223F4B1A806B2323808D
:100FB000DFF804813D4E98F80000317800F0DCF94C
:100FC000814698F80000317800F0E4F9024638488C
:100FD000494602F0B5FD012825D841E0032B06D192
:100FE0002D4802F05BFB0023238002203DE0042B10
:100FF00019D100222C4B1A8074232380DFF8B8808B
:101000002A4E98F80000317800F0B6F9814698F839
:101010000000317800F094F902462548494602F074
:101020008FFD01281ED90120124B1968FFF7ECFC37
:10103000882D06D1104811F099F810B1114802F02E
:101040002DFB7D232380002300E0012363B1832D4A
:101050007FF41FAF00232380032006E0002004E07C
:10106000002002E0002000E0012013B0BDE8F08382
:10107000E4030010D0030010F4270010D403001084
:101080009D160010000000109C0D020070C40100AD
:1010900078C4010084C401003C000010A4C4010015
:1010A000A01200100E1E0010CC150010FC00001045
:1010B000ACC401006C150010AA1500100EB400B5E8
:1010C000014604489DF8042012F000FE5DF804EB90
:1010D00003B07047C4C401000EB400B50146044813
:1010E0009DF8042012F0F2FD5DF804EB03B07047A8
:1010F00030C501000EB400B5014604489DF8042037
:1011000012F0E4FD5DF804EB03B07047ECC501009C
:101110000EB400B5014604489DF8042012F0D6FD37
:101120005DF804EB03B070470CC601000EB400B5C7
:10113000014604489DF8042012F0C8FD5DF804EB58
:1011400003B070471CC601000EB400B50146044848
:101150009DF8042012F0BAFD5DF804EB03B070476F
:1011600030C601000EB400B5014604489DF80420C5
:1011700012F0ACFD5DF804EB03B0704738C6010017
:101180000EB400B5014604489DF8042012F09EFDFF
:101190005DF804EB03B0704744C601000EB400B51F
:1011A000014604489DF8042012F090FD5DF804EB20
:1011B00003B0704750C601000EB400B501460448A4
:1011C0009DF8042012F082FD5DF804EB03B0704737
:1011D00060C601000EB400B5014604489DF8042025
:1011E00012F074FD5DF804EB03B070476CC60100AB
:1011F0000EB400B5014604489DF8042012F066FDC7
:101200005DF804EB03B0704774C601000EB400B57E
:10121000014604489DF8042012F058FD5DF804EBE7
:1012200003B070477CC601000EB400B50146044807
:101230009DF8042012F04AFD5DF804EB03B07047FE
:1012400088C601000EB400B5014604489DF804208C
:1012500012F03CFD5DF804EB03B07047A4C601003A
:101260000EB400B5014604489DF8042012F02EFD8E
:101270005DF804EB03B07047B0C601000EB400B5D2
:10128000014604489DF8042012F020FD5DF804EBAF
:1012900003B07047BCC601000EB400B50146044857
:1012A0009DF8042012F012FD5DF804EB03B07047C6
:1012B000D0C601000EB400B5014604489DF80420D4
:1012C00012F004FD5DF804EB03B07047D8C60100CE
:1012D0000EB400B5014604489DF8042012F0F6FC57
:1012E0005DF804EB03B07047E4C601000EB400B52E
:1012F000014604489DF8042012F0E8FC5DF804EB78
:1013000003B07047F0C601000EB400B501460448B2
:101310009DF8042012F0DAFC5DF804EB03B070478E
:10132000FCC601000EB400B5014604489DF8042037
:1013300012F0CCFC5DF804EB03B0704710C701005D
:101340000EB400B5014604489DF8042012F0BEFC1E
:101350005DF804EB03B070471CC701000EB400B584
:10136000014604489DF8042012F0B0FC5DF804EB3F
:1013700003B0704738C701000EB400B501460448F9
:101380009DF8042012F0A2FC5DF804EB03B0704756
:1013900064C701000EB400B5014604489DF804205E
:1013A00012F094FC5DF804EB03B070477CC70100B9
:1013B0000EB400B5014604489DF8042012F086FCE6
:1013C0005DF804EB03B070478CC701000EB400B5A4
:1013D000014604489DF8042012F078FC5DF804EB07
:1013E00003B0704798C701000EB400B50146044829
:1013F0009DF8042012F06AFC5DF804EB03B070471E
:10140000A8C701000EB400B5014604489DF80420A9
:1014100012F05CFC5DF804EB03B07047BCC7010040
:1014200000B585B0154B1868039068462021072247
:1014300013F01CFD68465F21114B1A7813F016FD5E
:101440003723ADF80E3000230E492A2008E00A7831
:10145000934203D204AA1A4402F8100C0133DBB2FF
:10146000062BF4D900238DF80730039806496A4605
:1014700005F016FB05B05DF804FB00BFCCC701000A
:10148000FD030010FC030010B0C4010000B583B0E0
:101490007823ADF804300023ADF8063005F0BCF831
:1014A0000A4805F09BFB0A4B18780A4B1978FFF79E
:1014B000A9FF02460198084905F0F2FA074805F02D
:1014C0008DFBFFF7ADFF03B05DF804FBBC1500100A
:1014D000AA150010FC000010D0C70100B4150010C0
:1014E0002DE9F04198B004460D46164603884F2B6F
:1014F00000F0E98004D86BB1462B00F0A1805CE1DC
:10150000632B00F03D816E2B00F05281612B40F087
:10151000548125E10022B14B1A70B1480C210722F9
:1015200013F0A4FCAF4B0093AF48B0490522B04B79
:1015300012F06AFBAF4B1870FFF7A8FFAE4840F6F9
:10154000B83110F003FE35E1882D06D1AA4810F01D
:101550000DFE10B1A94802F0A1F8A94B1B789D42DD
:1015600040F02281A44840F6B83110F0EFFD284643
:10157000314605F057FC58280DD199480C21072217
:1015800013F074FC0025954B1D709E4802F086F800
:10159000258002201EE1562800F00681FF2800F079
:1015A00003818E4B1F78062F00F2FE80DFF87082D9
:1015B000022388F800302846314605F033FC4744C2
:1015C0007870864F3B7801333B70FFF75FFF3B78C5
:1015D000884A11788B4240F0E58008F1010012F052
:1015E00059FC002848D008F101000C21072213F013
:1015F0003DFC00223A70844F07A884493A780AF0EB
:1016000019F901460CAD284601220AF041FC804B35
:10161000D3F80080387800F07BF9CDF80C800123F6
:10162000049305900FAB93E807008DE8070095E859
:101630000E00784808F0F2FC48B14623238080254C
:10164000754B1B789D4240F0BC80724B1E60714B05
:101650001B68B3F91030632B07D16B4B187800F07F
:1016600069F96E4B186001230370664802F016F8A2
:10167000002323800220ADE0012002F01BFA12AF0C
:10168000674B684A1188604A12880A4492B20092F5
:10169000384619685A6801230AF040F95C4B1B6808
:1016A0000393012304930023059318AB13E9070068
:1016B0008DE8070097E80E00564808F0AFFC40B1EF
:1016C0004F2323808025544B1B789D427BD1514B67
:1016D0001E60002002F0EEF90022404B1A704D4BC4
:1016E0001B681B8A1AB22A2A32D13D480C210722D4
:1016F00013F0BCFB0025394B1D704A4B1888424B38
:101700001B88184480B201F0E1FC0746464864217A
:1017100010F046FD2B46454E6425012104E005FBF3
:10172000036282F862100133072BF8DD388801F07C
:10173000CFF9354B187800F0FDF8384B18600123CD
:101740000370304801F0AAFF00232380022041E00B
:101750001BB22E2B0FD10022354B1A806123238020
:10176000344B1878344B1978FFF73EFE02F0E8F955
:1017700001280FD829E000222D4B1A8063232380F3
:101780002C4B18782C4B1978FFF7A6FC02F0D8F9EF
:1017900001281CD912480C21072213F067FBFFF720
:1017A00075FE01E0FFF73CFE6E232380002300E07E
:1017B000012373B1832D7FF4C7AE00232380032060
:1017C00008E0002006E0002004E0002002E0002005
:1017D00000E0012018B0BDE8F08100BFFC0300105C
:1017E000F11500109C0D0200D8C70100E0C70100F0
:1017F000ECC70100FD030010F427001000000010EA
:101800009D160010280000106C150010A4C40100E3
:10181000A0120010F40300100E1E0010F8030010B8
:10182000F015001088080010701500103005001029
:10183000CC150010AA150010FC00001084B010B5E3
:1018400002AC84E80F00154811F040FA0AE0027D6E
:101850009DF81C309A4203D1BDF81E30C38218E0B7
:1018600011F06EFA0028F2D1182011F05BF904464D
:101870000021182213F0FAFA204602A9182213F0C8
:10188000F3FA00232360032323710448214611F057
:101890003DFABDE8104004B0704700BF00040010DE
:1018A00070B58AB00024104E642519E005FB04F3DE
:1018B000F35AA3B102A808F069FDBDF80A30ADF8EB
:1018C000263005FB04F3F35A8DF824300AAB13E9F4
:1018D00003008DE8030004AB0FCBFFF7AFFF01342B
:1018E000072CE3DD0AB070BD3005001010B50446CA
:1018F000064811F0EBF904E0037DA34204D011F097
:101900001FFA0028F8D110BD012010BD00040010FE
:1019100010B50446064811F0D9F906E0037DA3424C
:1019200001D1C08A10BD11F00BFA0028F6D110BD0C
:101930000004001010B50446064811F0C7F906E08F
:10194000037DA34201D1043010BD11F0F9F9002844
:10195000F6D110BD0004001008B518B9034811F005
:10196000B5F908BD11F0ECF908BD00BF0004001086
:101970002DE9F04389B06C46254D0FCD0FC495E895
:101980000F0084E80F00022002F0EEFE00F47F77E3
:10199000204B1B68BB422ED136E005FB04F3F05A06
:1019A00030B308AA02EB840353F8203C3B4211D128
:1019B00005FB04639B78072B1AD0012B18D001F08C
:1019C00087F805FB0469002289F86120072389F85C
:1019D00002300DE005FB04639B78072B08D101F072
:1019E000C1F805FB046989F86180032389F8023096
:1019F0000134E4B204E00024074E64254FF00108EE
:101A0000072CCAD9034B1F6009B0BDE8F08300BFA3
:101A100010C8010018040010300500102DE9F04F27
:101A2000D7B006460F469046A04810F09FFB20B165
:101A30009E484FF4FA7110F089FBFFF799FF338845
:101A40007E2B00F0D28105D863B1622B00F0C380F9
:101A500000F0E3BC8F2B00F07382EE2B00F0D884F3
:101A600000F0DBBC9248642110F09AFB0022914BFD
:101A70001A701C46DFF874A2DFF874924EE01BA8BF
:101A80005146013213F044FC94F800B08A4D0095A1
:101A900048461BA90BF10102884B12F0B5F86423EC
:101AA00003FB0BFB864B23F80B0022781BA8854910
:101AB000013213F02DFC009548461BA90022824BF1
:101AC00012F0A2F8012809D0022816D02378642148
:101AD0007B4A01FB032303229A701CE0784D237894
:101AE0004FF0640B0BFB03F3E85A00F0F1FF23788F
:101AF0000BFB03550723AB700DE0714D23784FF0BE
:101B0000640B0BFB03F3E85A01F02CF823780BFB72
:101B100003550723AB702378013323702278072AFB
:101B2000ADD900F077BC02F03FFA882F40F06C840A
:101B30000022604B1A7000F059BC6421604A01FB1E
:101B400003229278072A00F04D84052A04D15C4ACA
:101B500001FB0322526962B96421594A01FB032344
:101B600093F862302BB9524810F028FB002800F09F
:101B70000A81DFF840A19AF80010514C4FF0640937
:101B800009FB0143002583F862505048013114F0ED
:101B900025F99AF8003009FB03F934F8091026AC4E
:101BA0004B4B1B7819442046C9B20AF091F8494BB7
:101BB0001B68039301230493059529AB93E8070061
:101BC0008DE8070094E80E00434808F027FA50B16A
:101BD000622333808027414B1B789F4240F0218451
:101BE0003D4BC3F800803C4B1868038A1AB2E42AC4
:101BF00014D1304C25780AF089F8314B642101FB6F
:101C000005356861227801FB0233012183F86110F8
:101C100033485969013214F0E1F8B4E01BB2292BC2
:101C200040F0E083234B1B786421254A01FB03220B
:101C30005269002A00F09080214A01FB032C0CF12C
:101C4000180E05AC0CF13C050FCD0FC40FCD0FC421
:101C50002B68236000230E936C460CF128050FCDF2
:101C60000FC42B6823609EE80F0012F0A9FE00222B
:101C7000002316F0F5F900286ED01A4814F0AEF8DB
:101C80000C4B1B7864210E4A01FB032303229A703C
:101C900023A8052101226A2309F08AFD124B18703E
:101CA0001D46DFF81CA0DFF80C9052E0080400107D
:101CB00070150010040400109C0D020054C80100AF
:101CC0003005001074C8010084C801009CC80100E0
:101CD00088080010A01200101C0400100E1E001036
:101CE000C4C80100ECC801002004001030C8010085
:101CF00044C8010099F80030642404FB03F320A8D1
:101D000065491AF8032009F095FD014699F800305D
:101D100004FB03A32CAC20469A780AF0B9F82B7880
:101D20004FF0000ECDF80CE0CDF810E056AA02EB13
:101D3000430333F8CE3C05932FAB93E807008DE8BF
:101D4000070094E80E00704608F068F92B78013B14
:101D50002B702B78002BCDD1DFF8489199F800300B
:101D60004E4C642505FB03F3E21800215161E05A53
:101D700000F0F8FE99F8003005FB03440323A3703C
:101D8000474814F02BF8474B19786422434B02FB69
:101D9000013393F86130002B00F01B814248013180
:101DA00014F01CF83F4B1A7864253C4B05FB0235B8
:101DB00032AC3E4B204619685A686B6909F008FF3F
:101DC0003B4B1B680393012304930023059335AB1E
:101DD00093E807008DE8070094E80E00354808F006
:101DE0001DF950B17E2333808027334B1B789F42EF
:101DF00040F019832F4BC3F800802E4B19680B8AD3
:101E00001AB2DD2A5ED1DFF89CA09AF80040234D7B
:101E10004FF0640909FB0454183410A809F0F8FEC7
:101E20000DF1400EBEE80F000FC4BEE80F000FC456
:101E3000DEF8003023609AF8004009FB045410A833
:101E40001C4B196809F014FF3C340DF1400EBEE83C
:101E50000F000FC4BEE80F000FC4DEF8003023608F
:101E60009AF8004009FB0450183012F04DFD15F0AF
:101E7000CBFA02461148611C13F0B0FF9AF800003B
:101E800009FB00503C3012F03FFD15F0BDFA014651
:101E90000B4813F0A3FF2DE0A4C40100300500108F
:101EA0000CC901000404001028C90100F815001035
:101EB000A01200101C0400100E1E001050C90100DA
:101EC00078C901001BB2292B40F08C82DFF85C92AC
:101ED00099F80030944C642505FB03F3E2180021C7
:101EE0005161E05A00F03EFE99F8003005FB0344D2
:101EF0000323A3708D4C21788D48013113F06EFFC0
:101F000023786421884A01FB032338AC20465969B1
:101F1000884A09F001FF884B1B680393012304934F
:101F2000002305933BAB93E807008DE8070094E896
:101F30000E00824808F072F850B18F23338080275A
:101F40007F4B1B789F4240F070827C4BC3F800802F
:101F50007A4B1868B0F91030E72B40F0438209F053
:101F600037FF01461AA83D220FF022FF042824D192
:101F70006E4C21787348013113F030FF94F800A0C3
:101F80001A9B586814F0E6FF674D4FF0640909FB8F
:101F90000A5A8AF8030094F800A01A9B986814F073
:101FA000D9FF09FB0A5ACAF8100024781A9BD8688E
:101FB00014F0D0FF09FB0454A0601A9813F006F93E
:101FC0005A4B1B786421584A01FB0323002283F8F3
:101FD0006120564B1B786421534A01FB032252694E
:101FE000002A00F0F381504A01FB03229278072A6D
:101FF00000F0E68008464C4900FB0311C97800292F
:102000005DD00446484804FB030084884E48A0FB8A
:102010000450B1EB901F52D2012A50D1424C64259A
:1020200005FB03F3E05A00F09DFD404B197805FBDA
:1020300001440223A3704548013113F0CFFE23A8C9
:10204000052101226A2309F0B3FB414B18701D469C
:10205000DFF8D4A0DFF8D4902EE099F800306424A3
:1020600004FB03F320A83B491AF8032009F0E2FB24
:10207000014699F8003004FB03A33EAC20469A7851
:1020800009F006FF2B784FF0000ECDF80CE0CDF8EC
:1020900010E056AA02EB430333F8CE3C059341AB64
:1020A00093E807008DE8070094E80E00704607F0FB
:1020B000B5FF2B78013B2B702B78002BCDD11B4B20
:1020C0001B786421184A01FB03221269002A77D089
:1020D0000846154900FB031189688A4270D2124AEA
:1020E00000FB03229278012A6AD10F4C054600FBBF
:1020F00003F3E05A00F036FD0C4B197805FB014460
:102100000623A3701448013113F068FE23A80521AB
:1021100001226A2309F04CFB0D4B18701D46DFF8B5
:1021200008A0DFF8089048E0300500100404001013
:1021300084C90100B0C90100A01200101C040010E5
:102140000E1E0010D8C90100D34D621000CA010054
:1021500020040010A4C4010024CA010099F8003032
:10216000642404FB03F320A8B3491AF8032009F000
:1021700061FB014699F8003004FB03A344AC204600
:102180009A7809F085FE2B784FF0000ECDF80CE020
:10219000CDF810E056AA02EB430333F8CE3C05938A
:1021A00047AB93E807008DE8070094E80E007046FF
:1021B00007F034FF2B78013B2B702B78002BCDD10F
:1021C000DFF87CB29BF800C0DFF878924FF0640A29
:1021D0000AFB0C9C0CF1180E05AC0CF13C050FCD64
:1021E0000FC40FCD0FC42B68236000230E936C46E1
:1021F0000CF1280CBCE80F000FC4DCF800302360A1
:102200009EE80F0012F0DCFB04460D469BF800B080
:102210000AFB0B9999F80290B9F1070F01D100243C
:102220000025204629460022002315F019FF00282A
:1022300056D0B9F1020F40F2D580B9F1060F00F087
:10224000D1807E480BF1010113F0C8FD7C4B1B7857
:10225000642202FB03F37B4AD05A00F039FC23A826
:10226000052101226A2309F0A3FA774B18701D4655
:10227000DFF8D0A1DFF8C8912EE099F8003064248F
:1022800004FB03F320A86C491AF8032009F0D2FAE2
:10229000014699F8003004FB03A34AAC20469A7823
:1022A00009F0F6FD2B784FF0000ECDF80CE0CDF8DC
:1022B00010E056AA02EB430333F8CE3C05934DAB36
:1022C00093E807008DE8070094E80E00704607F0D9
:1022D000A5FE2B78013B2B702B78002BCDD181E014
:1022E000204629460022002315F012FF002856D070
:1022F000544C642505FB0BFB04EB0B030022DA7046
:102300001A6134F80B0000F02DFC4D4B197805FBD9
:1023100001440525A5704D48013113F05FFD23A848
:10232000294601226A2309F043FA474B18701D46DB
:10233000DFF810A1DFF808912DE099F8003064244F
:1023400004FB03F320A83C491AF8032009F072FAB1
:10235000014699F8003004FB03A350AC20469A785C
:1023600009F096FD2B784FF0000ECDF80CE0CDF87B
:1023700010E056AA02EB430333F8CE3C059312E972
:1023800007008DE8070094E80E00704607F046FE4F
:102390002B78013B2B702B78002BCED122E0294BE0
:1023A000642202FB0BFB03EB0B020421917033F858
:1023B0000B0000F06FFBA8B9214B1B78642202FBD5
:1023C00003F3204AD05A00F0CDFB0BE064211D4AF4
:1023D00001FB03229278032A04D01A4A01FB03234B
:1023E00003229A70164B1A7801321A70144B1B781C
:1023F000072B7FF6A2AB16480FF0E0FE20B1144881
:102400004EF660210FF0CCFEEE233380002300E077
:10241000012363B1832F7FF486AB00233380032035
:1024200006E0002004E0002002E0002000E001209F
:1024300057B0BDE8F08F00BFA4C4010044CA01003A
:1024400004040010300500102004001068CA0100C8
:10245000701500102DE9F04704460D46038823B19E
:1024600040F2811293420AD09FE0544819210FF0A4
:102470006DFE97E040F281132380002300E00123EA
:10248000002B00F09780882D40F08C804B480FF097
:102490006DFE002864D04A4B1A7801321A7000266B
:1024A000484FDFF84081994654E0BB5D93B9464BF5
:1024B00013F806A0504602F057F9444B53F8261083
:1024C000084203D0504602F047F941E0504602F07E
:1024D0003BF93DE0642303FB06839B78072B37D150
:1024E00099F800103A4BA3FB01031B0903EB83038C
:1024F0009B00CB1A13F0FF0F15D1642303FB068357
:1025000093F860303BB1304B985D304B53F8261058
:1025100002F022F91CE02C4B985D2C4B53F826104E
:1025200002F012F914E0642303FB068393F8603091
:102530003BB1254B985D254B53F8261002F004F96A
:1025400006E0214B985D214B53F8261002F004F968
:102550000136F6B2072EA8D9184819210FF0F6FD5A
:102560001C480FF003FEE8B11B4B1B787BB919E048
:1025700019F8060058F8261002F0EEF8B85D174B6F
:1025800053F8261002F0E8F80136F6B205E000260E
:10259000DFF85490DFF85480114F072EE8D900225D
:1025A0000D4B1A70832D7FF465AF00232380032029
:1025B000BDE8F0870120BDE8F08700BF24040010CB
:1025C000CC040010F0040010A8CA010028CD0100BE
:1025D000CDCCCCCC0C0500105408001068CD010007
:1025E000B0CA01003005001018CD0100B8CA0100C2
:1025F0002DE9F84F0024DFF894B034E01BF804A074
:102600001B4B53F8249050464946012202F08CF8A7
:10261000184B13F80480184B53F824704046394681
:10262000012202F081F8154B1E5D154B53F8245022
:1026300030462946012202F077F8124B185D124B02
:1026400053F82410002202F06FF85046494602F079
:1026500083F84046394602F07FF83046294602F0BA
:102660007BF80134E4B2072CC8D9BDE8F88F00BF6D
:10267000B8CA0100B0CA010068CD0100A8CA0100B3
:1026800028CD010020CD010048CD010018CD01006A
:1026900038B5441E114B185D114B53F8241002F04D
:1026A0005BF8104B185D104B53F8241002F04CF8F7
:1026B0000E4B185D0E4B53F8241002F045F8012321
:1026C0000C4A13700C4A13550C4C25680C4B2360B4
:1026D0000C4864210FF03AFD256038BDB0CA0100F6
:1026E00068CD010018CD0100B8CA0100A8CA0100D8
:1026F00028CD010054080010F0040010A0120010B2
:10270000800000100C05001038B5441E114B185DF8
:10271000114B53F8241002F01FF8104B185D104BAA
:1027200053F8241002F010F80E4B185D0E4B53F8BE
:10273000241002F011F801230C4A13700C4A1355AF
:102740000C4C25680C4B23600C4864210FF0FEFCF8
:10275000256038BD18CD0100B8CA0100B0CA01001B
:1027600068CD0100A8CA010028CD0100540800105E
:10277000F0040010A0120010800000100C050010E2
:10278000F8B505460E461746038840F2F712934205
:1027900000F08480B3F5FC7F04D283B1B3F5F77FFA
:1027A0004DD01DE1B3F5027F00F0CE80B3F5047F7C
:1027B00000F0F680B3F5007F40F012819EE094486F
:1027C00013F00CFB0122934B1A700022924B1A70EB
:1027D0001C4606E0581CC0B2FFF796FF2378013371
:1027E00023702378072BF5D901228C4B1A70002215
:1027F000894B1A7075E08A48013113F0EFFA864B65
:1028000019786422874B02FB01339B88934206D9D7
:102810008548013113F0E2FA0022804B1A707E4B9A
:1028200018780130C0B2FFF733FF80484FF4FA71D7
:102830000FF08CFC4FF4F7732B80002300E0012392
:10284000002B00F0D18079480FF090FC002800F0B8
:10285000CD80714B19786422724B02FB01339A8848
:10286000632A07D87248013113F0B8FA00226B4B83
:102870001A7003E06F48013113F0B0FA664B187814
:102880000130C0B2FFF740FF68484FF448710FF0C5
:102890005DFC40F2F7132B80002300E00123002BA6
:1028A00000F0A68061480FF061FC002800F0A280D3
:1028B000594B197864225B4B02FB01339A88642AD6
:1028C00007D95948013113F089FA0022534B1A7085
:1028D00003E05948013113F081FA4F4B1A78013265
:1028E0001A704D4B1978072985D95448013113F0D6
:1028F00075FA4FF400732B80002300E00123002BB6
:102900007AD04F4B1B789E4278D13B78592B05D01B
:102910000022424B1A704B4813F060FA00223E4BE3
:102920001A7030E0484B585C484B53F8211001F0C6
:102930000BFF394B19784648013113F04FFA4FF429
:1029400002732B80002300E00123002B58D03C4B66
:102950001B789E4256D13B78592B08D000222F4B32
:102960001A702D4B19783B48013113F037FA2A4C75
:102970002378354AD05C354A52F8231001F0ECFE3A
:10298000237801332370244B19780729CAD9324898
:10299000013113F023FA4FF404732B80002300E07D
:1029A0000123002B30D0264B1B789E422ED13B7842
:1029B000592B08D00022194B1A70174B1978274849
:1029C000013113F00BFA154B1B781BB1244813F09F
:1029D00005FA02E0234813F001FA00220D4B1A70A9
:1029E00000232B800320F8BD0120F8BD0120F8BD95
:1029F0000120F8BD0120F8BD0120F8BD0120F8BD7F
:102A00000120F8BD0120F8BD0120F8BD0120F8BD6E
:102A1000D8CA010078040010CD0400102C05001065
:102A2000E8CA010030050010FCCA0100FC040010D7
:102A300020CB010044CB01006CCB010094CB010002
:102A40008C150010B0CB0100A8CA010028CD0100F0
:102A5000CCCB0100E8CB010008CC01002CCC01005C
:102A60004CCC010064CC010030B40023084D642438
:102A700009E004FB03F2AA5A824202D10B70012042
:102A800004E00133DBB2072BF3D9002030BC7047E0
:102A90003005001030B4014690B100230A4C642088
:102AA0000AE01D4600FB03F2A25A8A4202D1074BFC
:102AB000585D06E00133DBB2072BF2D9002000E0BD
:102AC000002030BC704700BF30050010F00400103B
:102AD0002DE9F0438DB0054600283AD000241E4E63
:102AE000DFF87C801D4F32E0642303FB04F3F35ACC
:102AF000AB422AD10DF11809B8F800102944484614
:102B000089B2012209F066F94FF0000ECDF80CE011
:102B1000CDF810E0CDF814E00CAB13E907008DE818
:102B2000070099E80E00704607F078FA642303FB6B
:102B3000046301229A7083F86020A018C0B2FFF7E6
:102B4000A7FD3846294613F049F90134E4B2072CB1
:102B5000CAD90DB0BDE8F083300500107CCC01006F
:102B6000880800102DE9F0478CB00546002839D0C0
:102B700000241E4EDFF87C801D4F31E0642303FBF0
:102B800004F3F35AAB4229D10DF1180AB8F800103A
:102B90002944504689B209F03DF94FF00009CDF8BB
:102BA0000C90CDF81090CDF814900CAB13E9070001
:102BB0008DE807009AE80E00484607F02FFA6423D4
:102BC00003FB046383F8029083F86090601CC0B23A
:102BD000FFF79AFD3846294613F000F90134E4B2B4
:102BE000072CCBD90CB0BDE8F08700BF3005001032
:102BF00098CC0100880800102DE9F04182B0FFF761
:102C0000F7FC5A4810F0B0F80FF0E6FA584B18707D
:102C10000FF0E2FA574B1870574800210FF062FC92
:102C2000564800210FF05EFC02268DF803604FF03D
:102C300000088DF804808DF800808DF802608DF812
:102C40000160684602F012F803278DF801706846AB
:102C500002F00CF801248DF8024017238DF80130A2
:102C6000684602F003F818238DF80130684601F039
:102C7000FDFF19238DF80130684601F0F7FF1A2394
:102C80008DF80130684601F0F1FF8DF800408DF8B5
:102C900002701E238DF80130684601F0E7FF1F2304
:102CA0008DF80130684601F0E1FF354D28464CF2C1
:102CB000503101F089F928464146224601F0CCF90D
:102CC00028462146224601F0C7F9284631462246C9
:102CD00001F0C2F928463946224601F0BDF92846DE
:102CE0000421224601F0B8F928460521224601F0C8
:102CF000B3F928460621224601F0AEF928460721FD
:102D0000224601F0A9F928464146224601F0C6F9BB
:102D100028462146224601F0C1F92846314622467E
:102D200001F0BCF928463946224601F0B7F9284699
:102D30000421224601F0B2F928460521224601F07D
:102D4000ADF928460621224601F0A8F928460721B8
:102D5000224601F0A3F92846214601F065F94FF417
:102D60008002084B1A6002B0BDE8F08164000010D8
:102D70008D1500108C1500109400001080000010BC
:102D80000040034000E100E02DE9F04782B0314A05
:102D90006B461068516803C34FF480022E4BC3F892
:102DA00080212E4B1B88B3F57A7F3BD343E0264628
:102DB00002AB234413F8085C38462946012201F08F
:102DC000A3F960B358F824A03846294601F086F9E3
:102DD000504439F81420801A00EBD070401048F8A5
:102DE000240064211E4B01FB04339B78012B0AD085
:102DF000072B08D0002803DA013A29F8142002E052
:102E0000013229F81420174D55F826A014F00AF9BC
:102E1000504445F82600114B1A8801321A800134BB
:102E2000E4B205E00024104FDFF84880DFF8489056
:102E3000072CBCD90AE00D480D4B197800220FF081
:102E4000EBF94FF48002044BC3F8802002B0BDE8D8
:102E5000F08700BFA0CA010000E100E0F804001004
:102E600030050010D0040010004003409400001012
:102E70008D15001058080010700000102DE9F84F53
:102E800011F09AFE394B1B68984203D21B1A6FEA65
:102E9000030B01E0C3EB000B344B18600027DFF895
:102EA000F09058E03E4659F82700002800DA073035
:102EB000C01049F8260064242D4B04FB0634A38877
:102EC000181A14F0AFF82B4A82FB0023C017C0EB8E
:102ED000A3100130A38859F82620934202DA034454
:102EE000A38005E06421224A01FB06221B1A93807D
:102EF0004FF064081E4B08FB0638B8F804301E4A31
:102F0000126802FB03F31D4AA2FB03239B0CA8F8E3
:102F100006300BFB03F31A4A02EBC60ADAE9004556
:102F2000E41845F1000520462946164A002314F00E
:102F300041FCD8F808301844C8F808002046294653
:102F4000104A002314F036FCCAE90023002349F894
:102F500026300137FFB2072FA4D900220A4B1A806E
:102F60004FF48002094B1A60BDE8F88F500800103A
:102F7000300500101F85EB51BC00001083DE1B43A1
:102F800038040010407E0500F804001000E100E065
:102F9000D00400102DE9F04F9BB004460D46038885
:102FA0001BB1B3F5DB7F0BD079E041484FF47A7168
:102FB0000FF0CCF871E04FF4DB732380002300E0C6
:102FC0000123002B6FD03B4B1B789D4201D1FFF7B3
:102FD00055FF882D61D138480FF0C8F800283AD045
:102FE000364B1B7893BB0026DFF8D4806427DFF8CC
:102FF000D49029E007FB06839A68DB689A4221D0C7
:1030000007FB068ACAF80C2007A8494612F080F987
:103010000DF1500B5846DAF8141007AA08F0AAFE72
:103020004FF0000ECDF80CE0CDF810E0CDF814E034
:103030001AAB13E907008DE807009BE80E00704605
:1030400006F0ECFF0136F6B2072ED3D91A4842F645
:10305000E0610FF07BF816480FF088F8E8B1174BE5
:103060001B78ABB90021DFF858A04FF06409DFF8F6
:1030700058800BE009FB01A6B288F3884F1CB168A9
:1030800000914046394612F0A9FEF9B20729F1D95C
:1030900007484FF47A710FF059F8832D8BD1002334
:1030A0002380032000E001201BB0BDE8F08F00BFAB
:1030B000780800108D1500101C0500107804001011
:1030C00030050010B8CC0100CCCC010030B4002396
:1030D0000A4C64210CE01D4601FB03F2A25A824215
:1030E00004D16420054B00FB053004E00133DBB262
:1030F000072BF0D9002030BC704700BF300500100E
:103100002DE9F0478EB080460D461E48C9892A7CBD
:1031100012F064FE2B7C6A2B26D11EE006FB04F322
:10312000FA5ABAB10DF1180A5046494608F0B0FEF5
:103130004FF0000ECDF80CE001230493EB890593CA
:1031400009AB93E807008DE807009AE80E00704687
:1031500006F064FF0134E4B204E000240A4F642660
:10316000DFF82890072CD9D90CAC204607F00EF9CF
:10317000404694E8060008F0E5FC40460EB0BDE885
:10318000F08700BF88CD01003005001044C8010061
:10319000F0B589B004460D46C86C08F085FB0646BC
:1031A000E86C08F07FFB85B228460DF11F01FFF7A0
:1031B0005BFC18B9204608F095FB38E02846FFF77D
:1031C00085FF07469DF81F2002A81A49013212F018
:1031D0009FF8022E07D0032E13D0012E1FD12846B0
:1031E000FFF776FC20E0144B0093144802A901225B
:1031F000134B10F025FE2846FFF76AFC0723BB702F
:1032000012E00D4B00930F4802A902220C4B10F064
:1032100017FE2846FFF7A6FC0723BB7004E0032334
:10322000BB70012387F86130204608F0B5FC2046CA
:1032300009B0F0BD74C801009C0D020044C8010033
:1032400084C8010070C4010070B50546C86C08F060
:1032500043FE044608F0FAFA80B2FFF737FF06464D
:1032600018B9284608F03EFB4EE02848214612F0E7
:10327000B5FD20462649052213F059FF28B92846F6
:103280002146B27808F004FE3EE0204621490A2299
:1032900013F04DFF28B928462146F27808F0F8FDD2
:1032A00032E020461C49042213F041FF28B9284689
:1032B0002146F28808F0ECFD26E0204617490B2253
:1032C00013F035FF28B928462146326908F0E0FDA1
:1032D0001AE0204612490F2213F029FF28B9284688
:1032E0002146B26808F0D4FD0EE020460D490722C1
:1032F00013F01DFF28B928462146B28808F0C8FD02
:1033000002E0284608F0EEFA284670BDA4CD010080
:10331000A4C40100B4CD0100C0CD0100C8CD01009E
:10332000D4CD0100E4CD0100F8B504460E46C86CCA
:1033300008F0D2FD0546F06C08F0D0FD06462846A0
:1033400008F084FA80B2FFF7C1FE074618B920469C
:1033500008F0C8FA26E01448294612F03FFD284636
:103360001249052213F0E3FEC8B9012E13D110480B
:1033700064210EF015FF00230E4D6420012105E0AD
:1033800000FB035282F862100133DBB2072BF7D93E
:103390003888FFF79DFB204608F0FEFB02E0204640
:1033A00008F0A0FA2046F8BDA4CD0100A4C4010095
:1033B000701500103005001070B504460D46C86C3D
:1033C00008F0A6FC80B2FFF781FE064618B9204639
:1033D00008F088FA09E0E86C08F09CFC70610123B1
:1033E00086F86130204608F0D7FB204670BD00BF4C
:1033F000F0B589B004460D46C86C08F06DFD064670
:10340000484913F02DFEA0B9EB89ADF81E30E86CE9
:1034100008F064FD8DF81C0008AB13E903008DE88B
:10342000030002AB0FCBFEF709FA204608F0B4FB0D
:1034300075E0304608F00AFA00286DDBC7B238465E
:10344000FEF754FA002867D03846FEF773FA0746AD
:1034500030463549052213F06AFEB8B93E78E86C6B
:1034600008F03CFD86420DD0E86C08F037FDC1B293
:1034700039702E4812F0B2FC00202D4B197802460C
:103480000EF0CAFE204608F087FB48E03046294986
:103490000A2213F04CFE38B9E86C08F01FFD788062
:1034A000204608F079FB3AE030462349042213F025
:1034B0003EFE38B9E86C08F011FDF880204608F0AF
:1034C0006BFB2CE030461D490B2213F030FE38B95F
:1034D000E86C08F003FDB860204608F05DFB1EE0D4
:1034E000304617490E2213F022FE38B9E86C08F076
:1034F000F5FCF860204608F04FFB10E0304611491B
:10350000072213F014FE38B9E86C08F0E7FCB88025
:10351000204608F041FB02E0204608F0E3F920468F
:1035200009B0F0BD44C80100A4C40100ECCD010005
:1035300078150010B4CD0100C0CD0100C8CD010048
:10354000D4CD0100E4CD010010B50F200F4907F0E4
:1035500043FA40F285300E4907F03EFA4FF46170AD
:103560000C4907F039FA0C4C4220214607F034FA96
:103570004320214607F030FAE520084907F02CFAED
:103580004FF46170064907F027FA10BD91710000F1
:10359000497200002973000001710000B973000036
:1035A000F173000010B50446144913F029FE28B148
:1035B000083013F0CFFCC0B2FFF76AF8204610497C
:1035C00013F01EFE28B1093013F0C4FCC0B2FFF79F
:1035D0009BF820460B4913F013FE18B10A4800214E
:1035E0000EF080FF2378592B01D04E2B05D10648D1
:1035F000064B197822460EF00FFE10BD04CE0100D6
:1036000010CE01001CCE0100A80000108C15001087
:1036100000B583B011F066FBFFF7EEFA00F0AEF8EC
:103620000FF03EF908F06CFC6920012106F0EEFE77
:1036300005F0B6F8002003F039FD104B0093104858
:1036400010490022104B10F0DFFA104B1880104880
:1036500000F024F84FF4A370002110F06BFEC0209E
:10366000002110F067FE0B4800210EF03BFF0A48D6
:1036700012F0B4FB0EF016FFFCE700BF9C0D020039
:1036800070C4010024CE010038CE0100880800106B
:10369000E80000105000001054CE010010B50446A0
:1036A0000B4B1868A04212D038B10EF035FF084B12
:1036B0001B680848596812F091FB0748616812F0CE
:1036C0008DFB034B1C60204600210EF00BFF10BD4C
:1036D0008C08001080CE010094CE0100014B1870C0
:1036E000704700BF9008001010B51C4C204603F036
:1036F0009FF920460121062203F0A8F92046002167
:10370000432203F0A3F9164C204603F091F920461A
:103710000121052203F09AF920460021432203F0FB
:1037200095F9104C204603F083F92046012102222E
:1037300003F08CF920460021432203F087F90A4C5C
:10374000204603F075F9204601210A4603F07EF970
:1037500020460021432203F079F910BDBC1500106A
:10376000B4150010AC150010C415001008B50120E8
:10377000014902F019FD08BDBCD2010010B584B0AA
:10378000374B0093374838490122384B10F06CFA18
:10379000003018BF0120364B187300285ED0354B1F
:1037A0001B78013B032B59D8DFE803F002284E2891
:1037B0007823ADF80C303223ADF80E302E480021BE
:1037C0000EF090FEFFF790FF02F026FF2B4803F06B
:1037D00005FA03982A492B4A03F062F94123ADF810
:1037E0000E30294B1B680093284B1B6801930398EC
:1037F00027490122134603F053F92FE00024ADF8C6
:103800000C40ADF80E40234B187802F0F7FEFFF79E
:10381000ADFF02F09FFB039819491A4A02F0DCFC45
:1038200001202146224602F029FB0123ADF80E308B
:10383000154A12680092154A1268019203981449B9
:103840001A4602F0C9FC09E00F4B1B680F4A1268C8
:103850000092114801210A4612F0C0FA04B010BDCE
:10386000B00D020070C40100A4CE0100B8CE01006A
:10387000A0160010FC0000102C010010B415001060
:10388000B0C40100CCCE0100C0000010C800001080
:1038900000010200CC000010D4CE0100124A1378BF
:1038A0000133DBB21370013B0C2B19D8DFE803F0B6
:1038B0001A070E101214161412100E0709000B48E6
:1038C00070470022084B1A70094870470948704732
:1038D00009487047094870470948704709487047C8
:1038E0000948704702487047A4080010FCCE010048
:1038F000F4CE010004CF01000CCF010014CF010071
:103900001CCF010024CF0100A0CD010000B583B081
:103910001E4B1B78012B0ED17823ADF804303C23CD
:10392000ADF806301A4803F059F9FFF7B7FF014622
:10393000019803F0B5F8154B1B78022B0BD104232B
:10394000ADF804300123ADF80630FFF7A7FF0146BC
:10395000019802F041FC0D4B1B78042B0BD1022384
:10396000ADF804300123ADF80630FFF797FF0146AC
:10397000019802F031FC074B1A7801321A700648A0
:1039800019210EF0E3FB03B05DF804FBFC0000100E
:10399000BC150010A5080010A808001030B583B0B1
:1039A0002F4B1B78012B14D17823ADF804301E2344
:1039B000ADF8063002F030FE2A4803F00FF92A4B2A
:1039C0001878274B1978FDF779FB0146019803F029
:1039D00067F8234B1B78022B19D10023ADF8063072
:1039E00002F0B8FA204D1E4C28782178FDF766FBCE
:1039F00013F078FBC0F110004308ADF804302878CC
:103A00002178FDF75BFB0146019802F0E5FB144BC2
:103A10001B78042B19D10023ADF8063002F09AFA76
:103A2000114D0F4C28782178FDF748FB13F05AFB15
:103A3000C0F10C004308ADF8043028782178FDF778
:103A40003DFB0146019802F0C7FB054B1B78032B99
:103A500002D1064812F0C2F9FFF758FF03B030BD9B
:103A6000FC000010BC150010AA1500102CCF01009E
:103A700038B504460D46038813B1B02B07D010E0CB
:103A8000FFF78CFF0BE0B0232380002300E001232D
:103A90005BB107480EF06AFB08B1FFF737FF832DD3
:103AA000F1D100232380032038BD012038BD00BFA1
:103AB000A808001008B520B1044800210EF012FD3E
:103AC00008BD02480EF028FD08BD00BFD000001060
:103AD00010B582B00446174B1B78013B032B26D848
:103AE000DFE803F0021521157823ADF80430142324
:103AF000ADF806300020FFF7DDFF02F08DFD0E4827
:103B000003F06CF80198214602F0CAFF0FE0002391
:103B1000ADF80430ADF8063002F01CFA01982146E9
:103B200002F05AFB03E00548214612F057F902B0B3
:103B300010BD00BFFC000010B415001048CF0100FC
:103B40000FB400B5A9B01C4B1B8813B1242B23D094
:103B500029E00120FFF7C2FD0020FFF7ABFF174867
:103B600012F03CF92BAB019302A896212A9A12F08D
:103B700007F9134BA3FB00231B09042B38BF0423B5
:103B80001048642101FB03F10EF0E0FA02A8FFF7F0
:103B90009FFF2422084B1A800A480EF0E7FA30B142
:103BA0000020FFF79BFD0022034B1A80032029B061
:103BB0005DF804EB04B07047CC1500105CCF010039
:103BC000CDCCCCCC9408001010B582B010F08CFB9A
:103BD00084B224B910F032FA10F086FB84B2154B8F
:103BE0001B78013B032B22D8DFE803F002111D11E3
:103BF0007823ADF804306423ADF806300E4802F0A7
:103C0000EDFF01980D49224602F04AFF0FE0002324
:103C1000ADF804300123ADF806300198084922467A
:103C200002F0DAFA03E00748214612F0D7F802B0B2
:103C300010BD00BFFC000010B41500107CCF0100C7
:103C400090CF0100A4CF010010B586B00446002338
:103C5000ADF81630ADF81430424B1B78002B3ED037
:103C6000414B1B78042B37D8DFE803F036032733AA
:103C700027007823ADF810301E23ADF8123002F083
:103C8000CBFC3A4802F0AAFF0498394902F008FF39
:103C9000384802F0A3FF02A806F078FB0023ADF835
:103CA00012309DF808209DF80930BDF80A100091E7
:103CB0000498314902F0F4FE0EE00023ADF8103014
:103CC000ADF8123002F046F90498294902F084FA5E
:103CD00002E02A4812F082F80022224B1A700DF1FD
:103CE000160005A905F0ACFA002831D1BDF8143052
:103CF000642202FB03F2BDF8163092FBF3F41A4B78
:103D00001B78013B032B2BD8DFE803F002111D11B8
:103D10007823ADF810306423ADF81230184802F063
:103D20005DFF04981749A2B202F0BAFE18E0002322
:103D3000ADF810300123ADF8123004981149A2B249
:103D400002F04AFA0CE01048A1B212F047F807E07E
:103D50000CB9FFF739FF0D484FF4FA710EF0F6F980
:103D600006B010BDE4000010FC000010BC150010EF
:103D7000B8CF0100AC150010C0CF0100D8CF0100B2
:103D8000B4150010F0CF010004D00100E0150010C0
:103D900030B583B004460D4603884D2B40D0552BDB
:103DA00054D0002B56D12F484FF4FA710EF0CEF9B3
:103DB0002D4844F250610EF0C9F949E0882D0CD12C
:103DC00028480EF0D3F910B10020FFF73DFF274B34
:103DD0001B78012B01D1FFF799FD254B1B789D42E4
:103DE00002D10120FFF730FF882D05D11E480EF0CB
:103DF000BDF908B100F0B8F810F084FAF0B16846E7
:103E000006F0C4FA9DF8003013B19DF8013063B993
:103E10009DF805304BB10022164B1A804D232380AC
:103E20001548FFF78DFE012806D91448FFF736FC28
:103E300000232380022012E0002010E0104B1868BD
:103E40000EF072FB55232380002300E001232BB1E9
:103E5000832DB3D100232380032000E0012003B091
:103E600030BD00BFE0150010D0150010FC000010A0
:103E7000B4160010CC15001028D00100000000106E
:103E8000A0120010F0B5ADF5177D06460F46304D77
:103E90008FAB95E8070003C323F8022B120C1A70AE
:103EA00000238DF847328DF848328DF849328DF86D
:103EB0004A328DF84B328DF84C328DF84D328DF8F8
:103EC0004E328DF84F328DF850328DF851328DF8D8
:103ED00052328DF853328DF854328BAC1C3595E844
:103EE0000F0084E80F00032E0ED0042E02D0022E05
:103EF0000FD104E08FA8174913F098F80DE08FA8B0
:103F0000154913F093F808E08FA8144913F08EF8C0
:103F100003E08FA8124913F089F896AB03EB8707EB
:103F20008FA857F82C1C13F081F88FA80D4913F0B7
:103F30007DF801A88FA900220CF0E8FB20B901A8A8
:103F40000CF0FEFE012000E000200DF5177DF0BD15
:103F500058D0010084D001008CD0010094D0010021
:103F600098D00100A0D0010008B5054811F036FF37
:103F70000020012101F0C6FC0A2001F0F1FCFEE75F
:103F8000B8D0010008B5034811F028FF0122024B08
:103F90001A7008BDD4D00100B8080010014B187881
:103FA000704700BFB808001008B5034B1B780BB171
:103FB000FFF7DAFF08BD00BFB8080010014B187802
:103FC000704700BFB808001038B504460D46134BC3
:103FD000984203D01248422100F0F0FD6A1E114BB6
:103FE0009A4203D90E48432100F0E8FD4FF4805077
:103FF000012100F005F900232360182000F0ECF8FF
:1040000005EB851505EB40006D00B0FBF5F3013BBA
:104010001B0243F40013236038BD00BF004003407F
:10402000E8D001003F0D030038B504460D46084BAB
:10403000984203D007489E2100F0C0FD236823F476
:10404000803323601DB1236843F48033236038BD7F
:1040500000400340E8D0010070B504460D46164606
:104060000C4B984203D00C48DB2100F0A7FD082D33
:1040700003D90948DC2100F0A1FDE368012202FA1E
:1040800005F523EA0503E36016B1E3681D43E56027
:1040900070BD00BF00400340E8D0010070B5044689
:1040A0000E4615460B4B984203D00B48EE2100F00C
:1040B00085FD012D06D12368012202FA06F61E4372
:1040C000266070BD2368012202FA06F623EA06067E
:1040D000266070BD00400340E8D0010038B50446BA
:1040E0000D46074B984204D006484FF4817100F00A
:1040F00065FD103454F82500C0F30B1038BD00BF27
:1041000000400340E8D0010070B505460E46144655
:104110000E4B984204D00E484FF48B7100F04EFDC8
:10412000012C04D90A484FF48C7100F047FD10357A
:1041300055F8263014B103F0004301E003F080434A
:104140000BB1012070BD002070BD00BF00400340D6
:10415000E8D0010010B41F2802D9A0F1200200E02D
:1041600002461F2810D8124BD3F8A84103209040D4
:1041700024EA0000C3F8A801D3F8A80101FA02F26A
:104180000243C3F8A8210FE0094BD3F8AC41032048
:10419000904024EA0000C3F8AC01D3F8AC0101FA66
:1041A00002F20243C3F8AC215DF8044B704700BF34
:1041B00000C00F401F2803D8064BD3F8A83103E0F6
:1041C0002038044BD3F8AC3123FA00F000F00300A0
:1041D000704700BF00C00F4010B5084B1C68FFF7C8
:1041E000E9FF032806D8DFE800F0040505020820EF
:1041F00000E00420B4FBF0F010BD00BFB8020010D6
:10420000012908D1094AD2F8C410094B03400B43D5
:10421000C2F8C430704741B9044AD2F8C43023EA26
:104220000000034B0340C2F8C430704700C00F4089
:10423000DEF7EFEFF0B40023124F134C134E144887
:1042400019460DE003EB430252023A4444F833208E
:10425000DA00A5186E6040F8331002445160013353
:10426000032BEFD94FF0A043074AC3F80821084AAF
:10427000C3F80C210322C3F810210022C3F818212F
:10428000F0BC704700C50720C8080010FF0500807B
:10429000E808001030B40023114D12481946124CA2
:1042A0000BE003EB430252022A4440F8332000EBB8
:1042B000C302516044F823100133022BF1D94FF0AF
:1042C000A043084AC3F81C21074AC3F82021022250
:1042D000C3F824210022C3F8282130BC704700BF56
:1042E00000DD072008090010BC08001040F48070B1
:1042F0004FF0A0439862D962002308494FF0A040D4
:1043000004E0426B12F0010F05D001338B42F8D963
:104310004FF0FF3070470020704700BFFFFF0400E0
:1043200040F480704FF0A043986201225A6200234B
:1043300009494FF0A0400AE0426B12F0010F05D18D
:104340004FF0A04300225A62186B704701338B4232
:10435000F2D94FF0FF307047FFFF04004279037934
:1043600043EA02224FF0A0431A64C178827842EAFD
:1043700001225A644178027842EA01229A64704725
:1043800038B54FF48034012507E02846FFF7C8FF11
:1043900010F0040F03D13CB3013C002CF5D110F414
:1043A000A04F0ED04FF0A0435A6842F001025A606D
:1043B000D3F8002142F48062C3F8002115229A60EC
:1043C00003E012224FF0A0439A6010F4C04004D1E1
:1043D00000224FF0A0439A6138BD4FF480724FF035
:1043E000A0439A61002038BD4FF0FF3038BD00BFB8
:1043F00038B504460220FFF793FF05460320FFF778
:104400008FFF40EA0540234B984237D1042C38D81F
:10441000DFE804F003171D22280000204FF440516C
:10442000FFF764FF4FF48034012507E02846FFF7CB
:1044300077FF10F0200F1AD134B3013C002CF5D1D6
:1044400015E000204FF48071FFF750FF0FE00020CF
:104450000146FFF74BFF0AE000204FF40451FFF73D
:1044600045FF04E000204FF40051FFF73FFFFFF746
:1044700087FF00280BDA4FF0FF3038BD4FF0FF30D8
:1044800038BD4FF0FF3038BD4FF0FF3038BD002051
:1044900038BD00BF1916220070B506464FF08040A7
:1044A0000121FFF7ADFE4FF0A0434FF44F421A60D9
:1044B0007822C3F80021642300E0013B002BFCD1EB
:1044C0004FF0A04202211160302151604FF4C061D1
:1044D0005161354A1068354AA2FB0010000D34497D
:1044E00003E0CA5C824202DA0133062BF9D90133B8
:1044F00003F00F02920042F400424FF0A0431A6210
:104500001A6A22F400421A6243F20F721A611222EE
:10451000DA604FF41072C3F800214FF400629A6120
:10452000642300E0013B002BFCD100204FF0A043AE
:1045300098614FF40041FFF7D9FE4FF48034002515
:1045400007E02846FFF7ECFE10F4084F03D034B321
:10455000013C002CF5D13068FFF74AFF002820DB32
:104560007068FFF7FBFEFFF765FEFFF793FE4FF065
:10457000A0432622C3F800228822C3F8E42F4FF676
:10458000FF72C3F8E82FD3F8002142F00302C3F80A
:1045900000211A6842F001021A60012070BD00205B
:1045A00070BD002070BD00BFB80200106BCA5F6B09
:1045B00010D1010030B44FF0A043D3F82851416826
:1045C0000B4B53F83520036803339B0804E00C6859
:1045D0001460013B04320431002BF8D10368013B25
:1045E00043F04043024A02EBC5056B6030BC7047A4
:1045F000080900104FF0A043D3F818114368084A87
:1046000052F8311053B102680332920804E008688E
:104610001860013A04310433002AF8D1704700BF12
:10462000C8080010012907D14FF0A043D3F8E42FA8
:104630001043C3F8E40F70474FF0A043D3F8E42FC2
:1046400022EA0000C3F8E40F704700BF4FF0A04318
:10465000D3F8E03F034205D04FF0A043C3F8E80F82
:1046600001207047002070474FF0A043D3F8182175
:10467000D3F814319A4201D00120704700207047CE
:104680004FF0A043D3F82C21013AD3F828319342BC
:1046900001D1002070470120704700BF4FF0A043B8
:1046A000D3F81821024B53F83200C0F30A007047C8
:1046B000E80800104FF0A043D3F818310133042B61
:1046C00000D100234FF0A042C2F81831704700BF5C
:1046D0004FF0A043D3F828310133032B00D100233E
:1046E0004FF0A042C2F82831704700BF042804D818
:1046F000DFE800F00D0507090B00002070470548B2
:104700007047054870470548704705487047054899
:10471000704700BF20C0092040C0092060C00920A8
:1047200080C0092000C0092038B50C461546FFF7A7
:10473000DDFF40B11DB102681443046038BD02685A
:1047400022EA0404046038BD10B50C46FFF7CEFF22
:1047500000B1846110BD00BF10B50C46FFF7C6FF65
:1047600000B1C46110BD00BF08B5FFF7BFFF08B1BD
:10477000406908BD002008BD094B984209D003F5E7
:104780008023984207D003F58823984205D1022060
:10479000704700207047012070474FF0FF3070478E
:1047A00000C001402023036008238361012302E04D
:1047B00001339BB21BB1026812F0080FF8D020231E
:1047C0008361406800F0F800704700BF036813F091
:1047D000200F01D02023836110230360082383610D
:1047E000704700BF036813F0200F01D020238361BE
:1047F000816008238361036813F0080FFBD04068D1
:1048000000F0F800704700BF012A02D104230360C2
:1048100001E00423836108238361036813F0080F18
:10482000FBD083680B70406800F0F800704700BF51
:1048300038B504460D46184B98420BD003F580233B
:10484000984207D003F58823984203D01348E82103
:1048500000F0B4F9104B9C4205D10E20FFF7BCFCD0
:10486000B0FBF5F012E00E4B9C4205D12620FFF77D
:10487000B3FCB0FBF5F009E00A4B9C4205D13420B3
:10488000FFF7AAFCB0FBF5F000E00020430823612D
:104890002369C01A606138BD00C0014018D1010011
:1048A00000C0054000000A4038B504460D461E4BC6
:1048B00098420CD003F58023984208D003F5882352
:1048C000984204D019484FF4887100F077F9164BDC
:1048D0009C4208D180200121FFF792FC0E2002218A
:1048E000FFF738FC18E0124B9C4209D14FF400202E
:1048F0000121FFF785FC26200221FFF72BFC0BE0AE
:104900000C4B9C420ED14FF080600121FFF778FCE8
:1049100034200221FFF71EFC20462946FFF788FFBE
:104920006423A36138BD00BF00C0014018D101005D
:1049300000C0054000000A4038B504460D46012974
:1049400004D90E4840F2611100F038F90C4B9C423A
:104950000CD003F580239C4208D003F588239C42A9
:1049600004D006484FF4B17100F028F9012D02D1AE
:104970004023236038BD4023A36138BD18D1010016
:1049800000C00140B9B1194B984204D14FF4806284
:10499000174B1A607047174B984204D14FF40062CE
:1049A000134B1A607047144B98421ED14FF480523B
:1049B0000F4B1A6070470D4B984205D14FF480623F
:1049C0000B4BC3F8802070470A4B984205D14FF437
:1049D0000062074BC3F880207047074B984204D110
:1049E0004FF48052024BC3F88020704700C0014052
:1049F00000E100E000C0054000000A402DE9F04160
:104A000082B006460C460023CB608B614B62002AC5
:104A100040F0B68000230B621F46D4F8048025695D
:104A2000E760A7613046FFF7BDFE082809D01028CF
:104A300007D0236A01332362E2699342EDD96062B1
:104A400099E0A36873B3636863B323685900304681
:104A500001F0FE01FFF7C6FE18281FD0236A0133BC
:104A60002362E2699342D8D940F40070606282E028
:104A7000304698F80010FFF7B5FE282809D0236AC1
:104A800001332362E2699342C7D940F40070606247
:104A900071E008F10108E3680133E360E268A368AC
:104AA0009A42E5D3A368A3B1636893B1636983B104
:104AB000236973B13046FFF775FE082809D0102826
:104AC00007D0236A01332362E2699342A5D9606269
:104AD00051E06369002B49D02369002B46D023683D
:104AE0005B0043F001013046C9B2FFF77BFE40286E
:104AF00036D0236A01332362E26993428DD940F4B0
:104B00000070606237E0013B994210D230460DF1EF
:104B100007014246FFF778FE502819D0236A013377
:104B20002362E26993427FF678AF606223E0304609
:104B30000DF107013A46FFF767FE582808D0236AAF
:104B400001332362E26993427FF667AF606212E04D
:104B50009DF807302B70A3690133A361013501E093
:104B60004FF00108A16963699942CCD33046FFF741
:104B70002DFE01201DE03046FFF728FE002018E042
:104B8000012A15D1FFF7F8FDC0B28DF807000A4BD6
:104B900043F8304003EBC00300225A600823B3619E
:104BA0002023336030460121FFF7ECFE012000E0B6
:104BB000002002B0BDE8F0812009001008B50346CE
:104BC0000A460248194611F009F9FEE740D10100F2
:104BD00010B40C4640000F2902D9A1F11004013095
:104BE000830003F1804303F53033610003248C40DC
:104BF000186820EA040002FA01F140EA01021A6092
:104C00005DF8044B704700BF30B40C4640000F29DC
:104C100002D9A1F110040130074B610003258D403A
:104C200053F8204024EA050402FA01F144EA0102A3
:104C300043F8202030BC704740C00240012A08D110
:104C4000094B02FA01F153F820200A4343F82020CF
:104C50007047054B012202FA01F153F8202022EAA5
:104C6000010243F82020704768C0024010B5044696
:104C700000786178A278FFF7ABFF20786178E2785E
:104C8000FFF7C2FF207861782279FFF7D7FF10BDC8
:104C900010B50446094B984203D009483E21FFF75E
:104CA0008DFF4FF400700121FFF7AAFA0023237053
:104CB00023722373FF222274236410BD004002403C
:104CC00070D1010038B504460D460C4B984203D014
:104CD0000B487221FFF772FF012D03D90848732199
:104CE000FFF76CFF012D04D1237A43F001032372F7
:104CF00038BD237A03F01203237238BD004002400E
:104D000070D1010038B504460D46174B984204D0C7
:104D1000164840F2B711FFF751FFEB6803F01F038D
:104D200084F82C302B6903F0070384F830306B696A
:104D3000C3F30803A386AB6803F01F0384F828308D
:104D40006B6803F03F0384F824302B6803F03F03C3
:104D500084F82030AB6903F00F0384F83830EB6936
:104D6000C3F30B03A38738BD0040024070D101009C
:104D700038B504460D46174B984204D0164840F209
:104D8000CD11FFF71BFF94F82C3003F01F03EB60ED
:104D900094F8303003F007032B61A38EC3F30803AC
:104DA0006B6194F8283003F01F03AB6094F8243053
:104DB00003F03F036B6094F8203003F03F032B6057
:104DC00094F8383003F00F03AB61A38FC3F30B03E8
:104DD000EB6138BD0040024070D1010038B5044697
:104DE0000D460D4B984204D00C4840F2AB21FFF722
:104DF000E5FE012D04D909484FF42B71FFF7DEFEC3
:104E0000012D04D1237A03F00303237238BD237AE2
:104E100043F01003237238BD0040024070D10100FE
:104E200070B504460E461546114B984204D0114801
:104E300040F2C521FFF7C2FE012D04D90D4840F212
:104E4000C621FFF7BBFEB6F5003F04D3094840F288
:104E5000C721FFF7B3FE013EC6F31006012D02D1B4
:104E60004FF4003300E000231E43266470BD00BFF2
:104E70000040024070D10100F8B504460D461C4BBD
:104E8000984207D0A3F5B023984203D01948432194
:104E9000FFF794FE164B9C4203D12A20FFF79CF9A2
:104EA00005E0154B9C4221D11420FFF795F94FF0F6
:104EB000FF330026022137460CE0721C01FB02F38F
:104EC000B0FBF3F3AB4205D9FF2A02D902313E46CB
:104ED00000E01646AB42F0D82368DBB223602368BB
:104EE0003602B6B21E432660C9B22161F8BD00BFCA
:104EF0000080084098D101000000034038B5044606
:104F00000D46174B984207D0A3F5B023984203D023
:104F100014488121FFF752FE114B9C4205D14FF4FA
:104F200000100121FFF76CF907E00F4B9C4215D1EF
:104F30004FF480600121FFF763F96A68AB681A4398
:104F40002B691A432B6813439BB22360EB6803F071
:104F50000F03636020466969FFF78EFF38BD00BF0D
:104F60000080084098D101000000034010B50446BD
:104F70000E4B984207D0A3F5B023984203D00C48BB
:104F8000A821FFF71BFE094B9C4205D14FF40010EE
:104F90000021FFF735F910BD064B9C4204D14FF4B8
:104FA00080600021FFF72CF910BD00BF0080084091
:104FB00098D1010000000340002343608360034A4E
:104FC000426107220260C3600361704740420F00E4
:104FD00038B504460D460E4B984207D0A3F5B023D2
:104FE000984203D00B48E521FFF7E8FD012D03D9D6
:104FF0000848E621FFF7E2FD012D04D1636843F084
:105000000203636038BD636803F00D03636038BD5D
:105010000080084098D1010070B505460F4B1C6810
:105020000F4BA3FB0424A4094FF08070B0FBF4F0F5
:1050300013F01AF90646284613F016F9314613F014
:105040001BF900B1FEE7074B1A6842F004021A6030
:1050500005FB04F2013A5A6070BD00BFB8020010AF
:10506000D34D621010E000E010B50446012803D9CA
:1050700008488021FFF7A2FD012C05D1064B1A68D4
:1050800042F001021A6010BD034B1A6822F00102BF
:105090001A6010BDC0D1010010E000E010B5044658
:1050A000012803D908489321FFF788FD012C05D179
:1050B000064B1A6842F002021A6010BD034B1A68D0
:1050C00022F002021A6010BDC0D1010010E000E021
:1050D000024B1A6822F480321A60704710E000E038
:1050E0002DE9F04F89B007908946684B984204D16A
:1050F0000620FFF771F880461CE0654B0798984240
:1051000004D10820FFF768F8804613E0614B079947
:10511000994204D13020FFF75FF880460AE05E4BE9
:10512000079A9A4204D13220FFF756F8804601E0F0
:105130004FF000084FF0FF33019300200021CDE92C
:105140000201002105910691012732E0002545EA80
:1051500018154FEA0874A4FB070107FB0511BA19DB
:1051600009FB02F2002312F025FB02460B46B0F1C8
:10517000004F01D942424B1C591EB1F5803F0BD262
:105180000198824208D218460021CDE9020152B1AD
:105190000192049905910696013601E000260497D4
:1051A000BE42D3D302E0019205970696019A12B14E
:1051B00001370F2FF2D9DDE90201014361D04FEA37
:1051C0001810059C04FB00F02146069C2144029C1B
:1051D000A1FB0423039C01FB0433002112F0EAFA33
:1051E000814502D9C0EB090001E0C9EB000064234E
:1051F00003FB00F3B3FBF9F9B9F1020F3FD8244BDD
:10520000079C9C421CD1237B43F0800323730298AC
:10521000020A039942EA0162D2B222719DF8083073
:105220002370237B03F07F032373059C2201D2B2FA
:10523000069C04F00F031343079CA362012021E0A6
:10524000079C237B43F0800323730298020A03998F
:1052500042EA0162D2B222719DF808302370237BAA
:1052600003F07F032373069C04F00F03059C43EABD
:105270000413DBB2079C84F82830012002E00020F0
:1052800000E0002009B0BDE8F08F00BF00C0004082
:10529000000001400080094000C0094038B50446C4
:1052A0000D46634B98420FD003F5804398420BD0D4
:1052B00003F50823984207D003F58043984203D0B2
:1052C0005C48C921FFF77AFC6B79032B03D9594855
:1052D000CA21FFF773FCAB79012B03D95548CB21C9
:1052E000FFF76CFC2B79042B03D95248CC21FFF734
:1052F00065FC4F4B9C4203D108200121FEF780FF43
:105300004D4B9C4203D110200121FEF779FF4B4BFE
:105310009C4204D14FF080700121FEF771FF484B91
:105320009C4204D14FF000700121FEF769FF424B0F
:105330009C4220D1072323720023237200E02378AC
:10534000237D13F0010FFAD1802384F83030237DC0
:1053500013F0200FFBD0002384F8303063602373F8
:105360002362237484F84C3084F8543084F850302D
:10537000237E237D17E0072323720023237200E09E
:105380002378237D13F0010FFAD1802384F8303085
:10539000237D13F0200FFBD0002384F830306360AE
:1053A00023732362237D264B9C4202D1002384F881
:1053B000243020462968FFF793FE1F4B9C4203D1FF
:1053C000237B03F0C00302E0237B03F0C0036A7970
:1053D000012A03D052B1022A03D005E043F00103B1
:1053E00004E043F0020301E043F003032A798AB1A9
:1053F00043F00801032A06D0042A07D0022A08D164
:1054000043F0180306E043F0280303E043F03803B9
:1054100000E00B46AA79012A01D143F00403064AB1
:10542000944202D1DBB2237338BDDBB2237338BDA3
:1054300000C00040ECD101000000014000800940A4
:1054400000C009404FF41653036003234371002347
:1054500003718371704700BF38B504460D460D4B8C
:10546000984210D003F5804398420CD003F50823EE
:10547000984208D003F58043984204D0064840F291
:10548000D911FFF79BFB054B9C4201D1257038BD1C
:10549000257038BD00C00040ECD101000000014083
:1054A00010B504460E4B984210D003F58043984245
:1054B0000CD003F50823984208D003F580439842A6
:1054C00004D008484FF4F971FFF778FB064B9C4273
:1054D00002D12078C0B210BD2078C0B210BD00BF8C
:1054E00000C00040ECD10100000001402DE9F04770
:1054F00007461446012B1CD000264FF0100933E05C
:1055000033B1013B00E04B463A7D12F0200FF7D05B
:1055100063B3454609E001F1010A38460978FFF70F
:105520009BFF013D013C013651463DB1002CF2D1BB
:1055300004E000264FF480394FF01008002CE2D12F
:1055400014E03B7D13F0200F10D04D4609E001F12F
:10555000010838460978FFF77FFF013C013D01361D
:1055600041460DB1002CF2D1002CEAD13046BDE805
:10557000F08700BFF8B504460D461646394B9842F1
:1055800010D003F5804398420CD003F508239842CD
:1055900008D003F58043984204D0334840F2AB2151
:1055A000FFF70CFB012E04D92F484FF42B71FFF7A6
:1055B00005FB062D05D8DFE805F01406080A0C0ED9
:1055C000110000270EE002270CE004270AE008275C
:1055D00008E0802706E04FF4807703E04FF400777F
:1055E00000E00127214B9C420FD1022D18D9052D37
:1055F00016D0062D14D0033DEDB2012D10D91A4856
:105600004FF43271FFF7DAFA0AE0022D08D9052DBE
:1056100006D0062D04D014484FF43371FFF7CEFAAC
:10562000012E0AD1114B9C4203D163681F4367606E
:10563000F8BD63681F436760F8BD0C4B9C4208D1FE
:10564000636823EA070727F07007BF05BF0D67608F
:10565000F8BD636823EA070727F0F807BF05BF0D09
:105660006760F8BD00C00040ECD1010000000140BF
:1056700010B504460E4B984210D003F58043984273
:105680000CD003F50823984208D003F580439842D4
:1056900004D0084840F2FA21FFF790FA064B9C42EA
:1056A00002D1187DC0B210BD207DC0B210BD00BFB8
:1056B00000C00040ECD101000000014010B50446DC
:1056C0000C4B984210D003F5804398420CD003F560
:1056D0000823984208D003F58043984204D0064836
:1056E00040F21131FFF76AFAA06820F0300080051F
:1056F000800D10BD00C00040ECD1010038B505465A
:105700000C462E4B984210D003F5804398420CD0A3
:1057100003F50823984208D003F58043984204D04B
:10572000274840F23731FFF749FAE378032B04D9D1
:1057300023484FF44E71FFF741FAA378012B04D9A7
:105740001F4840F23931FFF739FA2378012B04D989
:105750001B4840F23A31FFF731FA6378012B04D944
:10576000174840F23B31FFF729FAE378012B09D0C3
:1057700013B1022B02D003E0012304E0812302E0F5
:10578000C12300E041236278012A01D143F00403E0
:105790002278012A01D143F00203A278012A01D123
:1057A00043F00803074A954203D103F0CF032B725D
:1057B00038BD03F0CF032B7238BD00BF00C00040DE
:1057C000ECD101000000014000238370C37001236D
:1057D00003704370704700BF38B504460D461E4B3A
:1057E000984210D003F5804398420CD003F508236B
:1057F000984208D003F58043984204D0174840F2FD
:10580000EA31FFF7DBF9012D04D9144840F2EB31FE
:10581000FFF7D4F9012D10D1114B9C4206D194F819
:10582000303043F0800384F8303038BD94F83030A5
:1058300043F0800384F8303038BD094B9C4205D1D9
:1058400094F83030002384F8303038BD94F830308C
:10585000002384F8303038BD00C00040ECD1010096
:105860000000014010B510B1012809D040E021F03E
:105870000301FE293ED94FF080435960012010BD3D
:105880001E4B1B689C081E4AA2FB0404A40C89083A
:1058900001FB04F4FE2C08D900200146FEF75AFC57
:1058A0004FF080435C60012010BD5C08144AA2FBED
:1058B0000404A40C04FB01F4FE2C08D900200221EE
:1058C000FEF748FC4FF080435C60012010BD0C4C9B
:1058D000A4FB0324A40C04FB01F4FE2C0CD900202F
:1058E0000121FEF737FC4FF080435C60012010BDC2
:1058F000002010BD002010BD002010BDB802001017
:1059000083DE1B4338B50C46054618B10E48A62168
:10591000FFF754F9012C03D90B48A721FFF74EF9E3
:1059200000200146FEF716FC4FF080431A6922F072
:1059300003021A611A6915431D61012C03D11A78FB
:1059400042F002021A7038BD14D2010072B64FF054
:105950008043AA221A7255221A7262B6704700BF9B
:1059600010B501464FF08044206900F00300FFF7B6
:1059700079FF237843F001032370FFF7E7FF10BDA1
:1059800008B501204FF400010246FEF7CDFE0120CC
:105990004FF480010246FEF7C7FE08BD08B528B1E6
:1059A00001204FF40001FEF7CFFE08BD01204FF4A7
:1059B0000001FEF7D1FE08BD08B528B101204FF463
:1059C0008001FEF7C1FE08BD01204FF48001FEF703
:1059D000C3FE08BD2DE9F0419AB00746884603880A
:1059E00013B1412B7DD081E002204FF40051012200
:1059F000FEF79AFE02204FF40051FEF7A5FE00F0DC
:105A000091F800286FD03D4810F0E8F90CF048FFFD
:105A100006F076FA06AE3046002107F0F9F96C463A
:105A20000AAD0FCD0FC495E8030084E8030096E8A3
:105A30000F0006F08BFA324C0CF034FD2368013372
:105A40002360FFF783FF2068C0F3004000F07AF87E
:105A5000F2E700F067F800B32A480CF0AFFBA8B1FA
:105A600010AE3046002107F0D3F96C4614AD0FCDCF
:105A70000FC495E8030084E8030096E80F0006F0E1
:105A800065FA2048C8210CF08BFB06E0012000F0ED
:105A900059F81C4864210CF083FB194A1368013340
:105AA000136042F21072934203D817480CF086FB41
:105AB00078B1FFF74BFF154B187880F00100187094
:105AC000FFF76CFF00220E4B1A600F4864210CF0A8
:105AD00067FB0F4B18680CF027FD41233B80002328
