:10000000008000104D410000F5400000718B0100A0
:10001000FD40000001410000054100004AAFFCEF37
:100020000000000000000000000000000941000086
:100030000D41000000000000114100002991010065
:100040001941000019410000194100001941000048
:100050001941000019410000C96F0100D96F01006A
:10006000058D0100194100001941000019410000EF
:100070001941000019410000194100001941000018
:100080001941000019410000194100001941000008
:1000900019410000194100000573000019410000DA
:1000A00019410000194100001941000019410000E8
:1000B00065D30000194100001941000019410000FA
:1000C000194100001941000019410000B821020047
:1000D00000000010A0030000B821020000C00720AB
:1000E00000000000A0030010C82D000000C0072081
:1000F0005C760000FEE700BFFEE700BFFEE700BF42
:10010000FEE700BFFEE700BFFEE700BFFEE700BF5F
:10011000FEE700BFFEE700BFFEE700BF10B400230C
:1001200004E004680C600433043004319342F8D3D3
:100130005DF8044B704700BF00231A4602E00260DE
:10014000043304308B42FAD3704700BF38B54FF008
:1001500080531C4AAD20DE2106E013F0010F01D0D0
:10016000196000E0186001339342F6D9164B174A24
:10017000AB20BE2106E013F0010F01D0196000E0B2
:10018000186001339342F6D9114B124C07E003F18A
:100190000C05186859689A68FFF7C0FF2B46A34200
:1001A000F5D307E01C4654F8080B5968FFF7C4FF65
:1001B000234600E0084DAB42F4D315F0B5F815F036
:1001C00033F9FEE7FE7D001000C00720FE3D082049
:1001D000CC400000E4400000F4400000FFFFFFFFBF
:1001E000FFFFFFFFFFFFFFFFFFFFFFFFFFFFFFFF1F
:1001F000FFFFFFFFFFFFFFFFFFFFFFFFFFFFFFFF0F
:10020000FFFFFFFFFFFFFFFFFFFFFFFFFFFFFFFFFE
:10021000FFFFFFFFFFFFFFFFFFFFFFFFFFFFFFFFEE
:10022000FFFFFFFFFFFFFFFFFFFFFFFFFFFFFFFFDE
:10023000FFFFFFFFFFFFFFFFFFFFFFFFFFFFFFFFCE
:10024000FFFFFFFFFFFFFFFFFFFFFFFFFFFFFFFFBE
:10025000FFFFFFFFFFFFFFFFFFFFFFFFFFFFFFFFAE
:10026000FFFFFFFFFFFFFFFFFFFFFFFFFFFFFFFF9E
:10027000FFFFFFFFFFFFFFFFFFFFFFFFFFFFFFFF8E
:10028000FFFFFFFFFFFFFFFFFFFFFFFFFFFFFFFF7E
:10029000FFFFFFFFFFFFFFFFFFFFFFFFFFFFFFFF6E
:1002A000FFFFFFFFFFFFFFFFFFFFFFFFFFFFFFFF5E
:1002B000FFFFFFFFFFFFFFFFFFFFFFFFFFFFFFFF4E
:1002C000FFFFFFFFFFFFFFFFFFFFFFFFFFFFFFFF3E
:1002D000FFFFFFFFFFFFFFFFFFFFFFFFFFFFFFFF2E
:1002E000FFFFFFFFFFFFFFFFFFFFFFFFFFFFFFFF1E
:1002F000FFFFFFFFFFFFFFFFFFFFFFFFFFFFFFFF0E
:1003000010B584B0204B18680390002003F090FED5
:100310001E4C20460621052206F056FE20460021EE
:10032000432206F051FE204606F016FF184B1B88AC
:100330005BB9184B1878184B197801F0B7F90246D9
:100340000398164906F06AFE13E0124B1878124B18
:10035000197801F0ABF902460D4BB3F90030632B6D
:1003600001DC0F4900E00F49009103980E4906F0A7
:1003700055FE064C20460621012206F025FE2046A9
:1003800006F0EAFE04B010BD70C90100C0150010EF
:100390006C150010B6150010FC00001080C901009B
:1003A0007CC9010004D4010090C901002DE9F0418D
:1003B00084B0704B586803900024ADF808401422B4
:1003C000ADF80A209868019006F0E4FB6A4D2846D3
:1003D0002146432206F0F8FD284606F0BDFE674B95
:1003E0001A68121B18BF0122654B1A70634D654FC6
:1003F000654E286801F06EFD286000284DD0037915
:10040000022B02D0062B22D042E090F814803878DC
:10041000317801F071FA034603985C49424606F0D0
:10042000FDFD0298019906F011FCBDF80E30143361
:10043000ADF80E30BDF80A301433ADF80A30BDF80F
:1004400006301433ADF806300134E4B220E090F801
:1004500014803878317801F06BFA034603984B49E1
:10046000424606F0DBFD0298019906F0EFFBBDF86D
:100470000E301433ADF80E30BDF80A301433ADF839
:100480000A30BDF806301433ADF806300134E4B25A
:10049000022CAED901223A4B1A706CB9394B18783C
:1004A000394B197801F010F90146039806F0B6FDB2
:1004B0000298019906F0CAFB4B23ADF80A306E236F
:1004C000ADF806300298019906F0A0FB2A4C2046B0
:1004D0000621052206F078FD204606F03DFE502359
:1004E000ADF80E30274F284E3878317801F06AF990
:1004F0000146039806F092FDFFF702FF2046062111
:10050000012206F061FD204600214C2206F05CFD30
:10051000204606F021FE7123ADF80E300025ADF81F
:100520000C500120317801F069F90246039818490E
:1005300006F074FD20462946522206F045FD20466D
:1005400006F00AFEF023ADF80C303878317801F06F
:1005500047F9024603980F4906F060FD20462946F8
:10056000432206F031FD204606F0F6FD04B0BDE85A
:10057000F08100BF70C90100C0150010AC0300106D
:10058000A8030010B6150010FC000010A0C901005F
:10059000A8C90100B0C90100F8B504460D461646C9
:1005A000564812F0CFF818B15448642112F0BAF846
:1005B00023884C2B69D05D2B00F09480002B40F0F9
:1005C00095804E48642112F0ADF800224C4B1A8001
:1005D000FFF7ECFE012006F07BFE4A4840F2DC51BA
:1005E00012F0A0F848484FF42F7112F0C5F87BE0E4
:1005F00003F098FF454B1B789D4206D1FFF7D6FECE
:1006000041484FF42F7112F0B7F8882D16D13D48AC
:1006100012F098F838B13E4B1B7823B100223C4BC6
:100620001A70FFF7C3FE384812F0B4F830B1FFF784
:10063000BDFE35484FF42F7112F09EF8354B1B78F4
:100640009D424BD12846314606F0AAFE074658285F
:1006500008D100252A4B1D802F4803F0DDFA2580A4
:100660000220F8BD562820D1254B187801F0FCFB5C
:1006700030B12A4803F0D0FA002323800220F8BDCD
:100680000022274B1A804C232380214B1878254BBE
:10069000197800F0FDFF03F011FD01282AD900228E
:1006A000174B1A80FFF782FE16E0092814D8154868
:1006B00040F2DC5112F036F8114AB2F9003003EB87
:1006C00083035B003B449BB213801BB2B3F57A7F7C
:1006D00002DB00220A4B1A80FFF712FE5D23238003
:1006E000002300E001233BB1832D81D1002323802F
:1006F0000320F8BD0020F8BD0120F8BDC0030010A4
:100700006C150010B0030010A00300106E1500104F
:10071000B6150010A91600101400001028000010D3
:10072000D8150010FC00001070B584B06E4B53F863
:10073000040B0025ADF80850ADF80A501868019078
:1007400006F028FA0298019906F060FA674C2046F4
:100750000621032206F038FC204606F0FDFC782333
:10076000ADF80C300523ADF80E30614E614B1878B2
:10077000317801F051F80146039806F04FFC20460D
:100780000621012206F020FC204606F0E5FC307828
:10079000294603F035FE00B30A23ADF80C301E23C2
:1007A000ADF80E3003985449012206F037FC782347
:1007B000ADF80C302846317801F03CF8014603983A
:1007C00006F02CFC3223ADF80A30ADF80630029862
:1007D000019906F03BFA022400E00124444B18780A
:1007E000012103F00DFE30B30A23ADF80C30BDF843
:1007F0000E501935ADB2ADF80E50661CF6B2039826
:100800003D49224606F00AFC7823ADF80C30012061
:10081000374B197801F01CF80146039806F0FEFBEF
:100820001435ADB2ADF80A50ADF8065002980199F2
:1008300006F00CFA34462E4B1878022103F0E0FD46
:1008400030B30A23ADF80C30BDF80E501935ADB2F7
:10085000ADF80E50661CF6B203982749224606F002
:10086000DDFB7823ADF80C300220214B197800F025
:10087000FDFF0146039806F0D1FB1435ADB2ADF88B
:100880000A50ADF806500298019906F0DFF9344697
:10089000174B1878032103F0B3FD18B30A23ADF802
:1008A0000C30BDF80E501935ADB2ADF80E500398AE
:1008B0001149224606F0B2FB7823ADF80C30032034
:1008C0000B4B197800F0E0FF0146039806F0A6FBF9
:1008D0001435ADB2ADF80A50ADF806500298019942
:1008E00006F0B4F904B070BDC4C90100C015001011
:1008F000FC000010B6150010CCC901002DE9F04134
:1009000004460D461646038813B1562B64D067E0A3
:10091000FFF70AFF012006F0DBFC0020012105F0B3
:10092000E5FB334840F2DC5111F0FCFE56E0314B60
:100930001B789D4243D196F800802F4B18780021F8
:1009400003F05EFD50B1B8F1010F09D100222B4B2D
:100950001A702B4803F060F9022702E0012700E03B
:100960000227254B1878012103F04AFD48B147457D
:1009700005D10122214B1A70214803F04DF90137AE
:10098000FFB21D4B1878022103F03AFD48B14745EC
:1009900005D10122194B1A70194803F03DF90137AE
:1009A000FFB2154B1878032103F02AFD38B14745F3
:1009B00005D10322114B1A70114803F02DF9882D2F
:1009C00006D10B4811F0BEFE10B10D4803F024F91A
:1009D00056232380002300E0012333B1832DA6D1C9
:1009E000002323800320BDE8F0810120BDE8F081D1
:1009F00000280010A9160010FC000010B615001009
:100A0000000000102DE9F04F85B002460E46824BE3
:100A100053F8040B03900021ADF808101121ADF834
:100A20000A10186801900AB106F0B4F87B4C204611
:100A30000021432206F0C8FA20460621042206F0CF
:100A4000C3FA204606F088FB3378062B3FD8DFE850
:100A500003F00404131E291E3400714B1878714BE7
:100A6000197800F023FE024603986F496F4BB3F9E3
:100A7000003006F0D3FA2AE0694B1878694B1978F0
:100A800000F01EFF0146039806F0C8FA1FE0644B11
:100A90001878644B197800F005FF0146039806F0BA
:100AA000BDFA14E05E4B18785E4B197800F016FF23
:100AB0000146039806F0B2FA09E0594B1878594BF1
:100AC000197800F035FF0146039806F0A7FA02985E
:100AD000019906F0BBF8514C204600214C2206F04B
:100AE00073FA204606F038FB1423ADF80C301323BC
:100AF000ADF80E303378062B3AD8DFE803F0041F48
:100B0000040404390400464D464C2878217800F04E
:100B1000E9FD02460398464906F080FA8C23ADF8B9
:100B20000C302878217800F0EBFD0246039841490B
:100B300006F074FA1423ADF80C3019E0384D394C36
:100B40002878217800F0CEFD02460398384906F057
:100B500065FA8C23ADF80C302878217800F0DEFDA2
:100B600002460398334906F059FA1423ADF80C30C5
:100B70007388ABB12223ADF80E30294B1878294B7E
:100B8000197800F0D9FD02460398294906F046FA83
:100B90008C23ADF80C3003982749728806F03EFA92
:100BA0001423ADF80C30BDF80E700F37BFB2ADF89E
:100BB0000E70B088B0F57A7F44D2DFF86490DFF829
:100BC000648099F8000098F8001000F0C3FD024618
:100BD000174D0398294606F021FA8C24ADF80C40F5
:100BE0000398164906F01AFA1423ADF80C300F37A3
:100BF000ADF80E7099F8000098F8001000F0B8FDFC
:100C000002460398294606F009FAADF80C4003980D
:100C10000B4906F003FA50E0E0C90100C0150010CE
:100C2000B6150010FC000010E8C901006C1500109A
:100C3000F0C9010098C90100F8C9010000CA01000B
:100C40000CCA010017F0F4FC00225F4B17F0FAF910
:100C500004460D46DFF87CB1DFF87CA19BF800006C
:100C60009AF8001000F076FD0246DFF870910398C4
:100C7000494606F0D3F94FF08C08ADF80C80039884
:100C8000524922462B4606F0C9F91423ADF80C3020
:100C90000F37ADF80E709BF800009AF8001000F0C6
:100CA00067FD02460398494606F0B8F9ADF80C8096
:100CB00003984749F28806F0B1F9B368F3B11423F9
:100CC000ADF80C30BDF80E300F33ADF80E30414B9F
:100CD0001878414B197800F039FE024603983F49D5
:100CE00006F09CF98C23ADF80C30B3683C4AA2FBAB
:100CF000031203983B49920906F090F91423ADF8CA
:100D00000C30BDF80E300F33ADF80E30F06817F030
:100D10008FFC00222C4B17F095F904460D46DFF8A6
:100D2000B4802D4F98F80000397800F01DFE02467F
:100D300003982A4906F072F98C23ADF80C30039819
:100D4000294922462B4606F069F96E23ADF80A3090
:100D5000ADF806300298019905F078FF7123ADF8DF
:100D60000E300023ADF80C3098F80000397800F010
:100D70000DFD024603981D4906F050F93378012B0A
:100D800015D0F023ADF80C30194C2046002152222A
:100D900006F01AF9204606F0DFF998F800003978D5
:100DA00000F002FD02460398124906F037F9104C94
:100DB00020460021432206F007F9204606F0CCF930
:100DC00005B0BDE8F08F00BF00408F4018CA010099
:100DD00024CA0100B6150010FC000010F0C9010083
:100DE000D34D62102CCA010038CA0100A8C9010005
:100DF000C0150010B0C901002DE9F043DBB0044676
:100E00000D4616469F4811F09DFC18B19D4864217F
:100E100011F088FC2388522B00F0A5810ED8332BCB
:100E200000F09B8003D8DBB1292B4AD0EBE33D2BAC
:100E300000F0DF80472B00F04A81E4E38D2B00F0C7
:100E4000638306D85D2B00F0DA81872B00F04583A1
:100E5000D9E3962B00F0AB839F2B00F0CF83D2E336
:100E60008848642111F05EFC012003F0E1F8864817
:100E700015F0A0FADFF84C8206A8844998F8002003
:100E80000AF096FF01460CAF38460BF0F7FA804B9C
:100E9000D3F8009098F8000000F0F8FFCDF80C901F
:100EA0000123049305900FAB93E807008DE807003A
:100EB00097E80E000BA809F06FFB40B129232380AF
:100EC0008025744B1B789D4240F0A1830B9672489D
:100ED00015F070FA0B9BB3F91030B3F5617F32D186
:100EE000DFF8E08198F8000000F0E2FF07466B4B66
:100EF00018600B980BF0B0FA3870694815F05AFA80
:100F000006A8684998F800200AF052FF014612AF7F
:100F100038460BF0B3FA5E4BD3F8009098F8000017
:100F200000F0B4FFCDF80C9001230493059015ABAD
:100F300093E807008DE8070097E80E000BA809F07A
:100F40002BFB38B90FE0584802F066FE00232380DF
:100F500002206FE33323238080254E4B1B789D4274
:100F600040F057830B96514815F024FA0B9BB3F9C8
:100F70001030B3F5617F32D1DFF8488198F8000076
:100F800000F096FF0746454B18600B980BF064FA8B
:100F90007880474815F00EFA06A8464998F80020D0
:100FA0000AF006FF014618AF38460BF067FA384BD7
:100FB000D3F8009098F8000000F068FFCDF80C908E
:100FC0000123049305901BAB93E807008DE807000D
:100FD00097E80E000BA809F0DFFA38B90FE03248A5
:100FE00002F01AFE00232380022023E33D23238006
:100FF0008025284B1B789D4240F00D830B962E4890
:1010000015F0D8F90B9BB3F91030B3F5617F32D1ED
:10101000DFF8B08098F8000000F04AFF07461F4B49
:1010200018600B980BF018FAB880244815F0C2F934
:1010300006A8234998F800200AF0BAFE01461EAF20
:1010400038460BF01BFA124BD3F8009098F80000CA
:1010500000F01CFFCDF80C9001230493059021AB08
:1010600093E807008DE8070097E80E000BA809F049
:1010700093FA48BB31E00C4802F0CEFD00232380F8
:101080000220D7E2D003001048CA010060CA010064
:10109000A01200101A1E001068CA0100E003001020
:1010A0006CCA010070CA0100000000107CCA010077
:1010B00080CA010084CA01008CCA010090CA0100E4
:1010C00094CA01006C150010472323808025674BCC
:1010D0001B789D4240F0A1820B96654815F06AF995
:1010E0000B9BB3F91030B3F5617F32D1DFF8A881E3
:1010F00098F8000000F0DCFE07465E4B18600B9885
:101100000BF0AAF9F8805C4815F054F906A85B4981
:1011100098F800200AF04CFE014624AF38460BF048
:10112000ADF9574BD3F8009098F8000000F0AEFEF0
:10113000CDF80C9001230493059027AB93E80700AA
:101140008DE8070097E80E000BA809F025FA38B9DA
:101150000FE04C4802F060FD00232380022069E28A
:10116000522323808025414B1B789D4240F05782BB
:101170000B96454815F01EF90B9BB3F91030B3F5EB
:10118000617F32D1DFF8108198F8000000F090FE06
:101190000746384B18600B980BF05EF9B8603B4877
:1011A00015F008F906A83A4998F800200AF000FE60
:1011B00001462AAF38460BF061F9314BD3F8009065
:1011C00098F8000000F062FECDF80C900123049323
:1011D00005902DAB93E807008DE8070097E80E0017
:1011E0000BA809F0D9F938B90FE0264802F014FD30
:1011F0000023238002201DE25D23238080251B4BDA
:101200001B789D4240F00D820B96224815F0D2F8D3
:101210000B9BB3F91030B3F5617F20D11E4B1878CA
:1012200000F046FE8046134F38600B980BF014F91F
:10123000C8F80C00194815F0BDF8002002F0F8FEBF
:1012400001203968FFF7DEFB154840F6B83111F090
:1012500069FA14484FF4FA7111F064FAD0E10948C0
:1012600002F0DAFC002323800220E3E11A1E0010C2
:101270009CCA0100E0030010A0CA0100A4CA01003A
:10128000A012001000000010B0CA0100B4CA010092
:10129000BCCA0100CCCA01006C150010D4CA010000
:1012A00000280010E4030010A74811F04BFA0028B2
:1012B00000F0C080A4484FF4FA7111F033FADFF85F
:1012C000D88206A8A14998F800200AF071FD0146CD
:1012D0000DF1C00948460BF0D1F898F8000000F075
:1012E000D5FD002703970497059033AB93E80700DB
:1012F0008DE8070099E80E00384609F04DF906A878
:10130000934998F800200AF053FD01460DF1D809E1
:1013100048460BF0B3F898F8000000F0B7FD0397CB
:101320000497059039AB93E807008DE8070099E82A
:101330000E00384609F030F906A8864998F80020D2
:101340000AF036FD01460DF1F00948460BF096F81B
:1013500098F8000000F09AFD0397049705903FABC2
:1013600093E807008DE8070099E80E00384609F079
:1013700013F906A8784998F800200AF019FD0146EB
:101380000DF5847948460BF079F898F8000000F0E4
:101390007DFD03970497059045AB93E807008DE822
:1013A000070099E80E00384609F0F6F806A86B49E0
:1013B00098F800200AF0FCFC01460DF590794846AB
:1013C0000BF05CF898F8000000F060FD03970497BC
:1013D00005904BAB93E807008DE8070099E80E00F5
:1013E000384609F0D9F806A85D4998F800200AF0B7
:1013F000DFFC01460DF59C7948460BF03FF898F864
:10140000000000F043FD03970497059051AB93E86B
:1014100007008DE8070099E80E00384609F0BCF88F
:1014200098F8000000F044FD01464E4B1860384625
:10143000FFF7E8FA4C4B1B789D4240F0D2802846DB
:10144000314605F0ADFF582806D1484802F0E4FBCC
:10145000002323800220EDE0562840F0C280414B5B
:101460001B681B780BB1022B47D1414B00934148BD
:1014700041490022414B12F0E3FE30B1404802F0F6
:10148000CBFB002323800220D4E0DFF80C8106A8E8
:101490002E4998F800200AF08BFC014654AF3846DC
:1014A00001220AF0B3FF374BD3F8009098F8000000
:1014B00000F0ECFCCDF80C900123049305905AAB9E
:1014C00013E907008DE8070097E80E000BA809F064
:1014D00063F840B18723238080252B4B1B789D42E6
:1014E00040F0A1800B960B9BB3F91030632B73D1A6
:1014F0001C4B1B6801221A706EE0062B1AD10022C9
:10150000224B1A808D232380DFF89080204F98F89B
:101510000000397800F0FEF9814698F8000039782B
:1015200000F006FA02461B48494602F0C7FD0128B2
:1015300052D87AE0032B33D1114802F06DFB00231F
:101540002380022076E000BFE403001060CA01009F
:1015500070CA010084CA010094CA0100A4CA010033
:10156000BCCA0100E0030010A91600100000001022
:10157000C8130200DCCA0100E4CA0100F0CA01007D
:101580003C000010A01200101A1E0010D815001008
:10159000FC00001010CB01006C150010B6150010F7
:1015A000042B19D10022254B1A8096232380DFF8C3
:1015B000A480234F98F80000397800F0ABF98146F9
:1015C00098F80000397800F089F902461D4849462C
:1015D00002F074FD01282AD901201B4B1968FFF77E
:1015E00011FA882D06D1194811F0ACF810B118483D
:1015F00002F012FB9F232380002300E00123C3B1EC
:10160000832D7FF451AE00232380032012E00020BD
:1016100010E000200EE000200CE000200AE0002096
:1016200008E0002006E0002004E0002002E00020A6
:1016300000E001205BB0BDE8F08300BFD8150010CA
:10164000FC00001010CB0100E00300100028001087
:1016500000000010B61500100EB400B50146044895
:101660009DF8042012F01EFE5DF804EB03B07047F5
:1016700028CB01000EB400B5014604489DF80420B3
:1016800012F010FE5DF804EB03B0704794CB01003C
:101690000EB400B5014604489DF8042012F002FE85
:1016A0005DF804EB03B0704750CC01000EB400B5F8
:1016B000014604489DF8042012F0F4FD5DF804EBA7
:1016C00003B0704770CC01000EB400B50146044869
:1016D0009DF8042012F0E6FD5DF804EB03B07047BE
:1016E00080CC01000EB400B5014604489DF80420EA
:1016F00012F0D8FD5DF804EB03B0704794CC010004
:101700000EB400B5014604489DF8042012F0CAFD4D
:101710005DF804EB03B070479CCC01000EB400B53B
:10172000014604489DF8042012F0BCFD5DF804EB6E
:1017300003B07047A8CC01000EB400B501460448C0
:101740009DF8042012F0AEFD5DF804EB03B0704785
:10175000B4CC01000EB400B5014604489DF8042045
:1017600012F0A0FD5DF804EB03B07047C4CC01009B
:101770000EB400B5014604489DF8042012F092FD15
:101780005DF804EB03B07047D0CC01000EB400B597
:10179000014604489DF8042012F084FD5DF804EB36
:1017A00003B07047D8CC01000EB400B50146044820
:1017B0009DF8042012F076FD5DF804EB03B070474D
:1017C000E0CC01000EB400B5014604489DF80420A9
:1017D00012F068FD5DF804EB03B07047ECCC01003B
:1017E0000EB400B5014604489DF8042012F05AFDDD
:1017F0005DF804EB03B0704708CD01000EB400B5EE
:10180000014604489DF8042012F04CFD5DF804EBFD
:1018100003B0704714CD01000EB400B50146044872
:101820009DF8042012F03EFD5DF804EB03B0704714
:1018300020CD01000EB400B5014604489DF80420F7
:1018400012F030FD5DF804EB03B0704734CD0100B9
:101850000EB400B5014604489DF8042012F022FDA4
:101860005DF804EB03B070473CCD01000EB400B549
:10187000014604489DF8042012F014FD5DF804EBC5
:1018800003B0704748CD01000EB400B501460448CE
:101890009DF8042012F006FD5DF804EB03B07047DC
:1018A00054CD01000EB400B5014604489DF8042053
:1018B00012F0F8FC5DF804EB03B0704760CD010056
:1018C0000EB400B5014604489DF8042012F0EAFC6D
:1018D0005DF804EB03B0704774CD01000EB400B5A1
:1018E000014604489DF8042012F0DCFC5DF804EB8E
:1018F00003B0704780CD01000EB400B50146044826
:101900009DF8042012F0CEFC5DF804EB03B07047A4
:101910009CCD01000EB400B5014604489DF804209A
:1019200012F0C0FC5DF804EB03B07047C8CD0100B5
:101930000EB400B5014604489DF8042012F0B2FC34
:101940005DF804EB03B07047E0CD01000EB400B5C4
:10195000014604489DF8042012F0A4FC5DF804EB55
:1019600003B07047F0CD01000EB400B50146044845
:101970009DF8042012F096FC5DF804EB03B070476C
:10198000FCCD01000EB400B5014604489DF80420CA
:1019900012F088FC5DF804EB03B070470CCE010038
:1019A0000EB400B5014604489DF8042012F07AFCFC
:1019B0005DF804EB03B0704720CE010000B585B0A0
:1019C000154B1868039068462021072213F03AFD52
:1019D00068465F21114B1A7813F034FD3723ADF8B8
:1019E0000E3000230E492A2008E00A78934203D2E1
:1019F00004AA1A4402F8100C0133DBB2062BF4D906
:101A000000238DF80730039806496A4605F006FB67
:101A100005B05DF804FB00BF30CE0100FD030010EF
:101A2000FC03001014CB010000B583B07823ADF89F
:101A300004300023ADF8063005F0ACF80A4805F094
:101A40008BFB0A4B18780A4B1978FFF7A9FF02465F
:101A50000198084905F0E2FA074805F07DFBFFF719
:101A6000ADFF03B05DF804FBC8150010B6150010FB
:101A7000FC00001034CE0100C01500102DE9F0412B
:101A80009EB004460D4616460388512B00F02B816C
:101A900009D8432B00F0A7804C2B00F0E780002BE7
:101AA00040F09D8109E05B2B00F05081662B00F037
:101AB0009181592B40F0938138E10022AF4B1A708D
:101AC000AF480C21072213F0BDFCAE4B0093AE488B
:101AD000AE490522AE4B12F083FBAE4B1870FFF7F8
:101AE000A3FFAD4840F6B83110F01CFE74E1882D1C
:101AF00006D1A94810F026FE10B1A84802F08CF8D3
:101B0000A74B1B789D4240F03581A34840F6B83181
:101B100010F008FE2846314605F042FC58280DD149
:101B200097480C21072213F08DFC0025934B1D7064
:101B30009C4802F071F8258002205FE1562800F0F1
:101B40001981FF2800F016818C4B1F78062F00F2B8
:101B50001181DFF86C82022388F800302846314674
:101B600005F01EFC47447870844F3B7801333B708E
:101B7000FFF75AFF3B78874A11788B4240F0F88094
:101B800008F1010012F072FC002848D008F10100B1
:101B90000C21072213F056FC00223A70824F07A84E
:101BA00082493A780AF004F901460CAD2846012230
:101BB0000AF02CFC7E4BD3F80080387800F066F9F0
:101BC000CDF80C800123049305900FAB93E8070038
:101BD0008DE8070095E80E00764808F0DDFC48B176
:101BE000432323808025744B1B789D4240F0FB806B
:101BF000704B1E606F4B1B68B3F91030632B07D11D
:101C0000694B187800F054F96C4B1860012303708D
:101C1000644802F001F8002323800220EEE0012056
:101C200002F006FA12AF664B664A11885E4A1288C5
:101C30000A4492B20092384619685A6801230AF0A1
:101C40002BF95B4B1B68039301230493002305933B
:101C500015AB93E807008DE8070097E80E0055489C
:101C600008F09AFC48B14C2323808025524B1B7806
:101C70009D4240F0BA804F4B1E6000223F4B1A70CD
:101C80004C4B1B681B8A1AB22A2A47D13C480C21AC
:101C9000072213F0D7FB0022384B1A70424F07A8D7
:101CA00042493A780AF084F8014618AD28460122E4
:101CB0000AF0ACFB3E4BD3F80080387800F0E6F831
:101CC000CDF80C800123049305901EAB13E90700A7
:101CD0008DE8070095E80E00364808F05DFC40B13D
:101CE000512323808025344B1B789D427FD1314B7B
:101CF0001E60304B1B68B3F91030632B07D12A4BA1
:101D0000187800F0D5F82D4B186001230370254892
:101D100001F082FF0023238002206FE01BB22E2BF4
:101D20000FD10022284B1A8059232380274B187883
:101D3000274B1978FFF726FE02F0C0F901280FD8CB
:101D400057E00022204B1A805B2323801F4B18781A
:101D50001F4B1978FFF78EFC02F0B0F901284AD921
:101D600007480C21072213F06DFBFFF75DFE01E031
:101D7000FFF724FE6623238000232CE0FC030010E1
:101D8000FD150010C81302003CCE010044CE010036
:101D900050CE0100FD0300100028001000000010CC
:101DA000A9160010280000106C15001060CA010070
:101DB000A0120010F80300101A1E0010F403001007
:101DC000FC15001088080010D8150010B61500107A
:101DD000FC000010012383B1832D7FF488AE002323
:101DE000238003200AE0002008E0002006E0002015
:101DF00004E0002002E0002000E001201EB0BDE869
:101E0000F08100BF84B010B502AC84E80F00154823
:101E100011F048FA0AE0027D9DF81C309A4203D185
:101E2000BDF81E30C38218E011F076FA0028F2D116
:101E3000182011F063F904460021182213F002FB68
:101E4000204602A9182213F0FBFA00232360032383
:101E500023710448214611F045FABDE8104004B052
:101E6000704700BF0004001010B50446064811F08A
:101E700019FA04E0037DA34204D011F04DFA0028C2
:101E8000F8D110BD012010BD0004001010B50446AB
:101E9000064811F007FA06E0037DA34201D1C08A8B
:101EA00010BD11F039FA0028F6D110BD0004001061
:101EB00010B50446064811F0F5F906E0037DA3428B
:101EC00001D1043010BD11F027FA0028F6D110BD61
:101ED0000004001008B518B9034811F0E3F908BD73
:101EE00011F01AFA08BD00BF000400102DE9F043FC
:101EF00089B06C46254D0FCD0FC495E80F0084E8DE
:101F00000F00022002F0EEFE00F47F77204B1B68EA
:101F1000BB422ED136E005FB04F3F05A30B308AAD9
:101F200002EB840353F8203C3B4211D105FB0463D0
:101F30009B78072B1AD0012B18D001F087F805FBEE
:101F40000469002289F86120072389F802300DE036
:101F500005FB04639B78072B08D101F0C1F805FB52
:101F6000046989F86180032389F802300134E4B2FE
:101F700004E00024074E64254FF00108072CCAD95D
:101F8000034B1F6009B0BDE8F08300BF74CE0100B1
:101F900018040010300500102DE9F04FD7B00646A8
:101FA0000F469046A04810F0CDFB20B19E484FF45C
:101FB000FA7110F0B7FBFFF799FF33887E2B00F022
:101FC000D28105D863B1622B00F0C38000F0E3BC7E
:101FD0008F2B00F07382EE2B00F0D88400F0DBBC76
:101FE0009248642110F0C8FB0022914B1A701C46E5
:101FF000DFF874A2DFF874924EE01BA8514601325C
:1020000013F072FC94F800B08A4D009548461BA965
:102010000BF10102884B12F0E3F8642303FB0BFB86
:10202000864B23F80B0022781BA88549013213F058
:102030005BFC009548461BA90022824B12F0D0F8A9
:10204000012809D0022816D0237864217B4A01FB9D
:10205000032303229A701CE0784D23784FF0640B21
:102060000BFB03F3E85A00F0F1FF23780BFB035559
:102070000723AB700DE0714D23784FF0640B0BFB21
:1020800003F3E85A01F02CF823780BFB03550723E0
:10209000AB702378013323702278072AADD900F082
:1020A00077BC02F03FFA882F40F06C840022604B2E
:1020B0001A7000F059BC6421604A01FB0322927837
:1020C000072A00F04D84052A04D15C4A01FB032253
:1020D000526962B96421594A01FB032393F86230C3
:1020E0002BB9524810F056FB002800F00A81DFF8A7
:1020F00040A19AF80010514C4FF0640909FB0143CC
:10210000002583F862505048013114F053F99AF8D1
:10211000003009FB03F934F8091026AC4B4B1B784F
:1021200019442046C9B20AF091F8494B1B68039341
:1021300001230493059529AB93E807008DE8070078
:1021400094E80E00434808F027FA50B16223338028
:102150008027414B1B789F4240F021843D4BC3F8C0
:1021600000803C4B1868038A1AB2E42A14D1304C20
:1021700025780AF089F8314B642101FB0535686147
:10218000227801FB0233012183F861103348596939
:10219000013214F00FF9B4E01BB2292B40F0E083B8
:1021A000234B1B786421254A01FB03225269002A34
:1021B00000F09080214A01FB032C0CF1180E05ACB5
:1021C0000CF13C050FCD0FC40FCD0FC42B6823605D
:1021D00000230E936C460CF128050FCD0FC42B681D
:1021E00023609EE80F0012F0D7FE0022002316F0B5
:1021F00023FA00286ED01A4814F0DCF80C4B1B7838
:1022000064210E4A01FB032303229A7023A80521AF
:1022100001226A2309F08AFD124B18701D46DFF86F
:102220001CA0DFF80C9052E008040010701500109C
:1022300004040010C8130200B8CE010030050010DD
:10224000D8CE0100E8CE010000CF010088080010C0
:10225000A01200101C0400101A1E001028CF01004C
:1022600050CF01002004001094CE0100A8CE010040
:1022700099F80030642404FB03F320A865491AF898
:10228000032009F095FD014699F8003004FB03A3F3
:102290002CAC20469A780AF0B9F82B784FF0000E53
:1022A000CDF80CE0CDF810E056AA02EB430333F86A
:1022B000CE3C05932FAB93E807008DE8070094E828
:1022C0000E00704608F068F92B78013B2B702B78D4
:1022D000002BCDD1DFF8489199F800304E4C6425A1
:1022E00005FB03F3E21800215161E05A00F0F8FE0B
:1022F00099F8003005FB03440323A370474814F00A
:1023000059F8474B19786422434B02FB013393F889
:102310006130002B00F01B814248013114F04AF873
:102320003F4B1A7864253C4B05FB023532AC3E4BE3
:10233000204619685A686B6909F008FF3B4B1B6817
:102340000393012304930023059335AB93E807001F
:102350008DE8070094E80E00354808F01DF950B1EB
:102360007E2333808027334B1B789F4240F01983B4
:102370002F4BC3F800802E4B19680B8A1AB2DD2A46
:102380005ED1DFF89CA09AF80040234D4FF064091D
:1023900009FB0454183410A809F0F8FE0DF1400EA2
:1023A000BEE80F000FC4BEE80F000FC4DEF8003017
:1023B00023609AF8004009FB045410A81C4B1968CC
:1023C00009F014FF3C340DF1400EBEE80F000FC4BD
:1023D000BEE80F000FC4DEF8003023609AF800401A
:1023E00009FB0450183012F07BFD15F0F9FA024693
:1023F0001148611C13F0DEFF9AF8000009FB005041
:102400003C3012F06DFD15F0EBFA01460B4813F06D
:10241000D1FF2DE060CA01003005001070CF01002F
:10242000040400108CCF010004160010A01200104C
:102430001C0400101A1E0010B4CF0100DCCF0100F4
:102440001BB2292B40F08C82DFF85C9299F80030A7
:10245000944C642505FB03F3E21800215161E05A16
:1024600000F03EFE99F8003005FB03440323A370FF
:102470008D4C21788D48013113F09CFF2378642125
:10248000884A01FB032338AC20465969884A09F081
:1024900001FF884B1B6803930123049300230593DA
:1024A0003BAB93E807008DE8070094E80E008248F4
:1024B00008F072F850B18F23338080277F4B1B7850
:1024C0009F4240F070827C4BC3F800807A4B1868C2
:1024D000B0F91030E72B40F0438209F037FF014696
:1024E0001AA83D220FF050FF042824D16E4C217809
:1024F0007348013113F05EFF94F800A01A9B5868EE
:1025000015F014F8674D4FF0640909FB0A5A8AF870
:10251000030094F800A01A9B986815F007F809FBCF
:102520000A5ACAF8100024781A9BD86814F0FEFFE3
:1025300009FB0454A0601A9813F034F95A4B1B7825
:102540006421584A01FB0323002283F86120564B83
:102550001B786421534A01FB03225269002A00F0D0
:10256000F381504A01FB03229278072A00F0E680AB
:1025700008464C4900FB0311C97800295DD0044688
:10258000484804FB030084884E48A0FB0450B1EB8C
:10259000901F52D2012A50D1424C642505FB03F30F
:1025A000E05A00F09DFD404B197805FB01440223E1
:1025B000A3704548013113F0FDFE23A80521012237
:1025C0006A2309F0B3FB414B18701D46DFF8D4A015
:1025D000DFF8D4902EE099F80030642404FB03F374
:1025E00020A83B491AF8032009F0E2FB014699F8BC
:1025F000003004FB03A33EAC20469A7809F006FFA6
:102600002B784FF0000ECDF80CE0CDF810E056AA74
:1026100002EB430333F8CE3C059341AB93E807004C
:102620008DE8070094E80E00704607F0B5FF2B78A0
:10263000013B2B702B78002BCDD11B4B1B786421D9
:10264000184A01FB03221269002A77D0084615496F
:1026500000FB031189688A4270D2124A00FB0322F0
:102660009278012A6AD10F4C054600FB03F3E05A29
:1026700000F036FD0C4B197805FB01440623A370CE
:102680001448013113F096FE23A8052101226A2384
:1026900009F04CFB0D4B18701D46DFF808A0DFF861
:1026A000089048E03005001004040010E8CF010055
:1026B00014D00100A01200101C0400101A1E0010FB
:1026C0003CD00100D34D621064D001002004001002
:1026D00060CA010088D0010099F80030642404FB2E
:1026E00003F320A8B3491AF8032009F061FB01465F
:1026F00099F8003004FB03A344AC20469A7809F013
:1027000085FE2B784FF0000ECDF80CE0CDF810E0F0
:1027100056AA02EB430333F8CE3C059347AB93E84C
:1027200007008DE8070094E80E00704607F034FFBC
:102730002B78013B2B702B78002BCDD1DFF87CB2AE
:102740009BF800C0DFF878924FF0640A0AFB0C9CFB
:102750000CF1180E05AC0CF13C050FCD0FC40FCDDC
:102760000FC42B68236000230E936C460CF1280CD9
:10277000BCE80F000FC4DCF8003023609EE80F00B7
:1027800012F00AFC04460D469BF800B00AFB0B99B8
:1027900099F80290B9F1070F01D1002400252046D5
:1027A00029460022002315F047FF002856D0B9F132
:1027B000020F40F2D580B9F1060F00F0D1807E48BB
:1027C0000BF1010113F0F6FD7C4B1B78642202FB38
:1027D00003F37B4AD05A00F039FC23A805210122DB
:1027E0006A2309F0A3FA774B18701D46DFF8D0A1D1
:1027F000DFF8C8912EE099F80030642404FB03F35D
:1028000020A86C491AF8032009F0D2FA014699F879
:10281000003004FB03A34AAC20469A7809F0F6FD89
:102820002B784FF0000ECDF80CE0CDF810E056AA52
:1028300002EB430333F8CE3C05934DAB93E807001E
:102840008DE8070094E80E00704607F0A5FE2B788F
:10285000013B2B702B78002BCDD181E020462946FF
:102860000022002315F040FF002856D0544C642568
:1028700005FB0BFB04EB0B030022DA701A6134F842
:102880000B0000F02DFC4D4B197805FB014405258C
:10289000A5704D48013113F08DFD23A82946012272
:1028A0006A2309F043FA474B18701D46DFF810A160
:1028B000DFF808912DE099F80030642404FB03F35D
:1028C00020A83C491AF8032009F072FA014699F849
:1028D000003004FB03A350AC20469A7809F096FD23
:1028E0002B784FF0000ECDF80CE0CDF810E056AA92
:1028F00002EB430333F8CE3C059312E907008DE861
:10290000070094E80E00704607F046FE2B78013B66
:102910002B702B78002BCED122E0294B642202FBB6
:102920000BFB03EB0B020421917033F80B0000F05A
:102930006FFBA8B9214B1B78642202FB03F3204AEA
:10294000D05A00F0CDFB0BE064211D4A01FB0322AD
:102950009278032A04D01A4A01FB032303229A70B7
:10296000164B1A7801321A70144B1B78072B7FF61E
:10297000A2AB16480FF00EFF20B114484EF66021AE
:102980000FF0FAFEEE233380002300E0012363B151
:10299000832F7FF486AB00233380032006E00020E2
:1029A00004E0002002E0002000E0012057B0BDE874
:1029B000F08F00BF60CA0100A8D00100040400101D
:1029C0003005001020040010CCD00100701500105C
:1029D0002DE9F04704460D46038823B140F28112E9
:1029E00093420AD09FE0544819210FF09BFE97E0D4
:1029F00040F281132380002300E00123002B00F02C
:102A00009780882D40F08C804B480FF09BFE00286B
:102A100064D04A4B1A7801321A700026484FDFF80A
:102A20004081994654E0BB5D93B9464B13F806A02C
:102A3000504602F057F9444B53F82610084203D091
:102A4000504602F047F941E0504602F03BF93DE0C4
:102A5000642303FB06839B78072B37D199F800107A
:102A60003A4BA3FB01031B0903EB83039B00CB1A27
:102A700013F0FF0F15D1642303FB068393F8603036
:102A80003BB1304B985D304B53F8261002F022F9E1
:102A90001CE02C4B985D2C4B53F8261002F012F9D9
:102AA00014E0642303FB068393F860303BB1254BAD
:102AB000985D254B53F8261002F004F906E0214BEF
:102AC000985D214B53F8261002F004F90136F6B256
:102AD000072EA8D9184819210FF024FE1C480FF022
:102AE00031FEE8B11B4B1B787BB919E019F80600E1
:102AF00058F8261002F0EEF8B85D174B53F8261080
:102B000002F0E8F80136F6B205E00026DFF854904E
:102B1000DFF85480114F072EE8D900220D4B1A70B0
:102B2000832D7FF465AF002323800320BDE8F08769
:102B30000120BDE8F08700BF24040010CC04001081
:102B4000F00400100CD101008CD30100CDCCCCCC12
:102B50000C05001054080010CCD3010014D1010062
:102B6000300500107CD301001CD101002DE9F84F85
:102B70000024DFF894B034E01BF804A01B4B53F89A
:102B8000249050464946012202F08CF8184B13F865
:102B90000480184B53F8247040463946012202F055
:102BA00081F8154B1E5D154B53F8245030462946CD
:102BB000012202F077F8124B185D124B53F82410E3
:102BC000002202F06FF85046494602F083F8404672
:102BD000394602F07FF83046294602F07BF801348E
:102BE000E4B2072CC8D9BDE8F88F00BF1CD10100A2
:102BF00014D10100CCD301000CD101008CD3010011
:102C000084D30100ACD301007CD3010038B5441E4D
:102C1000114B185D114B53F8241002F05BF8104B68
:102C2000185D104B53F8241002F04CF80E4B185D51
:102C30000E4B53F8241002F045F801230C4A137090
:102C40000C4A13550C4C25680C4B23600C4864212E
:102C50000FF068FD256038BD14D10100CCD3010010
:102C60007CD301001CD101000CD101008CD30100E8
:102C700054080010F0040010A01200108000001092
:102C80000C05001038B5441E114B185D114B53F85C
:102C9000241002F01FF8104B185D104B53F824104D
:102CA00002F010F80E4B185D0E4B53F8241002F092
:102CB00011F801230C4A13700C4A13550C4C25686B
:102CC0000C4B23600C4864210FF02CFD256038BDAF
:102CD0007CD301001CD1010014D10100CCD3010030
:102CE0000CD101008CD3010054080010F004001036
:102CF000A0120010800000100C050010F8B5054669
:102D00000E461746038840F2F712934200F0848083
:102D1000B3F5FC7F04D283B1B3F5F77F4DD01DE14D
:102D2000B3F5027F00F0CE80B3F5047F00F0F680AB
:102D3000B3F5007F40F012819EE0944813F03AFB17
:102D40000122934B1A700022924B1A701C4606E027
:102D5000581CC0B2FFF796FF237801332370237805
:102D6000072BF5D901228C4B1A700022894B1A705F
:102D700075E08A48013113F01DFB864B19786422F7
:102D8000874B02FB01339B88934206D9854801316A
:102D900013F010FB0022804B1A707E4B1878013024
:102DA000C0B2FFF733FF80484FF4FA710FF0BAFC5E
:102DB0004FF4F7732B80002300E00123002B00F079
:102DC000D18079480FF0BEFC002800F0CD80714B17
:102DD00019786422724B02FB01339A88632A07D860
:102DE0007248013113F0E6FA00226B4B1A7003E0CF
:102DF0006F48013113F0DEFA664B18780130C0B22B
:102E0000FFF740FF68484FF448710FF08BFC40F229
:102E1000F7132B80002300E00123002B00F0A68095
:102E200061480FF08FFC002800F0A280594B197800
:102E300064225B4B02FB01339A88642A07D9594804
:102E4000013113F0B7FA0022534B1A7003E05948CE
:102E5000013113F0AFFA4F4B1A7801321A704D4B13
:102E60001978072985D95448013113F0A3FA4FF492
:102E700000732B80002300E00123002B7AD04F4BFE
:102E80001B789E4278D13B78592B05D00022424BCB
:102E90001A704B4813F08EFA00223E4B1A7030E045
:102EA000484B585C484B53F8211001F00BFF394B4D
:102EB00019784648013113F07DFA4FF402732B80E4
:102EC000002300E00123002B58D03C4B1B789E428E
:102ED00056D13B78592B08D000222F4B1A702D4B1E
:102EE00019783B48013113F065FA2A4C2378354AAA
:102EF000D05C354A52F8231001F0ECFE2378013300
:102F00002370244B19780729CAD93248013113F0AC
:102F100051FA4FF404732B80002300E00123002BAF
:102F200030D0264B1B789E422ED13B78592B08D0AF
:102F30000022194B1A70174B19782748013113F0EA
:102F400039FA154B1B781BB1244813F033FA02E011
:102F5000234813F02FFA00220D4B1A7000232B8008
:102F60000320F8BD0120F8BD0120F8BD0120F8BD07
:102F70000120F8BD0120F8BD0120F8BD0120F8BDF9
:102F80000120F8BD0120F8BD0120F8BD3CD10100B1
:102F900078040010CD0400102C0500104CD1010065
:102FA0003005001060D10100FC04001084D1010044
:102FB000A8D10100D0D10100F8D10100981500106E
:102FC00014D201000CD101008CD3010030D20100D9
:102FD0004CD201006CD2010090D20100B0D20100AD
:102FE000C8D2010030B40023084D642409E004FB7A
:102FF00003F2AA5A824202D10B70012004E001338D
:10300000DBB2072BF3D9002030BC7047300500102D
:1030100030B4014690B100230A4C64200AE01D46FA
:1030200000FB03F2A25A8A4202D1074B585D06E028
:103030000133DBB2072BF2D9002000E0002030BCC6
:10304000704700BF30050010F00400102DE9F04378
:103050008DB0054600283AD000241E4EDFF87C8053
:103060001D4F32E0642303FB04F3F35AAB422AD131
:103070000DF11809B8F800102944484689B2012218
:1030800009F066F94FF0000ECDF80CE0CDF810E035
:10309000CDF814E00CAB13E907008DE8070099E8C0
:1030A0000E00704607F078FA642303FB04630122E4
:1030B0009A7083F86020A018C0B2FFF7A7FD3846C9
:1030C000294613F077F90134E4B2072CCAD90DB0C0
:1030D000BDE8F08330050010E0D201008808001040
:1030E0002DE9F0478CB00546002839D000241E4E4B
:1030F000DFF87C801D4F31E0642303FB04F3F35AB7
:10310000AB4229D10DF1180AB8F8001029445046F5
:1031100089B209F03DF94FF00009CDF80C90CDF8D7
:103120001090CDF814900CAB13E907008DE8070060
:103130009AE80E00484607F02FFA642303FB046365
:1031400083F8029083F86090601CC0B2FFF79AFD8C
:103150003846294613F02EF90134E4B2072CCBD9B6
:103160000CB0BDE8F08700BF30050010FCD20100B4
:10317000880800102DE9F04182B0FFF7F7FC5A48AB
:1031800010F0DEF80FF014FB584B18700FF010FB26
:10319000574B1870574800210FF090FC56480021FB
:1031A0000FF08CFC02268DF803604FF000088DF8BC
:1031B00004808DF800808DF802608DF8016068460B
:1031C00002F012F803278DF80170684602F00CF83F
:1031D00001248DF8024017238DF80130684602F073
:1031E00003F818238DF80130684601F0FDFF19231C
:1031F0008DF80130684601F0F7FF1A238DF8013091
:10320000684601F0F1FF8DF800408DF802701E2332
:103210008DF80130684601F0E7FF1F238DF801307B
:10322000684601F0E1FF354D28464CF2503101F07F
:1032300089F928464146224601F0CCF92846214624
:10324000224601F0C7F928463146224601F0C2F96C
:1032500028463946224601F0BDF928460421224677
:1032600001F0B8F928460521224601F0B3F92846B5
:103270000621224601F0AEF928460721224601F038
:10328000A9F928464146224601F0C6F928462146BA
:10329000224601F0C1F928463146224601F0BCF928
:1032A00028463946224601F0B7F92846042122462D
:1032B00001F0B2F928460521224601F0ADF9284671
:1032C0000621224601F0A8F928460721224601F0EE
:1032D000A3F92846214601F065F94FF48002084B16
:1032E0001A6002B0BDE8F08164000010991500106A
:1032F000981500109400001080000010004003405A
:1033000000E100E02DE9F04782B0314A6B461068D9
:10331000516803C34FF480022E4BC3F880212E4B1B
:103320001B88B3F57A7F3BD343E0264602AB2344A8
:1033300013F8085C38462946012201F0A3F960B36E
:1033400058F824A03846294601F086F9504439F847
:103350001420801A00EBD070401048F8240064213B
:103360001E4B01FB04339B78012B0AD0072B08D09E
:10337000002803DA013A29F8142002E0013229F882
:103380001420174D55F826A014F038F9504445F88C
:103390002600114B1A8801321A800134E4B205E08C
:1033A0000024104FDFF84880DFF84890072CBCD984
:1033B0000AE00D480D4B197800220FF019FA4FF46E
:1033C0008002044BC3F8802002B0BDE8F08700BF44
:1033D00004D1010000E100E0F80400103005001005
:1033E000D004001000400340940000109915001014
:1033F00058080010700000102DE9F84F11F0C8FEB9
:10340000394B1B68984203D21B1A6FEA030B01E089
:10341000C3EB000B344B18600027DFF8F09058E046
:103420003E4659F82700002800DA0730C01049F856
:10343000260064242D4B04FB0634A388181A14F0CC
:10344000DDF82B4A82FB0023C017C0EBA31001302C
:10345000A38859F82620934202DA0344A38005E0AA
:103460006421224A01FB06221B1A93804FF0640854
:103470001E4B08FB0638B8F804301E4A126802FBDF
:1034800003F31D4AA2FB03239B0CA8F806300BFB99
:1034900003F31A4A02EBC60ADAE90045E41845F1DB
:1034A000000520462946164A002314F06FFCD8F880
:1034B00008301844C8F8080020462946104A00235E
:1034C00014F064FCCAE90023002349F826300137D0
:1034D000FFB2072FA4D900220A4B1A804FF48002B2
:1034E000094B1A60BDE8F88F500800103005001035
:1034F0001F85EB51BC00001083DE1B433804001015
:10350000407E0500F804001000E100E0D004001047
:103510002DE9F04F9BB004460D4603881BB1B3F56F
:10352000DB7F0BD079E041484FF47A710FF0FAF865
:1035300071E04FF4DB732380002300E00123002BB4
:103540006FD03B4B1B789D4201D1FFF755FF882D73
:1035500061D138480FF0F6F800283AD0364B1B7886
:1035600093BB0026DFF8D4806427DFF8D49029E0ED
:1035700007FB06839A68DB689A4221D007FB068A1C
:10358000CAF80C2007A8494612F0AEF90DF1500B0D
:103590005846DAF8141007AA08F0AAFE4FF0000EF9
:1035A000CDF80CE0CDF810E0CDF814E01AAB13E93B
:1035B00007008DE807009BE80E00704606F0ECFF60
:1035C0000136F6B2072ED3D91A4842F6E0610FF061
:1035D000A9F816480FF0B6F8E8B1174B1B78ABB94D
:1035E0000021DFF858A04FF06409DFF858800BE0A5
:1035F00009FB01A6B288F3884F1CB16800914046D0
:10360000394612F0D7FEF9B20729F1D907484FF42D
:103610007A710FF087F8832D8BD10023238003204C
:1036200000E001201BB0BDE8F08F00BF780800105B
:10363000991500101C0500107804001030050010CA
:103640001CD3010030D3010030B400230A4C6421A4
:103650000CE01D4601FB03F2A25A824204D1642011
:10366000054B00FB053004E00133DBB2072BF0D93A
:10367000002030BC704700BF300500102DE9F04736
:103680008EB080460D461E48C9892A7C12F092FEF3
:103690002B7C6A2B26D11EE006FB04F3FA5ABAB142
:1036A0000DF1180A5046494608F0B0FE4FF0000EE2
:1036B000CDF80CE001230493EB89059309AB93E863
:1036C00007008DE807009AE80E00704606F064FFD8
:1036D0000134E4B204E000240A4F6426DFF82890A5
:1036E000072CD9D90CAC204607F00EF9404694E8D7
:1036F000060008F0E5FC40460EB0BDE8F08700BFCC
:10370000ECD3010030050010A8CE0100F0B589B05F
:1037100004460D46C86C08F085FB0646E86C08F0C8
:103720007FFB85B228460DF11F01FFF75BFC18B93E
:10373000204608F095FB38E02846FFF785FF07464E
:103740009DF81F2002A81A49013212F0CDF8022E6E
:1037500007D0032E13D0012E1FD12846FFF776FC89
:1037600020E0144B0093144802A90122134B10F0DF
:1037700053FE2846FFF76AFC0723BB7012E00D4B8F
:1037800000930F4802A902220C4B10F045FE284678
:10379000FFF7A6FC0723BB7004E00323BB700123E3
:1037A00087F86130204608F0B5FC204609B0F0BD2E
:1037B000D8CE0100C8130200A8CE0100E8CE010057
:1037C000DCCA010070B50546C86C08F043FE04462B
:1037D00008F0FAFA80B2FFF737FF064618B9284614
:1037E00008F03EFB4EE02848214612F0E3FD20465B
:1037F0002649052213F087FF28B928462146B278CA
:1038000008F004FE3EE0204621490A2213F07BFF27
:1038100028B928462146F27808F0F8FD32E0204623
:103820001C49042213F06FFF28B928462146F2886C
:1038300008F0ECFD26E0204617490B2213F063FF49
:1038400028B928462146326908F0E0FD1AE02046F2
:1038500012490F2213F057FF28B928462146B268B3
:1038600008F0D4FD0EE020460D49072213F04BFF6F
:1038700028B928462146B28808F0C8FD02E028464B
:1038800008F0EEFA284670BD08D4010060CA0100B5
:1038900070CA010094CA0100A4CA0100BCCA010098
:1038A00084CA0100F8B504460E46C86C08F0D2FD83
:1038B0000546F06C08F0D0FD0646284608F084FA6C
:1038C00080B2FFF7C1FE074618B9204608F0C8FAD3
:1038D00026E01448294612F06DFD284612490522BB
:1038E00013F011FFC8B9012E13D1104864210EF056
:1038F00043FF00230E4D6420012105E000FB03522D
:1039000082F862100133DBB2072BF7D93888FFF752
:103910009DFB204608F0FEFB02E0204608F0A0FADE
:103920002046F8BD08D4010060CA010070150010DF
:103930003005001070B504460D46C86C08F0A6FCB2
:1039400080B2FFF781FE064618B9204608F088FAD3
:1039500009E0E86C08F09CFC7061012386F8613096
:10396000204608F0D7FB204670BD00BFF0B589B0F7
:1039700004460D46C86C08F06DFD0646484913F034
:103980005BFEA0B9EB89ADF81E30E86C08F064FD71
:103990008DF81C0008AB13E903008DE8030002ABAF
:1039A0000FCBFEF72FFA204608F0B4FB75E0304647
:1039B00008F00AFA00286DDBC7B23846FEF754FA61
:1039C000002867D03846FEF773FA07463046354977
:1039D000052213F098FEB8B93E78E86C08F03CFD7B
:1039E00086420DD0E86C08F037FDC1B239702E4820
:1039F00012F0E0FC00202D4B197802460EF0F8FE84
:103A0000204608F087FB48E0304629490A2213F097
:103A10007AFE38B9E86C08F01FFD7880204608F07F
:103A200079FB3AE030462349042213F06CFE38B9A2
:103A3000E86C08F011FDF880204608F06BFB2CE0E4
:103A400030461D490B2213F05EFE38B9E86C08F0D1
:103A500003FDB860204608F05DFB1EE030461749C4
:103A60000E2213F050FE38B9E86C08F0F5FCF8604F
:103A7000204608F04FFB10E030461149072213F0B2
:103A800042FE38B9E86C08F0E7FCB880204608F040
:103A900041FB02E0204608F0E3F9204609B0F0BD02
:103AA000A8CE010060CA010018D401006E150010F4
:103AB00070CA010094CA0100A4CA0100BCCA010076
:103AC00084CA010010B50F200F4907F043FA40F2F5
:103AD00085300E4907F03EFA4FF461700C4907F04B
:103AE00039FA0C4C4220214607F034FA4320214693
:103AF00007F030FAE520084907F02CFA4FF461701E
:103B0000064907F027FA10BD0D770000C5770000C1
:103B1000A57800007D760000357900006D79000001
:103B200010B50446144913F057FE28B1083013F0BD
:103B3000FDFCC0B2FFF76AF82046104913F04CFEB6
:103B400028B1093013F0F2FCC0B2FFF79BF8204611
:103B50000B4913F041FE18B10A4800210EF0AEFFE8
:103B60002378592B01D04E2B05D10648064B1978E6
:103B700022460EF03DFE10BD30D401003CD40100C1
:103B800048D40100A80000109815001000B583B0BB
:103B900011F094FBFFF7EEFA00F0AEF80FF06CF9BD
:103BA00008F09AFC6920012106F0EEFE05F0B6F857
:103BB000002003F039FD104B0093104810490022FB
:103BC000104B10F00DFB104B1880104800F024F83B
:103BD0004FF4A370002110F099FEC020002110F0D6
:103BE00095FE0B4800210EF069FF0A4812F0E2FB37
:103BF0000EF044FFFCE700BFC8130200DCCA01005E
:103C000050D4010064D4010088080010E8000010BE
:103C10005000001080D4010010B504460B4B18680A
:103C2000A04212D038B10EF063FF084B1B68084861
:103C3000596812F0BFFB0748616812F0BBFB034BE9
:103C40001C60204600210EF039FF10BD8C080010CA
:103C5000ACD40100C0D40100014B1870704700BF04
:103C60009008001010B51C4C204603F09FF9204628
:103C70000121062203F0A8F920460021432203F087
:103C8000A3F9164C204603F091F9204601210522A4
:103C900003F09AF920460021432203F095F9104CD5
:103CA000204603F083F920460121022203F08CF91B
:103CB00020460021432203F087F90A4C204603F0F6
:103CC00075F9204601210A4603F07EF920460021BD
:103CD000432203F079F910BDC8150010C01500107B
:103CE000B8150010D015001008B50120014902F0E8
:103CF00019FD08BDE8D8010010B584B0374B00931A
:103D0000374838490122384B10F09AFA003018BF72
:103D10000120364B187300285ED0354B1B78013BD1
:103D2000032B59D8DFE803F002284E287823ADF89A
:103D30000C303223ADF80E302E4800210EF0BEFEBE
:103D4000FFF790FF02F026FF2B4803F005FA0398D7
:103D50002A492B4A03F062F94123ADF80E30294B72
:103D60001B680093284B1B68019303982749012285
:103D7000134603F053F92FE00024ADF80C40ADF8E2
:103D80000E40234B187802F0F7FEFFF7ADFF02F06C
:103D90009FFB039819491A4A02F0DCFC01202146D6
:103DA000224602F029FB0123ADF80E30154A1268B5
:103DB0000092154A12680192039814491A4602F0BB
:103DC000C9FC09E00F4B1B680F4A126800921148AA
:103DD00001210A4612F0EEFA04B010BDDC13020015
:103DE000DCCA0100D0D40100E4D40100AC160010FC
:103DF000FC0000102C010010C015001014CB0100B5
:103E0000F8D40100C0000010C80000102C07020008
:103E1000CC00001000D50100124A13780133DBB248
:103E20001370013B0C2B19D8DFE803F01A070E10B2
:103E30001214161412100E0709000B4870470022C6
:103E4000084B1A700948704709487047094870477D
:103E50000948704709487047094870470948704742
:103E600002487047A408001028D5010020D50100A1
:103E700030D5010038D5010040D5010048D50100FA
:103E800050D5010004D4010000B583B01E4B1B784F
:103E9000012B0ED17823ADF804303C23ADF8063069
:103EA0001A4803F059F9FFF7B7FF0146019803F0EC
:103EB000B5F8154B1B78022B0BD10423ADF8043059
:103EC0000123ADF80630FFF7A7FF0146019802F085
:103ED00041FC0D4B1B78042B0BD10223ADF80430B1
:103EE0000123ADF80630FFF797FF0146019802F075
:103EF00031FC074B1A7801321A70064819210EF06E
:103F000011FC03B05DF804FBFC000010C8150010A4
:103F1000A5080010A808001030B583B02F4B1B78FF
:103F2000012B14D17823ADF804301E23ADF80630F0
:103F300002F030FE2A4803F00FF92A4B1878274B7D
:103F40001978FDF789FB0146019803F067F8234BC8
:103F50001B78022B19D10023ADF8063002F0B8FA15
:103F6000204D1E4C28782178FDF776FB13F0A6FB38
:103F7000C0F110004308ADF8043028782178FDF72F
:103F80006BFB0146019802F0E5FB144B1B78042BF8
:103F900019D10023ADF8063002F09AFA114D0F4CFA
:103FA00028782178FDF758FB13F088FBC0F10C004E
:103FB0004308ADF8043028782178FDF74DFB014621
:103FC000019802F0C7FB054B1B78032B02D1064872
:103FD00012F0F0F9FFF758FF03B030BDFC000010FD
:103FE000C8150010B615001058D5010038B50446A4
:103FF0000D46038813B1B02B07D010E0FFF78CFFFC
:104000000BE0B0232380002300E001235BB10748CD
:104010000EF098FB08B1FFF737FF832DF1D1002395
:104020002380032038BD012038BD00BFA808001040
:1040300008B520B1044800210EF040FD08BD02483B
:104040000EF056FD08BD00BFD000001010B582B0C4
:104050000446174B1B78013B032B26D8DFE803F0FF
:10406000021521157823ADF804301423ADF806307D
:104070000020FFF7DDFF02F08DFD0E4803F06CF825
:104080000198214602F0CAFF0FE00023ADF804308A
:10409000ADF8063002F01CFA0198214602F05AFBF6
:1040A00003E00548214612F085F902B010BD00BFBB
:1040B000FC000010C015001074D501000FB400B54D
:1040C000A9B01C4B1B8813B1242B23D029E001205D
:1040D000FFF7C2FD0020FFF7ABFF174812F06AF9A7
:1040E0002BAB019302A896212A9A12F035F9134BB3
:1040F000A3FB00231B09042B38BF042310486421B1
:1041000001FB03F10EF00EFB02A8FFF79FFF242234
:10411000084B1A800A480EF015FB30B10020FFF75B
:104120009BFD0022034B1A80032029B05DF804EBAD
:1041300004B07047D815001088D50100CDCCCCCC88
:104140009408001010B582B010F0BAFB84B224B904
:1041500010F060FA10F0B4FB84B2154B1B78013BF1
:10416000032B22D8DFE803F002111D117823ADF8EC
:1041700004306423ADF806300E4802F0EDFF0198DC
:104180000D49224602F04AFF0FE00023ADF804304B
:104190000123ADF8063001980849224602F0DAFA08
:1041A00003E00748214612F005F902B010BD00BF38
:1041B000FC000010C0150010A8D50100BCD50100FE
:1041C000D0D5010010B586B004460023ADF81630F6
:1041D000ADF81430424B1B78002B3ED0414B1B787E
:1041E000042B37D8DFE803F0360327332700782382
:1041F000ADF810301E23ADF8123002F0CBFC3A4877
:1042000002F0AAFF0498394902F008FF384802F08A
:10421000A3FF02A806F078FB0023ADF812309DF84A
:1042200008209DF80930BDF80A1000910498314922
:1042300002F0F4FE0EE00023ADF81030ADF81230BD
:1042400002F046F90498294902F084FA02E02A486B
:1042500012F0B0F80022224B1A700DF1160005A9D9
:1042600005F0ACFA002831D1BDF81430642202FB0D
:1042700003F2BDF8163092FBF3F41A4B1B78013BA6
:10428000032B2BD8DFE803F002111D117823ADF8C2
:1042900010306423ADF81230184802F05DFF049826
:1042A0001749A2B202F0BAFE18E00023ADF81030B0
:1042B0000123ADF8123004981149A2B202F04AFA73
:1042C0000CE01048A1B212F075F807E00CB9FFF746
:1042D00039FF0D484FF4FA710EF024FA06B010BD04
:1042E000E4000010FC000010C8150010E4D5010027
:1042F000B8150010ECD5010004D60100C01500105F
:104300001CD6010030D60100EC15001030B583B08A
:1043100004460D4603884D2B40D0552B54D0002B1E
:1043200056D12F484FF4FA710EF0FCF92D4844F2A3
:1043300050610EF0F7F949E0882D0CD128480EF0B5
:1043400001FA10B10020FFF73DFF274B1B78012B2E
:1043500001D1FFF799FD254B1B789D4202D1012029
:10436000FFF730FF882D05D11E480EF0EBF908B19C
:1043700000F0B8F810F0B2FAF0B1684606F0C4FAEE
:104380009DF8003013B19DF8013063B99DF80530F8
:104390004BB10022164B1A804D2323801548FFF79E
:1043A0008DFE012806D91448FFF736FC0023238030
:1043B000022012E0002010E0104B18680EF0A0FB65
:1043C00055232380002300E001232BB1832DB3D19B
:1043D00000232380032000E0012003B030BD00BF94
:1043E000EC150010DC150010FC000010C0160010C9
:1043F000D815001054D6010000000010A0120010C3
:10440000F0B5ADF5177D06460F46304D8FAB95E8FC
:10441000070003C323F8022B120C1A7000238DF837
:1044200047328DF848328DF849328DF84A328DF88E
:104430004B328DF84C328DF84D328DF84E328DF86E
:104440004F328DF850328DF851328DF852328DF84E
:1044500053328DF854328BAC1C3595E80F0084E84C
:104460000F00032E0ED0042E02D0022E0FD104E036
:104470008FA8174913F0C6F80DE08FA8154913F05F
:10448000C1F808E08FA8144913F0BCF803E08FA826
:10449000124913F0B7F896AB03EB87078FA857F8CC
:1044A0002C1C13F0AFF88FA80D4913F0ABF801A83E
:1044B0008FA900220CF016FC20B901A80CF02CFFEB
:1044C000012000E000200DF5177DF0BD84D601002D
:1044D000B0D60100B8D60100C0D60100C4D6010094
:1044E000CCD6010008B5054811F064FF0020012179
:1044F00001F0C6FC0A2001F0F1FCFEE7E4D6010061
:1045000008B5034811F056FF0122024B1A7008BD8E
:1045100000D70100B8080010014B1878704700BFA1
:10452000B808001008B5034B1B780BB1FFF7DAFF92
:1045300008BD00BFB8080010014B1878704700BFD5
:10454000B808001038B504460D46134B984203D006
:104550001248422100F0F0FD6A1E114B9A4203D925
:104560000E48432100F0E8FD4FF48050012100F097
:1045700005F900232360182000F0ECF805EB851501
:1045800005EB40006D00B0FBF5F3013B1B0243F46B
:104590000013236038BD00BF0040034014D7010062
:1045A0003F0D030038B504460D46084B984203D032
:1045B00007489E2100F0C0FD236823F48033236068
:1045C0001DB1236843F48033236038BD00400340AD
:1045D00014D7010070B504460D4616460C4B9842A0
:1045E00003D00C48DB2100F0A7FD082D03D90948B2
:1045F000DC2100F0A1FDE368012202FA05F523EABF
:104600000503E36016B1E3681D43E56070BD00BFBC
:104610000040034014D7010070B504460E4615460D
:104620000B4B984203D00B48EE2100F085FD012D85
:1046300006D12368012202FA06F61E43266070BDE9
:104640002368012202FA06F623EA0606266070BDF8
:104650000040034014D7010038B504460D46074B0F
:10466000984204D006484FF4817100F065FD103483
:1046700054F82500C0F30B1038BD00BF00400340C4
:1046800014D7010070B505460E4614460E4B9842ED
:1046900004D00E484FF48B7100F04EFD012C04D96C
:1046A0000A484FF48C7100F047FD103555F826305C
:1046B00014B103F0004301E003F080430BB101208B
:1046C00070BD002070BD00BF0040034014D7010042
:1046D00010B41F2802D9A0F1200200E002461F28D2
:1046E00010D8124BD3F8A8410320904024EA0000D0
:1046F000C3F8A801D3F8A80101FA02F20243C3F8F3
:10470000A8210FE0094BD3F8AC410320904024EAE4
:104710000000C3F8AC01D3F8AC0101FA02F2024385
:10472000C3F8AC215DF8044B704700BF00C00F40D8
:104730001F2803D8064BD3F8A83103E02038044BD8
:10474000D3F8AC3123FA00F000F00300704700BF4B
:1047500000C00F4010B5084B1C68FFF7E9FF0328A5
:1047600006D8DFE800F004050502082000E0042078
:10477000B4FBF0F010BD00BFB8020010012908D151
:10478000094AD2F8C410094B03400B43C2F8C430A5
:10479000704741B9044AD2F8C43023EA0000034B01
:1047A0000340C2F8C430704700C00F40DEF7EFEF9F
:1047B000F0B40023124F134C134E144819460DE069
:1047C00003EB430252023A4444F83320DA00A518BE
:1047D0006E6040F83310024451600133032BEFD96F
:1047E0004FF0A043074AC3F80821084AC3F80C2138
:1047F0000322C3F810210022C3F81821F0BC70472F
:1048000000C50720C8080010FF050080E808001058
:1048100030B40023114D12481946124C0BE003EB43
:10482000430252022A4440F8332000EBC302516095
:1048300044F823100133022BF1D94FF0A043084A6A
:10484000C3F81C21074AC3F820210222C3F82421FF
:104850000022C3F8282130BC704700BF00DD0720CC
:1048600008090010BC08001040F480704FF0A0430D
:104870009862D962002308494FF0A04004E0426BDF
:1048800012F0010F05D001338B42F8D94FF0FF3001
:1048900070470020704700BFFFFF040040F48070A5
:1048A0004FF0A043986201225A62002309494FF059
:1048B000A0400AE0426B12F0010F05D14FF0A04377
:1048C00000225A62186B704701338B42F2D94FF0C5
:1048D000FF307047FFFF04004279037943EA022268
:1048E0004FF0A0431A64C178827842EA01225A64E8
:1048F0004178027842EA01229A64704738B54FF451
:104900008034012507E02846FFF7C8FF10F0040FA8
:1049100003D13CB3013C002CF5D110F4A04F0ED0D4
:104920004FF0A0435A6842F001025A60D3F80021C8
:1049300042F48062C3F8002115229A6003E012223B
:104940004FF0A0439A6010F4C04004D100224FF011
:10495000A0439A6138BD4FF480724FF0A0439A6132
:10496000002038BD4FF0FF3038BD00BF38B50446D9
:104970000220FFF793FF05460320FFF78FFF40EA71
:104980000540234B984237D1042C38D8DFE804F097
:1049900003171D22280000204FF44051FFF764FF49
:1049A0004FF48034012507E02846FFF777FF10F029
:1049B000200F1AD134B3013C002CF5D115E00020B2
:1049C0004FF48071FFF750FF0FE000200146FFF722
:1049D0004BFF0AE000204FF40451FFF745FF04E0CD
:1049E00000204FF40051FFF73FFFFFF787FF00283B
:1049F0000BDA4FF0FF3038BD4FF0FF3038BD4FF0CD
:104A0000FF3038BD4FF0FF3038BD002038BD00BF4B
:104A10001916220070B506464FF080400121FFF7BD
:104A2000ADFE4FF0A0434FF44F421A607822C3F816
:104A30000021642300E0013B002BFCD14FF0A04299
:104A400002211160302151604FF4C0615161354A3B
:104A50001068354AA2FB0010000D344903E0CA5C1F
:104A6000824202DA0133062BF9D9013303F00F0237
:104A7000920042F400424FF0A0431A621A6A22F4F4
:104A800000421A6243F20F721A611222DA604FF486
:104A90001072C3F800214FF400629A61642300E0B1
:104AA000013B002BFCD100204FF0A04398614FF454
:104AB0000041FFF7D9FE4FF48034002507E0284677
:104AC000FFF7ECFE10F4084F03D034B3013C002C88
:104AD000F5D13068FFF74AFF002820DB7068FFF748
:104AE000FBFEFFF765FEFFF793FE4FF0A043262283
:104AF000C3F800228822C3F8E42F4FF6FF72C3F8F0
:104B0000E82FD3F8002142F00302C3F800211A680D
:104B100042F001021A60012070BD002070BD00202B
:104B200070BD00BFB80200106BCA5F6B3CD70100BC
:104B300030B44FF0A043D3F8285141680B4B53F8E1
:104B40003520036803339B0804E00C681460013BC4
:104B500004320431002BF8D10368013B43F0404399
:104B6000024A02EBC5056B6030BC704708090010B3
:104B70004FF0A043D3F818114368084A52F8311097
:104B800053B102680332920804E008681860013AE1
:104B900004310433002AF8D1704700BFC808001060
:104BA000012907D14FF0A043D3F8E42F1043C3F8F5
:104BB000E40F70474FF0A043D3F8E42F22EA00003F
:104BC000C3F8E40F704700BF4FF0A043D3F8E03FB5
:104BD000034205D04FF0A043C3F8E80F012070470F
:104BE000002070474FF0A043D3F81821D3F81431B8
:104BF0009A4201D001207047002070474FF0A04337
:104C0000D3F82C21013AD3F82831934201D1002066
:104C100070470120704700BF4FF0A043D3F8182120
:104C2000024B53F83200C0F30A007047E808001046
:104C30004FF0A043D3F818310133042B00D10023E7
:104C40004FF0A042C2F81831704700BF4FF0A043A8
:104C5000D3F828310133032B00D100234FF0A042B9
:104C6000C2F82831704700BF042804D8DFE800F0FC
:104C70000D0507090B0000207047054870470548DF
:104C8000704705487047054870470548704700BFA2
:104C900020C0092040C0092060C0092080C0092030
:104CA00000C0092038B50C461546FFF7DDFF40B1BE
:104CB0001DB102681443046038BD026822EA04048E
:104CC000046038BD10B50C46FFF7CEFF00B184611B
:104CD00010BD00BF10B50C46FFF7C6FF00B1C461A0
:104CE00010BD00BF08B5FFF7BFFF08B1406908BDA0
:104CF000002008BD094B984209D003F58023984253
:104D000007D003F58823984205D102207047002080
:104D10007047012070474FF0FF30704700C00140DE
:104D20002023036008238361012302E001339BB247
:104D30001BB1026812F0080FF8D02023836140688D
:104D400000F0F800704700BF036813F0200F01D097
:104D5000202383611023036008238361704700BF11
:104D6000036813F0200F01D02023836181600823A2
:104D70008361036813F0080FFBD0406800F0F8006F
:104D8000704700BF012A02D10423036001E004231D
:104D9000836108238361036813F0080FFBD08368E5
:104DA0000B70406800F0F800704700BF38B504464B
:104DB0000D46184B98420BD003F58023984207D03C
:104DC00003F58823984203D01348E82100F0B4F992
:104DD000104B9C4205D10E20FFF7BCFCB0FBF5F058
:104DE00012E00E4B9C4205D12620FFF7B3FCB0FB2E
:104DF000F5F009E00A4B9C4205D13420FFF7AAFCEC
:104E0000B0FBF5F000E00020430823612369C01ADD
:104E1000606138BD00C0014044D7010000C00540BA
:104E200000000A4038B504460D461E4B98420CD08F
:104E300003F58023984208D003F58823984204D0D4
:104E400019484FF4887100F077F9164B9C4208D14D
:104E500080200121FFF792FC0E200221FFF738FC91
:104E600018E0124B9C4209D14FF400200121FFF7BA
:104E700085FC26200221FFF72BFC0BE00C4B9C420B
:104E80000ED14FF080600121FFF778FC3420022121
:104E9000FFF71EFC20462946FFF788FF6423A36125
:104EA00038BD00BF00C0014044D7010000C005402C
:104EB00000000A4038B504460D46012904D90E48C1
:104EC00040F2611100F038F90C4B9C420CD003F514
:104ED00080239C4208D003F588239C4204D00648D6
:104EE0004FF4B17100F028F9012D02D14023236065
:104EF00038BD4023A36138BD44D7010000C0014044
:104F0000B9B1194B984204D14FF48062174B1A6023
:104F10007047174B984204D14FF40062134B1A604C
:104F20007047144B98421ED14FF480520F4B1A60B9
:104F300070470D4B984205D14FF480620B4BC3F87C
:104F4000802070470A4B984205D14FF40062074B0E
:104F5000C3F880207047074B984204D14FF4805229
:104F6000024BC3F88020704700C0014000E100E020
:104F700000C0054000000A402DE9F04182B006461D
:104F80000C460023CB608B614B62002A40F0B68058
:104F900000230B621F46D4F804802569E760A761EF
:104FA0003046FFF7BDFE082809D0102807D0236A35
:104FB00001332362E2699342EDD9606299E0A3680C
:104FC00073B3636863B323685900304601F0FE0190
:104FD000FFF7C6FE18281FD0236A01332362E26957
:104FE0009342D8D940F40070606282E0304698F86D
:104FF0000010FFF7B5FE282809D0236A0133236289
:10500000E2699342C7D940F40070606271E008F130
:105010000108E3680133E360E268A3689A42E5D3DC
:10502000A368A3B1636893B1636983B1236973B162
:105030003046FFF775FE082809D0102807D0236AEC
:1050400001332362E2699342A5D9606251E063694A
:10505000002B49D02369002B46D023685B0043F026
:1050600001013046C9B2FFF77BFE402836D0236AE3
:1050700001332362E26993428DD940F4007060628B
:1050800037E0013B994210D230460DF1070142460C
:10509000FFF778FE502819D0236A01332362E269B2
:1050A00093427FF678AF606223E030460DF107014E
:1050B0003A46FFF767FE582808D0236A0133236277
:1050C000E26993427FF667AF606212E09DF80730B5
:1050D0002B70A3690133A361013501E04FF0010892
:1050E000A16963699942CCD33046FFF72DFE0120B8
:1050F0001DE03046FFF728FE002018E0012A15D1F8
:10510000FFF7F8FDC0B28DF807000A4B43F83040B6
:1051100003EBC00300225A600823B36120233360ED
:1051200030460121FFF7ECFE012000E0002002B034
:10513000BDE8F0812009001008B503460A46024880
:10514000194611F037F9FEE76CD7010010B40C4690
:1051500040000F2902D9A1F110040130830003F1AE
:10516000804303F53033610003248C40186820EA43
:10517000040002FA01F140EA01021A605DF8044BF2
:10518000704700BF30B40C4640000F2902D9A1F18E
:1051900010040130074B610003258D4053F8204077
:1051A00024EA050402FA01F144EA010243F820204E
:1051B00030BC704740C00240012A08D1094B02FAB6
:1051C00001F153F820200A4343F820207047054B93
:1051D000012202FA01F153F8202022EA010243F8E9
:1051E0002020704768C0024010B5044600786178FE
:1051F000A278FFF7ABFF20786178E278FFF7C2FF73
:10520000207861782279FFF7D7FF10BD10B50446EA
:10521000094B984203D009483E21FFF78DFF4FF418
:1052200000700121FFF7AAFA002323702372237371
:10523000FF222274236410BD004002409CD701006D
:1052400038B504460D460C4B984203D00B487221EA
:10525000FFF772FF012D03D908487321FFF76CFF98
:10526000012D04D1237A43F00103237238BD237A40
:1052700003F01203237238BD004002409CD70100A6
:1052800038B504460D46174B984204D0164840F2F4
:10529000B711FFF751FFEB6803F01F0384F82C30C0
:1052A0002B6903F0070384F830306B69C3F30803FC
:1052B000A386AB6803F01F0384F828306B6803F003
:1052C0003F0384F824302B6803F03F0384F8203038
:1052D000AB6903F00F0384F83830EB69C3F30B03B9
:1052E000A38738BD004002409CD7010038B5044672
:1052F0000D46174B984204D0164840F2CD11FFF7E7
:105300001BFF94F82C3003F01F03EB6094F830304F
:1053100003F007032B61A38EC3F308036B6194F8BA
:10532000283003F01F03AB6094F8243003F03F03F0
:105330006B6094F8203003F03F032B6094F8383012
:1053400003F00F03AB61A38FC3F30B03EB6138BD15
:10535000004002409CD7010038B504460D460D4B75
:10536000984204D00C4840F2AB21FFF7E5FE012D36
:1053700004D909484FF42B71FFF7DEFE012D04D14B
:10538000237A03F00303237238BD237A43F010031A
:10539000237238BD004002409CD7010070B504461E
:1053A0000E461546114B984204D0114840F2C521D3
:1053B000FFF7C2FE012D04D90D4840F2C621FFF7C8
:1053C000BBFEB6F5003F04D3094840F2C721FFF702
:1053D000B3FE013EC6F31006012D02D14FF4003397
:1053E00000E000231E43266470BD00BF0040024061
:1053F0009CD70100F8B504460D461C4B984207D0D7
:10540000A3F5B023984203D019484321FFF794FE37
:10541000164B9C4203D12A20FFF79CF905E0154B5F
:105420009C4221D11420FFF795F94FF0FF3300265D
:10543000022137460CE0721C01FB02F3B0FBF3F3D0
:10544000AB4205D9FF2A02D902313E4600E016469A
:10545000AB42F0D82368DBB2236023683602B6B2D1
:105460001E432660C9B22161F8BD00BF008008401C
:10547000C4D701000000034038B504460D46174B61
:10548000984207D0A3F5B023984203D01448812155
:10549000FFF752FE114B9C4205D14FF40010012141
:1054A000FFF76CF907E00F4B9C4215D14FF4806079
:1054B0000121FFF763F96A68AB681A432B691A4345
:1054C0002B6813439BB22360EB6803F00F03636008
:1054D00020466969FFF78EFF38BD00BF0080084095
:1054E000C4D701000000034010B504460E4B98429B
:1054F00007D0A3F5B023984203D00C48A821FFF7AA
:105500001BFE094B9C4205D14FF400100021FFF710
:1055100035F910BD064B9C4204D14FF48060002148
:10552000FFF72CF910BD00BF00800840C4D7010070
:1055300000000340002343608360034A4261072266
:105540000260C3600361704740420F0038B50446F3
:105550000D460E4B984207D0A3F5B023984203D0D6
:105560000B48E521FFF7E8FD012D03D90848E621A6
:10557000FFF7E2FD012D04D1636843F0020363608D
:1055800038BD636803F00D03636038BD00800840D8
:10559000C4D7010070B505460F4B1C680F4BA3FB29
:1055A0000424A4094FF08070B0FBF4F013F048F924
:1055B0000646284613F044F9314613F049F900B184
:1055C000FEE7074B1A6842F004021A6005FB04F27A
:1055D000013A5A6070BD00BFB8020010D34D62108E
:1055E00010E000E010B50446012803D908488021E6
:1055F000FFF7A2FD012C05D1064B1A6842F001020B
:105600001A6010BD034B1A6822F001021A6010BD27
:10561000ECD7010010E000E010B50446012803D9E2
:1056200008489321FFF788FD012C05D1064B1A6825
:1056300042F002021A6010BD034B1A6822F0020207
:105640001A6010BDECD7010010E000E0024B1A68B0
:1056500022F480321A60704710E000E02DE9F04F2C
:1056600089B007908946684B984204D10620FFF71D
:1056700071F880461CE0654B0798984204D10820D9
:10568000FFF768F8804613E0614B0799994204D10F
:105690003020FFF75FF880460AE05E4B079A9A4297
:1056A00004D13220FFF756F8804601E04FF00008A1
:1056B0004FF0FF33019300200021CDE902010021CA
:1056C00005910691012732E0002545EA18154FEAB9
:1056D0000874A4FB070107FB0511BA1909FB02F2C4
:1056E000002312F053FB02460B46B0F1004F01D9E4
:1056F00042424B1C591EB1F5803F0BD201988242A9
:1057000008D218460021CDE9020152B10192049954
:1057100005910696013601E000260497BE42D3D3D8
:1057200002E0019205970696019A12B101370F2FF8
:10573000F2D9DDE90201014361D04FEA1810059C5E
:1057400004FB00F02146069C2144029CA1FB04239B
:10575000039C01FB0433002112F018FB814502D9A0
:10576000C0EB090001E0C9EB0000642303FB00F378
:10577000B3FBF9F9B9F1020F3FD8244B079C9C42C7
:105780001CD1237B43F0800323730298020A039900
:1057900042EA0162D2B222719DF808302370237B65
:1057A00003F07F032373059C2201D2B2069C04F010
:1057B0000F031343079CA362012021E0079C237B76
:1057C00043F0800323730298020A039942EA0162BC
:1057D000D2B222719DF808302370237B03F07F033F
:1057E0002373069C04F00F03059C43EA0413DBB209
:1057F000079C84F82830012002E0002000E000200F
:1058000009B0BDE8F08F00BF00C0004000000140BB
:105810000080094000C0094038B504460D46634B7E
:1058200098420FD003F5804398420BD003F508232C
:10583000984207D003F58043984203D05C48C921C1
:10584000FFF77AFC6B79032B03D95948CA21FFF77C
:1058500073FCAB79012B03D95548CB21FFF76CFCC6
:105860002B79042B03D95248CC21FFF765FC4F4B11
:105870009C4203D108200121FEF780FF4D4B9C4242
:1058800003D110200121FEF779FF4B4B9C4204D13C
:105890004FF080700121FEF771FF484B9C4204D10C
:1058A0004FF000700121FEF769FF424B9C4220D16E
:1058B000072323720023237200E02378237D13F053
:1058C000010FFAD1802384F83030237D13F0200FAC
:1058D000FBD0002384F83030636023732362237489
:1058E00084F84C3084F8543084F85030237E237D83
:1058F00017E0072323720023237200E02378237D1F
:1059000013F0010FFAD1802384F83030237D13F097
:10591000200FFBD0002384F83030636023732362B0
:10592000237D264B9C4202D1002384F8243020465C
:105930002968FFF793FE1F4B9C4203D1237B03F0A2
:10594000C00302E0237B03F0C0036A79012A03D07D
:1059500052B1022A03D005E043F0010304E043F012
:10596000020301E043F003032A798AB143F00801FE
:10597000032A06D0042A07D0022A08D143F01803CC
:1059800006E043F0280303E043F0380300E00B4651
:10599000AA79012A01D143F00403064A944202D1B4
:1059A000DBB2237338BDDBB2237338BD00C00040C7
:1059B00018D80100000001400080094000C00940E3
:1059C0004FF4165303600323437100230371837163
:1059D000704700BF38B504460D460D4B984210D0B5
:1059E00003F5804398420CD003F50823984208D071
:1059F00003F58043984204D0064840F2D911FFF7DE
:105A00009BFB054B9C4201D1257038BD257038BDEC
:105A100000C0004018D801000000014010B5044645
:105A20000E4B984210D003F5804398420CD003F5FA
:105A30000823984208D003F58043984204D00848D0
:105A40004FF4F971FFF778FB064B9C4202D12078A6
:105A5000C0B210BD2078C0B210BD00BF00C0004071
:105A600018D80100000001402DE9F0470746144610
:105A7000012B1CD000264FF0100933E033B1013B5D
:105A800000E04B463A7D12F0200FF7D063B3454655
:105A900009E001F1010A38460978FFF79BFF013D53
:105AA000013C013651463DB1002CF2D104E0002604
:105AB0004FF480394FF01008002CE2D114E03B7D08
:105AC00013F0200F10D04D4609E001F101083846CF
:105AD0000978FFF77FFF013C013D013641460DB1DA
