:10000000008000104D410000F54000002147010034
:10001000FD40000001410000054100009AF3FCEFA3
:100020000000000000000000000000000941000086
:100030000D4100000000000011410000D94C0100FA
:100040001941000019410000194100001941000048
:100050001941000019410000592F0100692F0100CA
:10006000B548010019410000194100001941000084
:100070001941000019410000194100001941000018
:100080001941000019410000194100001941000008
:100090001941000019410000CD570000194100002E
:1000A00019410000194100001941000019410000E8
:1000B0008D94000019410000194100001941000011
:1000C000194100001941000019410000C8D4010085
:1000D00000000010E8020000C8D4010000C00720A2
:1000E00000000000E8020010CC2B000000C0072038
:1000F000C4750000FEE700BFFEE700BFFEE700BFDB
:10010000FEE700BFFEE700BFFEE700BFFEE700BF5F
:10011000FEE700BFFEE700BFFEE700BF10B400230C
:1001200004E004680C600433043004319342F8D3D3
:100130005DF8044B704700BF00231A4602E00260DE
:10014000043304308B42FAD3704700BF38B54FF008
:1001500080531C4AAD20DE2106E013F0010F01D0D0
:10016000196000E0186001339342F6D9164B174A24
:10017000AB20BE2106E013F0010F01D0196000E0B2
:10018000186001339342F6D9114B124C07E003F18A
:100190000C05186859689A68FFF7C0FF2B46A34200
:1001A000F5D307E01C4654F8080B5968FFF7C4FF65
:1001B000234600E0084DAB42F4D310F08DFE10F062
:1001C0000BFFFEE7FE7D001000C00720FE3D08206B
:1001D000CC400000E4400000F4400000FFFFFFFFBF
:1001E000FFFFFFFFFFFFFFFFFFFFFFFFFFFFFFFF1F
:1001F000FFFFFFFFFFFFFFFFFFFFFFFFFFFFFFFF0F
:10020000FFFFFFFFFFFFFFFFFFFFFFFFFFFFFFFFFE
:10021000FFFFFFFFFFFFFFFFFFFFFFFFFFFFFFFFEE
:10022000FFFFFFFFFFFFFFFFFFFFFFFFFFFFFFFFDE
:10023000FFFFFFFFFFFFFFFFFFFFFFFFFFFFFFFFCE
:10024000FFFFFFFFFFFFFFFFFFFFFFFFFFFFFFFFBE
:10025000FFFFFFFFFFFFFFFFFFFFFFFFFFFFFFFFAE
:10026000FFFFFFFFFFFFFFFFFFFFFFFFFFFFFFFF9E
:10027000FFFFFFFFFFFFFFFFFFFFFFFFFFFFFFFF8E
:10028000FFFFFFFFFFFFFFFFFFFFFFFFFFFFFFFF7E
:10029000FFFFFFFFFFFFFFFFFFFFFFFFFFFFFFFF6E
:1002A000FFFFFFFFFFFFFFFFFFFFFFFFFFFFFFFF5E
:1002B000FFFFFFFFFFFFFFFFFFFFFFFFFFFFFFFF4E
:1002C000FFFFFFFFFFFFFFFFFFFFFFFFFFFFFFFF3E
:1002D000FFFFFFFFFFFFFFFFFFFFFFFFFFFFFFFF2E
:1002E000FFFFFFFFFFFFFFFFFFFFFFFFFFFFFFFF1E
:1002F000FFFFFFFFFFFFFFFFFFFFFFFFFFFFFFFF0E
:100300002DE9F04389B06C46254D0FCD0FC495E81B
:100310000F0084E80F00022002F084FA00F47F77D7
:10032000204B1B68BB422ED136E005FB04F3F05A8C
:1003300030B308AA02EB840353F8203C3B4211D1AE
:1003400005FB04639B78072B1AD0012B18D001F012
:10035000E1F805FB0469002289F86120072389F888
:1003600002300DE005FB04639B78072B08D101F0F8
:100370001BF905FB046989F86180032389F80230C1
:100380000134E4B204E00024074E64254FF0010874
:10039000072CCAD9034B1F6009B0BDE8F08300BF2A
:1003A0002085010004030010000400102DE9F04F27
:1003B000DDB006460F469046A0480EF0BDF920B1CC
:1003C0009E484FF4FA710EF0A7F9FFF799FF3388B2
:1003D0007B2B00F0D28105D863B15F2B00F0C38086
:1003E00000F04BBD8C2B00F07382F42B00F04085A5
:1003F00000F043BD924864210EF0B8F90022914B01
:100400001A701C46DFF874A2DFF874924EE01BA845
:100410005146013211F040F894F800B08A4D009531
:1004200048461BA90BF10102884B0FF0C3FD642362
:1004300003FB0BFB864B23F80B0022781BA8854996
:10044000013211F029F8009548461BA90022824B81
:100450000FF0B0FD012809D0022816D023786421BE
:100460007B4A01FB032303229A701CE0784D23781A
:100470004FF0640B0BFB03F3E85A01F04BF82378C1
:100480000BFB03550723AB700DE0714D23784FF044
:10049000640B0BFB03F3E85A01F086F823780BFB9F
:1004A00003550723AB702378013323702278072A82
:1004B000ADD900F0DFBC01F0D5FD882F40F0C3843A
:1004C0000022604B1A7000F0B0BC6421604A01FB4E
:1004D00003229278072A00F0A484052A04D15C4AFA
:1004E00001FB0322526962B96421594A01FB0323CB
:1004F00093F862302BB952480EF046F9002800F00C
:100500000A81DFF840A19AF80010514C4FF06409BD
:1005100009FB0143002583F862505048013111F076
:1005200021FD9AF8003009FB03F934F8091026ACD4
:100530004B4B1B881944204689B207F0B1FE494B4A
:100540001B68039301230493059529AB93E80700E7
:100550008DE8070094E80E00434806F08FF850B18C
:100560005F2333808027414B1B789F4240F0898472
:100570003D4BC3F800803C4B1868038A1AB2E42A4A
:1005800014D1304C257807F0A9FE314B642101FBD2
:1005900005356861227801FB0233012183F861107F
:1005A00033485969013211F0DDFCB4E01BB2292B4C
:1005B00040F03784234B1B786421254A01FB03223A
:1005C0005269002A00F09080214A01FB032C0CF1B3
:1005D000180E05AC0CF13C050FCD0FC40FCD0FC4A8
:1005E0002B68236000230E936C460CF128050FCD79
:1005F0000FC42B6823609EE80F0010F0A5FA0022BC
:10060000002313F0F1FD00286ED01A4811F0AAFC67
:100610000C4B1B7864210E4A01FB032303229A70C2
:1006200023A8052101226A2307F0F2FB124B187060
:100630001D46DFF81CA0DFF80C9052E0F00200101D
:10064000B41300100003001040C7010064850100CE
:10065000000400108485010094850100AC85010030
:100660006A070010EC100010E80200108A1B00104E
:10067000D4850100FC850100EC02001040850100DA
:100680005485010099F80030642404FB03F320A88A
:1006900065491AF8032007F0FDFB014699F8003080
:1006A00004FB03A32CAC20469A7807F0D9FE2B78E4
:1006B0004FF0000ECDF80CE0CDF810E05CAA02EB94
:1006C000430333F8E63C05932FAB93E807008DE82E
:1006D000070094E80E00704605F0D0FF2B78013B30
:1006E0002B702B78002BCDD1DFF8489199F8003092
:1006F0004E4C642505FB03F3E21800215161E05ADA
:1007000000F052FF99F8003005FB03440323A37067
:10071000474811F027FC474B19786422434B02FBF2
:10072000013393F86130002B00F01B814248013106
:1007300011F018FC3F4B1A7864253C4B05FB023541
:1007400032AC3E4B204619685A686B6907F028FDA9
:100750003B4B1B680393012304930023059335ABA4
:1007600093E807008DE8070094E80E00354805F08F
:1007700085FF50B17B2333808027334B1B789F420A
:1007800040F081832F4BC3F800802E4B19680B8AF1
:100790001AB2DD2A5ED1DFF89CA09AF80040234D02
:1007A0004FF0640909FB0454183410A807F018FD31
:1007B0000DF1400EBEE80F000FC4BEE80F000FC4DD
:1007C000DEF8003023609AF8004009FB045410A8BA
:1007D0001C4B196807F034FD3C340DF1400EBEE8A7
:1007E0000F000FC4BEE80F000FC4DEF80030236016
:1007F0009AF8004009FB0450183010F049F912F043
:10080000C7FE02461148611C11F0ACFB9AF80000CB
:1008100009FB00503C3010F03BF912F0B9FE0146E4
:100820000B4811F09FFB2DE01C8601000004001016
:1008300024860100000300104086010024140010EB
:10084000EC100010E80200108A1B001068860100FE
:10085000908601001BB2292B40F0E382DFF8C8929A
:1008600099F80030AF4C642505FB03F3E218002132
:100870005161E05A00F098FE99F8003005FB0344FE
:100880000323A370A84C2178A848013111F06AFB1A
:1008900023786421A34A01FB032338AC204659691D
:1008A000A34A07F021FDA34B1B6803930123049384
:1008B000002305933BAB93E807008DE8070094E81D
:1008C0000E009D4805F0DAFE50B18C23338080275E
:1008D0009A4B1B789F4240F0D882974BC3F8008018
:1008E000954B1868B0F91030E72B40F09A8207F06A
:1008F00057FD01461AA83D220DF042FD042824D1DF
:10090000894C21788E48013111F02CFB94F800A01D
:100910001A9B586812F0E2FB824D4FF0640909FB04
:100920000A5A8AF8030094F800A01A9B986812F0FB
:10093000D5FB09FB0A5ACAF8100024781A9BD8681C
:1009400012F0CCFB09FB0454A0601A9810F002FDD1
:10095000754B1B786421734A01FB0323002283F843
:100960006120714B1B7864216E4A01FB032252699E
:10097000002A00F04A826B4A01FB03229278072A80
:1009800000F03D810846674900FB0311C978002942
:100990005DD00446634804FB030084886948A0FBDB
:1009A0000450B1EB901F52D2012A50D15D4C642506
:1009B00005FB03F3E05A00F0F7FD5B4B197805FBEC
:1009C00001440223A3706048013111F0CBFA23A83F
:1009D000052101226A2307F01BFA5C4B18701D46A3
:1009E000DFF840A1DFF840912EE099F80030642450
:1009F00004FB03F320A856491AF8032007F04AFA2B
:100A0000014699F8003004FB03A33EAC20469A78D7
:100A100007F026FD2B784FF0000ECDF80CE0CDF856
:100A200010E05CAA02EB430333F8E63C059341ABCC
:100A300093E807008DE8070094E80E00704605F083
:100A40001DFE2B78013B2B702B78002BCDD1364B24
:100A50001B786421334A01FB03221269002A00F04B
:100A6000CE8008462F4900FB031189688A4273D261
:100A70002C4A00FB03229278012A40F0C080294CC6
:100A8000054600FB03F3E05A00F08EFD264B197873
:100A900005FB01440623A3702E48013111F062FAD0
:100AA00023A8052101226A2307F0B2F9274B187009
:100AB0001D46DFF870A0DFF870902EE099F8003046
:100AC000642404FB03F320A821491AF8032007F04B
:100AD000E1F9014699F8003004FB03A344AC204639
:100AE0009A7807F0BDFC2B784FF0000ECDF80CE0A3
:100AF000CDF810E05CAA02EB430333F8E63C059323
:100B000047AB93E807008DE8070094E80E007046B5
:100B100005F0B4FD2B78013B2B702B78002BCDD149
:100B20006DE000BF00040010000300109C8601006F
:100B3000C8860100EC100010E80200108A1B0010AB
:100B4000F0860100D34D621018870100EC020010FE
:100B50001C8601003C8701006421BD4A01FB032281
:100B60009278062A4BD101FB03F3B94AD05A00F020
:100B7000D1FCB84B1978B848013111F0F3F923A82A
:100B8000052101226A2307F043F9B44B18701D4672
:100B9000DFF8BCA2DFF8BC922EE099F800306424A4
:100BA00004FB03F320A8AE491AF8032007F072F9FA
:100BB000014699F8003004FB03A34AAC20469A781A
:100BC00007F04EFC2B784FF0000ECDF80CE0CDF87E
:100BD00010E05CAA02EB430333F8E63C05934DAB0F
:100BE00093E807008DE8070094E80E00704605F0D2
:100BF00045FD2B78013B2B702B78002BCDD1DFF8F6
:100C000054B29BF800C0DFF848924FF0640A0AFB28
:100C10000C9C0CF1180E05AC0CF13C050FCD0FC46B
:100C20000FCD0FC42B68236000230E936C460CF18C
:100C3000280CBCE80F000FC4DCF8003023609EE8ED
:100C40000F000FF081FF04460D469BF800B00AFB31
:100C50000B9999F80290B9F1070F01D100240025F2
:100C6000204629460022002313F0BEFA002856D061
:100C7000B9F1020F40F2D580B9F1060F00F0D18032
:100C800078480BF1010111F06DF9724B1B78642269
:100C900002FB03F36E4AD05A00F03CFC23A8052166
:100CA00001226A2307F0B4F86C4B18701D46DFF878
:100CB000A0A1DFF8A0912EE099F80030642404FB95
:100CC00003F320A866491AF8032007F0E3F8014669
:100CD00099F8003004FB03A350AC20469A7807F043
:100CE000BFFB2B784FF0000ECDF80CE0CDF810E0F4
:100CF0005CAA02EB430333F8E63C059353AB93E85D
:100D000007008DE8070094E80E00704605F0B6FC79
:100D10002B78013B2B702B78002BCDD181E0204626
:100D200029460022002313F0B7FA002856D0484C79
:100D3000642505FB0BFB04EB0B030022DA701A6140
:100D400034F80B0000F030FC424B197805FB0144ED
:100D50000525A5704448013111F004F923A829465E
:100D600001226A2307F054F83C4B18701D46DFF847
:100D7000E0A0DFF8E0902DE099F80030642404FB57
:100D800003F320A836491AF8032007F083F8014638
:100D900099F8003004FB03A356AC20469A7807F07C
:100DA0005FFB2B784FF0000ECDF80CE0CDF810E093
:100DB0005CAA02EB430333F8E63C059312E9070013
:100DC0008DE8070094E80E00704605F057FC2B787C
:100DD000013B2B702B78002BCED122E01C4B6422E0
:100DE00002FB0BFB03EB0B020421917033F80B00A9
:100DF00000F072FBA8B9174B1B78642202FB03F3C7
:100E0000134AD05A00F0D0FB0BE06421104A01FBDA
:100E100003229278032A04D00D4A01FB0323032204
:100E20009A700C4B1A7801321A700A4B1B78072BF8
:100E30007FF64BAB0D480DF0A7FC20B10B484EF6EA
:100E400060210DF093FCF4233380002311E000BFF8
:100E500000040010000300105C870100EC02001089
:100E60001C8601007487010098870100B4130010EC
:100E7000012363B1832F7FF41EAB00233380032053
:100E800006E0002004E0002002E0002000E0012055
:100E90005DB0BDE8F08F00BF2DE9F04704460D4678
:100EA000038823B140F2811293420AD09FE0544854
:100EB00019210DF031FC97E040F2811323800023CB
:100EC00000E00123002B00F09780882D40F08C80FB
:100ED0004B480DF031FC002864D04A4B1A7801329F
:100EE0001A700026484FDFF84081994654E0BB5DF8
:100EF00093B9464B13F806A0504601F093FC444BBF
:100F000053F82610084203D0504601F083FC41E01C
:100F1000504601F077FC3DE0642303FB06839B7899
:100F2000072B37D199F800103A4BA3FB01031B099B
:100F300003EB83039B00CB1A13F0FF0F15D164233F
:100F400003FB068393F860303BB1304B985D304B28
:100F500053F8261001F05EFC1CE02C4B985D2C4BE6
:100F600053F8261001F04EFC14E0642303FB0683C3
:100F700093F860303BB1254B985D254B53F8261014
:100F800001F040FC06E0214B985D214B53F8261000
:100F900001F040FC0136F6B2072EA8D918481921F5
:100FA0000DF0BAFB1C480DF0C7FBE8B11B4B1B78DA
:100FB0007BB919E019F8060058F8261001F02AFC50
:100FC000B85D174B53F8261001F024FC0136F6B239
:100FD00005E00026DFF85490DFF85480114F072E0B
:100FE000E8D900220D4B1A70832D7FF465AF0023E2
:100FF00023800320BDE8F0870120BDE8F08700BF13
:101000000803001068070010E0030010D4870100F7
:10101000548A0100CDCCCCCCEC030010400700106A
:10102000948A0100DC87010000040010448A01005A
:10103000E48701002DE9F84F0024DFF894B034E094
:101040001BF804A01B4B53F824905046494601223C
:1010500001F0C8FB184B13F80480184B53F82470A8
:1010600040463946012201F0BDFB154B1E5D154B74
:1010700053F8245030462946012201F0B3FB124BAD
:10108000185D124B53F82410002201F0ABFB5046C0
:10109000494601F0BFFB4046394601F0BBFB3046F4
:1010A000294601F0B7FB0134E4B2072CC8D9BDE8EA
:1010B000F88F00BFE4870100DC870100948A0100FB
:1010C000D4870100548A01004C8A0100748A01000F
:1010D000448A010038B5441E114B185D114B53F87A
:1010E000241001F097FB104B185D104B53F824109F
:1010F00001F088FB0E4B185D0E4B53F8241001F0E5
:1011000081FB01230C4A13700C4A13550C4C2568C3
:101110000C4B23600C4864210DF0FEFA256038BDAD
:10112000DC870100948A0100448A0100E487010001
:10113000D4870100548A010040070010E00300102A
:10114000EC10001044000010EC03001038B5441EF1
:10115000114B185D114B53F8241001F05BFB104B41
:10116000185D104B53F8241001F04CFB0E4B185D2A
:101170000E4B53F8241001F04DFB01230C4A137061
:101180000C4A13550C4C25680C4B23600C48642109
:101190000DF0C2FA256038BD448A0100E4870100E1
:1011A000DC870100948A0100D4870100548A010081
:1011B00040070010E0030010EC1000104400001085
:1011C000EC030010F8B505460E461746038840F2BA
:1011D000F712934200F08480B3F5FC7F04D283B110
:1011E000B3F5F77F4DD01DE1B3F5027F00F0CE805F
:1011F000B3F5047F00F0F680B3F5007F40F0128174
:101200009EE0944810F0AEFE0122934B1A7000222B
:10121000924B1A701C4606E0581CC0B2FFF796FFAE
:101220002378013323702378072BF5D901228C4BC7
:101230001A700022894B1A7075E08A48013110F04B
:1012400091FE864B19786422874B02FB01339B8801
:10125000934206D98548013110F084FE0022804B6C
:101260001A707E4B18780130C0B2FFF733FF804808
:101270004FF4FA710DF050FA4FF4F7732B800023FE
:1012800000E00123002B00F0D18079480DF054FAE2
:10129000002800F0CD80714B19786422724B02FB5C
:1012A00001339A88632A07D87248013110F05AFE38
:1012B00000226B4B1A7003E06F48013110F052FEB0
:1012C000664B18780130C0B2FFF740FF68484FF412
:1012D00048710DF021FA40F2F7132B80002300E053
:1012E0000123002B00F0A68061480DF025FA0028AC
:1012F00000F0A280594B197864225B4B02FB01334A
:101300009A88642A07D95948013110F02BFE00222F
:10131000534B1A7003E05948013110F023FE4F4B34
:101320001A7801321A704D4B1978072985D954481B
:10133000013110F017FE4FF400732B80002300E002
:101340000123002B7AD04F4B1B789E4278D13B78FB
:10135000592B05D00022424B1A704B4810F002FE68
:1013600000223E4B1A7030E0484B585C484B53F813
:10137000211001F047FA394B19784648013110F035
:10138000F1FD4FF402732B80002300E00123002BBA
:1013900058D03C4B1B789E4256D13B78592B08D0F5
:1013A00000222F4B1A702D4B19783B48013110F059
:1013B000D9FD2A4C2378354AD05C354A52F823109F
:1013C00001F028FA237801332370244B1978072978
:1013D000CAD93248013110F0C5FD4FF404732B8097
:1013E000002300E00123002B30D0264B1B789E42C7
:1013F0002ED13B78592B08D00022194B1A70174B6D
:1014000019782748013110F0ADFD154B1B781BB141
:10141000244810F0A7FD02E0234810F0A3FD0022AD
:101420000D4B1A7000232B800320F8BD0120F8BD5E
:101430000120F8BD0120F8BD0120F8BD0120F8BD54
:101440000120F8BD0120F8BD0120F8BD0120F8BD44
:101450000120F8BD0488010028030010EA030010F1
:10146000FC0300101488010000040010288801000B
:10147000300700104C880100708801009888010036
:10148000C0880100DC130010DC880100D487010053
:10149000548A0100F8880100148901003489010090
:1014A00058890100788901009089010030B4002337
:1014B000084D642409E004FB03F2AA5A824202D1D7
:1014C0000B70012004E00133DBB2072BF3D90020BD
:1014D00030BC70470004001030B4014690B10023C6
:1014E0000A4C64200AE01D4600FB03F2A25A8A421D
:1014F00002D1074B585D06E00133DBB2072BF2D96E
:10150000002000E0002030BC704700BF0004001045
:10151000E00300102DE9F0438DB0054600283AD0D5
:1015200000241E4EDFF87C801D4F32E0642303FB55
:1015300004F3F35AAB422AD10DF11809B8F80010A0
:101540002944484689B2012206F02CFF4FF0000ED4
:10155000CDF80CE0CDF810E0CDF814E00CAB13E9B9
:1015600007008DE8070099E80E00704605F086F840
:10157000642303FB046301229A7083F86020A0189F
:10158000C0B2FFF7A7FD3846294610F0EBFC013446
:10159000E4B2072CCAD90DB0BDE8F08300040010F6
:1015A000A88901006A0700102DE9F0478CB00546B4
:1015B000002839D000241E4EDFF87C801D4F31E01A
:1015C000642303FB04F3F35AAB4229D10DF1180A4B
:1015D000B8F800102944504689B206F003FF4FF0D6
:1015E0000009CDF80C90CDF81090CDF814900CAB0C
:1015F00013E907008DE807009AE80E00484605F059
:101600003DF8642303FB046383F8029083F8609041
:10161000601CC0B2FFF79AFD3846294610F0A2FCC4
:101620000134E4B2072CCBD90CB0BDE8F08700BF81
:1016300000040010C48901006A0700102DE9F04180
:1016400082B0FFF7F7FC5A480DF042FE0DF0AAF801
:10165000584B18700DF0A6F8574B187057480021DA
:101660000DF026FA564800210DF022FA02268DF8D8
:1016700003604FF000088DF804808DF800808DF82D
:1016800002608DF80160684601F02CF903278DF89F
:101690000170684601F026F901248DF802401723F5
:1016A0008DF80130684601F01DF918238DF80130DE
:1016B000684601F017F919238DF80130684601F0EA
:1016C00011F91A238DF80130684601F00BF98DF8F5
:1016D00000408DF802701E238DF80130684601F03D
:1016E00001F91F238DF80130684601F0FBF8354DF4
:1016F00028464CF2503100F0C5FC284641462246AF
:1017000000F008FD28462146224600F003FD284649
:101710003146224600F0FEFC28463946224600F0BB
:10172000F9FC28460421224600F0F4FC2846052155
:10173000224600F0EFFC28460621224600F0EAFC93
:1017400028460721224600F0E5FC2846414622466D
:1017500000F002FD28462146224600F0FDFC284606
:101760003146224600F0F8FC28463946224600F071
:10177000F3FC28460421224600F0EEFC2846052111
:10178000224600F0E9FC28460621224600F0E4FC4F
:1017900028460721224600F0DFFC2846214600F0BB
:1017A000A1FC4FF48002084B1A6002B0BDE8F08142
:1017B00014000010DD130010DC130010580000109E
:1017C000440000100040034000E100E02DE9F04734
:1017D00082B0314A6B461068516803C34FF48002EF
:1017E0002E4BC3F880212E4B1B88B3F57A7F3BD359
:1017F00043E0264602AB234413F8085C38462946EA
:10180000012200F0DFFC60B358F824A038462946D6
:1018100000F0C2FC504439F81420801A00EBD0705C
:10182000401048F8240064211E4B01FB04339B78D0
:10183000012B0AD0072B08D0002803DA013A29F837
:10184000142002E0013229F81420174D55F826A083
:1018500011F0ACFC504445F82600114B1A880132B7
:101860001A800134E4B205E00024104FDFF848800C
:10187000DFF84890072CBCD90AE00D480D4B1978C9
:1018800000220CF0AFFF4FF48002044BC3F880201D
:1018900002B0BDE8F08700BFCC87010000E100E0A6
:1018A000E8030010000400107C0300100040034017
:1018B00058000010DD130010440700102000001035
:1018C0002DE9F84F0FF03CFA394B1B68984203D2D0
:1018D0001B1A6FEA030B01E0C3EB000B344B1860DB
:1018E0000027DFF8F09058E03E4659F8270000281E
:1018F00000DA0730C01049F8260064242D4B04FBA1
:101900000634A388181A11F051FC2B4A82FB0023DD
:10191000C017C0EBA3100130A38859F826209342CA
:1019200002DA0344A38005E06421224A01FB062277
:101930001B1A93804FF064081E4B08FB0638B8F85A
:1019400004301E4A126802FB03F31D4AA2FB032364
:101950009B0CA8F806300BFB03F31A4A02EBC60AED
:10196000DAE90045E41845F1000520462946164A03
:10197000002311F0E3FFD8F808301844C8F8080035
:1019800020462946104A002311F0D8FFCAE9002357
:10199000002349F826300137FFB2072FA4D90022CF
:1019A0000A4B1A804FF48002094B1A60BDE8F88F89
:1019B00064070010000400101F85EB516C0000103C
:1019C00083DE1B43A0030010407E0500E8030010E7
:1019D00000E100E07C0300102DE9F04F9BB00446CD
:1019E0000D4603881BB1B3F5DB7F0BD079E041488E
:1019F0004FF47A710CF090FE71E04FF4DB732380AA
:101A0000002300E00123002B6FD03B4B1B789D424D
:101A100001D1FFF755FF882D61D138480CF08CFEBD
:101A200000283AD0364B1B7893BB0026DFF8D480D1
:101A30006427DFF8D49029E007FB06839A68DB6807
:101A40009A4221D007FB068ACAF80C2007A849460B
:101A50000FF022FD0DF1500B5846DAF8141007AACA
:101A600006F070FC4FF0000ECDF80CE0CDF810E061
:101A7000CDF814E01AAB13E907008DE807009BE8E6
:101A80000E00704604F0FAFD0136F6B2072ED3D9E7
:101A90001A4842F6E0610CF03FFE16480CF04CFE8E
:101AA000E8B1174B1B78ABB90021DFF858A04FF015
:101AB0006409DFF858800BE009FB01A6B288F388BF
:101AC0004F1CB16800914046394610F04BFAF9B20C
:101AD0000729F1D907484FF47A710CF01DFE832DC8
:101AE0008BD100232380032000E001201BB0BDE840
:101AF000F08F00BF18030010DD1300102007001046
:101B00002803001000040010E4890100F889010096
:101B100030B400230A4C64210CE01D4601FB03F2A3
:101B2000A25A824204D16420054B00FB053004E038
:101B30000133DBB2072BF0D9002030BC704700BF67
:101B4000000400102DE9F0478EB080460D461E4877
:101B5000C9892A7C10F006FA2B7C6A2B26D11EE05C
:101B600006FB04F3FA5ABAB10DF1180A5046494679
:101B700006F076FC4FF0000ECDF80CE00123049344
:101B8000EB89059309AB93E807008DE807009AE815
:101B90000E00704604F072FD0134E4B204E000244B
:101BA0000A4F6426DFF82890072CD9D90CAC2046C0
:101BB00004F01CFF404694E8060006F0ABFA4046ED
:101BC0000EB0BDE8F08700BFB48A01000004001029
:101BD00054850100F0B589B004460D46C86C06F086
:101BE00093F90646E86C06F08DF985B228460DF1AA
:101BF0001F01FFF75BFC18B9204606F0A3F938E097
:101C00002846FFF785FF07469DF81F2002A81A49BE
:101C100001320FF041FC022E07D0032E13D0012E0B
:101C20001FD12846FFF776FC20E0144B00931448A0
:101C300002A90122134B0EF01FFA2846FFF76AFC97
:101C40000723BB7012E00D4B00930F4802A902223C
:101C50000C4B0EF011FA2846FFF7A6FC0723BB70C9
:101C600004E00323BB70012387F86130204606F0AF
:101C70007BFA204609B0F0BD8485010040C7010011
:101C80005485010094850100D08A010070B5054695
:101C9000C86C06F009FC044606F008F980B2FFF7AC
:101CA00037FF064618B9284606F04CF94EE028489A
:101CB000214610F057F920462649052211F0FBFA7B
:101CC00028B928462146B27806F0CAFB3EE02046F5
:101CD00021490A2211F0EFFA28B928462146F27864
:101CE00006F0BEFB32E020461C49042211F0E3FA64
:101CF00028B928462146F28806F0B2FB26E02046A5
:101D000017490B2211F0D7FA28B928462146326923
:101D100006F0A6FB1AE0204612490F2211F0CBFA7A
:101D200028B928462146B26806F09AFB0EE0204604
:101D30000D49072211F0BFFA28B928462146B2887A
:101D400006F08EFB02E0284606F0FCF8284670BD3F
:101D5000D88A01001C860100E88A0100F48A01008B
:101D6000FC8A0100088B0100188B0100F8B50446BD
:101D70000E46C86C06F098FB0546F06C06F096FB24
:101D80000646284606F092F880B2FFF7C1FE0746E5
:101D900018B9204606F0D6F826E01448294610F077
:101DA000E1F828461249052211F085FAC8B9012E3A
:101DB00013D1104864210CF0D9FC00230E4D64208F
:101DC000012105E000FB035282F862100133DBB20F
:101DD000072BF7D93888FFF79DFB204606F0C4F99A
:101DE00002E0204606F0AEF82046F8BDD88A010091
:101DF0001C860100B41300100004001070B50446E6
:101E00000D46C86C06F06CFA80B2FFF781FE0646FC
:101E100018B9204606F096F809E0E86C06F062FA78
:101E20007061012386F86130204606F09DF9204656
:101E300070BD00BF10B50F200D4905F0FDF840F250
:101E400085300C4905F0F8F84FF461700A4905F047
:101E5000F3F80A4C4220214605F0EEF843202146D3
:101E600005F0EAF8E520064905F0E6F810BD00BFE8
:101E7000D55B00008D5C00006D5D0000455B0000DF
:101E8000FD5D000010B50446144911F07DFA28B13B
:101E9000083011F023F9C0B2FFF71CF920461049B1
:101EA00011F072FA28B1093011F018F9C0B2FFF739
:101EB0004DF920460B4911F067FA18B10A48002184
:101EC0000CF0F6FD2378592B01D04E2B05D1064896
:101ED000064B197822460CF085FC10BD208B0100C2
:101EE0002C8B0100388B010030000010DC13001037
:101EF00000B583B00EF0BAFFFFF7A0FB0CF084FF33
:101F000006F0E6FA6920012104F0B0FD02F09AFF24
:101F10000D4B00930D480E4900220E4B0EF04AF86F
:101F20000D4B18800D4800F01DF84FF4A3700021F0
:101F30000EF0C4FAC02000210EF0C0FA084810F0DC
:101F400011F80CF095FDFCE740C70100D08A0100B4
:101F5000408B0100548B01006A0700107C000010C8
:101F6000708B010010B504460B4B1868A04212D0CC
:101F700038B10CF0B7FD084B1B68084859680FF0E2
:101F8000F1FF074861680FF0EDFF034B1C6020462E
:101F900000210CF08DFD10BD6C0700109C8B010022
:101FA000B08B010038B504460D46038813B1552B9C
:101FB00025D028E017484FF4FA710CF0ADFB164815
:101FC00044F250610CF0A8FB1BE0882D05D11248AB
:101FD0000CF0B2FB08B100F025F80EF057FA30B162
:101FE0000E48FFF7BFFF00232380022038BD0C4BB3
:101FF00018680CF07FFD55232380002300E00123A7
:102000002BB1832DE1D100232380032038BD012093
:1020100038BD00BF0C140010FC13001000000010AD
:10202000EC10001008B505480FF09CFF00200121BE
:1020300001F0A4FA0A2001F0CFFAFEE7D08B0100EC
:1020400008B503480FF08EFF0122024B1A7008BD3D
:10205000EC8B010070070010014B1878704700BF2F
:102060007007001008B5034B1B780BB1FFF7DAFFC0
:1020700008BD00BF70070010014B1878704700BF03
:102080007007001038B504460D46134B984203D034
:102090001248422100F0CEFB6A1E114B9A4203D92E
:1020A0000E48432100F0C6FB4FF48050012100F0A0
:1020B00005F900232360182000F0ECF805EB8515E6
:1020C00005EB40006D00B0FBF5F3013B1B0243F450
:1020D0000013236038BD00BF00400340008C0100A6
:1020E0003F0D030038B504460D46084B984203D017
:1020F00007489E2100F09EFB236823F48033236071
:102100001DB1236843F48033236038BD0040034091
:10211000008C010070B504460D4616460C4B9842E3
:1021200003D00C48DB2100F085FB082D03D90948BA
:10213000DC2100F07FFBE368012202FA05F523EAC7
:102140000503E36016B1E3681D43E56070BD00BFA1
:1021500000400340008C010070B504460E46154651
:102160000B4B984203D00B48EE2100F063FB012D8E
:1021700006D12368012202FA06F61E43266070BDCE
:102180002368012202FA06F623EA0606266070BDDD
:1021900000400340008C010038B504460D46074B53
:1021A000984204D006484FF4817100F043FB10348C
:1021B00054F82500C0F30B1038BD00BF00400340A9
:1021C000008C010070B505460E4614460E4B984231
:1021D00004D00E484FF48B7100F02CFB012C04D975
:1021E0000A484FF48C7100F025FB103555F8263065
:1021F00014B103F0004301E003F080430BB1012070
:1022000070BD002070BD00BF00400340008C010085
:1022100010B41F2802D9A0F1200200E002461F28B6
:1022200010D8124BD3F8A8410320904024EA0000B4
:10223000C3F8A801D3F8A80101FA02F20243C3F8D7
:10224000A8210FE0094BD3F8AC410320904024EAC9
:102250000000C3F8AC01D3F8AC0101FA02F202436A
:10226000C3F8AC215DF8044B704700BF00C00F40BD
:102270001F2803D8064BD3F8A83103E02038044BBD
:10228000D3F8AC3123FA00F000F00300704700BF30
:1022900000C00F4010B5084B1C68FFF7E9FF03288A
:1022A00006D8DFE800F004050502082000E004205D
:1022B000B4FBF0F010BD00BF00020010012908D1EE
:1022C000094AD2F8C410094B03400B43C2F8C4308A
:1022D000704741B9044AD2F8C43023EA0000034BE6
:1022E0000340C2F8C430704700C00F40DEF7EFEF84
:1022F000F0B40023124F134C134E144819460DE04E
:1023000003EB430252023A4444F83320DA00A518A2
:102310006E6040F83310024451600133032BEFD953
:102320004FF0A043074AC3F80821084AC3F80C211C
:102330000322C3F810210022C3F81821F0BC704713
:1023400000C5072080070010FF050080A0070010CF
:1023500030B40023114D12481946124C0BE003EB28
:10236000430252022A4440F8332000EBC30251607A
:1023700044F823100133022BF1D94FF0A043084A4F
:10238000C3F81C21074AC3F820210222C3F82421E4
:102390000022C3F8282130BC704700BF00DD0720B1
:1023A000C00700107407001040F480704FF0A04385
:1023B0009862D962002308494FF0A04004E0426BC4
:1023C00012F0010F05D001338B42F8D94FF0FF30E6
:1023D00070470020704700BFFFFF040040F480708A
:1023E0004FF0A043986201225A62002309494FF03E
:1023F000A0400AE0426B12F0010F05D14FF0A0435C
:1024000000225A62186B704701338B42F2D94FF0A9
:10241000FF307047FFFF04004279037943EA02224C
:102420004FF0A0431A64C178827842EA01225A64CC
:102430004178027842EA01229A64704738B54FF435
:102440008034012507E02846FFF7C8FF10F0040F8D
:1024500003D13CB3013C002CF5D110F4A04F0ED0B9
:102460004FF0A0435A6842F001025A60D3F80021AD
:1024700042F48062C3F8002115229A6003E0122220
:102480004FF0A0439A6010F4C04004D100224FF0F6
:10249000A0439A6138BD4FF480724FF0A0439A6117
:1024A000002038BD4FF0FF3038BD00BF38B50446BE
:1024B0000220FFF793FF05460320FFF78FFF40EA56
:1024C0000540234B984237D1042C38D8DFE804F07C
:1024D00003171D22280000204FF44051FFF764FF2E
:1024E0004FF48034012507E02846FFF777FF10F00E
:1024F000200F1AD134B3013C002CF5D115E0002097
:102500004FF48071FFF750FF0FE000200146FFF706
:102510004BFF0AE000204FF40451FFF745FF04E0B1
:1025200000204FF40051FFF73FFFFFF787FF00281F
:102530000BDA4FF0FF3038BD4FF0FF3038BD4FF0B1
:10254000FF3038BD4FF0FF3038BD002038BD00BF30
:102550001916220070B506464FF080400121FFF7A2
:10256000ADFE4FF0A0434FF44F421A607822C3F8FB
:102570000021642300E0013B002BFCD14FF0A0427E
:1025800002211160302151604FF4C0615161354A20
:102590001068354AA2FB0010000D344903E0CA5C04
:1025A000824202DA0133062BF9D9013303F00F021C
:1025B000920042F400424FF0A0431A621A6A22F4D9
:1025C00000421A6243F20F721A611222DA604FF46B
:1025D0001072C3F800214FF400629A61642300E096
:1025E000013B002BFCD100204FF0A04398614FF439
:1025F0000041FFF7D9FE4FF48034002507E028465C
:10260000FFF7ECFE10F4084F03D034B3013C002C6C
:10261000F5D13068FFF74AFF002820DB7068FFF72C
:10262000FBFEFFF765FEFFF793FE4FF0A043262267
:10263000C3F800228822C3F8E42F4FF6FF72C3F8D4
:10264000E82FD3F8002142F00302C3F800211A68F2
:1026500042F001021A60012070BD002070BD002010
:1026600070BD00BF000200106BCA5F6B288C0100B8
:1026700030B44FF0A043D3F8285141680B4B53F8C6
:102680003520036803339B0804E00C681460013BA9
:1026900004320431002BF8D10368013B43F040437E
:1026A000024A02EBC5056B6030BC7047C0070010E2
:1026B0004FF0A043D3F818114368084A52F831107C
:1026C00053B102680332920804E008681860013AC6
:1026D00004310433002AF8D1704700BF800700108E
:1026E000012907D14FF0A043D3F8E42F1043C3F8DA
:1026F000E40F70474FF0A043D3F8E42F22EA000024
:10270000C3F8E40F704700BF4FF0A043D3F8E03F99
:10271000034205D04FF0A043C3F8E80F01207047F3
:10272000002070474FF0A043D3F81821D3F814319C
:102730009A4201D001207047002070474FF0A0431B
:10274000D3F82C21013AD3F82831934201D100204B
:1027500070470120704700BF4FF0A043D3F8182105
:10276000024B53F83200C0F30A007047A007001074
:102770004FF0A043D3F818310133042B00D10023CC
:102780004FF0A042C2F81831704700BF4FF0A0438D
:10279000D3F828310133032B00D100234FF0A0429E
:1027A000C2F82831704700BF042804D8DFE800F0E1
:1027B0000D0507090B0000207047054870470548C4
:1027C000704705487047054870470548704700BF87
:1027D00020C0092040C0092060C0092080C0092015
:1027E00000C0092038B50C461546FFF7DDFF40B1A3
:1027F0001DB102681443046038BD026822EA040473
:10280000046038BD10B50C46FFF7CEFF00B18461FF
:1028100010BD00BF10B50C46FFF7C6FF00B1C46184
:1028200010BD00BF08B5FFF7BFFF08B1406908BD84
:10283000002008BD08B503460A46024819460FF0B5
:1028400091FBFEE7308C010010B40C4640000F29CC
:1028500002D9A1F110040130830003F1804303F594
:102860003033610003248C40186820EA040002FA27
:1028700001F140EA01021A605DF8044B704700BFA5
:1028800030B40C4640000F2902D9A1F110040130E8
:10289000074B610003258D4053F8204024EA0504CE
:1028A00002FA01F144EA010243F8202030BC7047EB
:1028B00040C00240012A08D1094B02FA01F153F845
:1028C00020200A4343F820207047054B012202FADA
:1028D00001F153F8202022EA010243F8202070473A
:1028E00068C0024010B5044600786178A278FFF70E
:1028F000ABFF20786178E278FFF7C2FF207861783B
:102900002279FFF7D7FF10BD10B50446094B984256
:1029100003D009483E21FFF78DFF4FF400700121DD
:10292000FFF7CCFC0023237023722373FF22227451
:10293000236410BD00400240608C010038B504469D
:102940000D460C4B984203D00B487221FFF772FFE3
:10295000012D03D908487321FFF76CFF012D04D125
:10296000237A43F00103237238BD237A03F0120364
:10297000237238BD00400240608C010038B5044627
:102980000D46174B984204D0164840F2B711FFF796
:1029900051FFEB6803F01F0384F82C302B6903F020
:1029A000070384F830306B69C3F30803A386AB6870
:1029B00003F01F0384F828306B6803F03F0384F8AA
:1029C00024302B6803F03F0384F82030AB6903F018
:1029D0000F0384F83830EB69C3F30B03A38738BDCA
:1029E00000400240608C010038B504460D46174B8C
:1029F000984204D0164840F2CD11FFF71BFF94F81F
:102A00002C3003F01F03EB6094F8303003F0070321
:102A10002B61A38EC3F308036B6194F8283003F095
:102A20001F03AB6094F8243003F03F036B6094F80D
:102A3000203003F03F032B6094F8383003F00F038D
:102A4000AB61A38FC3F30B03EB6138BD00400240C1
:102A5000608C010038B504460D460D4B984204D0F9
:102A60000C4840F2AB21FFF7E5FE012D04D90948DF
:102A70004FF42B71FFF7DEFE012D04D1237A03F012
:102A80000303237238BD237A43F01003237238BD49
:102A900000400240608C010070B504460E461546A9
:102AA000114B984204D0114840F2C521FFF7C2FEF5
:102AB000012D04D90D4840F2C621FFF7BBFEB6F543
:102AC000003F04D3094840F2C721FFF7B3FE013E9F
:102AD000C6F31006012D02D14FF4003300E00023AD
:102AE0001E43266470BD00BF00400240608C0100A0
:102AF000F8B504460D461C4B984207D0A3F5B02309
:102B0000984203D019484321FFF794FE164B9C428C
:102B100003D12A20FFF7BEFB05E0154B9C4221D1D3
:102B20001420FFF7B7FB4FF0FF3300260221374692
:102B30000CE0721C01FB02F3B0FBF3F3AB4205D9CE
:102B4000FF2A02D902313E4600E01646AB42F0D8D9
:102B50002368DBB2236023683602B6B21E432660C8
:102B6000C9B22161F8BD00BF00800840888C010017
:102B70000000034038B504460D46174B984207D075
:102B8000A3F5B023984203D014488121FFF752FEE9
:102B9000114B9C4205D14FF400100121FFF78EFB31
:102BA00007E00F4B9C4215D14FF480600121FFF7E5
:102BB00085FB6A68AB681A432B691A432B68134379
:102BC0009BB22360EB6803F00F03636020466969E2
:102BD000FFF78EFF38BD00BF00800840888C0100E1
:102BE0000000034010B504460E4B984207D0A3F5F1
:102BF000B023984203D00C48A821FFF71BFE094BD5
:102C00009C4205D14FF400100021FFF757FB10BD87
:102C1000064B9C4204D14FF480600021FFF74EFB2D
:102C200010BD00BF00800840888C010000000340F8
:102C3000002343608360034A426107220260C3604D
:102C40000361704740420F0038B504460D460E4BF5
:102C5000984207D0A3F5B023984203D00B48E52152
:102C6000FFF7E8FD012D03D90848E621FFF7E2FD53
:102C7000012D04D1636843F00203636038BD6368CB
:102C800003F00D03636038BD00800840888C0100AC
:102C900070B505460F4B1C680F4BA3FB0424A40919
:102CA0004FF08070B0FBF4F011F0A2FB064628460E
:102CB00011F09EFB314611F0A3FB00B1FEE7074B7C
:102CC0001A6842F004021A6005FB04F2013A5A60E5
:102CD00070BD00BF00020010D34D621010E000E094
:102CE00010B50446012803D908488021FFF7A2FD4A
:102CF000012C05D1064B1A6842F001021A6010BD82
:102D0000034B1A6822F001021A6010BDB08C01005A
:102D100010E000E010B50446012803D908489321CB
:102D2000FFF788FD012C05D1064B1A6842F002021C
:102D30001A6010BD034B1A6822F002021A6010BD1F
:102D4000B08C010010E000E0024B1A6822F48032DF
:102D50001A60704710E000E02DE9F04F89B007904D
:102D60008946684B984204D10620FFF793FA8046C3
:102D70001CE0654B0798984204D10820FFF78AFAB7
:102D8000804613E0614B0799994204D13020FFF748
:102D900081FA80460AE05E4B079A9A4204D13220BB
:102DA000FFF778FA804601E04FF000084FF0FF335C
:102DB000019300200021CDE9020100210591069137
:102DC000012732E0002545EA18154FEA0874A4FBF4
:102DD000070107FB0511BA1909FB02F2002310F0E5
:102DE000ADFD02460B46B0F1004F01D942424B1CEB
:102DF000591EB1F5803F0BD20198824208D2184685
:102E00000021CDE9020152B1019204990591069683
:102E1000013601E000260497BE42D3D302E00192BE
:102E200005970696019A12B101370F2FF2D9DDE905
:102E30000201014361D04FEA1810059C04FB00F029
:102E40002146069C2144029CA1FB0423039C01FB18
:102E50000433002110F072FD814502D9C0EB090056
:102E600001E0C9EB0000642303FB00F3B3FBF9F9B5
:102E7000B9F1020F3FD8244B079C9C421CD1237B05
:102E800043F0800323730298020A039942EA016225
:102E9000D2B222719DF808302370237B03F07F03A8
:102EA0002373059C2201D2B2069C04F00F03134346
:102EB000079CA362012021E0079C237B43F0800351
:102EC00023730298020A039942EA0162D2B2227184
:102ED0009DF808302370237B03F07F032373069C47
:102EE00004F00F03059C43EA0413DBB2079C84F84B
:102EF0002830012002E0002000E0002009B0BDE8F9
:102F0000F08F00BF00C00040000001400080094079
:102F100000C0094038B504460D46634B98420FD0B7
:102F200003F5804398420BD003F50823984207D05D
:102F300003F58043984203D05C48C921FFF77AFC2F
:102F40006B79032B03D95948CA21FFF773FCAB797E
:102F5000012B03D95548CB21FFF76CFC2B79042BAF
:102F600003D95248CC21FFF765FC4F4B9C4203D15B
:102F700008200121FFF7A2F94D4B9C4203D11020FC
:102F80000121FFF79BF94B4B9C4204D14FF080701D
:102F90000121FFF793F9484B9C4204D14FF0007098
:102FA0000121FFF78BF9424B9C4220D1072323726A
:102FB0000023237200E02378237D13F0010FFAD160
:102FC000802384F83030237D13F0200FFBD00023C2
:102FD00084F83030636023732362237484F84C30A8
:102FE00084F8543084F85030237E237D17E0072383
:102FF00023720023237200E02378237D13F0010F56
:10300000FAD1802384F83030237D13F0200FFBD0D9
:10301000002384F83030636023732362237D264BC2
:103020009C4202D1002384F8243020462968FFF70F
:1030300093FE1F4B9C4203D1237B03F0C00302E0AD
:10304000237B03F0C0036A79012A03D052B1022A1C
:1030500003D005E043F0010304E043F0020301E084
:1030600043F003032A798AB143F00801032A06D00A
:10307000042A07D0022A08D143F0180306E043F0DF
:10308000280303E043F0380300E00B46AA79012A45
:1030900001D143F00403064A944202D1DBB2237308
:1030A00038BDDBB2237338BD00C00040DC8C0100AA
:1030B000000001400080094000C009404FF4165351
:1030C000036003234371002303718371704700BFC2
:1030D00038B504460D460D4B984210D003F5804399
:1030E00098420CD003F50823984208D003F580439A
:1030F000984204D0064840F2D911FFF79BFB054BDC
:103100009C4201D1257038BD257038BD00C00040FB
:10311000DC8C01000000014010B504460E4B9842C3
:1031200010D003F5804398420CD003F50823984251
:1031300008D003F58043984204D008484FF4F97151
:10314000FFF778FB064B9C4202D12078C0B210BD3D
:103150002078C0B210BD00BF00C00040DC8C010070
:10316000000001402DE9F04707461446012B1CD012
:1031700000264FF0100933E033B1013B00E04B462D
:103180003A7D12F0200FF7D063B3454609E001F114
:10319000010A38460978FFF79BFF013D013C0136E3
:1031A00051463DB1002CF2D104E000264FF48039A5
:1031B0004FF01008002CE2D114E03B7D13F0200FFB
:1031C00010D04D4609E001F1010838460978FFF7B3
:1031D0007FFF013C013D013641460DB1002CF2D18B
:1031E000002CEAD13046BDE8F08700BFF8B50446B0
:1031F0000D461646394B984210D003F5804398424D
:103200000CD003F50823984208D003F58043984278
:1032100004D0334840F2AB21FFF70CFB012E04D958
:103220002F484FF42B71FFF705FB062D05D8DFE87B
:1032300005F01406080A0C0E110000270EE0022704
:103240000CE004270AE0082708E0802706E04FF496
:10325000807703E04FF4007700E00127214B9C4288
:103260000FD1022D18D9052D16D0062D14D0033DEF
:10327000EDB2012D10D91A484FF43271FFF7DAFA86
:103280000AE0022D08D9052D06D0062D04D01448D9
:103290004FF43371FFF7CEFA012E0AD1114B9C4245
:1032A00003D163681F436760F8BD63681F436760AD
:1032B000F8BD0C4B9C4208D1636823EA070727F04E
:1032C0007007BF05BF0D6760F8BD636823EA070795
:1032D00027F0F807BF05BF0D6760F8BD00C00040CC
:1032E000DC8C01000000014010B504460E4B9842F2
:1032F00010D003F5804398420CD003F50823984280
:1033000008D003F58043984204D0084840F2FA21DF
:10331000FFF790FA064B9C4202D1187DC0B210BD57
:10332000207DC0B210BD00BF00C00040DC8C010099
:103330000000014010B504460C4B984210D003F534
:10334000804398420CD003F50823984208D003F537
:103350008043984204D0064840F21131FFF76AFAE0
:10336000A06820F030008005800D10BD00C0004036
:10337000DC8C010038B505460C462E4B984210D027
:1033800003F5804398420CD003F50823984208D0F7
:1033900003F58043984204D0274840F23731FFF7C5
:1033A00049FAE378032B04D923484FF44E71FFF711
:1033B00041FAA378012B04D91F4840F23931FFF7B5
:1033C00039FA2378012B04D91B4840F23A31FFF730
:1033D00031FA6378012B04D9174840F23B31FFF7EB
:1033E00029FAE378012B09D013B1022B02D003E0B4
:1033F000012304E0812302E0C12300E0412362783D
:10340000012A01D143F004032278012A01D143F0BB
:103410000203A278012A01D143F00803074A95422A
:1034200003D103F0CF032B7238BD03F0CF032B720F
:1034300038BD00BF00C00040DC8C0100000001402E
:1034400000238370C370012303704370704700BF73
:1034500038B504460D461E4B984210D003F5804304
:1034600098420CD003F50823984208D003F5804316
:10347000984204D0174840F2EA31FFF7DBF9012DFA
:1034800004D9144840F2EB31FFF7D4F9012D10D1E3
:10349000114B9C4206D194F8303043F0800384F8FD
:1034A000303038BD94F8303043F0800384F8303049
:1034B00038BD094B9C4205D194F83030002384F884
:1034C000303038BD94F83030002384F8303038BDC7
:1034D00000C00040DC8C01000000014010B510B1BC
:1034E000012809D040E021F00301FE293ED94FF028
:1034F00080435960012010BD1E4B1B689C081E4A6A
:10350000A2FB0404A40C890801FB04F4FE2C08D9D6
:1035100000200146FEF77CFE4FF080435C600120F6
:1035200010BD5C08144AA2FB0404A40C04FB01F4C3
:10353000FE2C08D900200221FEF76AFE4FF08043DE
:103540005C60012010BD0C4CA4FB0324A40C04FB04
:1035500001F4FE2C0CD900200121FEF759FE4FF09A
:1035600080435C60012010BD002010BD002010BD14
:10357000002010BD0002001083DE1B4338B50C464E
:10358000054618B10E48A621FFF754F9012C03D9BE
:103590000B48A721FFF74EF900200146FEF738FE41
:1035A0004FF080431A6922F003021A611A69154329
:1035B0001D61012C03D11A7842F002021A7038BD45
:1035C000048D010072B64FF08043AA221A72552270
:1035D0001A7262B6704700BF10B501464FF08044C2
:1035E000206900F00300FFF779FF237843F001031F
:1035F0002370FFF7E7FF10BD08B501204FF400016D
:103600000246FFF7EFF801204FF480010246FFF772
:10361000E9F808BD08B528B101204FF40001FFF713
:10362000F1F808BD01204FF40001FFF7F3F808BDE1
:1036300008B528B101204FF48001FFF7E3F808BD79
:1036400001204FF48001FFF7E5F808BD2DE9F041B6
:103650009AB007468846038813B1412B7DD081E09C
:1036600002204FF400510122FFF7BCF802204FF472
:103670000051FFF7C7F800F091F800286FD03D48DF
:103680000EF070FC0BF0C0FB04F022FF06AE3046DB
:10369000002105F0A5FE6C460AAD0FCD0FC495E8DC
:1036A000030084E8030096E80F0004F037FF324C73
:1036B0000BF0DEF9236801332360FFF783FF2068F6
:1036C000C0F3004000F07AF8F2E700F067F800B3CA
:1036D0002A480BF059F8A8B110AE3046002105F089
:1036E0007FFE6C4614AD0FCD0FC495E8030084E84F
:1036F000030096E80F0004F011FF2048C8210BF0EA
:1037000035F806E0012000F059F81C4864210BF060
:103710002DF8194A13680133136042F21072934274
:1037200003D817480BF030F878B1FFF74BFF154B73
:10373000187880F001001870FFF76CFF00220E4B24
:103740001A600F4864210BF011F80F4B18680BF04A
:10375000D1F941233B80002300E0012333B1B8F1CC
:10376000830FB2D100233B80032000E001201AB078
:10377000BDE8F0812C8D0100DC070010E807001087
:10378000E0070010D8070010EC10001008B5024840
:1037900000210BF08DF908BD9000001008B5022043
:1037A0004FF400510022FFF71DF80220FFF73AF80E
:1037B00010F4005F14BF0020012008BD10B50446BE
:1037C00002204FF400510122FFF70CF82CB1022027
:1037D0004FF40051FFF716F810BD02204FF40051CE
:1037E000FFF718F810BD00BF2DE9F00FD0B00F2380
:1037F000EC460FE051F8042B4FEA322404F0FF248A
:103800004FEA326202F0FF122243CCF80020013B63
:103810000CF1040C002BEDDA3F236D4602AC08A935
:103820000DAA0FE017680E687740266877402E686B
:103830007E404FEAF6764CF8046B013B04350434C5
:1038400004310432002BEDDA8468C56802694169ED
:1038500082EA010A0AEA050A8AEA010A0AEBF46A1C
:1038600083699A44009B9A44EC4B9A444FEAB5080A
:1038700082EA08072740574007EBFA670F44019E8A
:103880003E44F7184FEAB40988EA090C0AEA0C0C1E
:1038900088EA0C0C0CEBF76C9444029E664406EB31
:1038A000030C4FEABA0A89EA0A063E4089EA06068C
:1038B00006EBFC66B044039E464406EB03084FEA61
:1038C000B7078AEA07060CEA06068AEA060606EB46
:1038D000F866B144049E4E4406EB03094FEABC0C63
:1038E00087EA0C0608EA06067E4006EBF966B24453
:1038F000059E564406EB030A4FEAB8088CEA080610
:1039000009EA06068CEA060606EBFA663744069EC6
:103910003E44F7184FEAB90988EA09060AEA06069A
:1039200088EA060606EBF766B444079E664406EB93
:10393000030C4FEABA0A89EA0A063E4089EA0606FB
:1039400006EBFC66B044089E464406EB03084FEACB
:10395000B7078AEA07060CEA06068AEA060606EBB5
:10396000F866B144099E4E4406EB03094FEABC0CCD
:1039700087EA0C0608EA06067E4006EBF966B244C2
:103980000A9E564406EB030A4FEAB8088CEA08067A
:1039900009EA06068CEA060606EBFA6637440B9E31
:1039A0003E44F7184FEAB90988EA09060AEA06060A
:1039B00088EA060606EBF766B4440C9E664406EBFE
:1039C000030C4FEABA0A89EA0A063E4089EA06066B
:1039D00006EBFC66B0440D9E464406EB03084FEA36
:1039E000B7078AEA07060CEA06068AEA060606EB25
:1039F000F866B1440E9E4E4406EB03094FEABC0C38
:103A000087EA0C0608EA06067E4006EBF966B24431
:103A10000F9E564406EB030A4FEAB8088CEA0806E4
:103A200009EA06068CEA060606EBFA663744109E9B
:103A30003E44F7184FEAB90988EA09060AEA060679
:103A400088EA060606EBF766B444119E664406EB68
:103A5000030C4FEABA0A89EA0A063E4089EA0606DA
:103A600006EBFC66B044129E464406EB03084FEAA0
:103A7000B7078AEA07060CEA06068AEA060606EB94
:103A8000F866B144139E4E4406EB03094FEABC0CA2
:103A900088EA0C037B4003EBF9639A44149E564476
:103AA0005F4B1E444FEAB80889EA080A8CEA0A0A02
:103AB0000AEBF66ABA44159F574407EB030A4FEA2C
:103AC000B90986EA090788EA070707EBFA67BC44E1
:103AD000169F674407EB030C4FEAB6068AEA06070F
:103AE00089EA070707EBFC67B844179F474407EBD1
:103AF00003084FEABA0A8CEA0A07774007EBF8672F
:103B0000B944189F4F4407EB03094FEABC0C88EAFD
:103B10000C078AEA070707EBF9673E44199F374409
:103B20001F444FEAB80889EA08068CEA060606EB45
:103B3000F766B2441A9E564406EB030A4FEAB909E7
:103B400087EA090688EA060606EBFA66B4441B9E75
:103B5000664406EB030C4FEAB7078AEA070689EAD0
:103B6000060606EBFC66B0441C9E464406EB0308C2
:103B70004FEABA0A8CEA0A067E4006EBF866B144C0
:103B80001D9E4E4406EB03094FEABC0C88EA0C0666
:103B90008AEA060606EBF96637441E9E3E44F7188D
:103BA0004FEAB80889EA08068CEA060606EBF766CB
:103BB000B2441F9E564406EB030A4FEAB90987EA4E
:103BC000090688EA060606EBFA66B444209E6644B7
:103BD00006EB030C4FEAB7078AEA070689EA0606EE
:103BE00006EBFC66B044219E464406EB03084FEA10
:103BF000BA0A8CEA0A067E4006EBF866B144229EB9
:103C00004E4406EB03094FEABC0C88EA0C068AEA2C
:103C1000060606EBF966374404E000BF9979825A3C
:103C2000A1EBD96E239E3E44F7184FEAB80889EA03
:103C300008068CEA060606EBF766B244249E564454
:103C400006EB030A4FEAB90987EA090688EA06067D
:103C500006EBFA66B444259E664406EB030C4FEA75
:103C6000B7078AEA070689EA060606EBFC66B0444F
:103C7000269E464406EB03084FEABA0A8CEA0A0677
:103C80007E4006EBF866B144279E4E4406EB0309DE
:103C90004FEABC0C4AEA0C0608EA06060AEA0C03DC
:103CA000334303EBF9631F44289E3E44ED4BF71862
:103CB0004FEAB8084CEA080B09EA0B0B0CEA0806B5
:103CC0004BEA060606EBF766B244299E564406EB1D
:103CD000030A4FEAB90948EA090B07EA0B0B08EA9D
:103CE00009064BEA060606EBFA66B4442A9E6644C9
:103CF00006EB030C4FEAB70749EA070B0AEA0B0B7E
:103D000009EA07064BEA060606EBFC66B0442B9E62
:103D1000464406EB03084FEABA0A47EA0A0B0CEAE4
:103D20000B0B07EA0A064BEA060606EBF866B144F7
:103D30002C9E4E4406EB03094FEABC0C4AEA0C0BDE
:103D400008EA0B0B0AEA0C064BEA060606EBF966D4
:103D500037442D9E3E44F7184FEAB8084CEA080B4A
:103D600009EA0B0B0CEA08064BEA060606EBF766B7
:103D7000B2442E9E564406EB030A4FEAB90948EABC
:103D8000090B07EA0B0B08EA09064BEA060606EBE5
:103D9000FA66B4442F9E664406EB030C4FEAB7075D
:103DA00049EA070B0AEA0B0B09EA07064BEA060683
:103DB00006EBFC66B044309E464406EB03084FEA2F
:103DC000BA0A47EA0A0B0CEA0B0B07EA0A064BEAA7
:103DD000060606EBF866B144319E4E4406EB030935
:103DE0004FEABC0C4AEA0C0B08EA0B0B0AEA0C0679
:103DF0004BEA060606EBF9663744329E3E44F71856
:103E00004FEAB8084CEA080B09EA0B0B0CEA080663
:103E10004BEA060606EBF766B244339E564406EBC1
:103E2000030A4FEAB90948EA090B07EA0B0B08EA4B
:103E300009064BEA060606EBFA66B444349E66446D
:103E400006EB030C4FEAB70749EA070B0AEA0B0B2C
:103E500009EA07064BEA060606EBFC66B044359E07
:103E6000464406EB03084FEABA0A47EA0A0B0CEA93
:103E70000B0B07EA0A064BEA060606EBF866B144A6
:103E8000369E4E4406EB03094FEABC0C4AEA0C0B83
:103E900008EA0B0B0AEA0C064BEA060606EBF96683
:103EA0003744379E3E44F7184FEAB8084CEA080BEF
:103EB00009EA0B0B0CEA08064BEA060606EBF76666
:103EC000B244389E564406EB030A4FEAB90948EA61
:103ED000090B07EA0B0B08EA09064BEA060606EB94
:103EE000FA66B444399E664406EB030C4FEAB70702
:103EF00049EA070B0AEA0B0B09EA07064BEA060632
:103F000006EBFC66B0443A9E464406EB03084FEAD3
:103F1000BA0A47EA0A0B0CEA0B0B07EA0A064BEA55
:103F2000060606EBF866B1443B9E4E4406EB0309D9
:103F30004FEABC0C88EA0C038AEA030303EBF9633B
:103F40001F443C9E3E44484BF7184FEAB80889EAA4
:103F500008068CEA060606EBF766B2443D9E564418
:103F600006EB030A4FEAB90987EA090688EA06065A
:103F700006EBFA66B4443E9E664406EB030C4FEA39
:103F8000B7078AEA070689EA060606EBFC66B0442C
:103F90003F9E464406EB03084FEABA0A8CEA0A063B
:103FA0007E4006EBF866B144409E4E4406EB0309A2
:103FB0004FEABC0C88EA0C068AEA060606EBF966AC
:103FC0003744419E3E44F7184FEAB80889EA08068C
:103FD0008CEA060606EBF766B244429E564406EBB0
:103FE000030A4FEAB90987EA090688EA060606EBDA
:103FF000FA66B444439E664406EB030C4FEAB707E7
:104000008AEA070689EA060606EBFC66B044449E87
:10401000464406EB03084FEABA0A8CEA0A067E40D9
:1040200006EBF866B144459E4E4406EB03094FEAA1
:10403000BC0C88EA0C068AEA060606EBF9663744E9
:10404000469E3E44F7184FEAB80889EA08068CEA0B
:10405000060606EBF766B244479E564406EB030A93
:1040600004E000BFDCBC1B8FD6C162CA4FEAB909AD
:1040700087EA090688EA060606EBFA66B444489E13
:10408000664406EB030C4FEAB7078AEA070689EA9B
:10409000060606EBFC66B044499E464406EB030860
:1040A0004FEABA0A8CEA0A067E4006EBF866B1448B
:1040B0004A9E4E4406EB03094FEABC0C88EA0C0604
:1040C0008AEA060606EBF96637444B9E3E44F7182B
:1040D0004FEAB80889EA08068CEA060606EBF76696
:1040E000B2444C9E564406EB030A4FEAB90987EAEC
:1040F000090688EA060606EBFA66B4444D9E664455
:1041000006EB030C4FEAB7078AEA070689EA0606B8
:1041100006EBFC66B0444E9E46441E444FEABA0A83
:104120008CEA0A0887EA080808EBF668C144DDF85B
:104130003C81C84443441C4484603544C56002EB60
:10414000BC0202615144416183691F44876150B0E0
:10415000BDE8F00F704700BF10B5A0B00446684638
:10416000002180220CF046FFA4F18000002801DD30
:10417000FFF7F2FF20B010BD00220023C0E90023AA
:10418000094B836003F18833C36003F12943A3F52E
:104190009613A3F68B630361A3F188334361034B4A
:1041A00083610023C361704701234567F0E1D2C3F7
:1041B0002DE9F84F05460F4616464FF0000800F16E
:1041C000200BC2464FF0010921E0E869C0F140042C
:1041D000A64200D2344620302844394622460CF00C
:1041E00005FFE100D5E90023521843F10003C5E9BA
:1041F0000023EB692344EB612744361B402B06D197
:1042000028465946FFF7F0FAC5F81CA0C846002E0C
:10421000DBD1B8F1000F03D04FF4B870FFF79CFF6B
:10422000BDE8F88F2DE9F04383B081468846C36925
:10423000C3F17802402A01D9C3F13802D9E90067F5
:104240003C4600254FEA362101F0FF214FEA366651
:1042500006F0FF1341EA03074FEA342303F0FF237C
:104260004FEA346404F0FF141C4345EA040602AC30
:1042700064E9026748461649FFF79AFF48466946CF
:104280000822FFF795FFB8F1000F1AD11CE0931C2C
:1042900059F82310090E88F8001059F82310C1F3BB
:1042A000074188F8011059F82310C1F3072188F855
:1042B000021019F8233088F8033008F1040801329D
:1042C00000E00022042AE2DD03B0BDE8F08300BF75
:1042D000648D01002DE9F0070446002800F04C81B0
:1042E000002A00F04C81802905D0C02903D0B1F507
:1042F000807F40F047811346802903D10A20C2F80D
:10430000F00008E0C02903D10C20C2F8F00002E060
:104310000E20C2F8F00025786078000440EA0560BD
:10432000A57840EA0520E578684010602579607935
:10433000000440EA0560A57940EA0520E579684077
:104340005060257A607A000440EA0560A57A40EA68
:104350000520E57A68409060257B607B000440EA98
:104360000560A57B40EA0520E57B6840D060802998
:1043700035D10021DFF83882DFF830C2884F894E0E
:10438000894DDA681868C2F3074458F8244004F0ED
:104390007F446040C2F307245CF8244004F47F04A7
:1043A0004440D0B257F8200000F47F4984EA090461
:1043B000100E16F8209084EA090455F82100604098
:1043C00018615C68604058619C6860409861424038
:1043D000DA6101310A2900F0D8801033D1E7257C59
:1043E000607C000440EA0560A57C40EA0520E57C8D
:1043F00068401061257D607D000440EA0560A57D70
:1044000040EA0520E57D68405061C0293BD100218C
:10441000DFF89CC1654F624EDFF88881624D5A69B2
:104420001868C2F307445CF8244004F07F446040FD
:10443000C2F3072457F8244004F47F044440D0B268
:1044400056F8200000F47F4984EA0904100E18F899
:10445000209084EA090455F8210044409C61586882
:104460004440DC61986844401C62D86860405862EF
:104470000131082900F08B801C696040986250402F
:10448000D8621833CBE7257E607E000440EA0560E1
:10449000A57E40EA0520E57E68409061257F607F2B
:1044A000000440EA0560A57F40EA0520E47F604003
:1044B000D061B1F5807F6CD100213D4E3B4DDFF8DE
:1044C000E0A0DFF8E0C0384FDA691C68C2F30748A3
:1044D00056F8280000F07F4884EA0804C2F3072851
:1044E00055F8288008F47F0884EA0808D0B25AF802
:1044F000200000F47F4988EA0908100E1CF820907B
:1045000088EA090857F8210088EA000018625C6808
:10451000604058629C6860409862DC686040D86285
:104520000131072937D04FEA106856F8289009F072
:104530007F491C6984EA0909C0F3074855F82880B7
:1045400008F47F0889EA0808C0F307295AF8299077
:1045500009F47F4988EA0908C0B21CF8200088EAFB
:10456000000018635C69604058639C696040986310
:104570005040D8632033A7E74FF0FF300CE04FF0F6
:10458000FF3009E06FF0010006E0002004E00020A9
:1045900002E0002000E00020BDE8F007704700BF07
:1045A000CC9E0100CCA20100A4990100CCAA01007C
:1045B000CCA601002DE9F8431446FFF78BFE002836
:1045C000C0F2B6802346D4F8F0008000002127E036
:1045D00053F8215053F8202043F8212043F820506D
:1045E0004D1C53F82570421C53F8226043F8256097
:1045F00043F822708D1C53F82570821C53F82260FA
:1046000043F8256043F82270CD1C53F82570C21C76
:1046100053F8226043F8256043F8227004310438CF
:104620008142D5DB4FF001084249DFF818C1424F03
:10463000424E434D77E053F8102F100E11F8200032
:104640005CF82090C2F3074011F8200057F82000D2
:1046500089EA0009C2F3072011F8200056F820006B
:1046600089EA0009D2B211F8222055F8220089EA1D
:1046700000021A605868020E11F822205CF822909D
:10468000C0F3074211F8222057F8222089EA0209D4
:10469000C0F3072211F8222056F8222089EA0202EC
:1046A000C0B211F8200055F8200042405A609868C6
:1046B000020E11F822205CF82290C0F3074211F894
:1046C000222057F8222089EA0209C0F3072211F8B4
:1046D000222056F8222089EA0202C0B211F82000F6
:1046E00055F8200042409A60D868020E11F8222046
:1046F0005CF82290C0F3074211F8222057F82220DC
:1047000089EA0209C0F3072211F8222056F8222074
:1047100089EA0202C0B211F8200055F82000424098
:10472000DA6008F10108D4F8F020424583DC00206B
:10473000BDE8F883CCA20100A4950100A48D01007E
:10474000CC990100A49101002DE9F00F82B00191F4
:10475000037890F801A04FEA0A4A4AEA036A83788C
:104760004AEA032AC3788AEA030A13688AEA030A30
:10477000037990F805904FEA094949EA036983797A
:1047800049EA0329C37989EA0309536889EA0309D5
:10479000037A90F809804FEA084848EA0368837A68
:1047A00048EA0328C37A88EA0308936888EA03087A
:1047B000037B477B3F0447EA0367837B47EA032782
:1047C000C37B5F40D3685F40D2F8F0305B1000934A
:1047D000BC4CBD48BD49BE4B4FEA1A6554F8256034
:1047E000C9F3074550F8255086EA050BC8F307259D
:1047F00051F825508BEA050BFDB253F825508BEA92
:10480000050B15698BEA050B4FEA196554F825600D
:10481000C8F3074550F825506E40C7F3072551F8F7
:1048200025506E405FFA8AF553F825506E40556961
:104830006E404FEA186554F825C0C7F3074550F895
:1048400025508CEA050CCAF3072551F825508CEA4F
:10485000050C5FFA89F553F825508CEA050C95692B
:104860008CEA05053F0E54F82770CAF3074A50F842
:104870002AC087EA0C0CC9F3072951F829708CEA81
:10488000070C5FFA88F853F828708CEA070CD76990
:104890008CEA070C2032009F013F00975DD04FEA61
:1048A0001B6754F827A0C6F3074750F827708AEA19
:1048B000070AC5F3072751F827708AEA070A5FFA43
:1048C0008CF753F827708AEA070A17688AEA070AFA
:1048D000370E54F82790C5F3074750F8277089EA38
:1048E0000709CCF3072751F8277089EA07095FFA0F
:1048F0008BF753F8277089EA0709576889EA07098F
:104900002F0E54F82780CCF3074750F8277088EA19
:104910000708CBF3072751F8277088EA0708F7B292
:1049200053F8277088EA0708976888EA07084FEA6B
:104930001C6C54F82C70CBF3074B50F82BC087EA53
:104940000C07C6F3072651F826607740EDB253F8FE
:1049500025506F40D5686F403EE74FEA1B635B4FC1
:1049600057F8233003F07F48C6F30743584C54F8F8
:10497000233003F47F0388EA0308C5F30723514873
:1049800050F8233003F47F4388EA03085FFA8CF37E
:104990004D4911F8233088EA0308136888EA0303B5
:1049A0004FEA1368DDF8049089F80080C3F30748E4
:1049B00089F80180C3F3072889F8028089F8033059
:1049C000330E57F8233003F07F48C5F3074354F8FC
:1049D000233003F47F0388EA0308CCF3072350F85D
:1049E000233003F47F4388EA03085FFA8BF311F85E
:1049F000233088EA0308536888EA03034FEA136800
:104A000089F80480C3F3074889F80580C3F30728B1
:104A100089F8068089F807302B0E57F8233003F009
:104A20007F48CCF3074354F8233003F47F0388EA2C
:104A30000308CBF3072350F8233003F47F4388EABD
:104A40000308F3B211F8233088EA0308936888EA70
:104A500003034FEA136889F80880C3F3074889F80D
:104A60000980C3F3072889F80A8089F80B304FEAD8
:104A70001C6C57F82C7007F07F47CBF3074B54F8AA
:104A80002B3003F47F037B40C6F3072650F8260043
:104A900000F47F404340EDB211F825104B40D2683E
:104AA00053401A0E89F80C20C3F3074289F80D20F1
:104AB000C3F3072289F80E2089F80F3002B0BDE851
:104AC000F00F7047CC9E0100CCA20100CCA60100E3
:104AD000CCAA01002DE9F00F84B00391037890F87F
:104AE00001904FEA094949EA0369837849EA0329B1
:104AF000C37889EA0309136889EA0309037990F8FE
:104B000005804FEA084848EA0368837948EA0328A1
:104B1000C37988EA0308536888EA0308037A477A66
:104B20003F0447EA0367837A47EA0327C37A5F4073
:104B300093685F40037B90F80DC04FEA0C4C4CEA41
:104B4000036C837B4CEA032CC37B8CEA030CD36895
:104B50008CEA030CD2F8F0305B100293A24CA3480D
:104B6000A349A44B4FEA196554F82560CCF30745D7
:104B700050F8255086EA050AC7F3072551F8255055
:104B80008AEA050A5FFA88F553F825508AEA050A89
:104B900015698AEA050A4FEA186554F82560C9F3D1
:104BA000074550F825506E40CCF3072551F82550A5
:104BB0006E40FDB253F825506E4055697540019521
:104BC0003E0E54F826B0C8F3074650F826608BEA2C
:104BD000060BC9F3072651F826608BEA060B5FFA2D
:104BE0008CF653F826608BEA060B96698BEA06066C
:104BF0004FEA1C6C54F82CC0C7F3074750F82770D5
:104C00008CEA070CC8F3072851F828708CEA070CC7
:104C10005FFA89F953F829708CEA070CD7698CEA96
:104C2000070C2032029D013D029562D04FEA1A67BF
:104C300054F82790CCF3074750F8277089EA070902
:104C4000C6F3072751F8277089EA0709019DEFB2DB
:104C500053F8277089EA0709176889EA07092F0EB0
:104C600054F82780CAF3074750F8277088EA0708E6
:104C7000CCF3072751F8277088EA0708F7B253F8F2
:104C8000277088EA0708576888EA0708370E54F83B
:104C900027B0C5F3074750F827708BEA070BCAF314
:104CA000072751F827708BEA070B5FFA8CF753F848
:104CB00027708BEA070B95688BEA05074FEA1C6C97
:104CC00054F82CC0C6F3074650F826608CEA060C50
:104CD000019EC6F3072551F825508CEA050C5FFAB2
:104CE0008AFA53F82A508CEA050CD5688CEA050C30
:104CF00038E7019D4FEA1A613F4B585CCCF30741FE
:104D0000595C090441EA0061C6F30720185C41EAD6
:104D10000021E8B2185C414010684140080E039F32
:104D20003870C1F307407870C1F30720B870F9708C
:104D3000290E585CCAF30741595C090441EA006135
:104D4000CCF30720185C41EA0021F0B2185C414026
:104D500050684140080E3871C1F307407871C1F3C3
:104D60000720B871F971310E585CC5F30741595CE1
:104D7000090441EA0061CAF30720185C41EA0021F6
:104D80005FFA8CF0185C414090684140080E387220
:104D9000C1F307407872C1F30720B872F9724FEA85
:104DA0001C6C13F80C10C6F30746985D000440EA2B
:104DB0000160C5F30725595D40EA01205FFA8AFAD0
:104DC00013F80A1080EA0103D26853401A0E3A73AE
:104DD000C3F307427A73C3F30722BA73FB7304B0B9
:104DE000BDE8F00F704700BFA4910100A495010039
:104DF000A48D0100CC990100CC9D010008B5012BC8
:104E000002D1FFF7A1FC08BDFFF764FE08BD00BF9B
:104E100008B5FFF75FFA08BD08B5FFF7CBFB08BD83
:104E200008B5034B18680349302205F0FDF808BDAA
:104E30000408001028B00100014B1878704700BF2B
:104E40001108001008B5044B1B781BB9034800215A
:104E500009F02EFE08BD00BFE0130010A4000010F2
:104E600008B5084B1B6813B9074B1B6843B10BF01F
:104E70006DFF044B1B68C01A034B1A68104408BD31
:104E8000002008BD080800100C08001030B58BB0D9
:104E9000FFF7E6FF0AAB43F8040D18460EF01CFCC2
:104EA0000446214B1B78A3B90BF0B0FF1F480DF04F
:104EB00059F868460BF0BEFF68460BF0E9FD0EF0AE
:104EC00067FB01461A480DF04DF80122164B1A7087
:104ED00028E068460BF0AEFF68460EF0A5FA099D83
:104EE000A84211D0134B1B78BBB10022114B1A7092
:104EF00068460EF099FA02460F4829460DF032F83E
:104F000020460BF083FF08E00A4B1B782BB90122E7
:104F1000084B1A7009480DF025F809A80EF0DCFBC3
:104F20000BF04EFF0BB030BD11080010CCAE0100ED
:104F3000E0AE0100BC00001004AF010018AF01009A
:104F400008B50F4B1B7813F0020F14D00D4B1B88C4
:104F5000302B12D10C4B1B68986A06F033F90B4BBF
:104F600003440B4A13600BF0F1FE0A4B1860FFF785
:104F70008DFF012008BD002008BD002008BD00BF36
:104F8000F41B0010E81B0010FC1B00108081557CF6
:104F90000C0800100808001070B586B004460E46D4
:104FA000154603888E2B2FD001D83BB1F0E0AA2BF9
:104FB00000F08480B32B00F09280E9E00020774974
:104FC0004FF4A3720BF0EEF8002075494FF4A17274
:104FD0000BF0E8F84FF4A17000210BF083FA714B4D
:104FE0000093714871490122714B0AF0E3FF714B44
:104FF0001870714B1B7E5BB9704B186809F07AFD15
:105000008E232380002300E00123002BF1D1BDE09B
:105010006B4B1B7813B1012B0BD015E0694B009340
:10502000604B019368486049684A694B09F080FD0C
:1050300014E0644B00935B4B019363485A49654A03
:10504000654B09F075FD09E05E4B0093554B0193EC
:105050005D485549614A624B09F06AFD614840F676
:10506000B83109F059FB584805A92A4609F08EFDC8
:1050700000B305A84FF4F641002204F065FF5A4B37
:10508000186045F2C30383809DF814109DF8152025
:105090009DF816309DF8170000907B2001904CF28F
:1050A0005030029051480CF05DFF4E48642109F0E9
:1050B00033FB10E0AA232380002300E00123002B10
:1050C00064D0484809F038FB0028CCD03C4B1A7813
:1050D00001321A709CE7B3232380002300E00123F0
:1050E000002B53D03F4809F027FB00283ED0FFF7A4
:1050F00097FE3F4B1A7801321A700BF027FE10F121
:10510000060F06D80BF022FE132802D9234B1B787A
:10511000A3B9C821374B1960324809F0FDFA344B66
:105120001B780A2B22D934480CF01CFF0022304B8C
:105130001A70234B1A7801321A7069E72D4B1B68DD
:10514000B3F5484F06D8FFF78BFE18B1294B1A6804
:1051500052001A60124B1B781BB94FF47A72254B20
:105160001A602048234B196809F0D6FA234B1B78A4
:105170009E42B0D130462946FFF7E2FE10B1002230
:105180000F4B1A7000221A4B1A70A4E7012002E09C
:1051900000232380032006B070BD00BF110800105B
:1051A000BC000010F0CE010024AF010034AF0100BC
:1051B00040AF0100F8010010E0130010EC100010E7
:1051C000F007001078AF01002C14001058AF010058
:1051D00064AF010090AF01009CAF0100B0AF0100CF
:1051E000BCAF0100F407001004080010CCAF0100B0
:1051F00010080010B800001010B00100E61B0010ED
:1052000008B506F03FF90348034B198800F022F96E
:10521000012008BD00EF0720E81B001008B5024878
:1052200009F01EFB08BD00BFC000001008B51548FE
:1052300000F0F2F880B2144B188000B3114B9B8938
:10524000082B0DD1012005F043F80F4B1B88B3B19B
:1052500006F018F90B480C4B198800F0FBF80EE02B
:10526000B3F5C16F08D106F099F8074B198831B131
:10527000044800F0EFF802E00022034B1A80FFF729
:10528000CDFF08BD00EF0720E81B001038B504462D
:105290000D46822901D1FFF7C9FF238813B1A42B42
:1052A00012D01EE000F02AF8114804F021FE114847
:1052B00009F0D6FA10484FF47A7109F02DFA0EE091
:1052C000A4232380002300E0012373B1882D06D19D
:1052D00009484FF47A7109F01FFA06F02DF8832D72
:1052E000EED100232380032038BD012038BD00BF4C
:1052F00001920000C00000101408001070B58AB0C0
:10530000414B1A788DF810205A788DF811209A7830
:105310008DF81220DA788DF813201A798DF8142080
:105320005B798DF815300024089401258DF81A500A
:105330008DF81C408DF81B408DF818508DF81940E1
:1053400006A8FDF7CFFA8DF8195006A8FDF7CAFA9E
:1053500004238DF8193006A8FDF7C4FA08238DF848
:10536000193006A8FDF7BEFA09238DF8193006A8F2
:10537000FDF7B8FA0A238DF8193006A8FDF7B2FA3E
:105380000E238DF8193006A8FDF7ACFA0F238DF81F
:10539000193006A8FDF7A6FA10238DF8193006A8D3
:1053A000FDF7A0FA11238DF8193006A8FDF79AFA37
:1053B00016480CF0D7FD9DF810109DF811209DF8AF
:1053C00012309DF813609DF814509DF8150000965A
:1053D000019502900E480CF0C5FD089404AB0993AA
:1053E00008A8FDF7B7F860B180202146FDF778F9ED
:1053F000084B082283F81C234FF080521A600120CA
:1054000000E000200AB070BD3410001078B0010038
:105410008CB0010000E100E030B583B00446FDF738
:1054200081F998B1FDF798F9013040F2B4639842E0
:1054300034BF05461D46019402A840F8085D684641
:10544000FDF736F9FDF794F9284600E0002003B097
:1054500030BD00BF30B583B004460D4689B1FDF7BD
:105460006DF9034670B140F2B4639D4294BF00955C
:10547000009301946846FDF7FBF8FDF787F90123D7
:1054800000E00123184603B030BD00BF08B5082076
:10549000FDF73AF908B1FFF7C1FE08BD037813F034
:1054A000C00F01D0013009E0013002E00130013BC2
:1054B000DBB2002BFAD10378002BEFD1013070471B
:1054C00030B40139002500E020460131441C2A4651
:1054D00004E004F8013B0132D2B201310B782E2BEB
:1054E00001D0002BF5D102700B78002BECD12046B7
:1054F00000F8013B30BC704708B502460020024B63
:10550000197809F06FF908BD301400102DE9F04743
:105510005C4B1F68BB7833F0010203D1FB781BB1F1
:10552000002402E0002400E00124E4B2B88804F082
:105530008FFE554B1870F88804F08AFE5FFA80F8E9
:10554000524B83F8008007F10C050022504B1A7073
:105550005CB14D4B1B7843B9BDE8F0872846FFF797
:105560009DFF051D013C347000E0474E3478002C4F
:10557000F4D1B8F1000F00F082803888013880B291
:1055800004F066FEC0B2424B187044B2414E04EBC8
:105590004404240106EB0408C0B2092802D8335D94
:1055A000032B08D0388804F053FE01463A480CF02B
:1055B000D9FCBDE8F08708F10D09384849460CF0E0
:1055C000D1FC01233355FB7803F00F0388F80C302E
:1055D0000BF0BCFB1E30C8F8040098F80C303BB14F
:1055E0000123335548460021FFF786FFBDE8F087C9
:1055F0000022274B1A70254E294C0E273CE02846E6
:10560000FFF74CFF014620463A460BF0EFFC60885E
:1056100004F01EFEC0F30E00012821D12389B3F54A
:10562000806F1DD12388B3F5807F19D1012333709A
:10563000042388F80030E388B4F804A003EB0A2AB6
:10564000C8F804A00BF082FB5044C8F80400D4F85A
:105650000A00C8F80800484608F10801FFF74CFFA7
:105660002846FFF71BFF0546208904F0F1FD0A30AC
:1056700005443378013B33703378002BBFD1BDE84C
:10568000F08700BFFC1B00104F0800104C080010F2
:105690004D08001054080010ACB00100D8B0010053
:1056A0002C0800102DE9F04184B000238DF80F3054
:1056B000394D3A4F192666E09DF80F4004EB44043B
:1056C000240105EB04082B5D023BDBB2012B54D80F
:1056D0003846314609F020F82B5D032B13D198F89A
:1056E0000130013BDBB288F80130002B45D198F83E
:1056F00002300133DBB288F802300E2B3DD09B0024
:1057000088F8013008E0032388F80030012388F886
:105710000130002388F80230214D2C6820460021FA
:105720000C220BF067FC9DF80F00013004F090FD97
:1057300020800126A6704FF48073A380286808F1AA
:105740000D080C304146FFF7BBFE00230370467086
:105750008370021DC6702B68124908684FF45451BB
:1057600000911946D21A104B04F082FC9DF80F10DC
:105770000E4842460CF0F6FB0AE09DF80F3001336C
:10578000DBB28DF80F309DF80F30DBB2092B93D9C7
:1057900004B0BDE8F08100BF540800103C080010C0
:1057A000FC1B001024080010E800001000B10100EC
:1057B00038B504460D46038840F2BC4293421BD0E4
:1057C00040F2C34293422FD0002B4FD12B480021EF
:1057D0004FF4F0720BF00EFC08F0E4FF284B187049
:1057E000284B1B7E63B9284B186809F083F940F2F7
:1057F000BC432380002300E00123002BF0D139E0DB
:1058000000200146024604F09FFB204B1860204810
:105810000CF0A8FB1F488821002208F0E3FF40F2AB
:10582000C3432380002300E001232BB3882D04D140
:10583000164B186804F096FBF1E7174B1B789D4256
:10584000EDD1164B1A68114B1B689A42E7D1144BE5
:105850001B7813F0020F01D0FFF758FE104B1B7896
:1058600013F0080FDBD0FFF71DFFD8E700230380FC
:10587000032038BD012038BD012038BD5408001078
:1058800030140010E0130010EC1000102408001079
:1058900030B10100D4000010E61B0010F81B00100E
:1058A000F41B001010B413E001301A46A3F1610498
:1058B000192C01D8A3F120024C1C0B78A3F1610133
:1058C000192900D8203B9A4201D0D01A07E021467E
:1058D0000378002BE8D10A78002AE5D100205DF892
:1058E000044B70472DE9F84380460026324B1E706A
:1058F000324B1E70324B1E701D46324FDFF8B8908F
:105900002DE004EB440424013E1906F10D0041464C
:10591000FFF7C8FF18B92C480CF024FB22E03B5DD0
:1059200033B1042B0BD10BF011FA7368984206D9EE
:105930002B7889F80030FF22204B1A700CE0234BA3
:105940001A78F378D01A1D490978884204DD1B497A
:1059500008702B7889F800302B7801332B702C7865
:10596000092CCED9164B1B780A2B08D1124B1E7866
:10597000134B1E7006EB46063601124B1E441448AC
:1059800041460CF0EFFA3046002130220BF032FB9A
:1059900006F10D00414621220DF0B7FC02233370C1
:1059A0000A4B1A78F27001321A700A4888210022D4
:1059B00008F018FFBDE8F88329080010500800100F
:1059C000340A0010540800104CB1010028080010DF
:1059D00064B10100D40000102DE9F84380468946E7
:1059E00000221E4B1A701E461D4F30E004EB44038C
:1059F0001B01FD18404605F10D01FFF753FF20BBC9
:105A00002B78013B032B03D8DFE803F00B121204C1
:105A1000012012E00BF09AF96B6898420AD8002036
:105A20000BE00BF093F96B68984205D8032004E073
:105A3000042002E0022000E00120B9F1000F0AD0AA
:105A40000835C9F80050BDE8F88301343470347863
:105A5000092CCBD90120BDE8F88300BF4E08001007
:105A6000540800100068014B18607047E8000010EF
:105A700070B504460D461646038813B1132B0FD09C
:105A800034E01D48062100F09BFB00F0C7FB1B48DB
:105A900040F2DC5108F040FE13232380002300E095
:105AA00001233BB3164B1B789D4201D0882D03D1B7
:105AB0002846314600F0A6FB882DEDD10F4808F0AE
:105AC0003BFE0028E8D00F4B1B7E002BE4D10E4894
:105AD0000CF048FA0848062100F072FB00F09EFB2B
