:10000000008000104D410000F5400000A13E0100BD
:10001000FD40000001410000054100001AFCFCEF1A
:100020000000000000000000000000000941000086
:100030000D41000000000000114100005944010082
:100040001941000019410000194100001941000048
:100050001941000019410000792801008928010098
:10006000354001001941000019410000194100000C
:100070001941000019410000194100001941000018
:100080001941000019410000194100001941000008
:100090001941000019410000795600001941000083
:1000A00019410000194100001941000019410000E8
:1000B000A98D0000194100001941000019410000FC
:1000C000194100001941000019410000C8C4010095
:1000D00000000010E8020000C8C4010000C00720B2
:1000E00000000000E8020010C42B000000C0072040
:1000F000C4750000FEE700BFFEE700BFFEE700BFDB
:10010000FEE700BFFEE700BFFEE700BFFEE700BF5F
:10011000FEE700BFFEE700BFFEE700BF10B400230C
:1001200004E004680C600433043004319342F8D3D3
:100130005DF8044B704700BF00231A4602E00260DE
:10014000043304308B42FAD3704700BF38B54FF008
:1001500080531C4AAD20DE2106E013F0010F01D0D0
:10016000196000E0186001339342F6D9164B174A24
:10017000AB20BE2106E013F0010F01D0196000E0B2
:10018000186001339342F6D9114B124C07E003F18A
:100190000C05186859689A68FFF7C0FF2B46A34200
:1001A000F5D307E01C4654F8080B5968FFF7C4FF65
:1001B000234600E0084DAB42F4D310F057FA10F09C
:1001C000CBFAFEE7FE7D001000C00720FE3D0820B0
:1001D000CC400000E4400000F4400000FFFFFFFFBF
:1001E000FFFFFFFFFFFFFFFFFFFFFFFFFFFFFFFF1F
:1001F000FFFFFFFFFFFFFFFFFFFFFFFFFFFFFFFF0F
:10020000FFFFFFFFFFFFFFFFFFFFFFFFFFFFFFFFFE
:10021000FFFFFFFFFFFFFFFFFFFFFFFFFFFFFFFFEE
:10022000FFFFFFFFFFFFFFFFFFFFFFFFFFFFFFFFDE
:10023000FFFFFFFFFFFFFFFFFFFFFFFFFFFFFFFFCE
:10024000FFFFFFFFFFFFFFFFFFFFFFFFFFFFFFFFBE
:10025000FFFFFFFFFFFFFFFFFFFFFFFFFFFFFFFFAE
:10026000FFFFFFFFFFFFFFFFFFFFFFFFFFFFFFFF9E
:10027000FFFFFFFFFFFFFFFFFFFFFFFFFFFFFFFF8E
:10028000FFFFFFFFFFFFFFFFFFFFFFFFFFFFFFFF7E
:10029000FFFFFFFFFFFFFFFFFFFFFFFFFFFFFFFF6E
:1002A000FFFFFFFFFFFFFFFFFFFFFFFFFFFFFFFF5E
:1002B000FFFFFFFFFFFFFFFFFFFFFFFFFFFFFFFF4E
:1002C000FFFFFFFFFFFFFFFFFFFFFFFFFFFFFFFF3E
:1002D000FFFFFFFFFFFFFFFFFFFFFFFFFFFFFFFF2E
:1002E000FFFFFFFFFFFFFFFFFFFFFFFFFFFFFFFF1E
:1002F000FFFFFFFFFFFFFFFFFFFFFFFFFFFFFFFF0E
:100300002DE9F04389B0022002F026F907466C4639
:100310001F4D0FCD0FC495E80F0084E80F00002497
:100320001C4E64254FF001082CE005FB04F3F05C43
:1003300030B308AA02EB840353F8203C3B4211D1AE
:1003400005FB04635B78072B1AD0012B18D001F052
:100350003BF805FB0469002389F86030072389F81E
:1003600001300DE005FB04635B78072B08D101F039
:1003700073F805FB046989F86080032389F801306C
:100380000134E4B2072CD0D909B0BDE8F08300BF36
:10039000287C0100B40300102DE9F04FD3B00646CD
:1003A0000F469046A3480DF057FE20B1A1484FF4E8
:1003B000FA710DF041FEFFF7A3FF3388672B00F0C1
:1003C000F48105D863B14B2B00F0C88000F00FBD5D
:1003D000782B00F07F82D72B00F0048500F007BD5A
:1003E000954DDFF8C492CDF800902846934901223C
:1003F000934B0FF09FF9934C2070CDF80090284656
:1004000091490222914B0FF095F984F86400CDF8E0
:10041000009028468E4903228E4B0FF08BF984F80A
:10042000C800CDF8009028468B4904228B4B0FF072
:1004300081F984F82C01CDF80090284688490522DE
:10044000884B0FF077F984F89001CDF8009028469A
:1004500085490622854B0FF06DF984F8F401CDF83B
:100460000090284682490722824B0FF063F984F8F6
:100470005802CDF8009028467F4908227F4B0FF0A4
:1004800059F984F8BC027E4864210DF0FFFD00227A
:100490007C4B1A701C466B4D6420032104E000FB6A
:1004A00003525170013323702378072BF7D900F0E2
:1004B0009BBC01F0DFFC882F40F090840022714B40
:1004C0001A7000F07DBC64215E4A01FB0322527861
:1004D000052A04D15B4A01FB0322526962B96421F7
:1004E000584A01FB032393F861302BB964480DF09F
:1004F000DBFD002800F02781DFF888A19AF80010C2
:10050000504C4FF0640909FB0143002583F861500A
:100510005D48013110F09AFF9AF8003009FB03F9A9
:1005200014F8091022AC594B1B881944204689B293
:1005300007F042FB564B1B68039301230493059578
:1005400025AB93E807008DE8070094E80E005148BA
:1005500005F022FD50B14B23338080274E4B1B7892
:100560009F4240F048844B4BC3F80080494B1868C9
:10057000038A1AB2E42A14D1424C257807F03AFBD8
:10058000304B642101FB05356861227801FB0233A1
:10059000012183F8601041485969013210F056FF7B
:1005A000D1E01BB2292B40F00784364B1B78642125
:1005B000244A01FB03225269002A00F0AD80214A3F
:1005C00001FB032C0CF1180E05AC0CF13C050FCD12
:1005D0000FC40FCD0FC42B68236000230E936C460D
:1005E0000CF128050FCD0FC42B6823609EE80F0087
:1005F0000FF06AFE0022002313F07AF9002800F0C1
:100600008B80274810F022FF1E4B1B7864210D4A77
:1006100001FB032303225A701FA8052101226A232C
:1006200007F084F81F4B18701D46DFF880A0DFF834
:1006300014906EE0F0020010487C0100587C01002C
:100640006C7C0100B4030010907C0100A47C0100CC
:10065000C87C0100DC7C0100007D0100147D0100EC
:10066000387D01004C7D0100707D0100847D01001A
:10067000A87D0100BC7D0100E07D0100F47D01004A
:10068000AC13001000030010187E0100600700107A
:10069000E4100010E8020010821B0010407E0100F0
:1006A000687E0100EC02001074BE0100887E01002B
:1006B000DFF844B39BF80030642404FB03F31CA868
:1006C000514619F8032007F073F801469BF80030F3
:1006D00004FB039328AC20465A7807F04DFB2B7897
:1006E0004FF0000ECDF80CE0CDF810E052AA02EB6E
:1006F000430333F8CE3C05932BAB93E807008DE81A
:10070000070094E80E00704605F046FC2B78013B8C
:100710002B702B78002BCBD1DFF8DC9299F80030CE
:10072000B34C642505FB03F3E21800215161E05C42
:1007300000F092FE99F8003005FB03440323637038
:10074000AC4810F083FEAC4B19786422A84B02FB36
:10075000013393F86030002B00F00581A748013188
:1007600010F074FEA44B1A786425A14B05FB0235EA
:100770002EACA34B204619685A686B6907F09CF9A8
:10078000A04B1B680393012304930023059331AB13
:1007900093E807008DE8070094E80E009A4805F0FA
:1007A000FBFB50B1672333808027984B1B789F4217
:1007B00040F02383944BC3F80080934B19680B8A55
:1007C0001AB2DD2A48D1DFF830A29AF80040884DED
:1007D0004FF0640909FB0454183410A807F08CF991
:1007E0000DF1400EBEE80F000FC4BEE80F000FC4AD
:1007F000DEF8003023609AF8004009FB045410A88A
:10080000814B196807F0A8F93C340DF1400EBEE8A1
:100810000F000FC4BEE80F000FC4DEF800302360E5
:100820009AF8004009FB045018300FF0F1FC12F068
:1008300061F802467648611C10F008FE9AF8000044
:1008400009FB00503C300FF0E3FC12F053F8014676
:10085000704810F0FBFD17E01BB2292B40F0AC8272
:10086000DFF8949199F80030614C642505FB03F39F
:10087000E21800215161E05C00F0EEFD99F80030D3
:1008800005FB0344032363705B4C2178624801310C
:1008900010F0DCFD23786421554A01FB032334ACBE
:1008A000204659695D4A07F0ABF9564B1B68039324
:1008B000012304930023059337AB93E807008DE8E9
:1008C000070094E80E00504805F066FB50B178230D
:1008D000338080274D4B1B789F4240F090824A4BDB
:1008E000C3F80080484B1868B0F91030E72B40F08F
:1008F000638207F0E1F901461BA83D220DF0CCF917
:10090000042824D13C4C21784548013110F09EFD4B
:1009100094F800A01B9B586811F092FD344D4FF0E5
:10092000640909FB0A5A8AF8020094F800A01B9B8C
:10093000986811F085FD09FB0A5ACAF8100024785E
:100940001B9BD86811F07CFD09FB0454A0601B9828
:100950000FF074FF284B1B786421254A01FB032309
:10096000002283F86020244B1B786421204A01FB7D
:1009700003225269002A00F013821D4A01FB032260
:100980005278072A00F0F3800846194900FB03114A
:100990008978002900F082800446154804FB030092
:1009A00084882048A0FB0450B1EB901F76D2012A26
:1009B00074D10F4C642505FB03F3E05C00F04CFDA3
:1009C0000D4B197805FB0144022363701648013171
:1009D00010F03CFD1FA8052101226A2306F0A6FEA7
:1009E000124B18701D46DFF848A0DFF8049052E063
:1009F000B4030010907E010000030010AC7E0100E3
:100A00001C140010E4100010E8020010821B0010FB
:100A1000D47E0100FC7E0100087F0100347F0100CC
:100A20005C7F0100D34D6210847F0100EC02001056
:100A3000887E0100DFF84CB39BF80030642404FB8F
:100A400003F31CA8514619F8032006F0B1FE014635
:100A50009BF8003004FB03933AAC20465A7807F029
:100A60008BF92B784FF0000ECDF80CE0CDF810E0AC
:100A700052AA02EB430333F8CE3C05933DAB93E817
:100A800007008DE8070094E80E00704605F084FA30
:100A90002B78013B2B702B78002BCBD1B94B1B78DB
:100AA0006421B94A01FB03221269002A5FD008467B
:100AB000B54900FB031189688A4258D2B24A00FB4B
:100AC00003225278012A52D1AF4C054600FB03F3B2
:100AD000E05C00F0C1FCAB4B197805FB0144062338
:100AE0006370AA48013110F0B1FC1FA80521012252
:100AF0006A2306F01BFEA64B18701D46DFF89CA269
:100B0000DFF8849230E0DFF87CB29BF80030642498
:100B100004FB03F31CA8514619F8032006F048FE15
:100B200001469BF8003004FB039340AC20465A7802
:100B300007F022F92B784FF0000ECDF80CE0CDF83D
:100B400010E052AA02EB430333F8CE3C059343ABCB
:100B500093E807008DE8070094E80E00704605F062
:100B60001BFA2B78013B2B702B78002BCBD1DFF8B5
:100B700014B29BF800C0DFF810924FF0640A0AFB31
:100B80000C9C0CF1180E05AC0CF13C050FCD0FC4FC
:100B90000FCD0FC42B68236000230E936C460CF11D
:100BA000280CBCE80F000FC4DCF8003023609EE87E
:100BB0000F000FF089FB04460D469BF800B00AFBBE
:100BC0000B9999F80190B9F1070F01D10024002584
:100BD000204629460022002312F08AFE002858D021
:100BE000B9F1020F40F2E880B9F1060F00F0E4809D
:100BF00068480BF1010110F029FC624B1B7864225C
:100C000002FB03F3604AD05C00F0DEFB1FA8052165
:100C100001226A2306F08AFD5D4B18701D46DFF83D
:100C20007CA1DFF8649130E0DFF858B19BF8003028
:100C3000642404FB03F31CA8514619F8032006F0B2
:100C4000B7FD01469BF8003004FB039346AC2046F9
:100C50005A7807F091F82B784FF0000ECDF80CE0A1
:100C6000CDF810E052AA02EB430333F8CE3C0593D3
:100C700049AB93E807008DE8070094E80E00704642
:100C800005F08AF92B78013B2B702B78002BCBD108
:100C900092E0204629460022002312F081FE00281F
:100CA00058D0394C642505FB0BFB04EB0B030022E9
:100CB0009A701A6114F80B0000F0CEFB314B1978D2
:100CC00005FB0144052565703348013110F0BEFB7A
:100CD0001FA8294601226A2306F028FD2C4B187014
:100CE0001D46DFF8B8A0DFF8A0902FE0DFF894B041
:100CF0009BF80030642404FB03F31CA8514619F848
:100D0000032006F055FD01469BF8003004FB0393D9
:100D10004CAC20465A7807F02FF82B784FF0000E95
:100D2000CDF80CE0CDF810E052AA02EB430333F803
:100D3000CE3C059312E907008DE8070094E80E0009
:100D4000704605F029F92B78013B2B702B78002B8E
:100D5000CCD131E00C4B642202FB0BFB03EB0B020A
:100D60000421517013F80B0000F012FB20BB054B5F
:100D70001B78642202FB03F3034AD05C00F06CFB97
:100D80001AE000BF00030010B4030010A87F0100A8
:100D9000EC020010C87F0100EC7F0100887E01009A
:100DA00064211A4A01FB03225278032A04D0174A0D
:100DB00001FB032303225A70154B1A7801321A7073
:100DC000134B1B78072B7FF67EAB12480DF06CF9A6
:100DD00020B110484EF660210DF058F9D72333802A
:100DE000002300E0012363B1832F7FF462AB002373
:100DF0003380032006E0002004E0002002E0002011
:100E000000E0012053B0BDE8F08F00BFB403001034
:100E100000030010AC1300102DE9F04704460D4606
:100E200003881BB1B3F5B97F0AD058E030481921C7
:100E30000DF002F951E04FF4B9732380002300E074
:100E40000123002B50D0882D47D129480DF004F9FB
:100E5000A8B920E0BB5D7BB919F806A0504601F0A7
:100E60007BFB58F82610084203D0504601F06CFB7B
:100E700002E0504601F060FB0136F6B205E00026C4
:100E80001C4FDFF88490DFF88480072EE2D91848E1
:100E900019210DF0D1F818480DF0DEF8E8B1174B24
:100EA0001B787BB919E019F8060058F8261001F0F4
:100EB0004BFBB85D124B53F8261001F045FB013691
:100EC000F6B205E00026DFF84890DFF848800D4FC5
:100ED000072EE8D90022094B1A70832DABD10023CD
:100EE00023800320BDE8F0870120BDE8F08700BF24
:100EF0000403001014030010D80600100E070010A1
:100F0000A880010030800100288001005880010085
:100F100078800100388001002DE9F84F0024DFF8C7
:100F200094B034E01BF804A01B4B53F824905046B7
:100F30004946012201F0F0FA184B13F80480184BCF
:100F400053F8247040463946012201F0E5FA154B6A
:100F50001E5D154B53F8245030462946012201F0FE
:100F6000DBFA124B185D124B53F82410002201F0EB
:100F7000D3FA5046494601F0E7FA4046394601F0B7
:100F8000E3FA3046294601F0DFFA0134E4B2072CD7
:100F9000C8D9BDE8F88F00BF38800100308001005B
:100FA000A880010028800100588001008080010095
:100FB000888001007880010038B5441E114B185D0F
:100FC000114B53F8241001F0BFFA104B185D104B71
:100FD00053F8241001F0B0FA0E4B185D0E4B53F885
:100FE000241001F0A9FA01230C4A13700C4A13557E
:100FF0000C4C25680C4B23600C4864210DF01CF848
:10100000256038BD30800100A88001007880010093
:101010003880010028800100588001000E07001070
:1010200014030010E410001030000010D806001067
:1010300038B5441E114B185D114B53F8241001F0C4
:1010400083FA104B185D104B53F8241001F074FA1A
:101050000E4B185D0E4B53F8241001F075FA012366
:101060000C4A13700C4A13550C4C25680C4B23602A
:101070000C4864210CF0E0FF256038BD7880010049
:101080003880010030800100A88001002880010024
:10109000588001000E07001014030010E410001027
:1010A00030000010D8060010F8B505460E46174669
:1010B000038840F2D712934200F08480B3F5EC7FAE
:1010C00004D283B1B3F5E77F4DD01DE1B3F5F47FD2
:1010D00000F0CE80B3F5F87F00F0F680B3F5F07F36
:1010E00040F012819EE0944810F0B0F90122934B39
:1010F0001A700022924B1A701C4606E0581CC0B2AF
:10110000FFF796FF2378013323702378072BF5D957
:1011100001228C4B1A700022894B1A7075E08A48A4
:10112000013110F093F9864B19786422874B02FB4A
:1011300001339B88934206D98548013110F086F926
:101140000022804B1A707E4B18780130C0B2FFF736
:1011500033FF80484FF4FA710CF06EFF4FF4E773E1
:101160002B80002300E00123002B00F0D180794880
:101170000CF072FF002800F0CD80714B19786422CA
:10118000724B02FB01339A88632A07D872480131F7
:1011900010F05CF900226B4B1A7003E06F480131CC
:1011A00010F054F9664B18780130C0B2FFF740FFD9
:1011B00068484FF448710CF03FFF40F2D7132B8082
:1011C000002300E00123002B00F0A68061480CF012
:1011D00043FF002800F0A280594B197864225B4B32
:1011E00002FB01339A88642A07D95948013110F06B
:1011F0002DF90022534B1A7003E05948013110F0C9
:1012000025F94F4B1A7801321A704D4B197807297E
:1012100085D95448013110F019F94FF4F0732B803F
:10122000002300E00123002B7AD04F4B1B789E4215
:1012300078D13B78592B05D00022424B1A704B488D
:1012400010F004F900223E4B1A7030E0484B585C15
:10125000484B53F8211001F06FF9394B1978464883
:10126000013110F0F3F84FF4F4732B80002300E009
:101270000123002B58D03C4B1B789E4256D13B7823
:10128000592B08D000222F4B1A702D4B19783B4850
:10129000013110F0DBF82A4C2378354AD05C354A0E
:1012A00052F8231001F050F9237801332370244BB6
:1012B00019780729CAD93248013110F0C7F84FF41C
:1012C000F8732B80002300E00123002B30D0264B45
:1012D0001B789E422ED13B78592B08D00022194B07
:1012E0001A70174B19782748013110F0AFF8154BD9
:1012F0001B781BB1244810F0A9F802E0234810F035
:10130000A5F800220D4B1A7000232B800320F8BD96
:101310000120F8BD0120F8BD0120F8BD0120F8BD75
:101320000120F8BD0120F8BD0120F8BD0120F8BD65
:101330000120F8BD0120F8BDC88001009003001015
:101340001C030010D4060010D8800100B403001064
:10135000EC800100E80600101081010034810100DA
:101360005C81010084810100D4130010A081010080
:101370002880010058800100BC810100D881010053
:10138000F88101001C8201003C82010054820100AE
:1013900030B4014688B10023094C64200AE01D46A0
:1013A00000FB03F2A25C8A4202D1064B585D05E0C5
:1013B0000133DBB2072BF2D900E0002030BC7047CC
:1013C000B4030010140300102DE9F0438DB005465E
:1013D000002838D000241D4EDFF878801C4F30E004
:1013E000642303FB04F3F35CAB4228D10DF118092D
:1013F000B8F800102944484689B2012206F05EFC84
:101400004FF0000ECDF80CE0CDF810E0CDF814E070
:101410000CAB13E907008DE8070099E80E00704651
:1014200004F0BAFD642303FB046301225A70A01880
:10143000C0B2FFF7C1FD3846294610F007F8013465
:10144000E4B2072CCCD90DB0BDE8F083B403001092
:101450006C820100600700102DE9F0478CB0054652
:10146000002837D000241D4EDFF878801C4F2FE075
:10147000642303FB04F3F35CAB4227D10DF1180A9C
:10148000B8F800102944504689B206F037FC4FF0F6
:101490000009CDF80C90CDF81090CDF814900CAB5D
:1014A00013E907008DE807009AE80E00484604F0AB
:1014B00073FD642303FB046383F80190601CC0B2D6
:1014C000FFF7B6FD384629460FF0C0FF0134E4B2FD
:1014D000072CCDD90CB0BDE8F08700BFB4030010D5
:1014E00088820100600700102DE9F04182B0FFF70B
:1014F00013FD5A480DF07CFB0CF0E4FD584B1870BE
:101500000CF0E0FD574B1870574800210CF060FFBD
:10151000564800210CF05CFF02268DF803604FF066
:1015200000088DF804808DF800808DF802608DF839
:101530000160684601F066F803278DF8017068467F
:1015400001F060F801248DF8024017238DF8013076
:10155000684601F057F818238DF80130684601F00D
:1015600051F819238DF80130684601F04BF81A2321
:101570008DF80130684601F045F88DF800408DF88F
:1015800002701E238DF80130684601F03BF81F23DE
:101590008DF80130684601F035F8354D28464CF29B
:1015A000503100F077FC28464146224600F096FC78
:1015B00028462146224600F091FC28463146224624
:1015C00000F08CFC28463946224600F087FC28466D
:1015D0000421224600F082FC28460521224600F024
:1015E0007DFC28460621224600F078FC284607218B
:1015F000224600F073FC28464146224600F07EFC5D
:1016000028462146224600F079FC284631462246EB
:1016100000F074FC28463946224600F06FFC28464C
:101620000421224600F06AFC28460521224600F0EB
:1016300065FC28460621224600F060FC284607216A
:10164000224600F05BFC2846214600F03DFC4FF4AA
:101650008002084B1A6002B0BDE8F081140000104F
:10166000D5130010D41300104400001030000010F7
:101670000040034000E100E02DE9F04782B0314A2C
:101680006B461068516803C34FF480022E4BC3F8B9
:1016900080212E4B1B88B3F57A7F3BD343E026464F
:1016A00002AB234413F8085C38462946012200F0B7
:1016B0003BFC60B358F824A03846294600F02EFCC5
:1016C000504439F81420801A00EBD070401048F8CC
:1016D000240064211E4B01FB04335B78012B0AD0EC
:1016E000072B08D0002803DA013A29F8142002E079
:1016F000013229F81420174D55F826A010F008FFE4
:10170000504445F82600114B1A8801321A800134E2
:10171000E4B205E00024104FDFF84880DFF848907D
:10172000072CBCD90AE00D480D4B197800220CF0AB
:10173000E9FC4FF48002044BC3F8802002B0BDE8FE
:10174000F08700BF2080010000E100E00C070010DE
:10175000B403001070030010004003404400001068
:10176000D513001094030010200000102DE9F84F4D
:101770000EF0A6FE394B1B68984203D21B1A6FEA83
:10178000030B01E0C3EB000B344B18600027DFF8BC
:10179000F09058E03E4659F82700002800DA07305C
:1017A000C01049F8260064242D4B04FB0634A3889E
:1017B000181A10F0ADFE2B4A82FB0023C017C0EBB5
:1017C000A3100130A38859F82620934202DA03447B
:1017D000A38005E06421224A01FB06221B1A9380A4
:1017E0004FF064081E4B08FB0638B8F804301E4A58
:1017F000126802FB03F31D4AA2FB03239B0CA8F80B
:1018000006300BFB03F31A4A02EBC60ADAE900457D
:10181000E41845F1000520462946164A002311F038
:1018200011FCD8F808301844C8F8080020462946AA
:10183000104A002311F006FCCAE90023002349F8EE
:1018400026300137FFB2072FA4D900220A4B1A8095
:101850004FF48002094B1A60BDE8F88FF8060010BB
:10186000B40300101F85EB516C00001083DE1B4396
:1018700020070010407E05000C07001000E100E08A
:10188000700300102DE9F04F9BB004460D4603880D
:101890001BB1B3F5CB7F0BD079E041484FF47A719F
:1018A0000CF0CAFB71E04FF4CB732380002300E0FF
:1018B0000123002B6FD03B4B1B789D4201D1FFF7DA
:1018C00055FF882D61D138480CF0C6FB00283AD06E
:1018D000364B1B7893BB0026DFF8D4806427DFF8F3
:1018E000D49029E007FB06839A68DB689A4221D0EE
:1018F00007FB068ACAF80C2007A849460FF040F8F3
:101900000DF1500B5846DAF8141007AA06F0A6F9A4
:101910004FF0000ECDF80CE0CDF810E0CDF814E05B
:101920001AAB13E907008DE807009BE80E0070462C
:1019300004F032FB0136F6B2072ED3D91A4842F62C
:10194000E0610CF079FB16480CF086FBE8B1174B10
:101950001B78ABB90021DFF858A04FF06409DFF81D
:1019600058800BE009FB01A6B288F3884F1CB168D0
:101970000091404639460FF069FDF9B20729F1D9C7
:1019800007484FF47A710CF057FB832D8BD100235D
:101990002380032000E001201BB0BDE8F08F00BFD2
:1019A000FC060010D5130010100700109003001063
:1019B000B4030010A8820100BC82010030B40023EF
:1019C0000A4C64210CE01D4601FB03F2A25C82423A
:1019D00004D16420054B00FB053004E00133DBB289
:1019E000072BF0D9002030BC704700BFB4030010B3
:1019F0002DE9F0478EB080460D461E48C9892A7CE5
:101A00000FF024FD2B7C6A2B26D11EE006FB04F38D
:101A1000FA5CBAB10DF1180A5046494606F0ACF925
:101A20004FF0000ECDF80CE001230493EB890593F1
:101A300009AB93E807008DE807009AE80E007046AE
:101A400004F0AAFA0134E4B204E000240A4F642648
:101A5000DFF82890072CD9D90CAC204604F054FCB0
:101A6000404694E8060005F0E1FF40460EB0BDE8B0
:101A7000F08700BF08830100B4030010487C010018
:101A800010B50446C86C05F0CBFEC0B2FFF794FA5F
:101A9000204605F0F5FF204610BD00BF70B5054695
:101AA000C86C06F08DF9044605F08EFEC0B2FFF753
:101AB00085FF064618B9284605F0D0FE4EE02848B6
:101AC00021460FF0C3FC20462649052210F0A5FD53
:101AD00028B928462146727806F04EF93EE02046A5
:101AE00021490A2210F099FD28B928462146B278EA
:101AF00006F042F932E020461C49042210F08DFD28
:101B000028B928462146F28806F036F926E0204614
:101B100017490B2210F081FD28B928462146326969
:101B200006F02AF91AE0204612490F2210F075FD3E
:101B300028B928462146B26806F01EF90EE0204674
:101B40000D49072210F069FD28B928462146B288C0
:101B500006F012F902E0284605F080FE284670BD26
:101B600024830100887E010034830100408301004A
:101B7000488301005483010064830100F8B50446E2
:101B80000E46C86C06F01CF90546F06C06F01AF912
:101B90000646284605F018FEC0B2FFF70FFF0746BD
:101BA00018B9204605F05AFE26E0144829460FF0E1
:101BB0004DFC28461249052210F02FFDC8B9012E10
:101BC00013D1104864210CF061FA00230E4D6420FB
:101BD000012105E000FB035282F861100133DBB202
:101BE000072BF7D93878FFF7EFFB204605F048FFC1
:101BF00002E0204605F032FE2046F8BD24830100B5
:101C0000887E0100AC130010B403001070B50446C8
:101C10000D46C86C05F0F0FFC0B2FFF7CFFE0646D8
:101C200018B9204605F01AFE09E0E86C05F0E6FF59
:101C30007061012386F86030204605F021FF2046C0
:101C400070BD00BF10B50F200D4904F083FE40F2B7
:101C500085300C4904F07EFE4FF461700A4904F0AF
:101C600079FE0A4C4220214604F074FE43202146AE
:101C700004F070FEE520064904F06CFE10BD00BFC4
:101C8000815A00009D5A00007D5B0000F159000060
:101C90000D5C000010B50446144910F027FD28B172
:101CA000083010F0CDFBC0B2FFF786F9204610498E
:101CB00010F01CFD28B1093010F0C2FBC0B2FFF7D4
:101CC000B7F920460B4910F011FD18B10A48002160
:101CD0000CF07EFB2378592B01D04E2B05D1064802
:101CE000064B197822460CF00DFA10BD6C830100EA
:101CF000788301008483010058000010D413001081
:101D000000B583B00EF072FCFFF7EEFB0CF00CFD9B
:101D100006F06AF86920012104F036FB02F020FD8C
:101D20000D4B00930D480E4900220E4B0DF002FDA5
:101D30000D4B18800D4800F01DF84FF4A3700021E2
:101D40000DF07CFFC02000210DF078FF08480FF057
:101D50007DFB0CF01DFBFCE774BE01008C830100D1
:101D600094830100A8830100600700107C0000102C
:101D7000C483010010B504460B4B1868A04212D072
:101D800038B10CF03FFB084B1B68084859680FF04E
:101D90005DFB074861680FF059FB034B1C60204650
:101DA00000210CF015FB10BD64070010F483010046
:101DB0000884010038B504460D46038813B1552B3D
:101DC00025D028E017484FF4FA710CF035F9164881
:101DD00044F250610CF030F91BE0882D05D1124817
:101DE0000CF03AF908B100F025F80DF00FFF30B112
:101DF0000E48FFF7BFFF00232380022038BD0C4BA5
:101E000018680CF007FB55232380002300E0012312
:101E10002BB1832DE1D100232380032038BD012085
:101E200038BD00BF04140010F413001000000010AF
:101E3000E410001008B505480FF008FB0020012150
:101E400001F036F80A2001F055F8FEE72884010079
:101E500008B503480FF0FAFA0122024B1A7008BDC8
:101E60004484010068070010014B1878704700BFD8
:101E70006807001008B5034B1B780BB1FFF7DAFFBA
:101E800008BD00BF68070010014B1878704700BFFD
:101E90006807001038B504460D464FF48050012104
:101EA00000F0A6F800232360182000F08DF805EB61
:101EB000851505EB40006D00B0FBF5F3013B1B02FF
:101EC00043F40013236038BD036823F480330360B8
:101ED00019B1036843F480330360704710B4C368DA
:101EE000012404FA01F123EA0103C36012B1C368BB
:101EF0001943C1605DF8044B704700BF012A05D14A
:101F0000036802FA01F11943016070470368012276
:101F100002FA01F123EA010101607047103050F824
:101F20002100C0F30B107047103050F8213012B16F
:101F300003F0004301E003F080430BB10120704740
:101F40000020704710B41F2802D9A0F1200200E041
:101F500002461F2810D8124BD3F8A8410320904006
:101F600024EA0000C3F8A801D3F8A80101FA02F29C
:101F70000243C3F8A8210FE0094BD3F8AC4103207A
:101F8000904024EA0000C3F8AC01D3F8AC0101FA98
:101F900002F20243C3F8AC215DF8044B704700BF66
:101FA00000C00F401F2803D8064BD3F8A83103E028
:101FB0002038044BD3F8AC3123FA00F000F00300D2
:101FC000704700BF00C00F4010B5084B1C68FFF7FA
:101FD000E9FF032806D8DFE800F004050502082021
:101FE00000E00420B4FBF0F010BD00BF00020010C0
:101FF000012908D1094AD2F8C410094B03400B4308
:10200000C2F8C430704741B9044AD2F8C43023EA58
:102010000000034B0340C2F8C430704700C00F40BB
:10202000DEF7EFEFF0B40023124F134C134E1448B9
:1020300019460DE003EB430252023A4444F83320C0
:10204000DA00A5186E6040F8331002445160013385
:10205000032BEFD94FF0A043074AC3F80821084AE1
:10206000C3F80C210322C3F810210022C3F8182161
:10207000F0BC704700C5072078070010FF050080FE
:102080009807001030B40023114D12481946124C25
:102090000BE003EB430252022A4440F8332000EBEA
:1020A000C302516044F823100133022BF1D94FF0E1
:1020B000A043084AC3F81C21074AC3F82021022282
:1020C000C3F824210022C3F8282130BC704700BF88
:1020D00000DD0720B80700106C07001040F4807086
:1020E0004FF0A0439862D962002308494FF0A04006
:1020F00004E0426B12F0010F05D001338B42F8D996
:102100004FF0FF3070470020704700BFFFFF040012
:1021100040F480704FF0A043986201225A6200237D
:1021200009494FF0A0400AE0426B12F0010F05D1BF
:102130004FF0A04300225A62186B704701338B4264
:10214000F2D94FF0FF307047FFFF04004279037966
:1021500043EA02224FF0A0431A64C178827842EA2F
:1021600001225A644178027842EA01229A64704757
:1021700038B54FF48034012507E02846FFF7C8FF43
:1021800010F0040F03D13CB3013C002CF5D110F446
:10219000A04F0ED04FF0A0435A6842F001025A609F
:1021A000D3F8002142F48062C3F8002115229A601E
:1021B00003E012224FF0A0439A6010F4C04004D113
:1021C00000224FF0A0439A6138BD4FF480724FF067
:1021D000A0439A61002038BD4FF0FF3038BD00BFEA
:1021E00038B504460220FFF793FF05460320FFF7AA
:1021F0008FFF40EA0540234B984237D1042C38D852
:10220000DFE804F003171D22280000204FF440519E
:10221000FFF764FF4FF48034012507E02846FFF7FD
:1022200077FF10F0200F1AD134B3013C002CF5D108
:1022300015E000204FF48071FFF750FF0FE0002001
:102240000146FFF74BFF0AE000204FF40451FFF76F
:1022500045FF04E000204FF40051FFF73FFFFFF778
:1022600087FF00280BDA4FF0FF3038BD4FF0FF300A
:1022700038BD4FF0FF3038BD4FF0FF3038BD002083
:1022800038BD00BF1916220070B506464FF08040D9
:102290000121FFF7ADFE4FF0A0434FF44F421A600B
:1022A0007822C3F80021642300E0013B002BFCD11D
:1022B0004FF0A04202211160302151604FF4C06103
:1022C0005161354A1068354AA2FB0010000D3449AF
:1022D00003E0CA5C824202DA0133062BF9D90133EA
:1022E00003F00F02920042F400424FF0A0431A6242
:1022F0001A6A22F400421A6243F20F721A61122221
:10230000DA604FF41072C3F800214FF400629A6152
:10231000642300E0013B002BFCD100204FF0A043E0
:1023200098614FF40041FFF7D9FE4FF48034002547
:1023300007E02846FFF7ECFE10F4084F03D034B353
:10234000013C002CF5D13068FFF74AFF002820DB64
:102350007068FFF7FBFEFFF765FEFFF793FE4FF097
:10236000A0432622C3F800228822C3F8E42F4FF6A8
:10237000FF72C3F8E82FD3F8002142F00302C3F83C
:1023800000211A6842F001021A60012070BD00208D
:1023900070BD002070BD00BF000200106BCA5F6BF3
:1023A0005884010030B44FF0A043D3F8285141685D
:1023B0000B4B53F83520036803339B0804E00C688B
:1023C0001460013B04320431002BF8D10368013B57
:1023D00043F04043024A02EBC5056B6030BC7047D6
:1023E000B80700104FF0A043D3F818114368084A0B
:1023F00052F8311053B102680332920804E00868C1
:102400001860013A04310433002AF8D1704700BF44
:1024100078070010012907D14FF0A043D3F8E42F2B
:102420001043C3F8E40F70474FF0A043D3F8E42FF4
:1024300022EA0000C3F8E40F704700BF4FF0A0434A
:10244000D3F8E03F034205D04FF0A043C3F8E80FB4
:1024500001207047002070474FF0A043D3F81821A7
:10246000D3F814319A4201D0012070470020704700
:102470004FF0A043D3F82C21013AD3F828319342EE
:1024800001D1002070470120704700BF4FF0A043EA
:10249000D3F81821024B53F83200C0F30A007047FA
:1024A000980700104FF0A043D3F818310133042BE4
:1024B00000D100234FF0A042C2F81831704700BF8E
:1024C0004FF0A043D3F828310133032B00D1002370
:1024D0004FF0A042C2F82831704700BF042804D84A
:1024E000DFE800F00D0507090B00002070470548E4
:1024F00070470548704705487047054870470548CC
:10250000704700BF20C0092040C0092060C00920DA
:1025100080C0092000C0092038B50C461546FFF7D9
:10252000DDFF40B11DB102681443046038BD02688C
:1025300022EA0404046038BD10B50C46FFF7CEFF54
:1025400000B1846110BD00BF10B50C46FFF7C6FF97
:1025500000B1C46110BD00BF08B5FFF7BFFF08B1EF
:10256000406908BD002008BD10B40C4640000F298A
:1025700002D9A1F110040130830003F1804303F577
:102580003033610003248C40186820EA040002FA0A
:1025900001F140EA01021A605DF8044B704700BF88
:1025A00030B40C4640000F2902D9A1F110040130CB
:1025B000074B610003258D4053F8204024EA0504B1
:1025C00002FA01F144EA010243F8202030BC7047CE
:1025D00040C00240012A08D1094B02FA01F153F828
:1025E00020200A4343F820207047054B012202FABD
:1025F00001F153F8202022EA010243F8202070471D
:1026000068C0024010B5044600786178A278FFF7F0
:10261000ABFF20786178E278FFF7C2FF207861781D
:102620002279FFF7D7FF10BD10B504464FF40070B4
:102630000121FFF7DDFC0023237023722373FF22A7
:102640002274236410BD00BF012904D1037A43F032
:10265000010303727047037A03F012030372704799
:10266000CB6803F01F0380F82C300B6903F00703DD
:1026700080F830304B69C3F3080383868B6803F01E
:102680001F0380F828304B6803F03F0380F82430A4
:102690000B6803F03F0380F820308B6903F00F03D1
:1026A00080F83830CB69C3F30B038387704700BFD2
:1026B00090F82C3003F01F03CB6090F8303003F01B
:1026C00007030B61838EC3F308034B6190F8283036
:1026D00003F01F038B6090F8243003F03F034B603E
:1026E00090F8203003F03F030B6090F8383003F08F
:1026F0000F038B61838FC3F30B03CB61704700BF64
:10270000012904D1037A03F0030303727047037AAB
:1027100043F01003037270470139C1F31001012A1D
:1027200002D14FF4003300E00023194301647047E5
:10273000F8B505460C46164B984203D12A20FFF700
:1027400043FC05E0134B984221D11420FFF73CFCD9
:102750004FF0FF330026022137460CE0721C01FBCC
:1027600002F3B0FBF3F3A34205D9FF2A02D90231E9
:102770003E4600E01646A342F0D82B68DBB22B6041
:102780002B683602B6B21E432E60C9B22961F8BD6D
:10279000008008400000034038B504460D46114B48
:1027A000984205D14FF400100121FFF721FC07E00A
:1027B0000D4B984215D14FF480600121FFF718FCB2
:1027C0006A68AB681A432B691A432B6813439BB2A0
:1027D0002360EB6803F00F03636020466969FFF72D
:1027E000A7FF38BD008008400000034008B5094B32
:1027F000984205D14FF400100021FFF7F9FB08BD06
:10280000054B984204D14FF480600021FFF7F0FBA4
:1028100008BD00BF00800840000003400023436063
:102820008360034A426107220260C360036170470C
:1028300040420F00012904D1436843F00203436082
:102840007047436803F00D034360704770B5054659
:102850000F4B1C680F4BA3FB0424A4094FF080709E
:10286000B0FBF4F011F048F90646284611F044F99F
:10287000314611F049F900B1FEE7074B1A6842F002
:1028800004021A6005FB04F2013A5A6070BD00BFF1
:1028900000020010D34D621010E000E0012805D1C5
:1028A000054B1A6842F001021A607047024B1A6821
:1028B00022F001021A60704710E000E0012805D103
:1028C000054B1A6842F002021A607047024B1A6800
:1028D00022F002021A60704710E000E0024B1A6812
:1028E00022F480321A60704710E000E02DE9F04FCA
:1028F00089B007908946684B984204D10620FFF7BB
:1029000063FB80461CE0654B0798984204D1082081
:10291000FFF75AFB804613E0614B0799994204D1B7
:102920003020FFF751FB80460AE05E4B079A9A423F
:1029300004D13220FFF748FB804601E04FF0000849
:102940004FF0FF33019300200021CDE90201002167
:1029500005910691012732E0002545EA18154FEA56
:102960000874A4FB070107FB0511BA1909FB02F261
:10297000002310F067FB02460B46B0F1004F01D96F
:1029800042424B1C591EB1F5803F0BD20198824246
:1029900008D218460021CDE9020152B101920499F2
:1029A00005910696013601E000260497BE42D3D376
:1029B00002E0019205970696019A12B101370F2F96
:1029C000F2D9DDE90201014361D04FEA1810059CFC
:1029D00004FB00F02146069C2144029CA1FB042339
:1029E000039C01FB0433002110F02CFB814502D92C
:1029F000C0EB090001E0C9EB0000642303FB00F316
:102A0000B3FBF9F9B9F1020F3FD8244B079C9C4264
:102A10001CD1237B43F0800323730298020A03999D
:102A200042EA0162D2B222719DF808302370237B02
:102A300003F07F032373059C2201D2B2069C04F0AD
:102A40000F031343079CA362012021E0079C237B13
:102A500043F0800323730298020A039942EA016259
:102A6000D2B222719DF808302370237B03F07F03DC
:102A70002373069C04F00F03059C43EA0413DBB2A6
:102A8000079C84F82830012002E0002000E00020AC
:102A900009B0BDE8F08F00BF00C000400000014059
:102AA0000080094000C0094038B504460D464F4B30
:102AB000984203D108200121FFF79AFA4C4B9C421F
:102AC00003D110200121FFF793FA4A4B9C4204D115
:102AD0004FF080700121FFF78BFA474B9C4204D1E5
:102AE0004FF000700121FFF783FA414B9C4220D147
:102AF000072323720023237200E02378237D13F041
:102B0000010FFAD1802384F83030237D13F0200F99
:102B1000FBD0002384F83030636023732362237476
:102B200084F84C3084F8543084F85030237E237D70
:102B300017E0072323720023237200E02378237D0C
:102B400013F0010FFAD1802384F83030237D13F085
:102B5000200FFBD0002384F830306360237323629E
:102B6000237D254B9C4202D1002384F8243020464B
:102B70002968FFF7BBFE1E4B9C4203D1237B03F069
:102B8000C00302E0237B03F0C0036A79012A03D06B
:102B900052B1022A03D005E043F0010304E043F000
:102BA000020301E043F003032A798AB143F00801EC
:102BB000032A06D0042A07D0022A08D143F01803BA
:102BC00006E043F0280303E043F0380300E00B463F
:102BD000AA79012A01D143F00403054A944202D1A3
:102BE000DBB2237338BDDBB2237338BD00C00040B5
:102BF000000001400080094000C009404FF4165316
:102C0000036003234371002303718371704700BF86
:102C1000034B984201D1017070470170704700BFAB
:102C200000000140044B984202D10078C0B27047C6
:102C30000078C0B2704700BF000001402DE9F047A6
:102C400007461446012B1CD000264FF0100933E034
:102C500033B1013B00E04B463A7D12F0200FF7D034
:102C600063B3454609E001F1010A38460978FFF7E8
:102C7000CFFF013D013C013651463DB1002CF2D160
:102C800004E000264FF480394FF01008002CE2D108
:102C900014E03B7D13F0200F10D04D4609E001F108
:102CA000010838460978FFF7B3FF013C013D0136C2
:102CB00041460DB1002CF2D1002CEAD13046BDE8DE
:102CC000F08700BF062905D8DFE801F01406080ADE
:102CD0000C0E110000230EE002230CE004230AE096
:102CE000082308E0802306E04FF4807303E04FF4EC
:102CF000007300E00123012A0AD1104A904203D157
:102D0000426813434360704742681343436070470F
:102D10000A4A904208D1426822EA030323F0700372
:102D20009B059B0D43607047426822EA030323F032
:102D3000F8039B059B0D4360704700BF00000140F6
:102D4000044B984202D1187DC0B27047007DC0B2DA
:102D5000704700BF00000140806820F0300080050F
:102D6000800D7047CB78012B09D013B1022B02D014
:102D700003E0012304E0812302E0C12300E04123BA
:102D80004A78012A01D143F004030A78012A01D1CB
:102D900043F002038A78012A01D143F00803054A6F
:102DA000904203D103F0CF030372704703F0CF03C7
:102DB000037270470000014000238370C370012339
:102DC00003704370704700BF012910D10F4B984228
:102DD00006D190F8303043F0800380F830307047EF
:102DE00090F8303043F0800380F830307047074B64
:102DF000984205D190F83030002380F83030704789
:102E000090F83030002380F83030704700000140E7
:102E100010B510B1012809D040E021F00301FE29CE
:102E20003ED94FF080435960012010BD1E4B1B68F6
:102E30009C081E4AA2FB0404A40C890801FB04F4AC
:102E4000FE2C08D900200146FFF77CF84FF08043A4
:102E50005C60012010BD5C08144AA2FB0404A40CB1
:102E600004FB01F4FE2C08D900200221FFF76AF8C8
:102E70004FF080435C60012010BD0C4CA4FB032488
:102E8000A40C04FB01F4FE2C0CD900200121FFF757
:102E900059F84FF080435C60012010BD002010BD48
:102EA000002010BD002010BD0002001083DE1B4377
:102EB00038B505460C4600200146FFF743F84FF0B1
:102EC00080431A6922F003021A611A6915431D61D1
:102ED000012C03D11A7842F002021A7038BD00BFEB
:102EE00072B64FF08043AA221A7255221A7262B645
:102EF000704700BF10B501464FF08044206900F0D4
:102F00000300FFF785FF237843F001032370FFF7E9
:102F1000E7FF10BD08B501204FF400010246FFF79E
:102F2000FBFA01204FF480010246FFF7F5FA08BDD5
:102F300008B528B101204FF40001FFF7FDFA08BDE4
:102F400001204FF40001FFF7FFFA08BD08B528B1D2
:102F500001204FF48001FFF7EFFA08BD01204FF484
:102F60008001FFF7F1FA08BD2DE9F0419AB007465C
:102F70008846038813B1412B7DD081E002204FF4B5
:102F800000510122FFF7C8FA02204FF40051FFF769
:102F9000D3FA00F091F800286FD03D480EF056FAB1
:102FA0000BF0C2FB04F020FF06AE3046002105F016
:102FB000A3FE6C460AAD0FCD0FC495E8030084E86C
:102FC000030096E80F0004F035FF324C0BF0E0F9F7
:102FD000236801332360FFF783FF2068C0F30040BC
:102FE00000F07AF8F2E700F067F800B32A480BF037
:102FF0005BF8A8B110AE3046002105F07DFE6C46AE
:1030000014AD0FCD0FC495E8030084E8030096E8E3
:103010000F0004F00FFF2048C8210BF037F806E03E
:10302000012000F059F81C4864210BF02FF8194AD0
:1030300013680133136042F21072934203D81748A9
:103040000BF032F878B1FFF74BFF154B187880F092
:1030500001001870FFF76CFF00220E4B1A600F483A
:1030600064210BF013F80F4B18680BF0D3F94123D0
:103070003B80002300E0012333B1B8F1830FB2D1CC
:1030800000233B80032000E001201AB0BDE8F0815E
:1030900060840100D4070010E0070010D80700107A
:1030A000D0070010E410001008B5024800210BF012
:1030B0008FF908BD9000001008B502204FF40051B0
:1030C0000022FFF729FA0220FFF746FA10F4005F0A
:1030D00014BF0020012008BD10B5044602204FF4A3
:1030E00000510122FFF718FA2CB102204FF40051D1
:1030F000FFF722FA10BD02204FF40051FFF724FA27
:1031000010BD00BF2DE9F00FD0B00F23EC460FE04B
:1031100051F8042B4FEA322404F0FF244FEA3262C4
:1031200002F0FF122243CCF80020013B0CF1040C0A
:10313000002BEDDA3F236D4602AC08A90DAA0FE083
:1031400017680E687740266877402E687E404FEA01
:10315000F6764CF8046B013B043504340431043238
:10316000002BEDDA8468C5680269416982EA010AC8
:103170000AEA050A8AEA010A0AEBF46A83699A44B0
:10318000009B9A44EC4B9A444FEAB50882EA080740
:103190002740574007EBFA670F44019E3E44F7185B
:1031A0004FEAB40988EA090C0AEA0C0C88EA0C0C0C
:1031B0000CEBF76C9444029E664406EB030C4FEA5A
:1031C000BA0A89EA0A063E4089EA060606EBFC6668
:1031D000B044039E464406EB03084FEAB7078AEA69
:1031E00007060CEA06068AEA060606EBF866B1440C
:1031F000049E4E4406EB03094FEABC0C87EA0C061A
:1032000008EA06067E4006EBF966B244059E56447F
:1032100006EB030A4FEAB8088CEA080609EA060634
:103220008CEA060606EBFA663744069E3E44F7181B
:103230004FEAB90988EA09060AEA060688EA060694
:1032400006EBF766B444079E664406EB030C4FEAB0
:10325000BA0A89EA0A063E4089EA060606EBFC66D7
:10326000B044089E464406EB03084FEAB7078AEAD3
:1032700007060CEA06068AEA060606EBF866B1447B
:10328000099E4E4406EB03094FEABC0C87EA0C0684
:1032900008EA06067E4006EBF966B2440A9E5644EA
:1032A00006EB030A4FEAB8088CEA080609EA0606A4
:1032B0008CEA060606EBFA6637440B9E3E44F71886
:1032C0004FEAB90988EA09060AEA060688EA060604
:1032D00006EBF766B4440C9E664406EB030C4FEA1B
:1032E000BA0A89EA0A063E4089EA060606EBFC6647
:1032F000B0440D9E464406EB03084FEAB7078AEA3E
:1033000007060CEA06068AEA060606EBF866B144EA
:103310000E9E4E4406EB03094FEABC0C87EA0C06EE
:1033200008EA06067E4006EBF966B2440F9E564454
:1033300006EB030A4FEAB8088CEA080609EA060613
:103340008CEA060606EBFA663744109E3E44F718F0
:103350004FEAB90988EA09060AEA060688EA060673
:1033600006EBF766B444119E664406EB030C4FEA85
:10337000BA0A89EA0A063E4089EA060606EBFC66B6
:10338000B044129E464406EB03084FEAB7078AEAA8
:1033900007060CEA06068AEA060606EBF866B1445A
:1033A000139E4E4406EB03094FEABC0C88EA0C035B
:1033B0007B4003EBF9639A44149E56445F4B1E44D2
:1033C0004FEAB80889EA080A8CEA0A0A0AEBF66AA0
:1033D000BA44159F574407EB030A4FEAB90986EA36
:1033E000090788EA070707EBFA67BC44169F67449A
:1033F00007EB030C4FEAB6068AEA060789EA0707D5
:1034000007EBFC67B844179F474407EB03084FEAF4
:10341000BA0A8CEA0A07774007EBF867B944189FA5
:103420004F4407EB03094FEABC0C88EA0C078AEA11
:10343000070707EBF9673E44199F37441F444FEADB
:10344000B80889EA08068CEA060606EBF766B24475
:103450001A9E564406EB030A4FEAB90987EA0906A1
:1034600088EA060606EBFA66B4441B9E664406EB41
:10347000030C4FEAB7078AEA070689EA060606EB55
:10348000FC66B0441C9E464406EB03084FEABA0AA9
:103490008CEA0A067E4006EBF866B1441D9E4E4457
:1034A00006EB03094FEABC0C88EA0C068AEA06061A
:1034B00006EBF96637441E9E3E44F7184FEAB808FB
:1034C00089EA08068CEA060606EBF766B2441F9EF8
:1034D000564406EB030A4FEAB90987EA090688EA67
:1034E000060606EBFA66B444209E664406EB030C1F
:1034F0004FEAB7078AEA070689EA060606EBFC6682
:10350000B044219E464406EB03084FEABA0A8CEA0F
:103510000A067E4006EBF866B144229E4E4406EB56
:1035200003094FEABC0C88EA0C068AEA060606EB99
:10353000F966374404E000BF9979825AA1EBD96E4D
:10354000239E3E44F7184FEAB80889EA08068CEA39
:10355000060606EBF766B244249E564406EB030AC1
:103560004FEAB90987EA090688EA060606EBFA6611
:10357000B444259E664406EB030C4FEAB7078AEA7B
:10358000070689EA060606EBFC66B044269E46441A
:1035900006EB03084FEABA0A8CEA0A067E4006EBFD
:1035A000F866B144279E4E4406EB03094FEABC0C73
:1035B0004AEA0C0608EA06060AEA0C03334303EB60
:1035C000F9631F44289E3E44ED4BF7184FEAB808B4
:1035D0004CEA080B09EA0B0B0CEA08064BEA060654
:1035E00006EBF766B244299E564406EB030A4FEAFF
:1035F000B90948EA090B07EA0B0B08EA09064BEA86
:10360000060606EBFA66B4442A9E664406EB030CF3
:103610004FEAB70749EA070B0AEA0B0B09EA070664
:103620004BEA060606EBFC66B0442B9E464406EBCE
:1036300003084FEABA0A47EA0A0B0CEA0B0B07EA3F
:103640000A064BEA060606EBF866B1442C9E4E4489
:1036500006EB03094FEABC0C4AEA0C0B08EA0B0B19
:103660000AEA0C064BEA060606EBF96637442D9E7D
:103670003E44F7184FEAB8084CEA080B09EA0B0B6E
:103680000CEA08064BEA060606EBF766B2442E9EE5
:10369000564406EB030A4FEAB90948EA090B07EA60
:1036A0000B0B08EA09064BEA060606EBFA66B44479
:1036B0002F9E664406EB030C4FEAB70749EA070B57
:1036C0000AEA0B0B09EA07064BEA060606EBFC665C
:1036D000B044309E464406EB03084FEABA0A47EA74
:1036E0000A0B0CEA0B0B07EA0A064BEA060606EB86
:1036F000F866B144319E4E4406EB03094FEABC0C18
:103700004AEA0C0B08EA0B0B0AEA0C064BEA06061F
:1037100006EBF9663744329E3E44F7184FEAB80884
:103720004CEA080B09EA0B0B0CEA08064BEA060602
:1037300006EBF766B244339E564406EB030A4FEAA3
:10374000B90948EA090B07EA0B0B08EA09064BEA34
:10375000060606EBFA66B444349E664406EB030C98
:103760004FEAB70749EA070B0AEA0B0B09EA070613
:103770004BEA060606EBFC66B044359E464406EB73
:1037800003084FEABA0A47EA0A0B0CEA0B0B07EAEE
:103790000A064BEA060606EBF866B144369E4E442E
:1037A00006EB03094FEABC0C4AEA0C0B08EA0B0BC8
:1037B0000AEA0C064BEA060606EBF9663744379E22
:1037C0003E44F7184FEAB8084CEA080B09EA0B0B1D
:1037D0000CEA08064BEA060606EBF766B244389E8A
:1037E000564406EB030A4FEAB90948EA090B07EA0F
:1037F0000B0B08EA09064BEA060606EBFA66B44428
:10380000399E664406EB030C4FEAB70749EA070BFB
:103810000AEA0B0B09EA07064BEA060606EBFC660A
:10382000B0443A9E464406EB03084FEABA0A47EA18
:103830000A0B0CEA0B0B07EA0A064BEA060606EB34
:10384000F866B1443B9E4E4406EB03094FEABC0CBC
:1038500088EA0C038AEA030303EBF9631F443C9EE6
:103860003E44484BF7184FEAB80889EA08068CEA44
:10387000060606EBF766B2443D9E564406EB030A85
:103880004FEAB90987EA090688EA060606EBFA66EE
:10389000B4443E9E664406EB030C4FEAB7078AEA3F
:1038A000070689EA060606EBFC66B0443F9E4644DE
:1038B00006EB03084FEABA0A8CEA0A067E4006EBDA
:1038C000F866B144409E4E4406EB03094FEABC0C37
:1038D00088EA0C068AEA060606EBF9663744419E3A
:1038E0003E44F7184FEAB80889EA08068CEA06064B
:1038F00006EBF766B244429E564406EB030A4FEAD3
:10390000B90987EA090688EA060606EBFA66B444AE
:10391000439E664406EB030C4FEAB7078AEA0706A4
:1039200089EA060606EBFC66B044449E464406EB74
:1039300003084FEABA0A8CEA0A067E4006EBF866EC
:10394000B144459E4E4406EB03094FEABC0C88EA9D
:103950000C068AEA060606EBF9663744469E3E44A4
:10396000F7184FEAB80889EA08068CEA060606EB5B
:10397000F766B244479E564406EB030A04E000BFD4
:10398000DCBC1B8FD6C162CA4FEAB90987EA0906B7
:1039900088EA060606EBFA66B444489E664406EBDF
:1039A000030C4FEAB7078AEA070689EA060606EB20
:1039B000FC66B044499E464406EB03084FEABA0A47
:1039C0008CEA0A067E4006EBF866B1444A9E4E44F5
:1039D00006EB03094FEABC0C88EA0C068AEA0606E5
:1039E00006EBF96637444B9E3E44F7184FEAB80899
:1039F00089EA08068CEA060606EBF766B2444C9E96
:103A0000564406EB030A4FEAB90987EA090688EA31
:103A1000060606EBFA66B4444D9E664406EB030CBC
:103A20004FEAB7078AEA070689EA060606EBFC664C
:103A3000B0444E9E46441E444FEABA0A8CEA0A0835
:103A400087EA080808EBF668C144DDF83C81C84401
:103A500043441C4484603544C56002EBBC020261EF
:103A60005144416183691F44876150B0BDE8F00F44
:103A7000704700BF10B5A0B0044668460021802200
:103A80000CF078FEA4F18000002801DDFFF7F2FFC2
:103A900020B010BD00220023C0E90023094B836041
:103AA00003F18833C36003F12943A3F59613A3F60A
:103AB0008B630361A3F188334361034B836100236C
:103AC000C361704701234567F0E1D2C32DE9F84F88
:103AD00005460F4616464FF0000800F1200BC2467F
:103AE0004FF0010921E0E869C0F14004A64200D28C
:103AF000344620302844394622460CF037FEE10097
:103B0000D5E90023521843F10003C5E90023EB690E
:103B10002344EB612744361B402B06D128465946E7
:103B2000FFF7F0FAC5F81CA0C846002EDBD1B8F1AB
:103B3000000F03D04FF4B870FFF79CFFBDE8F88F7B
:103B40002DE9F04383B081468846C369C3F178020A
:103B5000402A01D9C3F13802D9E900673C46002563
:103B60004FEA362101F0FF214FEA366606F0FF13D7
:103B700041EA03074FEA342303F0FF234FEA34649A
:103B800004F0FF141C4345EA040602AC64E9026732
:103B900048461649FFF79AFF484669460822FFF74C
:103BA00095FFB8F1000F1AD11CE0931C59F82310AF
:103BB000090E88F8001059F82310C1F3074188F85E
:103BC000011059F82310C1F3072188F8021019F8E1
:103BD000233088F8033008F10408013200E00022A5
:103BE000042AE2DD03B0BDE8F08300BF9884010041
:103BF0002DE9F0070446002800F04C81002A00F06F
:103C00004C81802905D0C02903D0B1F5807F40F0D8
:103C100047811346802903D10A20C2F8F00008E04A
:103C2000C02903D10C20C2F8F00002E00E20C2F837
:103C3000F00025786078000440EA0560A57840EA45
:103C40000520E5786840106025796079000440EA35
:103C50000560A57940EA0520E57968405060257A3D
:103C6000607A000440EA0560A57A40EA0520E57A1A
:103C700068409060257B607B000440EA0560A57B7E
:103C800040EA0520E57B6840D060802935D10021DD
:103C9000DFF83882DFF830C2884F894E894DDA6804
:103CA0001868C2F3074458F8244004F07F44604089
:103CB000C2F307245CF8244004F47F044440D0B2EB
:103CC00057F8200000F47F4984EA0904100E16F822
:103CD000209084EA090455F82100604018615C686E
:103CE000604058619C68604098614240DA610131EF
:103CF0000A2900F0D8801033D1E7257C607C0004CD
:103D000040EA0560A57C40EA0520E57C684010613A
:103D1000257D607D000440EA0560A57D40EA052020
:103D2000E57D68405061C0293BD10021DFF89CC18E
:103D3000654F624EDFF88881624D5A691868C2F398
:103D400007445CF8244004F07F446040C2F3072439
:103D500057F8244004F47F044440D0B256F82000C1
:103D600000F47F4984EA0904100E18F8209084EAD0
:103D7000090455F8210044409C6158684440DC61C6
:103D8000986844401C62D868604058620131082934
:103D900000F08B801C69604098625040D8621833F4
:103DA000CBE7257E607E000440EA0560A57E40EA00
:103DB0000520E57E68409061257F607F000440EA31
:103DC0000560A57F40EA0520E47F6040D061B1F541
:103DD000807F6CD100213D4E3B4DDFF8E0A0DFF845
:103DE000E0C0384FDA691C68C2F3074856F828006B
:103DF00000F07F4884EA0804C2F3072855F82880B9
:103E000008F47F0884EA0808D0B25AF8200000F4C9
:103E10007F4988EA0908100E1CF8209088EA0908F2
:103E200057F8210088EA000018625C686040586218
:103E30009C6860409862DC686040D8620131072964
:103E400037D04FEA106856F8289009F07F491C696E
:103E500084EA0909C0F3074855F8288008F47F0868
:103E600089EA0808C0F307295AF8299009F47F491C
:103E700088EA0908C0B21CF8200088EA000018632C
:103E80005C69604058639C69604098635040D863A7
:103E90002033A7E74FF0FF300CE04FF0FF3009E090
:103EA0006FF0010006E0002004E0002002E00020A6
:103EB00000E00020BDE8F007704700BF0096010059
:103EC000009A0100D890010000A20100009E0100AC
:103ED0002DE9F8431446FFF78BFE0028C0F2B680A8
:103EE0002346D4F8F0008000002127E053F8215049
:103EF00053F8202043F8212043F820504D1C53F85C
:103F00002570421C53F8226043F8256043F8227064
:103F10008D1C53F82570821C53F8226043F82560ED
:103F200043F82270CD1C53F82570C21C53F8226050
:103F300043F8256043F82270043104388142D5DB10
:103F40004FF001084249DFF818C1424F424E434D3D
:103F500077E053F8102F100E11F820005CF8209035
:103F6000C2F3074011F8200057F8200089EA000941
:103F7000C2F3072011F8200056F8200089EA000952
:103F8000D2B211F8222055F8220089EA00021A6004
:103F90005868020E11F822205CF82290C0F3074204
:103FA00011F8222057F8222089EA0209C0F30722DB
:103FB00011F8222056F8222089EA0202C0B211F834
:103FC000200055F8200042405A609868020E11F80F
:103FD00022205CF82290C0F3074211F8222057F803
:103FE000222089EA0209C0F3072211F8222056F89C
:103FF000222089EA0202C0B211F8200055F8200000
:1040000042409A60D868020E11F822205CF8229093
:10401000C0F3074211F8222057F8222089EA02094A
:10402000C0F3072211F8222056F8222089EA020262
:10403000C0B211F8200055F820004240DA6008F1C3
:104040000108D4F8F020424583DC0020BDE8F88365
:10405000009A0100D88C0100D88401000091010071
:10406000D88801002DE9F00F82B00191037890F813
:1040700001A04FEA0A4A4AEA036A83784AEA032A15
:10408000C3788AEA030A13688AEA030A037990F874
:1040900005904FEA094949EA0369837949EA032906
:1040A000C37989EA0309536889EA0309037A90F816
:1040B00009804FEA084848EA0368837A48EA0328F7
:1040C000C37A88EA0308936888EA0308037B477B7E
:1040D0003F0447EA0367837B47EA0327C37B5F40CC
:1040E000D3685F40D2F8F0305B100093BC4CBD4801
:1040F000BD49BE4B4FEA1A6554F82560C9F3074520
:1041000050F8255086EA050BC8F3072551F82550CD
:104110008BEA050BFDB253F825508BEA050B1569A8
:104120008BEA050B4FEA196554F82560C8F307457B
:1041300050F825506E40C7F3072551F825506E40C2
:104140005FFA8AF553F825506E4055696E404FEA84
:10415000186554F825C0C7F3074550F825508CEA78
:10416000050CCAF3072551F825508CEA050C5FFAB7
:1041700089F553F825508CEA050C95698CEA0505FC
:104180003F0E54F82770CAF3074A50F82AC087EA4E
:104190000C0CC9F3072951F829708CEA070C5FFA57
:1041A00088F853F828708CEA070CD7698CEA070C5A
:1041B0002032009F013F00975DD04FEA1B6754F803
:1041C00027A0C6F3074750F827708AEA070AC5F305
:1041D000072751F827708AEA070A5FFA8CF753F825
:1041E00027708AEA070A17688AEA070A370E54F81E
:1041F0002790C5F3074750F8277089EA0709CCF3E1
:10420000072751F8277089EA07095FFA8BF753F8F7
:10421000277089EA0709576889EA07092F0E54F8B9
:104220002780CCF3074750F8277088EA0708CBF3BC
:10423000072751F8277088EA0708F7B253F8277064
:1042400088EA0708976888EA07084FEA1C6C54F860
:104250002C70CBF3074B50F82BC087EA0C07C6F342
:10426000072651F826607740EDB253F825506F408D
:10427000D5686F403EE74FEA1B635B4F57F823302A
:1042800003F07F48C6F30743584C54F8233003F437
:104290007F0388EA0308C5F30723514850F8233009
:1042A00003F47F4388EA03085FFA8CF34D4911F861
:1042B000233088EA0308136888EA03034FEA136887
:1042C000DDF8049089F80080C3F3074889F801807D
:1042D000C3F3072889F8028089F80330330E57F8B2
:1042E000233003F07F48C5F3074354F8233003F429
:1042F0007F0388EA0308CCF3072350F8233003F444
:104300007F4388EA03085FFA8BF311F8233088EAC9
:104310000308536888EA03034FEA136889F80480A6
:10432000C3F3074889F80580C3F3072889F8068096
:1043300089F807302B0E57F8233003F07F48CCF371
:10434000074354F8233003F47F0388EA0308CBF3D0
:10435000072350F8233003F47F4388EA0308F3B2BD
:1043600011F8233088EA0308936888EA03034FEAC8
:10437000136889F80880C3F3074889F80980C3F3F4
:10438000072889F80A8089F80B304FEA1C6C57F827
:104390002C7007F07F47CBF3074B54F82B3003F416
:1043A0007F037B40C6F3072650F8260000F47F40C9
:1043B0004340EDB211F825104B40D26853401A0E1D
:1043C00089F80C20C3F3074289F80D20C3F30722B4
:1043D00089F80E2089F80F3002B0BDE8F00F704761
:1043E00000960100009A0100009E010000A2010059
:1043F0002DE9F00F84B00391037890F801904FEA13
:10440000094949EA0369837849EA0329C37889EAB3
:104410000309136889EA0309037990F805804FEAD4
:10442000084848EA0368837948EA0328C37988EA98
:104430000308536888EA0308037A477A3F0447EA87
:104440000367837A47EA0327C37A5F4093685F4034
:10445000037B90F80DC04FEA0C4C4CEA036C837B55
:104460004CEA032CC37B8CEA030CD3688CEA030C64
:10447000D2F8F0305B100293A24CA348A349A44B9E
:104480004FEA196554F82560CCF3074550F82550DC
:1044900086EA050AC7F3072551F825508AEA050A76
:1044A0005FFA88F553F825508AEA050A15698AEA01
:1044B000050A4FEA186554F82560C9F3074550F816
:1044C00025506E40CCF3072551F825506E40FDB2C3
:1044D00053F825506E405569754001953E0E54F8CD
:1044E00026B0C8F3074650F826608BEA060BC9F3DE
:1044F000072651F826608BEA060B5FFA8CF653F814
:1045000026608BEA060B96698BEA06064FEA1C6C5E
:1045100054F82CC0C7F3074750F827708CEA070CF3
:10452000C8F3072851F828708CEA070C5FFA89F95C
:1045300053F829708CEA070CD7698CEA070C2032F3
:10454000029D013D029562D04FEA1A6754F8279008
:10455000CCF3074750F8277089EA0709C6F3072705
:1045600051F8277089EA0709019DEFB253F82770C7
:1045700089EA0709176889EA07092F0E54F8278086
:10458000CAF3074750F8277088EA0708CCF30727D3
:1045900051F8277088EA0708F7B253F8277088EABD
:1045A0000708576888EA0708370E54F827B0C5F39C
:1045B000074750F827708BEA070BCAF3072751F813
:1045C00027708BEA070B5FFA8CF753F827708BEA9A
:1045D000070B95688BEA05074FEA1C6C54F82CC052
:1045E000C6F3074650F826608CEA060C019EC6F317
:1045F000072551F825508CEA050C5FFA8AFA53F822
:104600002A508CEA050CD5688CEA050C38E7019D28
:104610004FEA1A613F4B585CCCF30741595C0904DF
:1046200041EA0061C6F30720185C41EA0021E8B2C4
:10463000185C414010684140080E039F3870C1F378
:1046400007407870C1F30720B870F970290E585CE4
:10465000CAF30741595C090441EA0061CCF3072021
:10466000185C41EA0021F0B2185C414050684140BA
:10467000080E3871C1F307407871C1F30720B87193
:10468000F971310E585CC5F30741595C090441EAE0
:104690000061CAF30720185C41EA00215FFA8CF040
:1046A000185C414090684140080E3872C1F30740E1
:1046B0007872C1F30720B872F9724FEA1C6C13F8D4
:1046C0000C10C6F30746985D000440EA0160C5F38C
:1046D0000725595D40EA01205FFA8AFA13F80A10AB
:1046E00080EA0103D26853401A0E3A73C3F30742BB
:1046F0007A73C3F30722BA73FB7304B0BDE8F00FFB
:10470000704700BFD8880100D88C0100D884010010
:10471000009101000095010008B5012B02D1FFF7BF
:10472000A1FC08BDFFF764FE08BD00BF08B5FFF798
:104730005FFA08BD08B5FFF7CBFB08BD08B5034B12
:1047400018680349302205F0FBF808BDFC0700108B
:104750005CA70100014B1878704700BF09080010E2
:1047600008B5044B1B781BB90348002109F030FE43
:1047700008BD00BFD8130010A400001008B5084BF6
:104780001B6813B9074B1B6843B10BF09FFE044B2A
:104790001B68C01A034B1A68104408BD002008BDEE
:1047A000000800100408001030B58BB0FFF7E6FFDA
:1047B0000AAB43F8040D18460EF040F90446214BAD
:1047C0001B78A3B90BF0E2FE1F480CF03FFE6846D1
:1047D0000BF0F0FE68460BF01BFD0EF08BF8014667
:1047E0001A480CF033FE0122164B1A7028E0684676
:1047F0000BF0E0FE68460DF0C9FF099DA84211D0FC
:10480000134B1B78BBB10022114B1A7068460DF098
:10481000BDFF02460F4829460CF018FE20460BF05B
:10482000B5FE08E00A4B1B782BB90122084B1A7021
:1048300009480CF00BFE09A80EF000F90BF080FE01
:104840000BB030BD0908001000A6010014A601003D
:10485000BC00001038A601004CA6010008B50F4BA3
:104860001B7813F0020F14D00D4B1B88302B12D184
:104870000C4B1B68986A06F031F90B4B03440B4A4A
:1048800013600BF023FE0A4B1860FFF78DFF012029
:1048900008BD002008BD002008BD00BFEC1B0010B3
:1048A000E01B0010F41B00108081557C04080010F0
:1048B0000008001070B586B004460E461546038801
:1048C0008E2B2FD001D83BB1F0E0AA2B00F08480D2
:1048D000B32B00F09280E9E0002077494FF4A372F7
:1048E0000BF020F8002075494FF4A1720BF01AF874
:1048F0004FF4A17000210BF0B5F9714B0093714892
:1049000071490122714B0AF015FF714B1870714B00
:104910001B7E5BB9704B186809F07CFD8E232380E9
:10492000002300E00123002BF1D1BDE06B4B1B788D
:1049300013B1012B0BD015E0694B0093604B019331
:1049400068486049684A694B09F082FD14E0644B8D
:1049500000935B4B019363485A49654A654B09F0E4
:1049600077FD09E05E4B0093554B01935D48554937
:10497000614A624B09F06CFD614840F6B83109F0BC
:104980005BFB584805A92A4609F090FD00B305A82D
:104990004FF4F641002204F063FF5A4B186045F2D1
:1049A000C30383809DF814109DF815209DF81630E0
:1049B0009DF8170000907B2001904CF2503002903F
:1049C00051480CF043FD4E48642109F035FB10E0DE
:1049D000AA232380002300E00123002B64D0484851
:1049E00009F03AFB0028CCD03C4B1A7801321A70FF
:1049F0009CE7B3232380002300E00123002B53D046
:104A00003F4809F029FB00283ED0FFF797FE3F4BB7
:104A10001A7801321A700BF059FD10F1060F06D802
:104A20000BF054FD132802D9234B1B78A3B9C821DE
:104A3000374B1960324809F0FFFA344B1B780A2BC8
:104A400022D934480CF002FD0022304B1A70234B5F
:104A50001A7801321A7069E72D4B1B68B3F5484F7D
:104A600006D8FFF78BFE18B1294B1A6852001A605E
:104A7000124B1B781BB94FF47A72254B1A602048F1
:104A8000234B196809F0D8FA234B1B789E42B0D10A
:104A900030462946FFF7E2FE10B100220F4B1A7094
:104AA00000221A4B1A70A4E7012002E000232380A1
:104AB000032006B070BD00BF09080010BC00001044
:104AC000FCBE010058A6010068A6010074A6010002
:104AD000F8010010D8130010E4100010E8070010CF
:104AE000ACA60100241400108CA6010098A60100B9
:104AF000C4A60100D0A60100E4A60100F0A60100B2
:104B0000EC070010FC07001000A7010008080010C7
:104B1000B800001044A70100DE1B001008B506F025
:104B20003DF90348034B198800F022F9012008BD24
:104B300000EF0720E01B001008B5024809F020FB39
:104B400008BD00BFC000001008B5154800F0F2F81D
:104B500080B2144B188000B3114B9B89082B0DD1E8
:104B6000012005F041F80F4B1B88B3B106F016F990
:104B70000B480C4B198800F0FBF80EE0B3F5C16F41
:104B800008D106F097F8074B198831B1044800F0B6
:104B9000EFF802E00022034B1A80FFF7CDFF08BDBB
:104BA00000EF0720E01B001038B504460D468229AF
:104BB00001D1FFF7C9FF238813B1A42B12D01EE047
:104BC00000F02AF8114804F01FFE114809F0D8FA45
:104BD00010484FF47A7109F02FFA0EE0A4232380D5
:104BE000002300E0012373B1882D06D109484FF45A
:104BF0007A7109F021FA06F02BF8832DEED100230B
:104C00002380032038BD012038BD00BF1D8B00006C
:104C1000C00000100C08001070B58AB0414B1A7823
:104C20008DF810205A788DF811209A788DF812207E
:104C3000DA788DF813201A798DF814205B798DF8C5
:104C400015300024089401258DF81A508DF81C4069
:104C50008DF81B408DF818508DF8194006A8FDF707
:104C6000D1FC8DF8195006A8FDF7CCFC04238DF873
:104C7000193006A8FDF7C6FC08238DF8193006A8E0
:104C8000FDF7C0FC09238DF8193006A8FDF7BAFC22
:104C90000A238DF8193006A8FDF7B4FC0E238DF811
:104CA000193006A8FDF7AEFC0F238DF8193006A8C1
:104CB000FDF7A8FC10238DF8193006A8FDF7A2FC1B
:104CC00011238DF8193006A8FDF79CFC16480CF04E
:104CD000BDFB9DF810109DF811209DF812309DF835
:104CE00013609DF814509DF81500009601950290F0
:104CF0000E480CF0ABFB089404AB099308A8FDF731
:104D0000C3FA60B180202146FDF784FB084B0822DE
:104D100083F81C234FF080521A60012000E000202D
:104D20000AB070BD2C100010ACA70100C0A7010094
:104D300000E100E030B583B00446FDF78DFB98B18B
:104D4000FDF7A4FB013040F2B463984234BF05463E
:104D50001D46019402A840F8085D6846FDF742FB35
:104D6000FDF7A0FB284600E0002003B030BD00BFE7
:104D700030B583B004460D4689B1FDF779FB034693
:104D800070B140F2B4639D4294BF009500930194CA
:104D90006846FDF707FBFDF793FB012300E00123C5
:104DA000184603B030BD00BF08B50820FDF746FB2C
:104DB00008B1FFF7C1FE08BD037813F0C00F01D0A2
:104DC000013009E0013002E00130013BDBB2002B91
:104DD000FAD10378002BEFD10130704730B401399C
:104DE000002500E020460131441C2A4604E004F876
:104DF000013B0132D2B201310B782E2B01D0002BB6
:104E0000F5D102700B78002BECD1204600F8013B65
:104E100030BC704708B502460020024B197809F0F3
:104E200071F908BD281400102DE9F0475C4B1F688C
:104E3000BB7833F0010203D1FB781BB1002402E000
:104E4000002400E00124E4B2B88804F08DFE554B44
:104E50001870F88804F088FE5FFA80F8524B83F8E7
:104E6000008007F10C050022504B1A705CB14D4BCD
:104E70001B7843B9BDE8F0872846FFF79DFF051D65
:104E8000013C347000E0474E3478002CF4D1B8F186
:104E9000000F00F082803888013880B204F064FE90
:104EA000C0B2424B187044B2414E04EB440424019A
:104EB00006EB0408C0B2092802D8335D032B08D0E2
:104EC000388804F051FE01463A480CF0BFFABDE8BC
:104ED000F08708F10D09384849460CF0B7FA01236C
:104EE0003355FB7803F00F0388F80C300BF0EEFA23
:104EF0001E30C8F8040098F80C303BB1012333553C
:104F000048460021FFF786FFBDE8F0870022274BC7
:104F10001A70254E294C0E273CE02846FFF74CFF1F
:104F2000014620463A460BF021FC608804F01CFE46
:104F3000C0F30E00012821D12389B3F5806F1DD164
:104F40002388B3F5807F19D101233370042388F8B7
:104F50000030E388B4F804A003EB0A2AC8F804A0E0
:104F60000BF0B4FA5044C8F80400D4F80A00C8F8AA
:104F70000800484608F10801FFF74CFF2846FFF7F4
:104F80001BFF0546208904F0EFFD0A300544337805
:104F9000013B33703378002BBFD1BDE8F08700BFF1
:104FA000F41B0010470800104408001045080010CA
:104FB0004C080010E0A701000CA801002408001014
:104FC0002DE9F04184B000238DF80F30394D3A4F70
:104FD000192666E09DF80F4004EB4404240105EB1C
:104FE00004082B5D023BDBB2012B54D83846314616
:104FF00009F022F82B5D032B13D198F80130013B07
:10500000DBB288F80130002B45D198F8023001332B
:10501000DBB288F802300E2B3DD09B0088F80130BF
:1050200008E0032388F80030012388F801300023CA
:1050300088F80230214D2C68204600210C220BF00C
:1050400099FB9DF80F00013004F08EFD20800126B1
:10505000A6704FF48073A380286808F10D080C3007
:105060004146FFF7BBFE0023037046708370021DAC
:10507000C6702B68124908684FF4545100911946C4
:10508000D21A104B04F080FC9DF80F100E484246D7
:105090000CF0DCF90AE09DF80F300133DBB28DF83B
:1050A0000F309DF80F30DBB2092B93D904B0BDE867
:1050B000F08100BF4C08001034080010F41B0010F1
:1050C0001C080010E800001034A8010038B50446A0
:1050D0000D46038840F2BC4293421BD040F2C342CB
:1050E00093422FD0002B4FD12B4800214FF4F07268
:1050F0000BF040FB08F0E6FF284B1870284B1B7E96
:1051000063B9284B186809F085F940F2BC43238045
:10511000002300E00123002BF0D139E000200146FC
:10512000024604F09DFB204B186020480CF08EF9DD
:105130001F488821002208F0E5FF40F2C343238086
:10514000002300E001232BB3882D04D1164B1868EF
:1051500004F094FBF1E7174B1B789D42EDD1164B01
:105160001A68114B1B689A42E7D1144B1B7813F055
:10517000020F01D0FFF758FE104B1B7813F0080FF9
:10518000DBD0FFF71DFFD8E700230380032038BDE5
:10519000012038BD012038BD4C0800102814001033
:1051A000D8130010E41000101C08001064A80100BF
:1051B000D4000010DE1B0010F01B0010EC1B0010D0
:1051C00010B413E001301A46A3F16104192C01D880
:1051D000A3F120024C1C0B78A3F16101192900D81E
:1051E000203B9A4201D0D01A07E021460378002BD9
:1051F000E8D10A78002AE5D100205DF8044B704719
:105200002DE9F84380460026324B1E70324B1E704B
:10521000324B1E701D46324FDFF8B8902DE004EB84
:10522000440424013E1906F10D004146FFF7C8FF72
:1052300018B92C480CF00AF922E03B5D33B1042B7D
:105240000BD10BF043F97368984206D92B7889F893
:105250000030FF22204B1A700CE0234B1A78F378B1
:10526000D01A1D490978884204DD1B4908702B7843
:1052700089F800302B7801332B702C78092CCED98B
:10528000164B1B780A2B08D1124B1E78134B1E703D
:1052900006EB46063601124B1E44144841460CF0FC
:1052A000D5F83046002130220BF064FA06F10D00EB
:1052B000414621220DF0DBF9022333700A4B1A78A4
:1052C000F27001321A700A488821002208F01AFF91
:1052D000BDE8F88321080010480800102C0A0010CF
:1052E0004C08001080A801002008001098A80100B8
:1052F000D40000102DE9F8438046894600221E4B59
:105300001A701E461D4F30E004EB44031B01FD18CC
:10531000404605F10D01FFF753FF20BB2B78013B01
:10532000032B03D8DFE803F00B121204012012E074
:105330000BF0CCF86B6898420AD800200BE00BF019
:10534000C5F86B68984205D8032004E0042002E009
:10535000022000E00120B9F1000F0AD00835C9F899
:105360000050BDE8F883013434703478092CCBD96F
:105370000120BDE8F88300BF460800104C0800106B
:105380000068014B18607047E800001070B50446D3
:105390000D461646038813B1132B0FD034E01D4879
:1053A000062100F09BFB00F0C7FB1B4840F2DC51DC
:1053B00008F042FE13232380002300E001233BB3C7
:1053C000164B1B789D4201D0882D03D128463146CB
:1053D00000F0A6FB882DEDD10F4808F03DFE002817
:1053E000E8D00F4B1B7E002BE4D10E480CF02EF8BA
:1053F0000848062100F072FB00F09EFB064840F2D0
:10540000DC5108F019FED5E700230380032070BDAE
:10541000012070BD2C1000102C140010DE1B001099
:10542000D8130010CCA801002DE9F04182B0054648
:1054300022480CF00BF8224CE86AC4F80200286BF2
:10544000C4F80600A86BC4F80A00686BC4F80E0024
:10545000A178E2782379607900901A480BF0F6FF82
:10546000D4F80220184B1A60A179E279237A607A85
:10547000009016480BF0EAFFD4F80620144B1A608F
:10548000A17AE27A237B607B009012480BF0DEFF6A
:10549000D4F80A20104B1A60A17BE27B237C607C4D
:1054A00000900E480BF0D2FF04F10E00FFF768FFEA
:1054B0000123237602B0BDE8F08100BFE4A801001B
:1054C000D8130010F4A801006422001010A90100F4
:1054D000602200102CA90100EC21001048A9010055
:1054E00008B504480BF0B2FF0348062100F0F6FAB5
:1054F00008BD00BF64A901002C1000103523037003
:105500000123437081700330704700BF372303705D
:105510000323437001228270C37006230371053098
:10552000704700BFFF2300F8013B704710B50446E9
:10553000362300F8023B0422627002490BF016F990
:10554000A01D10BD540A001010B50446322300F807
:10555000023B0422627002490BF008F9A01D10BD45
:105560005C0A00102DE9F843044645184FF0000886
:10557000214E06F12809042738E02378332B2DD05B
:1055800006D8032B12D0062B17D0012B2BD106E007
:10559000362B1CD0FF2B2BD0352B24D114E006F159
:1055A0003000A11C3A460BF0E1F81CE006F138008F
:1055B000A11C3A460BF0DAF815E006F13400A11C04
:1055C0003A460BF0D3F80EE094F802800BE006F1B7
:1055D0002400A11C3A460BF0C9F804E04846A11C7F
:1055E0003A460BF0C3F8637802331C44AC42C4D390
:1055F0004046BDE8F88300BF300A0010F8B5044605
:10560000012303704370234E336A83700025C570F5
:105610000430214904220BF0A9F8258180276781F5
:1056200004F10C001D4904220BF0A0F804F1100055
:10563000294604220BF09EF804F1140029460422A6
:105640000BF098F804F11800294604220BF092F8A8
:1056500004F11C00F169326A0BF088F8326AA01874
:105660001C302946C2F110020BF084F804F12C0022
:10567000294640220BF07EF804F16C0029463A4698
:105680000BF078F804F1EC00054904220BF06EF8F9
:10569000F8BD00BF300A00106C0A00106422001030
:1056A0007CA9010038B50A4C25682846FFF7A6FFFB
:1056B00005F1F0000121FFF721FFFFF727FFFFF7BA
:1056C00031FF2368C11A184605F014FA38BD00BF2F
:1056D000F41B001038B50B4C25682846FFF78EFFE9
:1056E00005F1F0000321FFF709FFFFF71FFFFFF7A8
:1056F0002BFFFFF717FF2368C11A184605F0FAF9C8
:1057000038BD00BFF41B001070B5194B1E6806F1C0
:10571000F004184B1D8835443378022B1FD1301DFF
:10572000154904220BF01DFFE0B9144B06F11C00D3
:10573000D9691A6A0BF015FF60B14FF0FF3070BDE8
:105740002378352B01D1A07870BDFF2B0DD0637865
:1057500002331C44AC42F3D34FF0FF3070BD4FF026
:10576000FF3070BD4FF0FF3070BD4FF0FF3070BDA7
:10577000F41B0010E01B00106C0A0010300A00102F
:1057800010B5134B1C682378022B1AD1201D114928
:1057900004220BF0E6FEB0B90F4B04F11C00D969EE
:1057A0001A6A0BF0DEFE80B90C4804F110010422E5
:1057B0000AF0DCFF04F1F000094B1988FFF7D2FE74
:1057C00010BD002010BD002010BD002010BD00BF86
:1057D000F41B00106C0A0010300A00105C0A001064
:1057E000E01B001070B50446AF4B1B8840F2351229
:1057F00093427ED0B3F59B7F0AD240F21D129342B2
:105800002CD0B3F5917F3FD0002B40F0478112E0C0
:10581000B3F5B37F00F0D48003D8B3F59D7F7ED07D
:105820003CE1B3F5BB7F00F0FA8040F27D12934279
:1058300000F0138132E19D4B1A6801321A609A4BD5
:1058400001229A7064229A610CE0974D686804F016
:1058500015F840F21D132B80002300E00123002BDC
:1058600000F02C81924B1B789C42EED1FFF71AFF7F
:105870008D4B03F10800996908F0DEFB4FF491723B
:10588000894B1A80002300E00123002B00F01881CF
:10589000874B1B789C4214D1864B1B7813F0020F68
:1058A0000FD0FFF731FF02280BD1FFF769FF7E4BC6
:1058B00002229A707D4A11680131116064229A6156
:1058C0001BE07D4808F0C8FB0028D7D0764B9B69C9
:1058D00041F26F729342C5D85B00734A9361C1E78E
:1058E000714D686803F0CAFF40F235132B80002326
:1058F00000E00123002B00F0E5806D4B1B789C42FB
:10590000EED1FFF7E7FE684B03F10800996908F054
:1059100093FB4FF49D72644B1A80002300E0012337
:10592000002B00F0D180624B1B789C420ED1614B62
:105930001B7813F0020F09D0FFF7E6FE052805D10A
:10594000FFF71EFF0322584B9A7010E05A4808F0E8
:1059500083FB0028DDD0544B9B69B3F57A7F3FF67B
:105960006AAF514A643393619378032BC5D14E4D8E
:105970002846FFF759FD288D04F0F6F8688D04F0ED
:10598000F3F8288D04F0F0F80604688D04F0ECF8C4
:105990003044642303FB00F35B08AB6119E06FF054
:1059A00000418B4238BF19463F4D5B1AAB6105F190
:1059B000080008F041FB4FF4B3732B80002300E094
:1059C0000123002B00F082803B4808F045FB0028B3
:1059D0007ED0354B9B69002BE1D1334D288D04F0EF
:1059E000C3F8688D04F0C0F8288D04F0BDF80604F3
:1059F000688D04F0B9F83044642303FB00F35B08BE
:105A0000AB612A4B1A6801321A600BE0264D6868B8
:105A100003F034FF4FF4BB732B80002300E001231D
:105A2000002B57D0224B1B789C42EFD1FFF752FE40
:105A30001D4B9B6913F1030F01D8590801E06FF06A
:105A4000004119485B1A8361083008F0F5FA40F20A
:105A50007D12154B1A80002300E00123002B3BD060
:105A6000134B1B789C420BD1124B1B7813F0020F87
:105A700006D0FFF749FE052802D1FFF781FE76E741
:105A80000D4808F0E9FA0028E1D0074B9B69B3F50F
:105A9000967FC7D20448FFF723FDCCE60022024BD5
:105AA0001A80032070BD00BF300A00106C0A00107D
:105AB000DE1B0010EC1B0010380A0010012070BD26
:105AC000012070BD012070BD012070BD012070BD9E
:105AD000012070BD012070BD012070BD10B582B0E5
