:10000000008000104D410000F540000075640100C3
:10001000FD400000014100000541000046D6FCEF14
:100020000000000000000000000000000941000086
:100030000D4100000000000011410000296901008D
:100040001941000019410000194100001941000048
:100050001941000009660100694A0100794A01005E
:10006000894A0100194100001941000019410000AE
:100070001941000019410000194100001941000018
:100080001941000019410000194100001941000008
:1000900019410000194100001941000019410000F8
:1000A00019410000194100001941000019410000E8
:1000B00055B100001941000019410000194100002C
:1000C00019410000194100001941000068E90100D0
:1000D000000000102C03000068E9010000C00720A8
:1000E0000000000030030010A025000000C0072021
:1000F0005C710000FEE700BFFEE700BFFEE700BF47
:10010000FEE700BFFEE700BFFEE700BFFEE700BF5F
:10011000FEE700BFFEE700BFFEE700BF10B400230C
:1001200004E004680C600433043004319342F8D3D3
:100130005DF8044B704700BF00231A4602E00260DE
:10014000043304308B42FAD3704700BF38B54FF008
:1001500080531C4AAD20DE2106E013F0010F01D0D0
:10016000196000E0186001339342F6D9164B174A24
:10017000AB20BE2106E013F0010F01D0196000E0B2
:10018000186001339342F6D9114B124C07E003F18A
:100190000C05186859689A68FFF7C0FF2B46A34200
:1001A000F5D307E01C4654F8080B5968FFF7C4FF65
:1001B000234600E0084DAB42F4D312F0BFFC12F02E
:1001C00033FDFEE7FE7D001000C00720FE3D082045
:1001D000CC400000E4400000F4400000FFFFFFFFBF
:1001E000FFFFFFFFFFFFFFFFFFFFFFFFFFFFFFFF1F
:1001F000FFFFFFFFFFFFFFFFFFFFFFFFFFFFFFFF0F
:10020000FFFFFFFFFFFFFFFFFFFFFFFFFFFFFFFFFE
:10021000FFFFFFFFFFFFFFFFFFFFFFFFFFFFFFFFEE
:10022000FFFFFFFFFFFFFFFFFFFFFFFFFFFFFFFFDE
:10023000FFFFFFFFFFFFFFFFFFFFFFFFFFFFFFFFCE
:10024000FFFFFFFFFFFFFFFFFFFFFFFFFFFFFFFFBE
:10025000FFFFFFFFFFFFFFFFFFFFFFFFFFFFFFFFAE
:10026000FFFFFFFFFFFFFFFFFFFFFFFFFFFFFFFF9E
:10027000FFFFFFFFFFFFFFFFFFFFFFFFFFFFFFFF8E
:10028000FFFFFFFFFFFFFFFFFFFFFFFFFFFFFFFF7E
:10029000FFFFFFFFFFFFFFFFFFFFFFFFFFFFFFFF6E
:1002A000FFFFFFFFFFFFFFFFFFFFFFFFFFFFFFFF5E
:1002B000FFFFFFFFFFFFFFFFFFFFFFFFFFFFFFFF4E
:1002C000FFFFFFFFFFFFFFFFFFFFFFFFFFFFFFFF3E
:1002D000FFFFFFFFFFFFFFFFFFFFFFFFFFFFFFFF2E
:1002E000FFFFFFFFFFFFFFFFFFFFFFFFFFFFFFFF1E
:1002F000FFFFFFFFFFFFFFFFFFFFFFFFFFFFFFFF0E
:1003000010B584B0204B18680390002002F0A0F8CC
:100310001E4C20460621052204F04EFD20460021F9
:10032000432204F049FD204604F00EFE184B1B88C2
:100330005BB9184B1878184B197801F067F9024629
:100340000398164904F062FD13E0124B1878124B23
:10035000197801F05BF902460D4BB3F90030632BBD
:1003600001DC0F4900E00F49009103980E4904F0A9
:100370004DFD064C20460621012204F01DFD2046BD
:1003800004F0E2FD04B010BD64A00100A81000104C
:100390007C1000109A1000108900001074A0010059
:1003A00070A00100CCCD010084A001002DE9F04136
:1003B00084B0704B586803900024ADF808401422B4
:1003C000ADF80A209868019004F0DCFA6A4D2846DE
:1003D0002146432204F0F0FC284604F0B5FD674BAB
:1003E0001A68121B18BF0122654B1A70634D654FC6
:1003F000654E286801F01EFD286000284DD0037965
:10040000022B02D0062B22D042E090F814803878DC
:10041000317801F021FA034603985C49424604F022
:10042000F5FC0298019904F009FBBDF80E30143375
:10043000ADF80E30BDF80A301433ADF80A30BDF80F
:1004400006301433ADF806300134E4B220E090F801
:1004500014803878317801F01BFA034603984B4931
:10046000424604F0D3FC0298019904F0E7FABDF883
:100470000E301433ADF80E30BDF80A301433ADF839
:100480000A30BDF806301433ADF806300134E4B25A
:10049000022CAED901223A4B1A706CB9394B18783C
:1004A000394B197801F0C0F80146039804F0AEFC0E
:1004B0000298019904F0C2FA4B23ADF80A306E237A
:1004C000ADF806300298019904F098FA2A4C2046BB
:1004D0000621052204F070FC204604F035FD50236F
:1004E000ADF80E30274F284E3878317801F01AF9E0
:1004F0000146039804F08AFCFFF702FF204606211C
:10050000012204F059FC204600214C2204F054FC46
:10051000204604F019FD7123ADF80E300025ADF82A
:100520000C500120317801F019F90246039818495E
:1005300004F06CFC20462946522204F03DFC204683
:1005400004F002FDF023ADF80C303878317801F07A
:10055000F7F8024603980F4904F058FC2046294654
:10056000432204F029FC204604F0EEFC04B0BDE870
:10057000F08100BF64A00100A81000103403001037
:10058000300300109A1000108900001094A00100A0
:100590009CA00100A4A00100F8B504460D46164633
:1005A00056480FF01FFE18B1544864210FF00AFEA0
:1005B00023884C2B69D05D2B00F09480002B40F0F9
:1005C00095804E4864210FF0FDFD00224C4B1A80AF
:1005D000FFF7ECFE012004F073FD4A4840F2DC51C5
:1005E0000FF0F0FD48484FF42F710FF015FE7BE03F
:1005F00002F0A8F9454B1B789D4206D1FFF7D6FEC5
:1006000041484FF42F710FF007FE882D16D13D4859
:100610000FF0E8FD38B13E4B1B7823B100223C4B74
:100620001A70FFF7C3FE38480FF004FE30B1FFF731
:10063000BDFE35484FF42F710FF0EEFD354B1B78A2
:100640009D424BD12846314604F0A2FD074658286A
:1006500008D100252A4B1D802F4801F0EDFC258094
:100660000220F8BD562820D1254B187801F0ACFBAC
:1006700030B12A4801F0E0FC002323800220F8BDBD
:100680000022274B1A804C232380214B1878254BBE
:10069000197800F0ADFF01F021FF01282AD90022CE
:1006A000174B1A80FFF782FE16E0092814D8154868
:1006B00040F2DC510FF086FD114AB2F9003003EB35
:1006C00083035B003B449BB213801BB2B3F57A7F7C
:1006D00002DB00220A4B1A80FFF712FE5D23238003
:1006E000002300E001233BB1832D81D1002323802F
:1006F0000320F8BD0020F8BD0120F8BD380300102C
:100700007C10001048030010580300107E100010E9
:100710009A10001091110010140000102800001011
:10072000C01000108900001070B584B06E4B53F8F3
:10073000040B0025ADF80850ADF80A501868019078
:1007400004F020F90298019904F058F9674C20460A
:100750000621032204F030FB204604F0F5FB782349
:10076000ADF80C300523ADF80E30614E614B1878B2
:10077000317801F001F80146039804F047FB204668
:100780000621012204F018FB204604F0DDFB30783E
:10079000294602F045F800B30A23ADF80C301E23B9
:1007A000ADF80E3003985449012204F02FFB782352
:1007B000ADF80C302846317800F0ECFF0146039884
:1007C00004F024FB3223ADF80A30ADF8063002986D
:1007D000019904F033F9022400E00124444B187815
:1007E000012102F01DF830B30A23ADF80C30BDF83A
:1007F0000E501935ADB2ADF80E50661CF6B2039826
:100800003D49224604F002FB7823ADF80C3001206C
:10081000374B197800F0CCFF0146039804F0F6FA44
:100820001435ADB2ADF80A50ADF8065002980199F2
:1008300004F004F934462E4B1878022101F0F0FF41
:1008400030B30A23ADF80C30BDF80E501935ADB2F7
:10085000ADF80E50661CF6B203982749224604F004
:10086000D5FA7823ADF80C300220214B197800F02E
:10087000ADFF0146039804F0C9FA1435ADB2ADF8E6
:100880000A50ADF806500298019904F0D7F83446A2
:10089000174B1878032101F0C3FF18B30A23ADF8F2
:1008A0000C30BDF80E501935ADB2ADF80E500398AE
:1008B0001149224604F0AAFA7823ADF80C3003203F
:1008C0000B4B197800F090FF0146039804F09EFA54
:1008D0001435ADB2ADF80A50ADF806500298019942
:1008E00004F0ACF804B070BDB8A00100A81000106E
:1008F000890000109A100010C0A001002DE9F041FD
:1009000004460D461646038813B1562B64D067E0A3
:10091000FFF70AFF012004F0D3FB0020012103F0C0
:10092000DDFA334840F2DC510FF04CFC56E0314B1D
:100930001B789D4243D196F800802F4B18780021F8
:1009400001F06EFF50B1B8F1010F09D100222B4B1D
:100950001A702B4801F070FB022702E0012700E02B
:100960000227254B1878012101F05AFF48B147456D
:1009700005D10122214B1A70214801F05DFB01379E
:10098000FFB21D4B1878022101F04AFF48B14745DC
:1009900005D10122194B1A70194801F04DFB01379E
:1009A000FFB2154B1878032101F03AFF38B14745E3
:1009B00005D10322114B1A70114801F03DFB882D1F
:1009C00006D10B480FF00EFC10B10D4801F034FBBE
:1009D00056232380002300E0012333B1832DA6D1C9
:1009E000002323800320BDE8F0810120BDE8F081D1
:1009F000681F001091110010890000109A1000105B
:100A0000000000102DE9F04F85B002460E46824BE3
:100A100053F8040B03900021ADF808101121ADF834
:100A20000A10186801900AB103F0ACFF7B4C204615
:100A30000021432204F0C0F920460621042204F0DC
:100A4000BBF9204604F080FA3378062B3FD8DFE864
:100A500003F00404131E291E3400714B1878714BE7
:100A6000197800F0D3FD024603986F496F4BB3F934
:100A7000003004F0CBF92AE0694B1878694B1978FB
:100A800000F0CEFE0146039804F0C0F91FE0644B6D
:100A90001878644B197800F0B5FE0146039804F00D
:100AA000B5F914E05E4B18785E4B197800F0C6FE7D
:100AB0000146039804F0AAF909E0594B1878594BFC
:100AC000197800F0E5FE0146039804F09FF90298BA
:100AD000019903F0B3FF514C204600214C2204F051
:100AE0006BF9204604F030FA1423ADF80C301323D0
:100AF000ADF80E303378062B3AD8DFE803F0041F48
:100B0000040404390400464D464C2878217800F04E
:100B100099FD02460398464904F078F98C23ADF814
:100B20000C302878217800F09BFD0246039841495B
:100B300004F06CF91423ADF80C3019E0384D394C41
:100B40002878217800F07EFD02460398384904F0A9
:100B50005DF98C23ADF80C302878217800F08EFDFB
:100B600002460398334904F051F91423ADF80C30D0
:100B70007388ABB12223ADF80E30294B1878294B7E
:100B8000197800F089FD02460398294904F03EF9DE
:100B90008C23ADF80C3003982749728804F036F99D
:100BA0001423ADF80C30BDF80E700F37BFB2ADF89E
:100BB0000E70B088B0F57A7F44D2DFF86490DFF829
:100BC000648099F8000098F8001000F073FD024668
:100BD000174D0398294604F019F98C24ADF80C4000
:100BE0000398164904F012F91423ADF80C300F37AE
:100BF000ADF80E7099F8000098F8001000F068FD4C
:100C000002460398294604F001F9ADF80C40039818
:100C10000B4904F0FBF850E0D4A00100A81000102C
:100C20009A10001089000010DCA001007C10001058
:100C3000E4A001008CA00100ECA00100F4A00100E0
:100C400000A1010015F0A4F800225F4B14F0AAFDEA
:100C500004460D46DFF87CB1DFF87CA19BF800006C
:100C60009AF8001000F026FD0246DFF87091039814
:100C7000494604F0CBF84FF08C08ADF80C8003988F
:100C8000524922462B4604F0C1F81423ADF80C302B
:100C90000F37ADF80E709BF800009AF8001000F0C6
:100CA00017FD02460398494604F0B0F8ADF80C80F1
:100CB00003984749F28804F0A9F8B368F3B1142304
:100CC000ADF80C30BDF80E300F33ADF80E30414B9F
:100CD0001878414B197800F0E9FD024603983F4926
:100CE00004F094F88C23ADF80C30B3683C4AA2FBB6
:100CF000031203983B49920904F088F81423ADF8D5
:100D00000C30BDF80E300F33ADF80E30F06815F032
:100D10003FF800222C4B14F045FD04460D46DFF849
:100D2000B4802D4F98F80000397800F0CDFD0246D0
:100D300003982A4904F06AF88C23ADF80C30039824
:100D4000294922462B4604F061F86E23ADF80A309B
:100D5000ADF806300298019903F070FE7123ADF8EA
:100D60000E300023ADF80C3098F80000397800F010
:100D7000BDFC024603981D4904F048F83378012B66
:100D800015D0F023ADF80C30194C2046002152222A
:100D900004F012F8204604F0D7F898F800003978EB
:100DA00000F0B2FC02460398124904F02FF8104CF0
:100DB00020460021432203F0FFFF204604F0C4F840
:100DC00005B0BDE8F08F00BF00408F400CA10100CE
:100DD00018A101009A10001089000010E4A0010081
:100DE000D34D621020A101002CA101009CA00100A4
:100DF000A8100010A4A001002DE9F043DBB00446C8
:100E00000D461646B4480FF0EDF918B1B24864210A
:100E10000FF0D8F92388492B00F07E810ED8302BB3
:100E200000F0928003D8DBB1282B47D092E3382B17
:100E300000F0D080402B00F013818BE3802B00F07A
:100E4000378306D8522B00F0AD817A2B00F01A833D
:100E500080E3892B00F05283922B00F0768379E3B4
:100E60009D4864210FF0AEF9012001F0F1FADFF89E
:100E7000908206A8994998F8002008F029FE0146BA
:100E80000CAF384609F04AF8954BD3F8009098F823
:100E9000000000F0ABFFCDF80C9001230493059007
:100EA0000FAB93E807008DE8070097E80E000BA84A
:100EB00007F044FA40B1282323808025894B1B7812
:100EC0009D4240F04B830B960B9BB3F91030B3F56A
:100ED000617F2FD1DFF8288298F8000000F098FF9A
:100EE0000746814B18600B9809F006F8387006A881
:100EF0007E4998F8002008F0EBFD014612AF384615
:100F000009F00CF8764BD3F8009098F8000000F048
:100F10006DFFCDF80C9001230493059015AB93E879
:100F200007008DE8070097E80E000BA807F006FA07
:100F300038B90FE06E4801F07FF8002323800220CB
:100F40001FE3302323808025664B1B789D4240F0B1
:100F500007830B960B9BB3F91030B3F5617F2FD14C
:100F6000DFF89C8198F8000000F052FF07465E4BC6
:100F700018600B9808F0C0FF788006A85D4998F8C3
:100F8000002008F0A5FD014618AF384608F0C6FF5E
:100F9000534BD3F8009098F8000000F027FFCDF8ED
:100FA0000C900123049305901BAB93E807008DE898
:100FB000070097E80E000BA807F0C0F938B90FE05A
:100FC0004B4801F039F8002323800220D9E238236E
:100FD00023808025434B1B789D4240F0C3820B96B3
:100FE0000B9BB3F91030B3F5617F2FD1DFF810817F
:100FF00098F8000000F00CFF07463B4B18600B9878
:1010000008F07AFFB88006A83B4998F8002008F05D
:101010005FFD01461EAF384608F080FF304BD3F825
:10102000009098F8000000F0E1FECDF80C9001234C
:101030000493059021AB93E807008DE8070097E83B
:101040000E000BA807F07AF938B90FE0284800F035
:10105000F3FF00232380022093E240232380802596
:10106000204B1B789D4240F07F820B960B9BB3F97F
:101070001030B3F5617F45D1DFF8848098F8000027
:1010800000F0C6FE0746184B18600B9808F034FFB6
:10109000F88006A8194998F8002008F019FD0146C3
:1010A00024AF384608F03AFF0D4BD3F8009098F87B
:1010B000000000F09BFECDF80C90012304930590F6
:1010C00027AB93E807008DE8070097E80E000BA810
:1010D00007F034F9E8B925E0740300103CA10100E1
:1010E000B00D0010821500106003001044A1010033
:1010F0000000001050A1010058A1010060A10100F2
:101100007C100010B84800F097FF002323800220D5
:1011100037E2492323808025B44B1B789D4240F061
:1011200025820B960B9BB3F91030B3F5617F2FD15D
:10113000DFF8C88298F8000000F06AFE0746AC4B62
:1011400018600B9808F0D8FEB86006A8A94998F86E
:10115000002008F0BDFC01462AAF384608F0DEFE4C
:10116000A54BD3F8009098F8000000F03FFECDF8B2
:101170000C900123049305902DAB93E807008DE8B4
:10118000070097E80E000BA807F0D8F838B90FE071
:10119000954800F051FF002323800220F1E1522303
:1011A00023808025914B1B789D4240F0E1810B9676
:1011B0000B9BB3F91030B3F5617F1DD18F4B1878BD
:1011C00000F026FE80468A4F38600B9808F094FEA7
:1011D000C8F80C00002001F03BF901203968FFF746
:1011E00011FC874840F6B8310EF0ECFF85484FF40B
:1011F000FA710EF0E7FFAAE17B4800F01DFF002323
:1012000023800220BDE17F480EF0ECFF002800F0B3
:10121000C0807C484FF4FA710EF0D4FFDFF8DC8117
:1012200006A8794998F8002008F052FC01460DF113
:10123000C009484608F072FE98F8000000F0D6FD9C
:10124000002703970497059033AB93E807008DE8D8
:10125000070099E80E00384607F070F806A86B49B9
:1012600098F8002008F034FC01460DF1D8094846F2
:1012700008F054FE98F8000000F0B8FD03970497BA
:10128000059039AB93E807008DE8070099E80E0058
:10129000384607F053F806A85D4998F8002008F092
:1012A00017FC01460DF1F009484608F037FE98F8A2
:1012B000000000F09BFD0397049705903FAB93E877
:1012C00007008DE8070099E80E00384607F036F869
:1012D00006A8504998F8002008F0FAFB01460DF5E1
:1012E0008479484608F01AFE98F8000000F07EFD68
:1012F00003970497059045AB93E807008DE8070036
:1013000099E80E00384607F019F806A8424998F8FF
:10131000002008F0DDFB01460DF59079484608F005
:10132000FDFD98F8000000F061FD0397049705901B
:101330004BAB93E807008DE8070099E80E003846AC
:1013400006F0FCFF06A82B4998F8002008F0C0FB27
:1013500001460DF59C79484608F0E0FD98F800003C
:1013600000F044FD03970497059051AB93E8070004
:101370008DE8070099E80E00384606F0DFFF98F880
:10138000000000F045FD0146194B18603846FFF794
:1013900039FB224B1B789D4240F0CA8028463146DB
:1013A00003F0F6FE582806D10F4800F045FE002352
:1013B00023800220E5E0562840F0BA800C4B1B68E1
:1013C0001B780BB1022B6CD1154B009315481649B5
:1013D0000022164B10F0ACFB60B3154800F02CFE59
:1013E000002323800220CCE00000001082150010B2
:1013F000600300106CA10100B00D00107C10001003
:10140000681F0010640300103CA1010044A101000A
:1014100050A1010058A1010060A10100911100102C
:10142000B0E201007CA1010084A1010090A10100B3
:101430003C000010DFF8788106A8534998F8002096
:1014400008F046FB014654AF3846012208F02EFD55
:101450004E4BD3F8009098F8000000F0C7FCCDF890
:101460000C900123049305905AAB13E907008DE813
:10147000070097E80E000BA806F060FF38B17A234A
:1014800023808025424B1B789D4273D10B960B9B8A
:10149000B3F91030632B46D13E4B1B6801221A7002
:1014A00041E0062B1AD100223B4B1A808023238077
:1014B000DFF80081394F98F80000397800F0DAF948
:1014C000814698F80000397800F0E2F90246344885
:1014D000494601F003F8012825D84DE0032B06D139
:1014E000304800F0A9FD00232380022049E0042BAE
:1014F00019D10022284B1A8089232380DFF8B48079
:10150000264F98F80000397800F0B4F9814698F831
:101510000000397800F092F902462148494600F06F
:10152000DDFF01282AD901201A4B1968FFF76AFA52
:10153000882D06D11C480EF055FE10B11B4800F056
:101540007BFD92232380002300E00123C3B1832D80
:101550007FF459AE00232380032012E0002010E026
:1015600000200EE000200CE000200AE0002008E04F
:10157000002006E0002004E0002002E0002000E05F
:1015800001205BB0BDE8F0833CA10100B00D00106C
:101590008215001060030010C010001089000010B8
:1015A000B0A101003C000010681F001000000010F6
:1015B0007C1000109A1000100EB400B501460448CB
:1015C0009DF8042010F0E6FA5DF804EB03B07047D4
:1015D000C8A101000EB400B5014604489DF80420DE
:1015E00010F0D8FA5DF804EB03B0704734A20100A4
:1015F0000EB400B5014604489DF8042010F0CAFA64
:101600005DF804EB03B07047F0A201000EB400B522
:10161000014604489DF8042010F0BCFA5DF804EB84
:1016200003B0704710A301000EB400B50146044892
:101630009DF8042010F0AEFA5DF804EB03B070479B
:1016400020A301000EB400B5014604489DF8042013
:1016500010F0A0FA5DF804EB03B0704734A301006A
:101660000EB400B5014604489DF8042010F092FA2B
:101670005DF804EB03B070473CA301000EB400B565
:10168000014604489DF8042010F084FA5DF804EB4C
:1016900003B0704748A301000EB400B501460448EA
:1016A0009DF8042010F076FA5DF804EB03B0704763
:1016B00054A301000EB400B5014604489DF804206F
:1016C00010F068FA5DF804EB03B0704764A3010002
:1016D0000EB400B5014604489DF8042010F05AFAF3
:1016E0005DF804EB03B0704770A301000EB400B5C1
:1016F000014604489DF8042010F04CFA5DF804EB14
:1017000003B0704778A301000EB400B50146044849
:101710009DF8042010F03EFA5DF804EB03B070472A
:1017200080A301000EB400B5014604489DF80420D2
:1017300010F030FA5DF804EB03B070478CA30100A1
:101740000EB400B5014604489DF8042010F022FABA
:101750005DF804EB03B07047A8A301000EB400B518
:10176000014604489DF8042010F014FA5DF804EBDB
:1017700003B07047B4A301000EB400B5014604489D
:101780009DF8042010F006FA5DF804EB03B07047F2
:10179000C0A301000EB400B5014604489DF8042022
:1017A00010F0F8F95DF804EB03B07047D4A3010022
:1017B0000EB400B5014604489DF8042010F0EAF983
:1017C0005DF804EB03B07047DCA301000EB400B574
:1017D000014604489DF8042010F0DCF95DF804EBA4
:1017E00003B07047E8A301000EB400B501460448F9
:1017F0009DF8042010F0CEF95DF804EB03B07047BB
:10180000F4A301000EB400B5014604489DF804207D
:1018100010F0C0F95DF804EB03B0704700A40100BC
:101820000EB400B5014604489DF8042010F0B2F94A
:101830005DF804EB03B0704714A401000EB400B5CA
:10184000014604489DF8042010F0A4F95DF804EB6B
:1018500003B0704720A401000EB400B5014604484F
:101860009DF8042010F096F95DF804EB03B0704782
:101870003CA401000EB400B5014604489DF80420C4
:1018800010F088F95DF804EB03B0704768A401001C
:101890000EB400B5014604489DF8042010F07AF912
:1018A0005DF804EB03B0704780A401000EB400B5EE
:1018B000014604489DF8042010F06CF95DF804EB33
:1018C00003B0704790A401000EB400B5014604486F
:1018D0009DF8042010F05EF95DF804EB03B070474A
:1018E0009CA401000EB400B5014604489DF80420F4
:1018F00010F050F95DF804EB03B07047ACA40100A0
:101900000EB400B5014604489DF8042010F042F9D9
:101910005DF804EB03B07047C0A4010000B585B0CA
:10192000154B1868039068462021072211F08AF9A8
:1019300068465F21114B1A7811F084F93723ADF80E
:101940000E3000230E492A2008E00A78934203D281
:1019500004AA1A4402F8100C0133DBB2062BF4D9A6
:1019600000238DF80730039806496A4603F04EFAC3
:1019700005B05DF804FB00BFD0A401009003001087
:1019800088030010B4A1010000B583B07823ADF83E
:1019900004300023ADF8063002F0F4FF0A4803F0EB
:1019A000D3FA0A4B18780A4B1978FFF7A9FF0246B9
:1019B0000198084903F02AFA074803F0C5FAFFF72F
:1019C000ADFF03B05DF804FBB01000109A100010DA
:1019D00089000010D4A40100A81000102DE9F041E6
:1019E0009EB004460D4616460388512B00F02B810D
:1019F00009D8432B00F0A7804C2B00F0E780002B88
:101A000040F09D8109E05B2B00F05081662B00F0D7
:101A10009181592B40F0938138E10022AF4B1A702D
:101A2000AF480C21072211F00DF9AE4B0093AE48E0
:101A3000AE490522AE4B10F04BF8AE4B1870FFF7D5
:101A4000A3FFAD4840F6B8310EF0BCFB74E1882D21
:101A500006D1A9480EF0C6FB10B1A84800F0ECFA78
:101A6000A74B1B789D4240F03581A34840F6B83122
:101A70000EF0A8FB2846314603F08AFB58280DD10A
:101A800097480C21072211F0DDF80025934B1D70BB
:101A90009C4800F0D1FA258002205FE1562800F032
:101AA0001981FF2800F016818C4B1F78062F00F259
:101AB0001181DFF86C82022388F800302846314615
:101AC00003F066FB47447870844F3B7801333B70EA
:101AD000FFF75AFF3B78874A11788B4240F0F88035
:101AE00008F1010010F044F9002848D008F1010085
:101AF0000C21072211F0A6F800223A70824F07A8A5
:101B000082493A7807F0E4FF01460CAD28460122ED
:101B100008F0CCF97E4BD3F80080387800F066F9F5
:101B2000CDF80C800123049305900FAB93E80700D8
:101B30008DE8070095E80E00764806F0FFFB48B1F7
:101B4000432323808025744B1B789D4240F0FB800B
:101B5000704B1E606F4B1B68B3F91030632B07D1BD
:101B6000694B187800F054F96C4B1860012303702E
:101B7000644800F061FA002323800220EEE0012097
:101B800000F066FC12AF664B664A11885E4A128806
:101B90000A4492B20092384619685A68012308F044
:101BA00007F85B4B1B680393012304930023059301
:101BB00015AB93E807008DE8070097E80E0055483D
:101BC00006F0BCFB48B14C2323808025524B1B7888
:101BD0009D4240F0BA804F4B1E6000223F4B1A706E
:101BE0004C4B1B681B8A1AB22A2A47D13C480C214D
:101BF000072211F027F80022384B1A70424F07A82D
:101C000042493A7807F064FF014618AD28460122A0
:101C100008F04CF93E4BD3F80080387800F0E6F835
:101C2000CDF80C800123049305901EAB13E9070047
:101C30008DE8070095E80E00364806F07FFB40B1BE
:101C4000512323808025344B1B789D427FD1314B1B
:101C50001E60304B1B68B3F91030632B07D12A4B41
:101C6000187800F0D5F82D4B186001230370254833
:101C700000F0E2F90023238002206FE01BB22E2B3C
:101C80000FD10022284B1A8059232380274B187824
:101C9000274B1978FFF726FE00F020FC01280FD80B
:101CA00057E00022204B1A805B2323801F4B1878BB
:101CB0001F4B1978FFF78EFC00F010FC01284AD961
:101CC00007480C21072210F0BDFFFFF75DFE01E081
:101CD000FFF724FE6623238000232CE088030010F6
:101CE000E5100010B0E20100DCA40100E4A4010052
:101CF000F0A4010090030010681F00100000001005
:101D000091110010280000107C1000103CA101006F
:101D1000B00D001084030010821500108C03001019
:101D2000E410001098030010C01000109A1000106A
:101D300089000010012383B1832D7FF488AE002336
:101D4000238003200AE0002008E0002006E00020B5
:101D500004E0002002E0002000E001201EB0BDE809
:101D6000F08100BF84B010B502AC84E80F001548C4
:101D70000EF0F0FF0AE0027D9DF81C309A4203D17C
:101D8000BDF81E30C38218E00FF01EF80028F2D113
:101D900018200EF00BFF04460021182210F052FF0D
:101DA000204602A9182210F04BFF002323600323D2
:101DB0002371044821460EF0EDFFBDE8104004B049
:101DC000704700BF9403001010B5044606480EF09B
:101DD000C1FF04E0037DA34204D00EF0F5FF00280C
:101DE000F8D110BD012010BD9403001010B50446B9
:101DF00006480EF0AFFF06E0037DA34201D1C08A82
:101E000010BD0EF0E1FF0028F6D110BD94030010C4
:101E100010B5044606480EF09DFF06E0037DA34280
:101E200001D1043010BD0EF0CFFF0028F6D110BD57
:101E30009403001008B518B903480EF08BFF08BDD5
:101E40000EF0C2FF08BD00BF94030010F0B589B0CA
:101E500004460D46C86C08F04DF80646484912F095
:101E6000D9FDA0B9EB89ADF81E30E86C08F044F854
:101E70008DF81C0008AB13E903008DE8030002ABEA
:101E80000FCBFFF76FFF204607F0D4FF75E0304619
:101E900007F02AFE00286DDBC7B23846FFF794FF33
:101EA000002867D03846FFF7B3FF0746304635496C
:101EB000052212F016FEB8B93E78E86C08F01CF85E
:101EC00086420DD0E86C08F017F8C1B239702E4880
:101ED00011F024FD00202D4B197802460EF0D8F9A0
:101EE000204607F0A7FF48E0304629490A2212F0B1
:101EF000F8FD38B9E86C07F0FFFF7880204607F05E
:101F000099FF3AE030462349042212F0EAFD38B93D
:101F1000E86C07F0F1FFF880204607F08BFF2CE01B
:101F200030461D490B2212F0DCFD38B9E86C07F091
:101F3000E3FFB860204607F07DFF1EE030461749FA
:101F40000E2212F0CEFD38B9E86C07F0D5FFF8602C
:101F5000204607F06FFF10E030461149072212F0CB
:101F6000C0FD38B9E86C07F0C7FFB880204607F01D
:101F700061FF02E0204607F0FFFD204609B0F0BDFA
:101F800014A501003CA1010024A501007E10001051
:101F900044A1010058A1010060A101006CA1010051
:101FA00050A1010008B54FF46170024906F0AAFE85
:101FB00008BD00BF4D5E0000704700BF00B583B094
:101FC00010F07CFD00F0A8F80EF0A6FC07F0D4FF9E
:101FD00004F09CFD002003F01FFA6A20002106F0A7
:101FE000B7FB0E4B00930E480E4900220E4B0FF02C
:101FF0006FFD0E4B18800E4800F01EF84FF4A370D2
:10200000002110F005F9C020002110F001F9094865
:1020100011F084FC0EF082FAFCE700BFB0E2010090
:102020007CA101003CA5010050A50100980300100F
:10203000740000106CA5010010B504460B4B186825
:10204000A04212D038B10EF0A3FA084B1B68084822
:10205000596811F063FC0748616811F05FFC034B9D
:102060001C60204600210EF079FA10BD9C03001080
:102070009CA50100B0A50100014B1870704700BF7E
:10208000A003001010B51C4C204602F087FE20462D
:102090000121062202F090FE20460021432202F098
:1020A0008BFE164C204602F079FE204601210522C7
:1020B00002F082FE20460021432202F07DFE104CF9
:1020C000204602F06BFE20460121022202F074FE3F
:1020D00020460021432202F06FFE0A4C204602F007
:1020E0005DFE204601210A4602F066FE20460021E0
:1020F000432202F061FE10BDB0100010A8100010C5
:10210000A0100010B810001008B50120014902F01D
:1021100001FA08BD94A8010010B584B0374B0093B4
:10212000374838490122384B0FF002FD003018BF04
:102130000120364B187300285ED0354B1B78013BCD
:10214000032B59D8DFE803F002284E287823ADF896
:102150000C303223ADF80E302E4800210EF0FEF97F
:10216000FFF790FF02F00EFC2B4802F0EDFE039803
:102170002A492B4A02F04AFE4123ADF80E30294B82
:102180001B680093284B1B68019303982749012281
:10219000002302F03BFE2FE00024ADF80C40ADF828
:1021A0000E40234B187802F0DFFBFFF7ADFF02F083
:1021B00087F8039819491A4A02F0C4F90120214608
:1021C000224602F011F80122ADF80E20154B1B68D3
:1021D0000093154B1B68019303981449234602F0A2
:1021E000B1F909E00F4B1B680F4A126800921148C1
:1021F0000121002211F092FB04B010BDC4E20100E5
:102200007CA10100C0A50100D4A50100941100101B
:1022100089000010B8000010A8100010B4A101003F
:10222000E8A50100500000105800001014D601006D
:102230005C000010F8A50100124A13780133DBB2EC
:102240001370013B0C2B19D8DFE803F01A070E10AE
:102250001214161412100E0709000B4870470022C2
:10226000084B1A7009487047094870470948704779
:10227000094870470948704709487047094870473E
:1022800002487047B403001020A6010018A6010000
:1022900028A6010030A6010038A6010040A60100D2
:1022A00048A60100CCCD010000B583B01E4B1B78C1
:1022B000012B0ED17823ADF804303C23ADF8063065
:1022C0001A4802F041FEFFF7B7FF0146019802F0FD
:1022D0009DFD154B1B78022B0BD10423ADF8043068
:1022E0000123ADF80630FFF7A7FF0146019802F081
:1022F00029F90D4B1B78042B0BD10223ADF80430C8
:102300000123ADF80630FFF797FF0146019802F070
:1023100019F9074B1A7801321A70064819210DF085
:1023200051FF03B05DF804FB89000010B0100010ED
:10233000B5030010B803001030B583B02F4B1B78E5
:10234000012B14D17823ADF804301E23ADF80630EC
:1023500002F018FB2A4802F0F7FD2A4B1878274BA9
:102360001978FFF729F90146019802F04FFD234B38
:102370001B78022B19D10023ADF8063001F0A0FF25
:10238000204D1E4C28782178FFF716F912F084FBB7
:10239000C0F110004308ADF8043028782178FFF729
:1023A0000BF90146019802F0CDF8144B1B78042B71
:1023B00019D10023ADF8063001F082FF114D0F4C0A
:1023C00028782178FFF7F8F812F066FBC0F10C00CE
:1023D0004308ADF8043028782178FFF7EDF801467E
:1023E000019802F0AFF8054B1B78032B02D1064889
:1023F00011F094FAFFF758FF03B030BD89000010C8
:10240000B01000109A10001050A6010038B5044614
:102410000D46038813B1B02B07D010E0FFF78CFFF7
:102420000BE0B0232380002300E001235BB10748C9
:102430000DF0D8FE08B1FFF737FF832DF1D100234F
:102440002380032038BD012038BD00BFB803001031
:1024500008B520B1044800210EF080F808BD0248FC
:102460000EF096F808BD00BF6000001010B582B0F5
:102470000446174B1B78013B032B26D8DFE803F0FB
:10248000021521157823ADF804301423ADF8063079
:102490000020FFF7DDFF02F075FA0E4802F054FD50
:1024A0000198214602F0B2FC0FE00023ADF80430A1
:1024B000ADF8063001F004FF0198214602F042F821
:1024C00003E00548214611F029FA02B010BD00BF13
:1024D00089000010A81000106CA601000FB400B510
:1024E000A9B01C4B1B8813B1242B23D029E0012059
:1024F000FFF7C2FD0020FFF7ABFF174811F00EFAFF
:102500002BAB019302A896212A9A11F0D9F9134B0B
:10251000A3FB00231B09042B38BF042310486421AC
:1025200001FB03F10DF04EFE02A8FFF79FFF2422EE
:10253000084B1A800A480DF055FE30B10020FFF715
:102540009BFD0022034B1A80032029B05DF804EBA9
:1025500004B07047C010001080A60100CDCCCCCCD8
:10256000A403001010B582B00FF02CFE84B224B981
:102570000FF0D2FC0FF026FE84B2154B1B78013B06
:10258000032B22D8DFE803F002111D117823ADF8E8
:1025900004306423ADF806300E4802F0D5FC0198F3
:1025A0000D49224602F032FC0FE00023ADF8043062
:1025B0000123ADF8063001980849224601F0C2FF18
:1025C00003E00748214611F0A9F902B010BD00BF91
:1025D00089000010A8100010A0A60100B4A60100F8
:1025E000C8A6010010B586B004460023ADF8163029
:1025F000ADF81430424B1B78002B3ED0414B1B787A
:10260000042B37D8DFE803F036032733270078237D
:10261000ADF810301E23ADF8123002F0B3F93A488D
:1026200002F092FC0498394902F0F0FB384802F0BD
:102630008BFC02A806F03AF80023ADF812309DF8A2
:1026400008209DF80930BDF80A100091049831491E
:1026500002F0DCFB0EE00023ADF81030ADF81230D4
:1026600001F02EFE0498294901F06CFF02E02A488F
:1026700011F054F90022224B1A700DF1160005A931
:1026800004F074FF002831D1BDF81430642202FB3D
:1026900003F2BDF8163092FBF3F41A4B1B78013BA2
:1026A000032B2BD8DFE803F002111D117823ADF8BE
:1026B00010306423ADF81230184802F045FC04983D
:1026C0001749A2B202F0A2FB18E00023ADF81030C7
:1026D0000123ADF8123004981149A2B201F032FF83
:1026E0000CE01048A1B211F019F907E00CB9FFF79E
:1026F00039FF0D484FF4FA710DF064FD06B010BDBE
:102700008800001089000010B0100010DCA6010045
:10271000A0100010E4A60100FCA60100A810001003
:1027200014A7010028A70100D410001030B583B011
:1027300004460D4603884D2B40D0552B54D0002B1A
:1027400056D12F484FF4FA710DF03CFD2D4844F25C
:1027500050610DF037FD49E0882D0CD128480DF06F
:1027600041FD10B10020FFF73DFF274B1B78012BE7
:1027700001D1FFF799FD254B1B789D4202D1012025
:10278000FFF730FF882D05D11E480DF02BFD08B155
:1027900000F0B8F80FF024FDF0B1684605F086FFB0
:1027A0009DF8003013B19DF8013063B99DF80530F4
:1027B0004BB10022164B1A804D2323801548FFF79A
:1027C0008DFE012806D91448FFF736FC002323802C
:1027D000022012E0002010E0104B18680DF0E0FE1F
:1027E00055232380002300E001232BB1832DB3D197
:1027F00000232380032000E0012003B030BD00BF90
:10280000D4100010C410001089000010A81100108E
:10281000C01000104CA7010000000010B00D001007
:10282000F0B5ADF5177D06460F46304D8FAB95E8F8
:10283000070003C323F8022B120C1A7000238DF833
:1028400047328DF848328DF849328DF84A328DF88A
:102850004B328DF84C328DF84D328DF84E328DF86A
:102860004F328DF850328DF851328DF852328DF84A
:1028700053328DF854328BAC1C3595E80F0084E848
:102880000F00032E0ED0042E02D0022E0FD104E032
:102890008FA8174912F0A4F80DE08FA8154912F07F
:1028A0009FF808E08FA8144912F09AF803E08FA867
:1028B000124912F095F896AB03EB87078FA857F8EB
:1028C0002C1C12F08DF88FA80D4912F089F801A880
:1028D0008FA900220BF056FF20B901A80CF06CFA6A
:1028E000012000E000200DF5177DF0BD7CA7010060
:1028F000A8A70100B0A70100B8A70100BCA701006C
:10290000C4A7010008B5054811F008F8002001210E
:1029100001F0BAF90A2001F0D9F9FEE7DCA70100BD
:1029200008B5034810F0FAFF0122024B1A7008BDE7
:10293000F8A70100C8030010014B1878704700BFCA
:10294000C803001008B5034B1B780BB1FFF7DAFF83
:1029500008BD00BFC803001010B41F2802D9A0F1A1
:10296000200200E002461F2810D8124BD3F8A841DD
:102970000320904024EA0000C3F8A801D3F8A8017E
:1029800001FA02F20243C3F8A8210FE0094BD3F881
:10299000AC410320904024EA0000C3F8AC01D3F816
:1029A000AC0101FA02F20243C3F8AC215DF8044B1A
:1029B000704700BF00C00F401F2803D8064BD3F854
:1029C000A83103E02038044BD3F8AC3123FA00F0EF
:1029D00000F00300704700BF00C00F4010B5084B67
:1029E0001C68FFF7E9FF032806D8DFE800F00405BC
:1029F0000502082000E00420B4FBF0F010BD00BF89
:102A000044020010012908D1094AD2F8C410094B28
:102A100003400B43C2F8C430704741B9044AD2F8AE
:102A2000C43023EA0000034B0340C2F8C4307047AF
:102A300000C00F40DEF7EFEFF0B40023124F134C4D
:102A4000134E144819460DE003EB430252023A4478
:102A500044F83320DA00A5186E6040F833100244C1
:102A600051600133032BEFD94FF0A043074AC3F85D
:102A70000821084AC3F80C210322C3F810210022C0
:102A8000C3F81821F0BC704700C00720D80300101D
:102A9000FF050080F803001030B40023114D1248E8
:102AA0001946124C0BE003EB430252022A4440F851
:102AB000332000EBC302516044F823100133022B92
:102AC000F1D94FF0A043084AC3F81C21074AC3F8C4
:102AD00020210222C3F824210022C3F8282130BC7F
:102AE000704700BF00D8072018040010CC03001066
:102AF00040F480704FF0A0439862D96200230849E7
:102B00004FF0A04004E0426B12F0010F05D00133FA
:102B10008B42F8D94FF0FF3070470020704700BF5C
:102B2000FFFF040040F480704FF0A0439862012240
:102B30005A62002309494FF0A0400AE0426B12F0AC
:102B4000010F05D14FF0A04300225A62186B704765
:102B500001338B42F2D94FF0FF307047FFFF040082
:102B60004279037943EA02224FF0A0431A64C17804
:102B7000827842EA01225A644178027842EA0122CC
:102B80009A64704738B54FF48034012507E0284631
:102B9000FFF7C8FF10F0040F03D13CB3013C002C39
:102BA000F5D110F4A04F0ED04FF0A0435A6842F078
:102BB00001025A60D3F8002142F48062C3F8002178
:102BC00015229A6003E012224FF0A0439A6010F49D
:102BD000C04004D100224FF0A0439A6138BD4FF4A9
:102BE00080724FF0A0439A61002038BD4FF0FF3053
:102BF00038BD00BF38B504460220FFF793FF0546F5
:102C00000320FFF78FFF40EA0540234B984237D15E
:102C1000042C38D8DFE804F003171D222800002018
:102C20004FF44051FFF764FF4FF48034012507E073
:102C30002846FFF777FF10F0200F1AD134B3013C7C
:102C4000002CF5D115E000204FF48071FFF750FF04
:102C50000FE000200146FFF74BFF0AE000204FF491
:102C60000451FFF745FF04E000204FF40051FFF747
:102C70003FFFFFF787FF00280BDA4FF0FF3038BD2A
:102C80004FF0FF3038BD4FF0FF3038BD4FF0FF3010
:102C900038BD002038BD00BF1916220070B50646A9
:102CA0004FF080400121FFF7ADFE4FF0A0434FF4FD
:102CB0004F421A607822C3F80021642300E0013BF0
:102CC000002BFCD14FF0A042022111603021516055
:102CD0004FF4C0615161354A1068354AA2FB0010BB
:102CE000000D344903E0CA5C824202DA0133062B4C
:102CF000F9D9013303F00F02920042F400424FF081
:102D0000A0431A621A6A22F400421A6243F20F7256
:102D10001A611222DA604FF41072C3F800214FF4E6
:102D200000629A61642300E0013B002BFCD100208B
:102D30004FF0A04398614FF40041FFF7D9FE4FF4E4
:102D40008034002507E02846FFF7ECFE10F4084F1A
:102D500003D034B3013C002CF5D13068FFF74AFFB3
:102D6000002820DB7068FFF7FBFEFFF765FEFFF72A
:102D700093FE4FF0A0432622C3F800228822C3F816
:102D8000E42F4FF6FF72C3F8E82FD3F8002142F08A
:102D90000302C3F800211A6842F001021A60012000
:102DA00070BD002070BD002070BD00BF4402001047
:102DB0006BCA5F6B0CA8010030B44FF0A043D3F88E
:102DC000285141680B4B53F83520036803339B08A7
:102DD00004E00C681460013B04320431002BF8D18C
:102DE0000368013B43F04043024A02EBC5056B60B8
:102DF00030BC7047180400104FF0A043D3F81811EE
:102E00004368084A52F8311053B1026803329208FD
:102E100004E008681860013A04310433002AF8D14C
:102E2000704700BFD8030010012907D14FF0A0431D
:102E3000D3F8E42F1043C3F8E40F70474FF0A043DA
:102E4000D3F8E42F22EA0000C3F8E40F704700BF74
:102E50004FF0A043D3F8E03F034205D04FF0A0432A
:102E6000C3F8E80F01207047002070474FF0A043DF
:102E7000D3F81821D3F814319A4201D001207047B9
:102E8000002070474FF0A043D3F82C21013AD3F82B
:102E90002831934201D1002070470120704700BFC4
:102EA0004FF0A043D3F81821024B53F83200C0F37F
:102EB0000A007047F80300104FF0A043D3F8183110
:102EC0000133042B00D100234FF0A042C2F8183187
:102ED000704700BF4FF0A043D3F828310133032BD4
:102EE00000D100234FF0A042C2F82831704700BF44
:102EF000042804D8DFE800F00D0507090B000020C6
:102F000070470548704705487047054870470548B1
:102F100070470548704700BF20C0092040C0092005
:102F200060C0092080C0092000C0092038B50C46C7
:102F30001546FFF7DDFF40B11DB102681443046080
:102F400038BD026822EA0404046038BD10B50C469E
:102F5000FFF7CEFF00B1846110BD00BF10B50C4675
:102F6000FFF7C6FF00B1C46110BD00BF08B5FFF791
:102F7000BFFF08B1406908BD002008BD094B984259
:102F800009D003F58023984207D003F5882398429F
:102F900005D10220704700207047012070474FF094
:102FA000FF30704700C00140202303600823836185
:102FB000012302E001339BB21BB1026812F0080F3B
:102FC000F8D020238361406800F0F800704700BF0C
:102FD000036813F0200F01D02023836110230360C6
:102FE00008238361704700BF036813F0200F01D0EE
:102FF00020238361816008238361036813F0080F35
:10300000FBD0406800F0F800704700BF012A02D1F1
:103010000423036001E004238361082383610368C0
:1030200013F0080FFBD083680B70406800F0F800C5
:10303000704700BF38B504460D46114B984205D184
:103040000E20FFF7CBFCB0FBF5F012E00D4B9842E1
:1030500005D12620FFF7C2FCB0FBF5F009E00A4BD2
:10306000984205D13420FFF7B9FCB0FBF5F000E041
:103070000020430823612369C01A606138BD00BF86
:1030800000C0014000C0054000000A4038B50446B9
:103090000D46164B984208D180200121FFF7B2FC63
:1030A0000E200221FFF758FC18E0114B984209D17D
:1030B0004FF400200121FFF7A5FC26200221FFF795
:1030C0004BFC0BE00B4B98420ED14FF0806001217E
:1030D000FFF798FC34200221FFF73EFC20462946EA
:1030E000FFF7A8FF6423A36138BD00BF00C0014003
:1030F00000C0054000000A40012902D140230360BE
:103100007047402383617047B9B1194B984204D18D
:103110004FF48062174B1A607047174B984204D1E6
:103120004FF40062134B1A607047144B98421ED143
:103130004FF480520F4B1A6070470D4B984205D1E7
:103140004FF480620B4BC3F8802070470A4B9842C3
:1031500005D14FF40062074BC3F880207047074B3E
:10316000984204D14FF48052024BC3F8802070473C
:1031700000C0014000E100E000C0054000000A403E
:103180002DE9F04182B006460C460023CB608B61EE
:103190004B62002A40F0B68000230B621F46D4F831
:1031A00004802569E760A7613046FFF7FDFE082827
:1031B00009D0102807D0236A01332362E2699342C1
:1031C000EDD9606299E0A36873B3636863B3236861
:1031D0005900304601F0FE01FFF706FF18281FD006
:1031E000236A01332362E2699342D8D940F4007024
:1031F000606282E0304698F80010FFF7F5FE28285C
:1032000009D0236A01332362E2699342C7D940F4AB
:103210000070606271E008F10108E3680133E36067
:10322000E268A3689A42E5D3A368A3B1636893B147
:10323000636983B1236973B13046FFF7B5FE08288F
:1032400009D0102807D0236A01332362E269934230
:10325000A5D9606251E06369002B49D02369002B36
:1032600046D023685B0043F001013046C9B2FFF746
:10327000BBFE402836D0236A01332362E2699342C1
:103280008DD940F40070606237E0013B994210D262
:1032900030460DF107014246FFF7B8FE502819D01D
:1032A000236A01332362E26993427FF678AF60625A
:1032B00023E030460DF107013A46FFF7A7FE5828F4
:1032C00008D0236A01332362E26993427FF667AF35
:1032D000606212E09DF807302B70A3690133A3618F
:1032E000013501E04FF00108A16963699942CCD32F
:1032F0003046FFF76DFE01201DE03046FFF768FE07
:10330000002018E0012A15D1FFF738FEC0B28DF871
:1033100007000A4B43F8304003EBC00300225A6019
:103320000823B3612023336030460121FFF7ECFE10
:10333000012000E0002002B0BDE8F0813004001060
:1033400010B40C4640000F2902D9A1F1100401303D
:10335000830003F1804303F53033610003248C4084
:10336000186820EA040002FA01F140EA01021A603A
:103370005DF8044B704700BF30B40C4640000F2985
:1033800002D9A1F110040130074B610003258D40E3
:1033900053F8204024EA050402FA01F144EA01024C
:1033A00043F8202030BC704740C00240012A08D1B9
:1033B000094B02FA01F153F820200A4343F8202078
:1033C0007047054B012202FA01F153F8202022EA4E
:1033D000010243F82020704768C0024010B504463F
:1033E00000786178A278FFF7ABFF20786178E27807
:1033F000FFF7C2FF207861782279FFF7D7FF10BD71
:1034000010B504464FF400700121FFF7FBFA0023CA
:10341000237023722373FF222274236410BD00BF24
:10342000012904D1037A43F0010303727047037A40
:1034300003F0120303727047CB6803F01F0380F898
:103440002C300B6903F0070380F830304B69C3F36D
:10345000080383868B6803F01F0380F828304B68CD
:1034600003F03F0380F824300B6803F03F0380F83B
:1034700020308B6903F00F0380F83830CB69C3F339
:103480000B038387704700BF90F82C3003F01F03B5
:10349000CB6090F8303003F007030B61838EC3F3E9
:1034A00008034B6190F8283003F01F038B6090F8FD
:1034B000243003F03F034B6090F8203003F03F03CB
:1034C0000B6090F8383003F00F038B61838FC3F3E8
:1034D0000B03CB61704700BF012904D1037A03F0CD
:1034E000030303727047037A43F0100303727047BB
:1034F0000139C1F31001012A02D14FF4003300E079
:103500000023194301647047F8B505460C46164B75
:10351000984203D12A20FFF761FA05E0134B984245
:1035200021D11420FFF75AFA4FF0FF330026022171
:1035300037460CE0721C01FB02F3B0FBF3F3A3422D
:1035400005D9FF2A02D902313E4600E01646A342C1
:10355000F0D82B68DBB22B602B683602B6B21E4364
:103560002E60C9B22961F8BD008008400000034008
:1035700038B504460D46114B984205D14FF4001062
:103580000121FFF73FFA07E00D4B984215D14FF4A8
:1035900080600121FFF736FA6A68AB681A432B692D
:1035A0001A432B6813439BB22360EB6803F00F03AD
:1035B000636020466969FFF7A7FF38BD00800840B7
:1035C0000000034008B5094B984205D14FF40010A4
:1035D0000021FFF717FA08BD054B984204D14FF4BC
:1035E00080600021FFF70EFA08BD00BF0080084090
:1035F00000000340002343608360034A42610722C6
:103600000260C3600361704740420F00012904D18A
:10361000436843F0020343607047436803F00D03BF
:103620004360704770B505460F4B1C680F4BA3FBFA
:103630000424A4094FF08070B0FBF4F012F07AFC7F
:103640000646284612F076FC314612F07BFC00B1AB
:10365000FEE7074B1A6842F004021A6005FB04F209
:10366000013A5A6070BD00BF44020010D34D621091
:1036700010E000E0012805D1054B1A6842F0010274
:103680001A607047024B1A6822F001021A607047F4
:1036900010E000E0012805D1054B1A6842F0020253
:1036A0001A607047024B1A6822F002021A607047D3
:1036B00010E000E0024B1A6822F480321A60704772
:1036C00010E000E02DE9F04F89B007908946684B83
:1036D000984204D10620FFF781F980461CE0654B33
:1036E0000798984204D10820FFF778F9804613E044
:1036F000614B0799994204D13020FFF76FF980465A
:103700000AE05E4B079A9A4204D13220FFF766F92D
:10371000804601E04FF000084FF0FF330193002096
:103720000021CDE90201002105910691012732E037
:10373000002545EA18154FEA0874A4FB070107FBAA
:103740000511BA1909FB02F2002311F0CFFE02465F
:103750000B46B0F1004F01D942424B1C591EB1F546
:10376000803F0BD20198824208D218460021CDE951
:10377000020152B10192049905910696013601E0C9
:1037800000260497BE42D3D302E001920597069625
:10379000019A12B101370F2FF2D9DDE9020101437D
:1037A00061D04FEA1810059C04FB00F02146069CEE
:1037B0002144029CA1FB0423039C01FB0433002150
:1037C00011F094FE814502D9C0EB090001E0C9EB7C
:1037D0000000642303FB00F3B3FBF9F9B9F1020F16
:1037E0003FD8244B079C9C421CD1237B43F0800391
:1037F00023730298020A039942EA0162D2B222714B
:103800009DF808302370237B03F07F032373059C0E
:103810002201D2B2069C04F00F031343079CA3625B
:10382000012021E0079C237B43F08003237302984F
:10383000020A039942EA0162D2B222719DF808306D
:103840002370237B03F07F032373069C04F00F0394
:10385000059C43EA0413DBB2079C84F8283001205E
:1038600002E0002000E0002009B0BDE8F08F00BFBA
:1038700000C00040000001400080094000C0094035
:1038800038B504460D464F4B984203D1082001211C
:10389000FFF7B8F84C4B9C4203D110200121FFF7F1
:1038A000B1F84A4B9C4204D14FF080700121FFF7E0
:1038B000A9F8474B9C4204D14FF000700121FFF75B
:1038C000A1F8414B9C4220D107232372002323728D
:1038D00000E02378237D13F0010FFAD1802384F8D0
:1038E0003030237D13F0200FFBD0002384F83030DC
:1038F000636023732362237484F84C3084F854305B
:1039000084F85030237E237D17E0072323720023A1
:10391000237200E02378237D13F0010FFAD1802376
:1039200084F83030237D13F0200FFBD0002384F87F
:103930003030636023732362237D254B9C4202D188
:10394000002384F8243020462968FFF7BBFE1E4B75
:103950009C4203D1237B03F0C00302E0237B03F0EE
:10396000C0036A79012A03D052B1022A03D005E0CC
:1039700043F0010304E043F0020301E043F00303DA
:103980002A798AB143F00801032A06D0042A07D015
:10399000022A08D143F0180306E043F0280303E0AD
:1039A00043F0380300E00B46AA79012A01D143F025
:1039B0000403054A944202D1DBB2237338BDDBB263
:1039C000237338BD00C00040000001400080094062
:1039D00000C009404FF416530360032343710023D2
:1039E00003718371704700BF034B984201D101708E
:1039F00070470170704700BF00000140044B9842BF
:103A000002D10078C0B270470078C0B2704700BFE2
:103A1000000001402DE9F04707461446012B1CD059
:103A200000264FF0100933E033B1013B00E04B4674
:103A30003A7D12F0200FF7D063B3454609E001F15B
:103A4000010A38460978FFF7CFFF013D013C0136F6
:103A500051463DB1002CF2D104E000264FF48039EC
:103A60004FF01008002CE2D114E03B7D13F0200F42
:103A700010D04D4609E001F1010838460978FFF7FA
:103A8000B3FF013C013D013641460DB1002CF2D19E
:103A9000002CEAD13046BDE8F08700BF062905D8E2
:103AA000DFE801F01406080A0C0E110000230EE0F6
:103AB00002230CE004230AE0082308E0802306E048
:103AC0004FF4807303E04FF4007300E00123012AF8
:103AD0000AD1104A904203D14268134343607047B1
:103AE00042681343436070470A4A904208D14268D3
:103AF00022EA030323F070039B059B0D436070478C
:103B0000426822EA030323F0F8039B059B0D436000
:103B1000704700BF00000140044B984202D1187D5D
:103B2000C0B27047007DC0B2704700BF00000140C6
:103B3000806820F030008005800D7047CB78012B25
:103B400009D013B1022B02D003E0012304E081234A
:103B500002E0C12300E041234A78012A01D143F069
:103B600004030A78012A01D143F002038A78012A6A
:103B700001D143F00803054A904203D103F0CF037B
:103B80000372704703F0CF030372704700000140D7
:103B900000238370C370012303704370704700BF1C
:103BA000012910D10F4B984206D190F8303043F0E4
:103BB000800380F83030704790F8303043F0800355
:103BC00080F830307047074B984205D190F830307C
:103BD000002380F83030704790F83030002380F8B0
:103BE000303070470000014010B510B1012809D0F5
:103BF00040E021F00301FE293ED94FF08043596097
:103C0000012010BD1E4B1B689C081E4AA2FB040429
:103C1000A40C890801FB04F4FE2C08D900200146FD
:103C2000FEF79AFE4FF080435C60012010BD5C08F7
:103C3000144AA2FB0404A40C04FB01F4FE2C08D9D2
:103C400000200221FEF788FE4FF080435C600120D7
:103C500010BD0C4CA4FB0324A40C04FB01F4FE2CAB
:103C60000CD900200121FEF777FE4FF080435C6005
:103C7000012010BD002010BD002010BD002010BD8F
:103C80004402001083DE1B4338B505460C46002075
:103C90000146FEF761FE4FF080431A6922F00302ED
:103CA0001A611A6915431D61012C03D11A7842F07B
:103CB00002021A7038BD00BF72B64FF08043AA22CC
:103CC0001A7255221A7262B6704700BF10B50146CB
:103CD0004FF08044206900F00300FFF785FF237850
:103CE00043F001032370FFF7E7FF10BD08B5012083
:103CF0004FF000410246FFF719F901204FF08041D3
:103D00000246FFF713F908BD08B528B101204FF0AE
:103D10000041FFF71BF908BD01204FF00041FFF7FC
:103D20001DF908BD08B528B101204FF08041FFF70B
:103D30000DF908BD01204FF08041FFF70FF908BDD4
:103D40002DE9F0419AB007468846038813B1412B0C
:103D50007DD081E002204FF480510122FFF7E6F888
:103D600002204FF48051FFF7F1F800F091F800289D
:103D70006FD03D480FF0D2FD0CF0CEFD06F0FCF800
:103D800006AE3046002107F07FF86C460AAD0FCD35
:103D90000FC495E8030084E8030096E80F0006F0DE
:103DA00011F9324C0CF0BAFB236801332360FFF7A2
:103DB00083FF2068C0F3004000F07AF8F2E700F0DB
:103DC00067F800B32A480CF035FAA8B110AE3046B7
:103DD000002107F059F86C4614AD0FCD0FC495E8DB
:103DE000030084E8030096E80F0006F0EBF8204893
:103DF000C8210CF011FA06E0012000F059F81C4827
:103E000064210CF009FA194A13680133136042F275
:103E10001072934203D817480CF00CFA78B1FFF7F0
:103E20004BFF154B187880F001001870FFF76CFFFE
:103E300000220E4B1A600F4864210CF0EDF90F4B75
:103E400018680CF0ADFB41233B80002300E0012308
:103E500033B1B8F1830FB2D100233B80032000E0DF
:103E600001201AB0BDE8F08114A801004C04001034
:103E7000580400105004001048040010B00D001049
:103E800008B5024800210CF069FB08BD8C00001049
:103E900008B502204FF480510022FFF747F80220B6
:103EA000FFF764F810F4805F14BF0020012008BD04
:103EB00010B5044602204FF480510122FFF736F876
:103EC0002CB102204FF48051FFF740F810BD0220C2
:103ED0004FF48051FFF742F810BD00BF38B50446DB
:103EE0000D4649B10C4B03EB8003DA789878012139
:103EF0009140FFF72BF808E0074B03EB8003DA78DB
:103F0000987801219140FFF729F804EB4404034B12
:103F10001C44A57038BD00BF4CA80100600400100F
:103F2000F8B500240B4D264610E004EB44039B003B
:103F3000EB5C4BB167003A1992002A4490680EF08E
:103F4000E5FE3B199B00EE540134E4B2032CECD99E
:103F5000F8BD00BF241100108C2303FB00F00023E8
:103F600006E000BF00BF00BF00BF00BF00BF0133BD
:103F70008342F6D3704700BF08B512B1FEF7E6FFE3
:103F800008BDFEF7EBFF08BD10B582B002AB03E938
:103F9000030002204FF480519DF80020FFF7ECFF52
:103FA00002204FF400619DF80120FFF7E5FF022099
:103FB0004FF400710122FFF7DFFF0520FFF7CCFF70
:103FC0009DF8024002204FF4807104F00102FFF7D7
:103FD000D3FF02208021C4F34002FFF7CDFF02206F
:103FE0004021C4F38002FFF7C7FF02202021C4F361
:103FF000C002FFF7C1FF02201021C4F30012FFF737
:10400000BBFF02200821C4F34012FFF7B5FF0220D6
:104010000421C4F38012FFF7AFFF02200146E2093A
:10402000FFF7AAFF0520FFF797FF02204FF400716A
:104030000022FFF7A1FFBDF80400FFF78DFF01206C
:1040400002B010BD39B1012303FA00F0064B1A7813
:10405000104318707047012303FA00F0024B1A78DE
:1040600022EA000018707047F810001070B582B096
:1040700002AB03E9030005209DF80010FFF7E2FF03
:1040800004209DF80110FFF7DDFF06200121FFF756
:10409000D9FF2F4E2F4D30782946002201F0EAF942
:1040A0009DF802400020C4F30011FFF7CBFF012070
:1040B000C4F34011FFF7C6FF0220C4F38011FFF7DD
:1040C000C1FF0320E109FFF7BDFF30782946002238
:1040D00001F0D0F906200021FFF7B4FF307829461F
:1040E000002201F0C7F906200121FFF7ABFF30786D
:1040F0002946002201F0BEF9002004F00101FFF77B
:10410000A1FF0120C4F34001FFF79CFF0220C4F38C
:104110008001FFF797FF0320C4F3C001FFF792FF70
:1041200030782946002201F0A5F906200021FFF78A
:1041300089FF30782946002201F09CF96420FFF7BE
:104140000BFFBDF80400FFF707FF012002B070BDB0
:1041500054110010F810001000B583B002AB03E951
:104160000300094BB3F90030FE2B05D102AB13E974
:104170000300FFF709FF04E002AB13E90300FFF7B8
:1041800075FF03B05DF804FB5411001000B583B057
:1041900000238DF800308DF8013002238DF80230B5
:1041A0004FF4CD63ADF8043002AB13E90300FFF721
:1041B000D3FF03B05DF804FB00B583B000238DF896
:1041C00000308DF8013040EA410141F004018DF8E2
:1041D00002102823ADF8043002AB13E90300FFF707
:1041E000BBFF03B05DF804FB00B583B000238DF87E
:1041F00000308DF80130800040F0080040EA4101B5
:104200000A438DF802202823ADF8043002AB13E9ED
:104210000300FFF7A1FF03B05DF804FB00B583B016
:1042200000238DF800308DF80130C00040F0100000
:1042300040EA81018DF802102823ADF8043002AB6A
:1042400013E90300FFF788FF03B05DF804FB00BF2C
:1042500000B585B00190C0B2A0F10A03DBB2012B1A
:1042600001D9012803D101238DF8043002E0002395
:104270008DF8043000238DF808308DF809309DF852
:104280000530082B01D1302300E020239DF80620C3
:10429000022A01D1082100E000219DF804200B43EF
:1042A00043EA82038DF80A302823ADF80C3004ABC2
:1042B00013E90300FFF750FF05B05DF804FB00BFF2
:1042C00000B583B0FFF762FF00200121FFF774FF04
:1042D000104B1868FFF7BCFF012000210A46FFF7CA
:1042E00083FFFFF71DFE0C4A0023138053808DF8D7
:1042F00000308DF8013001238DF802304FF4CD638A
:10430000ADF8043002AB13E90300FFF725FF03B05B
:104310005DF804FB58110010F410001008B50220DD
:104320004FF480710122FEF701FE0220802101225C
:10433000FEF7FCFD022040210122FEF7F7FD0220DE
:1043400020210122FEF7F2FD022010210122FEF7BA
:10435000EDFD022008210122FEF7E8FD02200421E4
:104360000122FEF7E3FD022001460122FEF7DEFDF9
:1043700002204FF480510122FEF7D8FD02204FF4B5
:1043800000610122FEF7D2FD02204FF400710122EC
:10439000FEF7CCFDFE22094B1A80094B08225A7009
:1043A00002229A700B221A70064800210CF0D6F8EF
:1043B0000A20FFF7D1FDFFF783FF08BD541100105D
:1043C00058110010A000001000B583B000238DF834
:1043D00000308DF8013000F00700C30043F04003C7
:1043E00001F007010B438DF802302823ADF80430AB
:1043F00002AB13E90300FFF7AFFE03B05DF804FB67
:1044000000B585B0019000238DF808308DF8093093
:1044100083B2020C03EB821363F07F038DF80A3042
:104420002823ADF80C30054B186004AB13E90300EA
:10443000FFF792FE05B05DF804FB00BFFC10001012
:1044400000B583B001238DF8003000238DF80130D2
:104450008DF802002823ADF8043002AB13E9030005
:10446000FFF77AFE03B05DF804FB00BF2DE9F043CF
:1044700083B00023ADF80430ADF80630214B1B8823
:104480001BB9204B5B88002B38D01F4B1A7882F069
:1044900001021A701D4E1B4F9846DFF8749029E0F8
:1044A0000198FFF7ADFF0023ADF804301AE037F8AC
:1044B0001530234113F0010F0DD098F8003033B1BF
:1044C00004EB051319F80300FFF7BAFF07E02020FB
:1044D000FFF7B6FF03E000200121FFF79FFE013444
:1044E000ADF80440BDF8044033789C42DFD3013579
:1044F000ADF80650BDF80650002DD1D003B0BDE890
:10450000F08300BFF410001000110010B400001080
:104510000411001070B505460E4600240CE0284634
:104520002146FFF751FF034648B1305DFFF788FF92
:10453000034620B10134E4B2072CF0D90123184618
:1045400070BD00BF0EB42DE9F0439CB00190FFF7A1
:1045500057FF0346002877D024AB029303A86421B9
:10456000239A0FF0ADF9C5B200243A4EDFF8EC8083
:10457000012763E020461CAB234413F8643C232B43
:104580002BD004D80A2B09D00D2B10D032E07E2B73
:1045900023D0802B2AD03C2B2CD10FE0BDF8063045
:1045A0000133ADF806300198FFF72AFF44E00023FD
:1045B000ADF804300198FFF723FF3DE003AB18444A
:1045C00001A900F005F981460444E4B20198FFF71F
:1045D00017FFB9F1000F0DD02EE01CAB184410F8F6
:1045E000633C3E2B06D10134E4B225E01CAB1844F9
:1045F00000F8647CA1461CAB234413F8640CFFF75D
:104600001FFFBDF8042033789A420CD2BDF8061083
:104610007078814207D21CA8814419F8640C02EB1F
:10462000011108F80100013292B2ADF80420591EC0
:104630008A4201DDADF804100134E4B2AC4299D3F2
:10464000019B054A1360012318461CB0BDE8F043E6
:1046500003B07047B4000010FC10001004110010EB
:104660002DE9F04FBBB08146404B1B6839930024C5
:104670003F4EDFF8088173E0254604EB44039B00BE
:10468000F35C002B6ED0630023449B0033449F797E
:1046900098F800205B88D11A8F4200DDCFB2013735
:1046A000FFB26B002B449B0006EB030ADAF808000C
:1046B00010F0F2F99AF8063098421AD8B9F1000FC2
:1046C0004CD04FEA450A0AEB050B4FEA8B0BB3447B
:1046D00002A83946274ADBF808300FF0BDF8DBF8AE
:1046E0000200244902AAFFF72DFF00238BF80730B0
:1046F00034E04FEA450AAA444FEA8A0AB244DAF89B
:104700000830009307A8C8211B4A0FF0A5F89AF8B3
:104710000730DFF860B002A839465A4607AF3B447D
:104720000FF09AF8DAF80200594602AAFFF70AFFDA
:104730003998FFF765FE9AF807700137FFB28AF8DB
:104740000770DAF8080010F0A7F90430874205D99D
:1047500005EB4505AD0035440023EB710134E4B2AF
:10476000032C89D93BB0BDE8F08F00BFFC100010CE
:1047700024110010B4A101006CA80100B4000010C5
:1047800038B504460D4611480BF02CFD18B10F4802
:1047900032210BF017FD23887BB1B32B04D00EE040
:1047A000B3232380002300E0012363B1882D04D1CB
:1047B0000020FFF755FFFFF759FE832DF0D10023AE
:1047C0002380032038BD012038BD00BF78040010CD
:1047D0002DE9F84F0D46471C3C464A49227802F124
:1047E0008003CB5C03F0200303F0FF060BB1013420
:1047F000F4E7232A02D07E2A65D07FE000234249D5
:10480000984603EB430292008A5CEAB103EB430251
:1048100092000A4450882A88904210D103EB430248
:1048200092000A4490886A88904208D103EB4303BF
:104830009B00354A134498680EF068FA04E001338F
:10484000DBB2042BDCD159E008EB48084FEA8808BA
:10485000DFF8B4B008EB0B094FF0000A84F800A0B1
:10486000384610F055F889F80600012308F80B3097
:1048700089F807A0A04618F8013F002B3ED0232B53
:10488000F9D198F801303E2BF5D12B68C9F80230E8
:10489000002388F800300134204610F0FDF80EF0B7
:1048A000D3F9C9F80800214610F0D6F899F8062087
:1048B0002B8813442B800120FFF7D2FEC7EB08069C
:1048C0000236F6B21AE000220127104914F8013F1F
:1048D0008BB17E2B02D163783E2B0ED06B8828885B
:1048E000104407FA00F031F81360304321F8130048
:1048F0000132D2B2EAE7012600E001263046BDE8E7
:10490000F88F00BF00E7010024110010F410001020
:1049100010B504460F480BF04DFE0F4B1C800F499D
:1049200000220A70204600F0A5FD88B10C4B04223D
:104930005A7002229A700B221A700A4800210BF05A
:104940000DFE0A20FFF708FBFFF7BAFC012010BD9F
:10495000002010BD801A060054110010F81000103D
:1049600058110010A000001008B5054B1880FE2853
:1049700003D1FFF7D3FC012008BDFFF7C9FF08BD35
:104980005411001000B583B01B238DF80030442370
:104990008DF801304C238DF8023000F08BFB684617
:1049A0000321002200F016F903B05DF804FB00BFFC
:1049B00000B583B01B238DF8003044238DF80130FF
:1049C00045238DF8023068460321002200F002F9E9
:1049D00003B05DF804FB00BF00B583B044238DF83D
:1049E000003040238DF801308DF802006846032125
:1049F000012200F0EFF803B05DF804FB00B587B0CA
:104A0000019000911B238DF80C3052238DF80D304E
:104A100053238DF80E308DF80F00000C8DF8100028
:104A20008DF81110090C8DF8121003A8072100222F
:104A300000F0D0F807B05DF804FB00BF00B587B008
:104A4000019000911B238DF80C3047238DF80D3019
:104A500044238DF80E308DF80F00000C8DF81000F7
:104A60008DF81110090C8DF8121003A807210022EF
:104A700000F0B0F807B05DF804FB00BF704700BF5E
:104A8000114B1B886BB1114A1268114909880B44FC
:104A90009A4202D300220D4B1A600C4B1A68013265
:104AA0001A600C4B1B886BB10B4A12680B490988C2
:104AB0000B449A4202D30022074B1A60064B1A6835
:104AC00001321A60704700BF6611001060110010BB
:104AD00070110010641100106C11001068110010AA
:104AE000092801D840F0B000024B18700122024B97
:104AF0001A707047A00400107C11001010B50A480D
:104B00000BF058FD0124094B1C700020FFF7E8FF53
:104B100000F08CFA064B1C701420FFF75DFFFFF7C6
:104B200047FFFFF7ABFF10BDA08601007C1100100E
:104B30007211001070B504460D461B480BF052FB75
:104B400018B1194814210BF03DFB23881D2B0DD003
:104B5000202B18D0EBB90026144B1E701448C82126
:104B60000BF05AFB1D232380334600E00123A3B141
:104B70000F480BF05FFB90B1FFF7C0FF07E0202369
:104B80002380002300E001235BB1FFF779FF832D31
:104B9000F5D100232380032070BD012070BD0120CA
:104BA00070BD012070BD00BF900400107211001094
:104BB0008804001010B400231A4604E0C45C2244A8
:104BC000D2B20133DBB28B42F8D310465DF8044B0E
:104BD000704700BF2DE9F04FADB0834603910192BD
:104BE000644C01E00BF09AFC2378002BFAD0A5E08E
:104BF0006FF03C0A03990AFB091A059AD20802923F
:104C00000135EDB2042D00F294804B46BAF13D0F10
:104C1000B4BF54463D24E6B2019919B911228DF86A
:104C20001C2002E012228DF81C208DF81D60C3EBC1
:104C3000031203EB8201E4B207AF0DF11E005944E9
:104C400022460DF0FDFF04F10208B11C3846C9B23E
:104C5000FFF7B0FF2CAA904408F8940C464E30465B
:104C60004CF25031FEF7E6F9444B1B785B08219378
:104C70002297033423940523289300222592269219
:104C8000304621A9FEF77CFA064668B93C480EF08A
:104C900045FE3C48C8210BF0BFFA3A4C20460BF0C9
:104CA000C9FA0028FAD0ABE73648029B591C0BF032
:104CB000B3FA344C20460BF0BDFA0028FAD02F4B43
:104CC0001B785B08219300222292239205232893CC
:104CD00020AB259301232693274821A9FEF750FAFC
:104CE000064680B928480EF019FE25480EF016FE3B
:104CF0002448C8210BF090FA224C20460BF09AFA77
:104D00000028FAD07CE79DF88030062B11D0152BB7
:104D100009D01C48C8210BF07FFA1A4C20460BF032
:104D200089FA0028FAD019489DF880100EF0F6FD97
:104D300066E709F101095FFA89F90EE04FF0000911
:104D40004D464E46124B0399A3FB01131B090493D6
:104D5000104B039AA3FB02120592049A4A45BFF432
:104D600047AF05480C4B1968FEF764F930462DB083
:104D7000BDE8F08F7211001000C00540A0040010C3
:104D8000B4A8010074110010CCA80100E0A8010033
:104D90003FC52543CDCCCCCC440F00104C23037031
:104DA0000023437001228270C2700222027143719B
:104DB00004228271C3717047072923D8DFE801F00C
:104DC000040D101316191C1F4C2A03D0432A01D0BE
:104DD000522A19D102700120704742700120704799
:104DE000827001207047C27001207047027101205B
:104DF0007047427101207047827101207047C27173
:104E00000120704700207047002070470EB4F0B5B5
:104E10009EB0019023AB53F8042B03930DF11500C2
:104E200064210EF04DFD0646C7B20DF115040D25A7
:104E3000204629460FF0E1FD044638B10FF02CFE64
:104E400002462046611C0DF0FBFEF1E70DF1150353
:104E50000A247C25184621460FF0CFFD034608B1F1
:104E60000570F7E71B238DF810305A238DF81130A9
:104E70000E4B1B788DF81230BDF804308DF81330CE
:104E8000BDF806308DF81430F6B205361EAB1E4460
:104E9000002206F8682CB91D04A8C9B2FFF79AFED3
:104EA0001EB0BDE8F04003B0704700BF881100108D
:104EB00000B583B01B238DF800305A238DF80130E4
:104EC000013806283CD8DFE800F0040C0C171F2737
:104ED0002F0046238DF802304B788DF803300421E3
:104EE00029E05A238DF802308B788DF80330CB7887
:104EF0008DF8043005211EE059238DF802300B791E
:104F00008DF80330042116E057238DF802304B79D9
:104F10008DF8033004210EE056238DF802308B7992
:104F20008DF80330042106E042238DF80230CB795E
:104F30008DF80330042168460022FFF74BFE00E0A5
:104F4000002003B05DF804FB38B504460378344A0A
:104F50001278934202D1334A12780AB1324A13705E
:104F600062782F4B5B789A4202D12E4B1B782BB183
:104F700001202146FFF79CFF054600E00125A278AD
:104F8000274B9B789A4207D1E278254BDB789A42EF
:104F900002D1244B1B782BB102202146FFF788FF5A
:104FA0002843C5B222791E4B1B799A4202D11D4B70
:104FB0001B782BB104202146FFF77AFF2843C5B2A6
:104FC0006279174B5B799A4202D1164B1B782BB151
:104FD00005202146FFF76CFF2843C5B2A279104B8C
:104FE0009B799A4202D10F4B1B782BB106202146A8
:104FF000FFF75EFF2843C5B2E279094BDB799A429D
:1050000002D1084B1B782BB107202146FFF750FF38
:105010002843C5B2024B2068616803C3284638BDE7
:10502000801100107C1100108811001008B50BF0E1
:105030000FF9034B18700BF00BF9024B187008BDF9
:10504000901100108E11001000B583B01B238DF855
:10505000003041238DF8013052238DF802308DF855
:105060000300684604210022FFF7B4FD03B05DF899
:1050700004FB00BF08B50020FFF7E6FF08BD00BF36
:1050800010B582B00446FFF7F5FF1B238DF8003002
:1050900041238DF801304C238DF802308DF8034008
:1050A00000228DF8042068460521FFF793FD02B029
:1050B00010BD00BF08B50020FFF7E2FF08BD00BF2C
:1050C00008B5074B1B78FF2B08D020B105480021FD
:1050D0000BF044FA08BD03480BF05AFA08BD00BFB4
:1050E000CC000010D000001000B58DB0144B1B7820
:1050F000FF2B22D0FE2B04D102200146FDF72EFF0C
:105100001BE000228DF8032001930DF103030293AD
:10511000012303930523089305920692094801A9E8
:10512000FEF72EF830B908480EF0F8FB0022074BC6
:105130001A7002E00122054B1A700DB05DF804FBF5
:10514000CC00001000C00540F4A80100A10400102C
:1051500010B5044600F086F9092C03D83834094B01
:105160001C7002E06408074B1C700020064940F2E6
:1051700002220CF0A7FE0BF06BF8044B1870FFF73F
:10518000B3FF10BDCC000010A1040010911100105D
:10519000034B1B78984201D108787047FF20704775
:1051A00091110010F8B5044602200146FDF7CEFE2D
:1051B00002204021FDF7CAFE02208021FDF7C6FE35
:1051C00002204FF48071FDF7C1FE202C08D0402C46
:1051D0000BD0102C0ED102204021FDF7BFFE09E0BC
:1051E00002208021FDF7BAFE04E002204FF4807116
:1051F000FDF7B4FE002425460226012732E0032CE9
:105200002ED8DFE804F0020D18233046FDF7AEFE7D
:1052100010F0040F24D007FA04F31D43EDB21FE091
:105220003046FDF7A3FE10F0080F19D007FA04F37B
:105230001D43EDB214E03046FDF798FE10F0100F5C
:105240000ED007FA04F31D43EDB209E03046FDF736
:105250008DFE10F0200F03D007FA04F31D43EDB2CA
:105260000134E4B2032CCAD92846F8BD2DE9F04137
:105270008CB010250024284EDFF8AC80274F44E086
:105280003378FE2B05D12846FFF78CFF8DF80300FD
:105290001FE0EA438DF8022001930DF1020302930F
:1052A00001230393052208920DF103020592069350
:1052B000404601A90022FDF763FF50B9174B1B7848
:1052C00013B117480EF02AFB0022144B1A70FF206E
:1052D0001EE001233B70002308E09DF80320D24329
:1052E0001A4112F0010F03D10133DBB2032BF4D9C1
:1052F000032B04D96D00EDB20134E4B205E003EBF9
:1053000043031C44074B185D02E0022CB8D9FF2070
:105310000CB0BDE8F08100BFCC000010A10400106B
:10532000F4A8010068A9010000C0054070B504465A
:105330000D461D480AF056FF18B11B480A210AF015
:1053400041FF238813B1742B22D027E016480A218D
:105350000AF038FFFFF78AFF144B18701AE0FFF7C6
:1053600085FF124B1B7898420ED0104B1870FF2807
:105370000AD01E4600200E4B197832460AF088FFEC
:105380000C4831780EF0CAFA74232380002300E021
:1053900001233BB1832DE2D1FFF7A6FE002323803A
:1053A000032070BD012070BDA4040010CD000010CA
:1053B0009111001010A9010008B5FE22154B1A70BA
:1053C000022004210022FDF7B1FD02200821002265
:1053D000FDF7ACFD022010210022FDF7A7FD022001
:1053E00020210022FDF7A2FD022040210122FDF72D
:1053F0009DFD022080210122FDF798FD02204FF43F
:1054000080710122FDF792FD022001460122FDF785
:105410008DFD08BDCC00001010B582B004460C4BC9
:1054200000930C480C4901220C4B0CF081FB00301E
:1054300018BF01200A4AD07238B1FE2C02D1FFF702
:10544000BBFF02E02046FFF783FE02B010BD00BFA5
:10545000C4E201007CA1010030A9010044A90100BF
:105460009411001008B502480BF0A4F808BD00BF65
:10547000801A060000B58DB0092803D83830019095
:10548000002201E0400801900B781A430A70029153
:1054900001230393052308930022059206920348F3
:1054A00001A9FDF76DFE0DB05DF804FB00C00540DD
:1054B0002DE9F00FD0B00F23EC460FE051F8042B8C
:1054C0004FEA322404F0FF244FEA326202F0FF1266
:1054D0002243CCF80020013B0CF1040C002BEDDA48
:1054E0003F236D4602AC08A90DAA0FE017680E68AD
:1054F0007740266877402E687E404FEAF6764CF873
:10550000046B013B0435043404310432002BEDDA22
:105510008468C5680269416982EA010A0AEA050AE3
:105520008AEA010A0AEBF46A83699A44009B9A4466
:10553000EC4B9A444FEAB50882EA080727405740E7
:1055400007EBFA670F44019E3E44F7184FEAB4098F
:1055500088EA090C0AEA0C0C88EA0C0C0CEBF76CD4
:105560009444029E664406EB030C4FEABA0A89EAA9
:105570000A063E4089EA060606EBFC66B044039E36
:10558000464406EB03084FEAB7078AEA07060CEA27
:1055900006068AEA060606EBF866B144049E4E4407
:1055A00006EB03094FEABC0C87EA0C0608EA06067C
:1055B0007E4006EBF966B244059E564406EB030AAC
:1055C0004FEAB8088CEA080609EA06068CEA0606DD
:1055D00006EBFA663744069E3E44F7184FEAB909CF
:1055E00088EA09060AEA060688EA060606EBF7666E
:1055F000B444079E664406EB030C4FEABA0A89EAF4
:105600000A063E4089EA060606EBFC66B044089EA0
:10561000464406EB03084FEAB7078AEA07060CEA96
:1056200006068AEA060606EBF866B144099E4E4471
:1056300006EB03094FEABC0C87EA0C0608EA0606EB
:105640007E4006EBF966B2440A9E564406EB030A16
:105650004FEAB8088CEA080609EA06068CEA06064C
:1056600006EBFA6637440B9E3E44F7184FEAB90939
:1056700088EA09060AEA060688EA060606EBF766DD
:10568000B4440C9E664406EB030C4FEABA0A89EA5E
:105690000A063E4089EA060606EBFC66B0440D9E0B
:1056A000464406EB03084FEAB7078AEA07060CEA06
:1056B00006068AEA060606EBF866B1440E9E4E44DC
:1056C00006EB03094FEABC0C87EA0C0608EA06065B
:1056D0007E4006EBF966B2440F9E564406EB030A81
:1056E0004FEAB8088CEA080609EA06068CEA0606BC
:1056F00006EBFA663744109E3E44F7184FEAB909A4
:1057000088EA09060AEA060688EA060606EBF7664C
:10571000B444119E664406EB030C4FEABA0A89EAC8
:105720000A063E4089EA060606EBFC66B044129E75
:10573000464406EB03084FEAB7078AEA07060CEA75
:1057400006068AEA060606EBF866B144139E4E4446
:1057500006EB03094FEABC0C88EA0C037B4003EB21
:10576000F9639A44149E56445F4B1E444FEAB808AE
:1057700089EA080A8CEA0A0A0AEBF66ABA44159F13
:10578000574407EB030A4FEAB90986EA090788EA92
:10579000070707EBFA67BC44169F674407EB030C47
:1057A0004FEAB6068AEA060789EA070707EBFC67AD
:1057B000B844179F474407EB03084FEABA0A8CEA3C
:1057C0000A07774007EBF867B944189F4F4407EB87
:1057D00003094FEABC0C88EA0C078AEA070707EBC3
:1057E000F9673E44199F37441F444FEAB80889EAD5
:1057F00008068CEA060606EBF766B2441A9E564483
:1058000006EB030A4FEAB90987EA090688EA0606A1
:1058100006EBFA66B4441B9E664406EB030C4FEAA3
:10582000B7078AEA070689EA060606EBFC66B04473
:105830001C9E464406EB03084FEABA0A8CEA0A06A5
:105840007E4006EBF866B1441D9E4E4406EB03090C
:105850004FEABC0C88EA0C068AEA060606EBF966F3
:1058600037441E9E3E44F7184FEAB80889EA0806F6
:105870008CEA060606EBF766B2441F9E564406EB1A
:10588000030A4FEAB90987EA090688EA060606EB21
:10589000FA66B444209E664406EB030C4FEAB70751
:1058A0008AEA070689EA060606EBFC66B044219EF2
:1058B000464406EB03084FEABA0A8CEA0A067E4021
:1058C00006EBF866B144229E4E4406EB03094FEA0C
:1058D000BC0C88EA0C068AEA060606EBF966374431
:1058E00004E000BF9979825AA1EBD96E239E3E4411
:1058F000F7184FEAB80889EA08068CEA060606EBAC
:10590000F766B244249E564406EB030A4FEAB909EF
:1059100087EA090688EA060606EBFA66B444259E7D
:10592000664406EB030C4FEAB7078AEA070689EAE2
:10593000060606EBFC66B044269E464406EB0308CA
:105940004FEABA0A8CEA0A067E4006EBF866B144D2
:10595000279E4E4406EB03094FEABC0C4AEA0C06AC
:1059600008EA06060AEA0C03334303EBF9631F4413
:10597000289E3E44ED4BF7184FEAB8084CEA080B56
:1059800009EA0B0B0CEA08064BEA060606EBF7667B
:10599000B244299E564406EB030A4FEAB90948EA85
:1059A000090B07EA0B0B08EA09064BEA060606EBA9
:1059B000FA66B4442A9E664406EB030C4FEAB70726
:1059C00049EA070B0AEA0B0B09EA07064BEA060647
:1059D00006EBFC66B0442B9E464406EB03084FEAF8
:1059E000BA0A47EA0A0B0CEA0B0B07EA0A064BEA6B
:1059F000060606EBF866B1442C9E4E4406EB0309FE
:105A00004FEABC0C4AEA0C0B08EA0B0B0AEA0C063C
:105A10004BEA060606EBF96637442D9E3E44F7181E
:105A20004FEAB8084CEA080B09EA0B0B0CEA080627
:105A30004BEA060606EBF766B2442E9E564406EB8A
:105A4000030A4FEAB90948EA090B07EA0B0B08EA0F
:105A500009064BEA060606EBFA66B4442F9E664436
:105A600006EB030C4FEAB70749EA070B0AEA0B0BF0
:105A700009EA07064BEA060606EBFC66B044309ED0
:105A8000464406EB03084FEABA0A47EA0A0B0CEA57
:105A90000B0B07EA0A064BEA060606EBF866B1446A
:105AA000319E4E4406EB03094FEABC0C4AEA0C0B4C
:105AB00008EA0B0B0AEA0C064BEA060606EBF96647
:105AC0003744329E3E44F7184FEAB8084CEA080BB8
:105AD00009EA0B0B0CEA08064BEA060606EBF7662A
